:100000000C94B0000C94D8000C94D8000C944120AF
:100010000C94D8000C94D8000C94D8000C94D80000
:100020000C94D8000C94D8000C94D8000C94D800F0
:100030000C94D8000C94D8000C94D8000C94D800E0
:100040000C949F1F0C94D8000C940F200C94E91F63
:100050000C94D8000C94D8000C94D8000C94D800C0
:100060000C94D8000C94D800300030005356532024
:10007000495220434F4D4D414E443D007C3C3E5E35
:100080002B3D3F2F5B5D3B2C2A225C005356535F78
:1000900046575F005356532043555252454E542005
:1000A000494E5055543D00535653204E4557204914
:1000B0004E5055543D0053565320544F54414C20FC
:1000C000494E505554533D0044656C657465642039
:1000D0000044656C6179286D696C6C697365636F48
:1000E0006E6473293D3000416464726573733D0032
:1000F000436F6D6D616E643D0000000000230026BB
:1001000000290000000009000302000004050800A7
:1001100000000000000000000000000000002400BB
:1001200027002A0000000000250028002B000404FE
:10013000040404040404020202020202030303038F
:10014000030302020301020408102040800102049C
:100150000810200102040810204080403D21EB2DB2
:1001600011241FBECFEFD8E0DEBFCDBF27E0A6E44D
:10017000B3E001C01D92AA39B207E1F713E0A0E095
:10018000B1E0E4EFF7E602C005900D92A634B107A6
:10019000D9F710E0CFEAD0E004C02197FE010E9419
:1001A0009D31CE3AD107C9F70E94DC210C94ED3382
:1001B0000C940000CF93DF93FC0182819381909394
:1001C0005D0780935C0784819581A681B7818093C8
:1001D0005E0790935F07A0936007B09361078085E7
:1001E0009185A285B3858093620790936307A0935E
:1001F0006407B0936507DF011C96CF014996C6E6F8
:10020000D7E02D912993A817B907D9F7818D928D41
:1002100090937407809373078AE597E0DF91CF91FD
:100220000895843081F028F48230E9F08330F9F0C9
:100230000895883071F0893091F08530B9F480915B
:1002400080008F7D03C0809180008F778093800035
:1002500008958091B0008F778093B00008958091C9
:10026000B0008F7DF9CF84B58F7784BD089584B5B4
:100270008F7DFBCFCF93DF93282F30E0F901ED5F27
:10028000FE4F8491F901EB5BFE4FD491F901E25DE1
:10029000FE4FC491CC23A1F081110E941101EC2FDB
:1002A000F0E0EE0FFF1FE750FF4FA591B491EC91E6
:1002B000ED2381E090E009F480E0DF91CF91089593
:1002C00080E090E0FACF1F93CF93DF93282F30E0A8
:1002D000F901ED5FFE4F8491F901EB5BFE4FD49184
:1002E000F901E25DFE4FC491CC23A9F0162F8111D4
:1002F0000E941101EC2FF0E0EE0FFF1FEC5DFE4FAE
:10030000A591B4918FB7F894EC91111108C0D095D4
:10031000DE23DC938FBFDF91CF911F910895DE2BF9
:10032000F8CFCF93DF9390E0FC01EB5BFE4F24917D
:10033000825D9E4FFC0184918823C9F090E0880F74
:10034000991FFC01E65EFE4FA591B491FC01EC5DA6
:10035000FE4FC591D49161110DC09FB7F8948C9157
:10036000209582238C938881282328839FBFDF9147
:10037000CF910895623051F49FB7F8943C91822F49
:10038000809583238C93E8812E2BEFCF8FB7F89441
:10039000EC912E2B2C938FBFEACF880F991F880FDB
:1003A000991F05970197F1F708953FB7F894809149
:1003B0004B0490914C04A0914D04B0914E0426B58D
:1003C000A89B05C02F3F19F00196A11DB11D3FBF8D
:1003D000BA2FA92F982F8827BC01CD01620F711D5C
:1003E000811D911D42E0660F771F881F991F4A9556
:1003F000D1F708958F929F92AF92BF92CF92DF92E2
:10040000EF92FF926B017C010E94D5014B015C01D0
:10041000C114D104E104F104B9F00E94D5016819B6
:1004200079098A099B09683E73408105910580F32B
:1004300021E0C21AD108E108F10888EE880E83E0B5
:10044000981EA11CB11CE4CFFF90EF90DF90CF90DD
:10045000BF90AF909F908F9008952FB7F8946091C0
:100460004704709148048091490490914A042FBF39
:1004700008950F931F93CF93DF93EC010E942D02F9
:10048000688779878A879B87E881F9810284F38569
:10049000E02DCE01099597FF15C00E942D02088519
:1004A00019852A853B85601B710B820B930B0C8190
:1004B0001D812E813F81601771078207930720F30A
:1004C0008FEF9FEFDF91CF911F910F910895EF92E2
:1004D000FF920F931F93CF93DF938C017B01D0E0AA
:1004E000C0E0F701EC0FFD1F6491662361F0D801B5
:1004F000ED91FC910190F081E02DC8010995892BC7
:1005000011F02196EECFCE01DF91CF911F910F9187
:10051000FF90EF900895AF92BF92CF92DF92EF924B
:10052000FF920F931F93CF93DF936C017B018B019D
:10053000040F151FEB015E01AE18BF08C017D107ED
:1005400059F06991D601ED91FC910190F081E02D77
:10055000C6010995892B79F7C501DF91CF911F91CC
:100560000F91FF90EF90DF90CF90BF90AF900895E4
:10057000FC01538D448D252F30E0842F90E0821BA9
:10058000930B541710F0CF96089501970895FC012E
:10059000918D828D981761F0A28DAE0FBF2FB11D86
:1005A0005D968C91928D9F5F9F73928F90E00895DE
:1005B0008FEF9FEF0895FC01918D828D981731F098
:1005C000828DE80FF11D858D90E008958FEF9FEFEC
:1005D0000895FC01918D228D892F90E0805C9F4FC2
:1005E000821B91098F739927089582E796E00E94F4
:1005F000E90221E0892B09F420E0822F089580E0B0
:1006000090E0892B29F00E94F50281110C940000E2
:100610000895FC01A48DA80FB92FB11DA35ABF4F97
:100620002C91848D90E001968F739927848FA689F1
:10063000B7892C93A089B1898C91837080648C9345
:10064000938D848D981306C00288F389E02D8081F4
:100650008F7D80830895EF92FF920F931F93CF9326
:10066000DF93EC0181E0888F9B8D8C8D98131AC0ED
:10067000E889F989808185FF15C09FB7F894EE89D4
:10068000FF896083E889F989808183708064808331
:100690009FBF81E090E0DF91CF911F910F91FF907C
:1006A000EF900895F62E0B8D10E00F5F1F4F0F7324
:1006B0001127E02E8C8D8E110CC00FB607FCFACFDF
:1006C000E889F989808185FFF5CFCE010E94090371
:1006D000F1CFEB8DEC0FFD2FF11DE35AFF4FF082B0
:1006E0009FB7F8940B8FEA89FB8980818062CFCF16
:1006F000CF93DF93EC01888D8823B9F0AA89BB8959
:10070000E889F9898C9185FD03C0808186FD0DC043
:100710000FB607FCF7CF8C9185FFF2CF808185FF64
:10072000EDCFCE010E940903E9CFDF91CF9108956B
:100730008FB7F89480919C038FBF089561E0FC010E
:1007400084810E94630180919B03811110929B031D
:1007500008958EBD00000DB407FEFDCF8EB508953F
:100760008FEF0C94A9030F931F93CF93DF93EC01AA
:100770000E942D028B010E94B0038F3F69F00E94FE
:100780002D02601B710B6C177D07A8F380E0DF91D1
:10079000CF911F910F91089581E0F9CF8CBD9DBD40
:1007A0000895CF93DF93EC0180919B03811109C0E1
:1007B00081E080939B0380910F07909110070E9426
:1007C000CE0360E08C81DF91CF910C9463018F9216
:1007D0009F92AF92BF92FF920F931F93CF93DF939D
:1007E000EC01F62E49015A018E81882389F08F8110
:1007F00098859C012F5F3F4F38872F83823092402E
:1008000018F40E94B003F3CFCE010E949E031E8213
:10081000CE010E94D1038CE291E00E94B3038F2DA0
:1008200080640E94A90308E110E0D501C401002EF4
:1008300004C0B695A795979587950A94D2F70E941C
:10084000A90308501109083F8FEF180771F785E9D0
:10085000FF2021F028E087E8F2128FEF0E94A90321
:1008600010E00E94B0038A8787FF04C01F3F11F089
:100870001F5FF7CFDF91CF911F910F91FF90BF9036
:10088000AF909F908F900895AF92BF92CF92DF92DA
:10089000EF92FF920F931F93CF93DF93EC016901C7
:1008A000C801820F931F8130924050F58E818823BA
:1008B00079F088819981AA81BB8184179507A60761
:1008C000B70731F48F819885C816D90608F042C061
:1008D000488359836A837B838B85833039F089E031
:1008E000440F551F661F771F8A95D1F79A01AB01F8
:1008F00061E1CE010E94E703882389F083E08D83C4
:10090000CE010E949E0380E0DF91CF911F910F9155
:10091000FF90EF90DF90CF90BF90AF9008950E942E
:100920002D025B010E94B0038A878F3F69F40E9409
:100930002D026A197B096D327140A0F38FE08D831F
:10094000CE010E949E03DCCF8E3F89F418861F8261
:1009500081E08E838F8198858C159D0550F40E94CF
:10096000B0038F819885019698878F83F3CF8DE0B0
:10097000E6CF6701E00EF11E0E94B003F6018193FD
:100980006F01EE15FF05C1F78F819885080F191FBC
:1009900018870F838985882319F001151240A0F06C
:1009A0008E81882389F08F8198859C012F5F3F4F2E
:1009B00038872F838230924018F40E94B003F3CF1F
:1009C000CE010E949E031E8281E09ECFCF92DF92D5
:1009D000EF92FF920F93CF93DF93EC01690182E1D5
:1009E000411551056105710599F08B85833039F00A
:1009F00089E0440F551F661F771F8A95D1F79A012A
:100A0000AB0168E1CE010E94E703882319F084E07E
:100A10008D832DC08EEF0E94A90376018EEFD81A28
:100A2000F70181917F010E94A903EC14FD04C1F735
:100A30008FEF0E94A9038FEF0E94A9030E94B003C9
:100A40008A878F71853071F4011116C0CE010E9422
:100A50009E0381E0DF91CF910F91FF90EF90DF90A7
:100A6000CF90089581E18D83CE010E949E03CE0137
:100A70000E949E0380E0EECF88E592E00E94B303DF
:100A8000811102C085E1C4CF20E030E0A9016DE012
:100A9000CE010E94E703882311F084E1B9CF0E94C0
:100AA000B0038111FACFD2CF0F9340919E035091A2
:100AB0009F036091A0037091A10341155105610549
:100AC000710599F0082F22E734E08091700490912D
:100AD00071040E94E604882349F010929E0310924C
:100AE0009F031092A0031092A10381E00F9108953B
:100AF0000F93CF93C82F80919D03811105C0C1E052
:100B00008C2FCF910F9108954091000150910101D8
:100B100060910201709103010C2F22E734E0809173
:100B20007004909171040E94E604811102C0C0E03B
:100B3000E7CFCC2321F381E00E9454058823B9F349
:100B400010929D03DDCF8F929F92AF92BF92EF9252
:100B5000FF920F931F93CF934B015C01C42F8091A1
:100B6000000190910101A0910201B091030188154B
:100B70009905AA05BB0551F181E00E947805811114
:100B80000BC080E0CF911F910F91FF90EF90BF902D
:100B9000AF909F908F90089582E7E82E84E0F82E22
:100BA00000E012E030E020E0B501A4018091700483
:100BB000909171040E944404882319F380920001EB
:100BC00090920101A0920201B092030140919D0315
:100BD0004C2B40939D0381E0D5CFCF93DF93EC0165
:100BE0006E857F858889998941E00E94A3058823C5
:100BF00051F08A8920E2829FC00111248E589B4FB8
:100C0000DF91CF91089590E080E0FACF8F929F928C
:100C1000AF92BF92CF92DF92EF92FF92CF9321E1FA
:100C200037E03093710420937004882309F46DC079
:100C300040E060E070E0CB010E94A30581110BC091
:100C400080E0CF91FF90EF90DF90CF90BF90AF907A
:100C50009F908F900895809130068F7789F78091CB
:100C60003C0690913D06A0913E06B0913F06843629
:100C70009105A105B10520F3C0903806D090390642
:100C8000E0903A06F0903B06C114D104E104F1046F
:100C9000B9F240E0C701B6010E94A305882381F2A2
:100CA00080917D0490917E048115924049F6A09137
:100CB0008204AA2329F26091800470918104611555
:100CC000710509F4BDCF20917F04222309F4B8CF28
:100CD000A0932F072093210790E080E030E0E1E02F
:100CE000F0E0C82FAF01082E02C0440F551F0A9430
:100CF000E2F72417350769F041E0480F0196893083
:100D0000910579F740932A079BCFC12CD12C76010E
:100D1000C0CF80932A07209188043091890450E045
:100D200040E02115310541F420919604309197045B
:100D300040919804509199042093220730932307FF
:100D4000409324075093250746015701860E971EAE
:100D5000A11CB11C8092300790923107A0923207FB
:100D6000B0923307E0918304F0918404F093360746
:100D7000E0933507B0E00E940231DC01CB01880D21
:100D8000991DAA1DBB1D8093370790933807A09328
:100D90003907B0933A0725E0EE0FFF1F2A95E1F7D8
:100DA000E150FE4FEF2FFF27E6958E0F9F1FA11DED
:100DB000B11D80932B0790932C07A0932D07B09320
:100DC0002E078090850490908604B12CA12C81146C
:100DD000910441F48090920490909304A090940424
:100DE000B0909504C81AD90AEA0AFB0AC80CD91CA3
:100DF000EA1CFB1C04C0F694E794D794C794CA95E8
:100E0000D2F7C0922607D0922707E0922807F092E7
:100E1000290785EFC8168FE0D806E104F10428F40D
:100E20008CE08093340781E00CCF80E125EFC2167F
:100E30002FEFD206E104F104A0F380919E0490917B
:100E40009F04A091A004B091A104809337079093D0
:100E50003807A0933907B0933A0780E2E2CF4F9268
:100E60005F926F927F928F929F92AF92BF92CF923A
:100E7000DF92EF92FF920F931F93CF93DF93EC01DA
:100E8000423051056105710590F480E0DF91CF910A
:100E90001F910F91FF90EF90DF90CF90BF90AF9098
:100EA0009F908F907F906F905F904F90089589856D
:100EB0009A85AB85BC850196A11DB11D8417950748
:100EC000A607B70710F3CB88DC88ED88FE888F89EA
:100ED000803109F042C0BB27A72F962F852F4801EC
:100EE00059012A013B01C80ED91EEA1EFB1E809142
:100EF000000190910101A0910201B0910301C81677
:100F0000D906EA06FB0699F58F898031C1F5B30150
:100F1000A201552766277727440F551F4E585B4F70
:100F2000FA019182808280919D03816080939D036C
:100F30008A89823080F08D819E81AF81B8858C0D49
:100F40009D1DAE1DBF1D80939E0390939F03A09394
:100F5000A003B093A10381E099CFDB01CA01E7E0D0
:100F6000B695A79597958795EA95D1F7B8CF40E0C4
:100F7000C701B6010E94A3058111C6CF86CFB30178
:100F8000A2014F77552766277727440F551F440F37
:100F9000551F4E585B4FFA0180829182A282B38224
:100FA000C2CF8F929F92AF92BF92CF92DF92EF9279
:100FB000FF920F931F93CF93DF93FC01818592855E
:100FC000A385B4850196A11DB11D84179507A607B9
:100FD000B70770F480E0DF91CF911F910F91FF90E0
:100FE000EF90DF90CF90BF90AF909F908F9008953B
:100FF00083889488A588B6888789803189F5BB273E
:10100000A72F962F852FE9016A017B018F01BC0173
:10101000CD01680D791D8A1D9B1D80900001909067
:101020000101A0900201B090030186169706A80660
:10103000B90601F5F8018789803111F5DD24EE2428
:10104000FF24F601EE0FFF1FEE58FB4F80819181C8
:10105000B0E0A0E088839983AA83BB8381E0BBCF03
:10106000DB01CA01C7E0B695A79597958795CA9504
:10107000D1F7C9CF40E00E94A3058111DBCFAACFF1
:10108000E894C7F8DD24EE24FF24F601EE0FFF1FDD
:10109000EE0FFF1FEE58FB4F80819181A281B3813B
:1010A000BF70D8CF4F925F926F927F92AF92BF92F4
:1010B000CF92DF92EF92FF920F931F93CF93DF9324
:1010C00000D000D0CDB7DEB78C0149835A836B8343
:1010D0007C835901C12CD12C7601412C82E0582E01
:1010E000612C712C49815A816B817C819E012F5F1B
:1010F0003F4FC8010E94D107882339F1F801858547
:10110000A301920104C0220F331F441F551F8A956B
:10111000D2F7DA01C901C80ED91EEA1EFB1E4981A9
:101120005A816B817C818789803111F188EF9FEF33
:10113000AFEFBFE0481759076A077B0798F2F50140
:10114000C082D182E282F38281E00F900F900F90F3
:101150000F90DF91CF911F910F91FF90EF90DF9053
:10116000CF90BF90AF907F906F905F904F90089519
:1011700088EF9FEFA0E0B0E0DDCFCF93DF93FC01DD
:101180002581222321F080E0DF91CF910895EC01A9
:1011900080913407803159F582E08583178A108E5B
:1011A000118E128E8091350790913607B0E0A0E045
:1011B00025E0880F991FAA1FBB1F2A95D1F7838BA3
:1011C000948BA58BB68B8DE197E09C8F8B8F81E004
:1011D0008C831E821F82188619861A861B861C869F
:1011E0001D861E861F86188A198A1A8ACDCF8032DC
:1011F00051F683E08583409137075091380760911D
:10120000390770913A07478B508F618F728F9F011A
:101210002D5E3F4F8DE197E00E9452088111D3CFA0
:10122000B2CF8F929F92AF92BF92CF92DF92EF9206
:10123000FF920F931F93CF93DF93EC018D81811168
:101240000EC080E0DF91CF911F910F91FF90EF9042
:10125000DF90CF90BF90AF909F908F9008950B89B3
:101260001C892D893E89041715072607370748F37F
:101270004A015B01823031F48A869B86AC86BD864A
:1012800081E0E0CF81149104A104B10449F41E82ED
:101290001F82188619861A861B861C861D86F0CF2B
:1012A0000A851B852C853D85EB8DFC8D858590E021
:1012B0000996B901A8014150510961097109082E27
:1012C00004C076956795579547950A94D2F77501AE
:1012D0006401E1E0CE1AD108E108F10804C0F694F7
:1012E000E794D794C7948A95D2F7C416D506E60634
:1012F000F70620F0012B022B032B11F58F89988D17
:10130000A98DBA8D8E839F83A887B9878E010A5FC6
:101310001F4FC114D104E104F10409F4ADCF4E8193
:101320005F816885798598018B8D9C8D0E94D1079E
:1013300091E0C91AD108E108F1088111EACF81CF03
:10134000C41AD50AE60AF70AE1CF3F924F925F929C
:101350006F927F928F929F92AF92BF92CF92DF92C5
:10136000EF92FF920F931F93CF93DF93CDB7DEB72A
:101370002C970FB6F894DEBF0FBECDBF5C01DC0129
:101380005B968D909C905C9716964D905D906D90BD
:101390007C901997411451046104710409F468C0E8
:1013A000BFEF4B1A5B0A6B0A7B0A312CF401818573
:1013B0009285A385B4859C01AD012F5F3F4F4F4FB0
:1013C0005F4F29873A874B875C87730162011D82D3
:1013D0001E821F821886F40181859285A385B485BB
:1013E0002D813E814F815885281739074A075B07B1
:1013F00008F056C089859A85AB85BC858C159D05FE
:10140000AE05BF0550F482E0C82ED12CE12CF12CA2
:1014100092E0492E512C612C712C9E012F5F3F4F81
:10142000B701A601C4010E94D1078823C9F18981AF
:101430009A81AB81BC81892B8A2B8B2B09F12601E8
:1014400037019FEF491A590A690A790A2D813E81AD
:101450004F8158852F5F3F4F4F4F5F4F2D833E8306
:101460004F8358873FEFC31AD30AE30AF30AB3CF77
:10147000F40140805180628073803324339496CF8E
:10148000C414D504E604F70409F70FEF1FEF2FEF9C
:101490003FE0B701A601C4010E942F07811119C0C6
:1014A00080E02C960FB6F894DEBF0FBECDBFDF9163
:1014B000CF911F910F91FF90EF90DF90CF90BF9051
:1014C000AF909F908F907F906F905F904F903F90E4
:1014D0000895D50116964D915D916D917C91199766
:1014E000411551056105710539F097018601C40167
:1014F0000E942F078823A1F2D5011696CD92DD9286
:10150000ED92FC921997332051F0D701C601019654
:10151000A11DB11DF40180839183A283B383F501E2
:101520008789908DA18DB28D892B8A2B8B2B39F4D5
:101530008481C78AD08EE18EF28E80688483F50123
:1015400084818062848381E0ACCF1F93CF93DF934B
:10155000FC012581222371F1162FEC01848187FF84
:101560001EC0CF010E94ED05FC01892B19F18D8170
:10157000823040F48B899C89AD89BE89848F958F98
:10158000A68FB78F8F89988D938F828F8F89988D33
:10159000A98DBA8DB58BA48B8C818F778C8311111B
:1015A00003C08C818F7E8C83812FDF91CF911F911F
:1015B0000C94780580E0DF91CF911F910895FF9200
:1015C0000F931F93CF93DF93EC018D81813041F016
:1015D00090E080E0DF91CF911F910F91FF900895EF
:1015E0008C8181FFF5CF82FD1BC0009170041091AA
:1015F0007104C8010E94D1030E94B003F82EC801F3
:101600000E949E038FEFF812E3CF8C8185FF1BC0F1
:1016100060E0CE010E94A50A8C818F7D8C83D8CF9B
:101620004B895C896D897E898A859B85AC85BD8562
:1016300084179507A607B707C1F2CE010E941109CA
:101640008111D3CFC5CF40919E0350919F036091EC
:10165000A0037091A103452B462B472B21F080E07E
:101660000E945405B5CF80618C832A853B853170FB
:1016700080E092E0821B930BADCFCF93DF93EC0120
:1016800061E00E94A50A882311F01D8281E0DF91AC
:10169000CF910895CF92DF92EF92FF921F93CF9355
:1016A000DF9380914007882321F08BE397E00E942D
:1016B0003D0B10921C0710921A07109217071092F8
:1016C00016078AE0809315070E942D02EB0161E066
:1016D000809115070E94910161E0809115070E9499
:1016E00063011FB7F89480916F04811127C0E8E36C
:1016F000F1E08491EFE4F1E09491E82FF0E0EE0F57
:10170000FF1FE65EFE4FA591B491EC91E92321F411
:1017100061E08AE00E94630161E08AE00E94910139
:101720008CB580618CBD8CB580648CBD61E08DE032
:101730000E94910161E08BE00E94910180916F0411
:101740008F5F80936F041FBF82E580930F07109215
:10175000100780910F07909110070E94CE031AE0A6
:101760008FEF0E94A9031150D9F781E197E00E9401
:10177000D10320E030E0A90160E081E197E00E9420
:10178000E703182F80931B07813081F00E942D0200
:101790006C1B7D0B613D774060F381E08093160701
:1017A00081E197E00E949E0390E078C02AEA31E050
:1017B00040E050E068E081E197E00E94E70382FFAB
:1017C0002AC010931C0780911C07C12CD12C7601D4
:1017D000823029F4C12CD12CE12C80E4F82E20E0B9
:1017E00030E0A90167E381E197E00E94E703A701E8
:1017F000960169E281E197E00E94E70380931B076D
:101800008823C1F00E942D026C1B7D0B613D774047
:1018100030F388E0C3CF14E00E94B00380931B072D
:101820001150D1F78A3A11F082E0B8CF82E080936C
:101830001C07C9CF80911C078230D1F420E030E032
:10184000A9016AE381E197E00E94E703882311F090
:1018500086E0A4CF0E94B003807C803C19F483E032
:1018600080931C070E94B0030E94B0030E94B00343
:1018700081E197E00E949E0380E580930F0710921C
:10188000100781E00E940606882389F08BE397E029
:101890000E94BD0891E0882309F486CF892FDF914B
:1018A000CF911F91FF90EF90DF90CF90089580E04F
:1018B0000E940606882309F477CFE8CF8F929F9283
:1018C000AF92BF92CF92DF92EF92FF92CF93DF93CE
:1018D000EC010E94A50981110CC080E0DF91CF913D
:1018E000FF90EF90DF90CF90BF90AF909F908F9040
:1018F0000895EB8DFC8DCE80DF80E884F98482E052
:10190000C81AD108E108F108858504C0CC0CDD1C9B
:10191000EE1CFF1C8A95D2F786859785A089B18930
:10192000C80ED91EEA1EFB1E848146015701880E8F
:10193000911CA11CB11CC814D904EA04FB04F9F0E1
:1019400081E0881A9108A108B10881E00E94780519
:10195000882319F2E2E7F4E0119286E0E237F80713
:10196000D9F78092000190920101A0920201B092F9
:10197000030180919D03816080939D03DCCFEB8DFB
:10198000FC8D258580E092E0A0E0B0E004C0880FE7
:10199000991FAA1FBB1F2A95D2F74B895C896D89B5
:1019A0007E89840F951FA61FB71F8B8B9C8BAD8BD9
:1019B000BE8B81E093CF2F923F924F925F926F92B6
:1019C0007F928F929F92AF92BF92CF92DF92EF92CF
:1019D000FF920F931F93CF93DF9300D000D01F92FD
:1019E000CDB7DEB77C015B01342E5D83DC0115963B
:1019F0008C911597813009F0CEC014962C9021FE61
:101A0000CAC022FCB4C0C32CDD8022947FE0272210
:101A10002094B22DB1702B2ED7011A964D915D9165
:101A20006D917C911D97C114D10409F428C15B9676
:101A30008D919C915C97FC0174807A948A019B0142
:101A400069E036952795179507956A95D1F7702225
:101A50008A011170711020C001151105E9F4169664
:101A60004D915D916D917C911997411551056105DD
:101A7000710509F099C057968D919D910D90BC917B
:101A8000A02D0097A105B10509F0B0C0C7010E94C3
:101A9000A509882309F47FC080E092E0801B910BA8
:101AA00046018C159D0508F44C01D7015B964D91BC
:101AB0005C915C9716968D919D910D90BC91A02D97
:101AC0000297A109B109FA01258504C0880F991F61
:101AD000AA1FBB1F2A95D2F7468557856089718951
:101AE000840F951FA61FB71F9C01AD01270D311D47
:101AF000411D511D29013A01811432E0930609F07C
:101B00007BC08091000190910101A0910201B091F0
:101B1000030184159505A605B70559F48FEF9FEFCE
:101B2000DC018093000190930101A0930201B09326
:101B30000301022D9501B301A201809170049091DF
:101B400071040E94E604882331F19EEFB91AC81887
:101B5000D908F70182859385A485B585880D991DDF
:101B6000A11DB11D82879387A487B58755CFF70143
:101B7000438954896589768982859385A485B5854D
:101B8000481759076A077B0709F43DCFC7010E9430
:101B90001109811138CF81E090E0D70113969C9311
:101BA0008E93129780E007C09E012F5F3F4F0E94E7
:101BB000D107811102C090E079C089819A81AB81FF
:101BC000BC81F701238D348DF901278948EF5FEF40
:101BD00060E070E0203121F048EF5FEF6FEF7FE0D1
:101BE00084179507A607B70708F050CFF70186833B
:101BF0009783A087B18750CF0115110599F5D701BB
:101C00001A964D915D916D917C911D9753968D9192
:101C10009D910D90BC91A02D481759076A077B072D
:101C200008F181E00E947805882309F4B4CF40923E
:101C300000015092010160920201709203018091B3
:101C40009D03816080939D03C8018E589B4FD501F1
:101C50009C01280D391DFC012E173F0759F04D91AD
:101C60004193FACF41E0C301B2010E94A305811163
:101C7000EBCF91CF281B390BA20EB31E68CFF70113
:101C800083899489A589B68984179507A607B7071C
:101C900038F48481438B548B658B768B8068848386
:101CA000F701848183FD1AC0832D9D810F900F90D1
:101CB0000F900F900F90DF91CF911F910F91FF9098
:101CC000EF90DF90CF90BF90AF909F908F907F90DC
:101CD0006F905F904F903F902F90089561E0C70103
:101CE0000E94A50A882309F456CFDECFCF93DF9355
:101CF0001F92CDB7DEB7698341E050E0BE016F5F50
:101D00007F4F0E94DB0C0F90DF91CF910895FC0173
:101D1000DB0112968D919C9113979383828386EBBE
:101D200091E09183808314968C9114978483159607
:101D30008C911597858316964D915D916D917C914F
:101D4000199746835783608771871A964D915D91E5
:101D50006D917C911D9742875387648775871E9686
:101D60004D915D916D917C91519746875787608B1E
:101D7000718B52968C915297828B53964D915D91B7
:101D80006D917C915697438B548B658B768B5796D0
:101D90004D915D916D917C915A97478B508F618FDA
:101DA000728F5B968D919C91948F838F0895089587
:101DB000FC01818D928D009719F061E00C94A50AC9
:101DC0000895DC015996ED91FC913097B9F0838923
:101DD0009489A589B6894285538564857585841B58
:101DE000950BA60BB70B811520E89207A105B1054D
:101DF00038F08FEF9FE7A0E0B0E0089590E080E03A
:101E00000895DC0159968D919C91009739F0DC0181
:101E1000ED91FC910480F581E02D099490E080E043
:101E20000895CF93DF93EC01E98DFA8D309749F453
:101E300081E090E09B838A8390E080E0DF91CF9106
:101E4000089513821282898D9A8D0E94DB0CE98D90
:101E5000FA8D22813381232B59F7F0CFCF93DF9373
:101E60001F92CDB7DEB76983DC01ED91FC91028052
:101E7000F381E02D41E050E0BE016F5F7F4F099597
:101E80000F90DF91CF9108952F923F924F925F92E2
:101E90006F927F928F929F92AF92BF92CF92DF927A
:101EA000EF92FF920F931F93CF93DF9300D01F9277
:101EB000CDB7DEB7FC018581811118C08FEF9FEF90
:101EC0000F900F900F90DF91CF911F910F91FF9086
:101ED000EF90DF90CF90BF90AF909F908F907F90CA
:101EE0006F905F904F903F902F900895848180FF76
:101EF000E5CF438954896589768982859385A48550
:101F0000B585312C212C481759076A077B0719F032
:101F100022242394312C6F012101CE0101963C0132
:101F2000DF011696BB83AA834114510409F4C5C08E
:101F3000F60142855385648575854A01F1E09F224B
:101F4000D6015B968D919C915C978A019B01E9E09B
:101F50003695279517950795EA95D1F71596EC9143
:101F6000E230E9F5FC01628D738D848D958D600FF3
:101F7000711F821F931FA12C22E0B22EA818B9084E
:101F80004A145B0408F45201F601248126FD04C0C2
:101F9000A114F2E0BF0671F400910001109101015B
:101FA000209102013091030106171707280739070E
:101FB00009F05EC040E00E94A305882309F47ECFAB
:101FC000C4018E589B4FD3019C012A0D3B1DFC017F
:101FD0002E173F0709F46CC041914D93F9CFDC01F6
:101FE0001496BC90BA94B0228114910479F4B11083
:101FF0000DC0452B462B472B69F5F6018789908D3F
:10200000A18DB28D86839783A087B187D6015B9619
:10201000ED91FC915C9716966D917D918D919C91BF
:1020200019976250710981099109258504C0660FCD
:10203000771F881F991F2A95D2F706851785208953
:102040003189600F711F821F931F6B0D711D811DE0
:10205000911D91CFD60116964D915D916D917C9118
:1020600019972A813B810E94D1078111CFCF26CFBA
:10207000730185019401AB01BC01809170049091C2
:1020800071040E944404882309F418CF6A0C7B1C55
:10209000F60182859385A485B5858A0D9B1DA11DBA
:1020A000B11D82879387A487B5874A185B083CCF08
:1020B000281B390B620E731EEBCF2A94232809F0DC
:1020C000FDCE898190E0FCCEFC01818D928D009740
:1020D00011F00C94440F8FEF9FEF08950F931F930F
:1020E000CF93DF93EC01898D9A8D10E000E000978B
:1020F00099F00E94440F8C010F3F100769F0898D01
:102100009A8DFC014285538564857585415051093E
:10211000610971090E941109C801DF91CF911F91D6
:102120000F9108950F931F930E942D0260936207F1
:102130007093630780936407909365078AE597E03F
:102140000E946E1097FF1DC00E942D020091620731
:10215000109163072091640730916507601B710B34
:10216000820B930B00915E0710915F07209160072F
:10217000309161076017710782079307F8F28FEFBC
:102180009FEF1F910F910895CF92DF92EF92FF92F0
:10219000CF930E949210FC0197FD4EC08D329105A5
:1021A00021F0C0970A9708F040C0C12CD12C7601CD
:1021B000C0E0E130F105D1F0ED32F105D9F1CF0108
:1021C000C0970A9798F4AAE0B0E0A70196010E9490
:1021D00002316F01FF0FEE08FF08C60ED71EE81E82
:1021E000F91E80E3C81AD108E108F1088AE597E0F2
:1021F0000E9464100E949210FC01C0970A97C8F2D6
:10220000E130F105B1F2CC2341F0F094E094D094A8
:10221000C094C11CD11CE11CF11CC701B601CF91B7
:10222000FF90EF90DF90CF9008958AE597E00E94AD
:102230006410AFCFC1E0DACFC12CD12C7601EDCF45
:102240008FEF9FEF089590E080E008950895EF925A
:10225000FF920F931F93CF93DF93DC015296ED9083
:10226000FC905397E114F10479F481E090E0139627
:102270009C938E93129790E080E0DF91CF911F9115
:102280000F91FF90EF9008951D96ED91FC911E9790
:102290001C968C911C97982F90950FB754962C9163
:1022A0005497122F127021FD6095F894208111230C
:1022B00019F1282B2083E7012197F1F728E0462F19
:1022C00050E0308160FF1AC0382B3083E70121973E
:1022D000F1F7BA0175956795215089F7112381F0BF
:1022E0008081892380830FBF52968D919C910197A5
:1022F000F1F781E090E0C1CF2923DCCF3923E5CF8E
:102300009081892BEFCF90E080E008952F923F924B
:102310004F925F926F927F928F929F92AF92BF92F5
:10232000CF92DF92EF92FF920F931F93CF93DF93A1
:10233000CDB7DEB72C970FB6F894DEBF0FBECDBF7A
:102340000E942D02609340047093410480934204E4
:102350009093430460911A0470911B0460901804D8
:1023600070901904209124042B87309125043C8718
:10237000A0912004B091210400912604109127041B
:102380004090F8035090F9038091F2039091F30389
:1023900032ED232E33E0332E4BE753E05A8349834B
:1023A0005A8749873C822B8230E020E0EB81FC8118
:1023B00081909190A190B190FC83EB8350E040E03C
:1023C000F9013196F887EF83F901E40FF51FFE83D9
:1023D000ED83750164010D8004C0F694E794D794F1
:1023E000C7940A94D2F7C0FE26C0E985FA85C0805A
:1023F000D180E280F3800D8004C0F694E794D794F6
:10240000C7940A94D2F7C0FE03C06130710599F4F5
:102410006F807884640E751E8615970509F4D3C005
:10242000C3016B869C87512C412C01E010E070E0C9
:1024300060E0B0E0A0E04F5F5F4F4032510521F611
:10244000205E3F4F49855A854C5F5F4F5A874987C9
:10245000211551E0350709F0A9CF3093D10320931E
:10246000D0037092190460921804B0932104A093D1
:102470002004EB85E0932404FC85F09325049093DD
:10248000F3038093F20370931B0460931A04109378
:102490002704009326045092F9034092F803109207
:1024A000CF031092CE03452809F061C01092D103EA
:1024B0001092D00392EFC92E93E0D92E22ED33E093
:1024C0003C832B83AA24A394B12C80E2882E912CE8
:1024D000E090CE03F090CF030091D0031091D10390
:1024E0000F5F1F4FEB81FC8180819181A281B381BD
:1024F0000E2C04C0B695A795979587950A94D2F7A8
:1025000080FD17C060167106A1F48091200490919F
:102510002104892B71F4B0922104A09220040E941E
:102520002D0260931C0470931D0480931E049093ED
:102530001F04FFEFEF1AFF0AF092CF03E092CE03E1
:102540001093D1030093D00321E0821A910809F07F
:10255000BFCF1092CF031092CE034B815C814C5FB2
:102560005F4F5C834B83C416D50609F0AECFF101F3
:1025700081919191A191B1911F01E981FA8181939A
:102580009193A193B193FA83E983F2EF2F16F3E0CD
:102590003F0669F72C960FB6F894DEBF0FBECDBF8D
:1025A000DF91CF911F910F91FF90EF90DF90CF902F
:1025B000BF90AF909F908F907F906F905F904F9063
:1025C0003F902F9008958B879C8733CF809138045C
:1025D000909139042091360430913704213031052F
:1025E00031F4019690933904809338040895209132
:1025F000040130910501820F931F90933904809359
:1026000038046091080170910901269FA001279F5D
:10261000500D369F500D11244817590724F410927D
:1026200039041092380408958F929F92AF92BF920E
:10263000CF92DF92EF92FF920F931F93CF93DF938E
:1026400000D000D0CDB7DEB7FC018581813091F09C
:1026500080E00F900F900F900F90DF91CF911F911E
:102660000F91FF90EF90DF90CF90BF90AF909F9031
:102670008F900895848181FFEBCF83899489A58908
:10268000B689892B8A2B8B2B09F45FC07F0140E030
:1026900050E0BA01CF010E9411098823C9F2F70165
:1026A000C38CD48C8788908CA18CB28C82E090E013
:1026B000A0E0B0E0F60180839183A283B3839E0102
:1026C0002F5F3F4FB501A401C6010E94D1078823A7
:1026D00009F4BECF00E010E09801B501A401C601E5
:1026E0000E942F07882309F4B3CF89809A80AB809A
:1026F000BC80F6018789803119F188EF9FEFAFEF39
:10270000BFE088169906AA06BB06C8F2F701178A29
:10271000108E118E128E138A148A158A168A84815D
:102720008068848361E0C7010E94A50A882309F4B8
:102730008FCF40E050E0BA01C7010E94110989CF54
:1027400088EF9FEFA0E0B0E0DCCF81E082CFCF92B6
:10275000DF92EF92FF921F93CF93DF93EC0180E221
:10276000689FF0011124EE58FB4F9385917161F041
:10277000842F827449F080E0DF91CF911F91FF9008
:10278000EF90DF90CF900895142F6A8B8091000115
:1027900090910101A0910201B09103018E879F8762
:1027A000A88BB98BC488D588F12CE12C7601DD2467
:1027B000CC24CF8AD88EE98EFA8E828D938DB0E0AC
:1027C000A0E0AC01BD014C295D296E297F294F8B0A
:1027D000588F698F7A8F8385887111F5848D958DD7
:1027E000A68DB78D8B8B9C8BAD8BBE8B81E08D8343
:1027F000812F8F708C831E821F82188619861A86FD
:102800001B861C861D8681E016FFB6CFCE01DF91A8
:10281000CF911F91FF90EF90DF90CF900C94141305
:10282000803109F0A8CF9E012D5E3F4F8B8D9C8D8E
:102830000E945208882309F49ECF84E0D8CF80916B
:10284000730790917407009761F00E943D0B80918F
:102850007307909174070E943F3210927407109290
:1028600073070895CF93DF93EC01888199810097D6
:1028700011F00E943F32198218821D821C821B8235
:102880001A82DF91CF910895FC0180819181009798
:1028900011F00C943F320895FB0101900020E9F7FC
:1028A0003197AF01461B570BDC01ED91FC91028083
:1028B000F381E02D09948F929F92AF92BF92EF9295
:1028C000FF920F931F93CF93DF93CDB7DEB7A197FE
:1028D0000FB6F894DEBF0FBECDBF7C01FA01CB016D
:1028E00019A2223008F42AE08E010F5D1F4F822EBC
:1028F000912CB12CA12CBF01A50194010E9467313C
:10290000F901CA016A300CF5605DD8016E938D0142
:10291000232B242B252B79F790E080E0109721F0D2
:10292000BD01C7010E944C14A1960FB6F894DEBFFA
:102930000FBECDBFDF91CF911F910F91FF90EF9010
:10294000BF90AF909F908F900895695CDECFCF923B
:10295000DF92EF92FF920F931F93CF93DF936B0160
:10296000770FEE08FF084A30510511F52AE0F7FE0F
:1029700020C0EC01E881F9810190F081E02D6DE249
:1029800009958C0144275527BA014C195D096E0938
:102990007F092AE0CE010E945B14800F911FDF9116
:1029A000CF911F910F91FF90EF90DF90CF900895FE
:1029B000242FB701A601DF91CF911F910F91FF90B6
:1029C000EF90DF90CF900C945B1462EE71E00C946A
:1029D0004C140C944C14FB0144815581FC0124815E
:1029E00035812417350778F080819181009759F05F
:1029F000FB01608171816115710529F00E94AD3381
:102A000021E0892B09F020E0822F08950F931F9376
:102A1000CF93DF93EC0188819981009759F02A8147
:102A20003B812617370730F081E0DF91CF911F916E
:102A30000F9108958B016F5F7F4F0E94C8320097FE
:102A400059F0998388831B830A832C813D81232B32
:102A500059F7FC011082E8CF80E0E7CFEF92FF92B8
:102A60000F931F93CF93DF93EC017B0119821882A0
:102A70001B821A821D821C82FB0101900020E9F753
:102A800031978F01061B170BB8010E9406158111A3
:102A900009C0CE01DF91CF911F910F91FF90EF9070
:102AA0000C9432141D830C83B70188819981DF91C6
:102AB000CF911F910F91FF90EF900C94A633AF929E
:102AC000BF92CF92DF92EF92FF920F931F93CF931B
:102AD000DF9300D0CDB7DEB78C015B01C42E64EE6E
:102AE00071E00E942E15C5010E9439020C2C000CC9
:102AF000DD0897FD24C0C816D90609F189831A821A
:102B0000F801E480F580FFEFEF1AFF0AB701C80172
:102B10000E940615882379F0F80120813181848193
:102B20009581BE016F5F7F4F820F931F0E94A63376
:102B3000F801F582E482C5010E943902DACFC801AA
:102B40000F900F90DF91CF911F910F91FF90EF9019
:102B5000DF90CF90BF90AF9008959F92AF92BF92B9
:102B6000CF92DF92EF92FF920F931F93CF93DF9359
:102B7000CDB7DEB72B970FB6F894DEBF0FBECDBF33
:102B80007C01FC018581811115C0FE013196CE01C9
:102B90000C966F0130E231938E179F07E1F7DA014F
:102BA00030E087E09D91B92E992329F19E3239F4C6
:102BB0008A3011F480E0D3C038E08AE0F3CFECE74C
:102BC000F0E04491442321F031969413FACFF2CFF0
:102BD000831780F34FED490F4E3560F74FE9490FEA
:102BE0004A3118F440EEB42EB90EF601E30FF11D90
:102BF000B0823F5FD7CF89818032E1F2A22E8B0174
:102C0000FB01838D948DF701948F838FFB011682D6
:102C10001782108611861286138614861586F8018F
:102C200082859385A485B58543895489658976898C
:102C300084179507A607B70708F04CC025E0B6959E
:102C4000A795979587952A95D1F7F82FFF709F2E16
:102C5000F8018581823008F4ADCFC8010E94440F8D
:102C600097FDA8CFF80182859385A485B5854F96F9
:102C7000A11DB11D82879387A487B587F0E29F9E2F
:102C8000B00111246E587B4F6115710509F492CF84
:102C9000FB018081882341F0853E09F04EC0BB20B6
:102CA00029F0BB24B394BBCFB1100EC0F701928AB8
:102CB0008091000190910101A0910201B091030166
:102CC00086879787A08BB18BFB0180818111E9CF2B
:102CD000BB24B3948A2D8271823109F06BCFBB2063
:102CE00009F44FC0C7010E94ED05009709F462CFB7
:102CF00020E2FC0111922A95E9F72BE0F601DC01B4
:102D000001900D922A95E1F721E238E2FC01318B26
:102D1000208B40E058E057874687338B228B318FDA
:102D2000208F578B468B81E00E947805882309F419
:102D300041CF4A2DF70162890FC04BE050E0C60138
:102D40000E948533892B09F06ACF8A2D80734A2D22
:102D5000692D803309F42ECFC7010E94A7132B964B
:102D60000FB6F894DEBF0FBECDBFDF91CF911F919C
:102D70000F91FF90EF90DF90CF90BF90AF909F901A
:102D80000895F8018581823009F414CFC8010E94AA
:102D90005E0C882309F40ECFF701128A82E794E0D3
:102DA000A7CF5F926F927F928F929F92AF92BF92C6
:102DB000CF92DF92EF92FF920F931F93CF93DF9307
:102DC000CDB7DEB7C754D1090FB6F894DEBF0FBE3A
:102DD000CDBF5C013B0119A218A286EB91E09F8F49
:102DE0008E8F1BA21C821B829A8389831E8210E015
:102DF00000E06E018EE1C80ED11C8BE3E82E87E067
:102E0000F82EF501E00FF11F80818F3211F40F5F72
:102E10001F4FD501A00FB11FFE01FB9690E080E08F
:102E20004F012D912F3249F0222339F00F5F1F4FB0
:102E3000019621938C309105A1F7880D991DFC0115
:102E40001082F501E00FF11F80818F3211F40F5FC6
:102E50001F4FF501E00FF11F508041E0511040E09D
:102E600030E020E0B401C701F3010995811121C0D0
:102E7000FBE3EF16F7E0FF06C1F480E0C95BDF4F2C
:102E80000FB6F894DEBF0FBECDBFDF91CF911F917B
:102E90000F91FF90EF90DF90CF90BF90AF909F90F9
:102EA0008F907F906F905F900895C7010E943D0BB7
:102EB000E4CF552091F021E0A401B701C6010E94A2
:102EC000AD15982E8BE3E81687E0F80681F0C70170
:102ED0000E943D0B911010C0D0CF9BE3E91697E004
:102EE000F90619F0C7010E943D0B81E0C7CF992078
:102EF00021F2FE0131967F019E2D8F2D7601C92E84
:102F0000D82E7FCF1F93CF93DF93CDB7DEB76D97CA
:102F10000FB6F894DEBF0FBECDBFAB011C821B8283
:102F200026EB31E03A8329831E8221E0BC01CE01E9
:102F300001960E94AD1511E081110CC010E0812FA7
:102F40006D960FB6F894DEBF0FBECDBFDF91CF9167
:102F50001F910895CE0101960E943D0BF0CFCF93B3
:102F6000DF93CDB7DEB76D970FB6F894DEBF0FBE17
:102F7000CDBF442399F1AB01BC011C821B8286EBBF
:102F800091E09A8389831E8222E0CE0101960E94FD
:102F9000AD1581110EC090E081E0911101C080E07B
:102FA0006D960FB6F894DEBF0FBECDBFDF91CF9107
:102FB0000895CE0101960E941413882361F3CE0177
:102FC00001960E94ED05009731F325EEFC01208368
:102FD0001E8281E00E947805982FDECF81E0E0CF4D
:102FE0008F929F92AF92BF92EF92FF920F931F9397
:102FF000CF93DF93CDB7DEB7ED970FB6F894DEBF72
:103000000FBECDBF8C017B011CA21BA286EB91E001
:103010009AA389A31EA2C8010E9482178111A0C091
:1030200023E3A701B801CE0181960E94AD1581115D
:1030300016C090E081E0911101C080E0ED960FB6DE
:10304000F894DEBF0FBECDBFDF91CF911F910F91DE
:10305000FF90EF90BF90AF909F908F90089581E088
:103060008DA384E08EA3CE0181960E945E0C8823FE
:1030700001F361E0CE0181960E94A50A8823C9F27E
:10308000CE0181960E94ED05FC01892B91F280E131
:10309000838780E2DE01119601900D928A95E1F717
:1030A000FE013296CE010C9620E22193E817F90733
:1030B000E1F78EE2F82EF982ECADFDAD68AD79ADA9
:1030C0008AAD9BAD6250710981099109258504C0C3
:1030D000660F771F881F991F2A95D2F786849784D9
:1030E000A088B188680D791D8A1D9B1D41E00E9452
:1030F000A305882309F49DCF80E2FE013196A2E763
:10310000B4E001900D928A95E1F7FA82F801858189
:103110008250823000F14789508D618D728DCA01D5
:103120009B013E8B2D8B9C8F8B8F80E2FE01319615
:10313000A2E9B4E001900D928A95E1F780E490E075
:10314000A0E0B0E08BA79CA7ADA7BEA781E00E943E
:103150007805982F6FCF90E080E030E020E0E1CF5D
:1031600081E06CCFEF92FF920F931F93CF93DF9389
:10317000EC017B018A011B821A8288EE93E0A0E0B9
:10318000B0E08C839D83AE83BF8382EC91E0998312
:1031900088838DE190E00E94A3319A8F898F0097F8
:1031A00079F02DE1F701DC0101900D922A95E1F70C
:1031B0004CE050E0B801CE010C960E94BB33188E53
:1031C000DF91CF911F910F91FF90EF9008953F9263
:1031D0004F925F926F927F928F929F92AF92BF9227
:1031E000CF92DF92EF92FF920F931F93CF93DF93D3
:1031F000CDB7DEB7C656D1090FB6F894DEBF0FBE05
:10320000CDBF5C01362E19A218A286EB91E09F8FEC
:103210008E8F1BA21C821B829A8389831E823E0191
:103220008EE1680E711CC3010E94BD088E010F5F04
:103230001F4F43018FE4C82E84E0D82E28016FE28F
:1032400070E0C6010E949B33009709F459C0F60153
:1032500020812F3271F4FFEFCF1ADF0A902F812FD8
:103260008401892E982E982D892D4801092F182F19
:10327000E6CF8C198D3008F08CE0E82EF12CA701F8
:10328000B601CE01885A9F4F0E94BB33E8E5F0E0BB
:10329000EC0FFD1FEE0DFF1D1082C8010E943D0BBB
:1032A00021E0AE01485A5F4FB401C8010E94AD153C
:1032B000811120C01EAE1DAE86EB91E09CAF8BAF9E
:1032C00021961FAE2197A7960EAD1FADA797015B64
:1032D0001B4FF8018081811120C0BE01655C7F4FCA
:1032E000C2010E94870E45EE51E0B201C5010E9465
:1032F000B21831C0CE0CDF1CC4010E943D0BB3CF0D
:10330000C6018F549440A7969FAF8EAFA797B40184
:10331000CE01CB960E94870ED6CF19A218A286EBBB
:1033200091E09F8F8E8F1BA221968FAD21978111E7
:103330002CC0F5011382128288EE93E0A0E0B0E089
:1033400084839583A683B78382EC91E09183808305
:10335000128E118E1486C501CA59DF4F0FB6F8942C
:10336000DEBF0FBECDBFDF91CF911F910F91FF90B8
:10337000EF90DF90CF90BF90AF909F908F907F9015
:103380006F905F904F903F900895232DA801BE014C
:10339000655C7F4FC3010E94AD15882351F2CE01B9
:1033A000CB960E943D0B832D8670863039F449A957
:1033B0005AA96BA97CA9C3010E941109B301C201DA
:1033C0000E94870EA80191CF4F925F926F927F92D9
:1033D0008F929F92AF92BF92CF92DF92EF92FF9225
:1033E0000F931F93CF93C82F6B010E94D5012B0120
:1033F0005C014B01F12CE12C87E0C81AD108E108EF
:10340000F108F89461E08C2F0E94630188E090E05D
:103410000E94CD0160E08C2F0E94630178948AE1C4
:10342000880E911CA11CB11C0E94D5019B0124197E
:103430003509890130E020E00C151D052E053F05FA
:1034400034F4681579058A059B0570F3DACFCF91BE
:103450001F910F91FF90EF90DF90CF90BF90AF90B2
:103460009F908F907F906F905F904F9008951F93E3
:10347000CF93DF93EC01162F0E94EC30181739F030
:10348000612FCE01DF91CF911F910C94F430DF9129
:10349000CF911F9108950C94EC30CF93DF9361E0AE
:1034A00080E10E94910160E080E10E946301D0E030
:1034B000C0E06FEFCE010E94371A2196CF3F81E026
:1034C000D807B9F76091F60380E092E00E94371ABE
:1034D000CCE0D0E062E080E10E94910160E170E028
:1034E00080E090E00E94FA0161E080E10E94910199
:1034F00060E080E10E94630160E170E080E090E0C4
:103500000E94FA01219731F762E080E10E94910167
:1035100081E090E090934504809344041092F50379
:103520001092F403C2E0D0E08091440490914504ED
:10353000019709F082C08EE00E943A019093F50352
:103540008093F4038091F4039091F503892B99F310
:103550008EE00E943A019093F5038093F4038091EA
:10356000F4039091F503019759F580911104882394
:1035700079F31092110461E083E10E94910160E00F
:1035800083E10E94630160910E04862F90E0909386
:103590002F0480932E048FEF91E00E94371A6091E0
:1035A0000F04862F90E090932D0480932C048EEFCF
:1035B00091E00E94371A62E083E10E949101C8CF36
:1035C0008EE00E943A019093F5038093F40380917A
:1035D000F4039091F503892B99F361E080E10E9457
:1035E000910160E080E10E94630160E270E080E0B0
:1035F00090E00E94FA0162E080E10E949101D09384
:103600004504C093440490CF8EE00E943A01909309
:10361000F5038093F4038091F4039091F503892BD3
:1036200099F361E080E10E94910160E080E10E94F5
:1036300063011092450410924404809144049091D7
:1036400045040297C1F58EE00E943A019093F5037C
:103650008093F4038091F4039091F5030197A1F610
:1036600080911104882379F31092110461E083E1C1
:103670000E94910160E083E10E94630160910E0469
:10368000862F90E090932F0480932E048DEF91E08D
:103690000E94371A60910F04862F90E090932D04BA
:1036A00080932C048CEF91E00E94371A62E083E152
:1036B0000E949101C8CF8FEF91E00E944B1A90E0D9
:1036C0009093A9038093A8038EEF91E00E944B1A78
:1036D00090E09093A7038093A6038DEF91E00E9462
:1036E0004B1A90E09093A5038093A4038CEF91E094
:1036F0000E944B1A90E09093A3038093A203109230
:10370000450410924404DF91CF91089580913604CE
:1037100090913704019709F066C08091340490912C
:103720003504892BB1F4809139048F93809138044A
:103730008F9387EE91E09F938F938BE693E09F9317
:103740008F930E94CA330F900F900F900F900F909D
:103750000F9080913404909135040197B1F48091D9
:1037600039048F93809138048F9385EF91E09F9374
:103770008F938BE693E09F938F930E94CA330F90B1
:103780000F900F900F900F900F90809125048F93C2
:10379000809124048F9382E092E09F938F938EEF29
:1037A00093E09F938F930E94CA3340E250E06EEF04
:1037B00073E08FE494E00E94392E40E250E065EE21
:1037C00071E08FE494E00E941A2E0F900F900F90FA
:1037D0000F900F900F9040E250E06BE673E08FE4A3
:1037E00094E00C941A2E20913804309139042F5F04
:1037F0003F4F8091240490912504A901480F591F3F
:1038000050932B0440932A0486509F4F820F931F9E
:103810009093290480932804493F510534F028EF00
:1038200030E030932B0420932A04833F914034F0FE
:1038300082EF91E090932904809328040895EF92F9
:10384000FF920F931F93CF93DF930E94861B80916B
:103850001104882309F48CC1C0914404D09145041B
:10386000209709F085C11092110461E083E10E9464
:10387000910160E083E10E94630162E083E10E94C4
:10388000910120910E048091A8039091A90328171B
:10389000190649F420910F048091A6039091A70383
:1038A0002817190641F080910E048034D1F58091DB
:1038B0000F048B30B1F580911004813091F10E949A
:1038C0002D0260936703709368038093690390935C
:1038D0006A038091650390916603892B11F521E0BD
:1038E00030E03093660320936503309327042093E0
:1038F0002604809124049091250401969093250438
:10390000809324043093F9032093F8032091F60365
:103910003091F7032817390724F4109225041092E8
:10392000240420910E048091A4039091A5032817EC
:10393000190649F420910F048091A2039091A303EA
:103940002817190641F080910E048034C9F5809142
:103950000F048E30A9F580911004813089F10E9406
:103960002D026093670370936803809369039093BB
:103970006A038091650390916603892B09F521E024
:1039800030E030936603209365033093270420933F
:103990002604809124049091250401979093250496
:1039A000809324043093F9032093F80397FF08C011
:1039B0008091F6039091F70390932504809324045B
:1039C00080910E04803461F580910F048A3141F5B5
:1039D00080911004813021F10E942D0260936703D1
:1039E000709368038093690390936A0380916503E1
:1039F00090916603892BA1F481E090E09093660397
:103A00008093650381E897E00E94E5146DE072E021
:103A100081E897E00E94E91481E897E00E94E514AC
:103A200080910E04803461F580910F04853441F556
:103A300080911004813021F10E942D026093670370
:103A4000709368038093690390936A038091650380
:103A500090916603892BA1F481E090E09093660336
:103A60008093650381E897E00E94E51467E172E0C6
:103A700081E897E00E94E91481E897E00E94E5144C
:103A800080910E04803461F580910F04823441F5F9
:103A900080911004813021F10E942D026093670310
:103AA000709368038093690390936A038091650320
:103AB00090916603892BA1F481E090E090936603D6
:103AC0008093650381E897E00E94E5146BE172E062
:103AD00081E897E00E94E91481E897E00E94E514EC
:103AE000EE24E394F12C80910E048034E1F52091D2
:103AF0000F04FE01EE0FFF1FE457FE4F80819181FE
:103B00002817190681F500915D0310915E030E944C
:103B10002D02609367037093680380936903909309
:103B20006A030E942D026093610370936203809385
:103B30006303909364038091650390916603892BDE
:103B400091F4F0926603E0926503D0936003C09312
:103B50005F030F5F1F4F10935E0300935D03F092AE
:103B60005C03E0925B032196CA30D10509F0BBCF1C
:103B70000E942D0200916703109168032091690350
:103B800030916A03601B710B820B930B6E377105CA
:103B90008105910520F010926603109265038091D3
:103BA0005D0390915E038130910509F07EC08091A4
:103BB0005B0390915C03019761F480915F039091A6
:103BC000600390935A038093590310925C03109200
:103BD0005B030E942D02009161031091620320910A
:103BE000630330916403601B710B820B930B613292
:103BF00073408105910508F451C080915D03909157
:103C00005E03181619060CF049C010925E0310925C
:103C10005D03209155033091560344E6429FC00155
:103C2000439F900D112440915703509158036AE02F
:103C3000649F9001659F300D1124820F931F209186
:103C4000590330915A03820F931F9093600380931E
:103C50005F0310925A031092590310925803109266
:103C60005703109256031092550321E030E0309331
:103C700027042093260490932504809324043093F2
:103C8000F9032093F8032091F6033091F7032817E6
:103C9000390724F43093250420932404DF91CF9135
:103CA0001F910F91FF90EF9008958230910581F45C
:103CB00080915B0390915C03019709F08ACF80911A
:103CC000590390915A03909358038093570375CFEB
:103CD0008330910581F480915B0390915C0301979F
:103CE00009F077CF80915703909158039093560332
:103CF00080935503E4CF04970CF46BCF80915B0362
:103D000090915C038130910509F063CF20915F03AE
:103D10003091600330935A03209359031092580353
:103D200010925703109256031092550390935E031E
:103D300080935D034ACF2F923F924F925F926F9292
:103D40007F928F929F92AF92BF92CF92DF92EF922B
:103D5000FF920F931F93CF93DF93CDB7DEB72E97CC
:103D60000FB6F894DEBF0FBECDBF6CE670E082E701
:103D700096E00E94670280912C0490912D04409758
:103D800034F46AE670E082E796E00E946702609190
:103D90002C0470912D0440E150E082E796E00E94EF
:103DA000A71480912E0490912F04409734F468E674
:103DB00070E082E796E00E94670260912E047091A5
:103DC0002F0440E150E082E796E00E94A71482E7CA
:103DD00096E00E94E5140E942D026093AA0370935E
:103DE000AB038093AC039093AD0330902C0490917F
:103DF0002D04032D192F20912E042B8380912F0445
:103E00002D878E873B9A34E03983432D40954F832D
:103E10003886998720952A875D855B878C879EE603
:103E2000892E912CA12CB12C0E942D022B013C013A
:103E300060E073E281E10E94E4198981843009F431
:103E400040C080EC98E00E94CD0160E372E081E127
:103E50000E94E4194981415049834423C1F00E94E2
:103E60002D02DC01CB0184199509A609B7098E360C
:103E70009105A105B105C0F6A5019401281B390BD8
:103E80004A0B5B0BCA01B9010E94FA01CDCF2E96F5
:103E90000FB6F894DEBF0FBECDBFDF91CF911F915B
:103EA0000F91FF90EF90DF90CF90BF90AF909F90D9
:103EB0008F907F906F905F904F903F902F900C94D9
:103EC0001F1C80E891E10E94CD012D853E852F3F8A
:103ED000310569F160F12B843C853C830F3F11056E
:103EE00051F148F158855D8389858E8320E22A83CC
:103EF00060E372E081E10E94E419C22CDC80ED8075
:103F0000FE8080E996E020FC02C080E392E00E94FF
:103F1000CD01F694E794D794C7942C2CDC82ED82E3
:103F2000FE823A8131503A833111E2CF8ECF2B801D
:103F30004A854C83D3CF3D829F819E83D7CF1F92EA
:103F40000F920FB60F9211242F933F938F939F934D
:103F5000AF93BF938091470490914804A091490486
:103F6000B0914A043091460423E0230F2D3768F1C5
:103F700026E8230F0296A11DB11D209346048093CD
:103F8000470490934804A0934904B0934A04809155
:103F90004B0490914C04A0914D04B0914E040196B5
:103FA000A11DB11D80934B0490934C04A0934D042C
:103FB000B0934E04BF91AF919F918F913F912F91FC
:103FC0000F900FBE0F901F9018950196A11DB11D67
:103FD000D4CF1F920F920FB60F9211242F933F93BD
:103FE0004F935F936F937F938F939F93AF93BF9301
:103FF000EF93FF9382E796E00E940903FF91EF9110
:10400000BF91AF919F918F917F916F915F914F91F0
:104010003F912F910F900FBE0F901F9018951F92F8
:104020000F920FB60F9211242F938F939F93EF93BC
:10403000FF93E0918206F09183068081E0918806EB
:10404000F091890682FD1BC0908180918B068F5F65
:104050008F7320918C06821741F0E0918B06F0E07F
:10406000EE58F94F958F80938B06FF91EF919F91BA
:104070008F912F910F900FBE0F901F9018958081F8
:10408000F4CF1F920F920FB60F9211240F931F932C
:104090002F933F934F935F936F937F938F939F9350
:1040A000AF93BF93CF93EF93FF93C3B10E94D5011A
:1040B0008B019C018091460390914703A091480396
:1040C000B0914903B901A801481B590B6A0B7B0B3E
:1040D000CA0100934603109347032093480330938B
:1040E000490320914A03C1FD88C0413066E4560768
:1040F00010F4211119C01092540381E080934A03F7
:10410000FF91EF91CF91BF91AF919F918F917F914F
:104110006F915F914F913F912F911F910F910F9050
:104120000FBE0F901F901895223069F59C01205208
:104130003D40213C3840C0F410924B031092500394
:1041400010925103109252031092530381E090E0B9
:10415000A0E0B0E080934C0390934D03A0934E03F6
:10416000B0934F0383E0CACF805996408136944084
:1041700008F07FC080914B03803208F47AC081E060
:1041800080935403EFCF243009F073C088519140DD
:10419000813C984008F06DC080914C0390914D0394
:1041A000A0914E03B0914F0340365440A0F040918F
:1041B0005003509151036091520370915303482B67
:1041C000592B6A2B7B2B40935003509351036093E0
:1041D000520370935303880F991FAA1FBB1F80932C
:1041E0004C0390934D03A0934E03B0934F038091E3
:1041F0004B038F5F80934B03B5CF213039F480544C
:104200009A4181389141A8F582E078CF233089F531
:10421000885191408133924060F580914B03803208
:1042200020F48091540380FF26C080915103809533
:1042300090915003981719F084E080935403809173
:104240005303809590915203981719F084E080935E
:104250005403789481E080931104809154038093F7
:1042600010048091500380930E0480915203809338
:104270000F0480E043CF84E041CFCF92DF92EF92F2
:10428000FF92CF93DF93E2E7F6E01382128288EE8B
:10429000C82E83E0D82EE12CF12CC482D582E68290
:1042A000F78284EA91E09183808385EC90E09587A2
:1042B000848784EC90E09787868780EC90E0918BF0
:1042C000808B81EC90E0938B828B82EC90E0958BDD
:1042D000848B86EC90E0978B868B118E128E138EDA
:1042E000148EEFE0F7E080E580831182E1E1F7E0F2
:1042F000158216821186138682E090E0A0E0B0E07D
:1043000084879587A687B78713A215A614A686EB80
:1043100091E093A782A717A6C1E8D7E01B821A8273
:10432000CC82DD82EE82FF8284ED91E099838883E6
:104330001B8A1A8AE5E9F7E060816D7F60836695E4
:10434000617081E0682786E00E94630161E086E099
:104350000E949101EBE4F1E0E491EC87E4E3F1E009
:10436000E491F0E0EE0FFF1FEC5DFE4F859194911C
:104370009E878D8764EE71E08BE797E00E942E1593
:1043800064EE71E085E797E00E942E15EAE5F7E01C
:1043900013821282C482D582E682F78282EC91E097
:1043A00091838083128E118E1486DF91CF91FF90BE
:1043B000EF90DF90CF900895CF93DF93CDB7DEB726
:1043C000A3970FB6F894DEBF0FBECDBF789484B527
:1043D000836084BD85B5836085BD80916E008160FA
:1043E00080936E0082E080938100809181008160E3
:1043F0008093810080918000816080938000809113
:10440000B10084608093B1008091B000816080939E
:10441000B00087E880937A001092C10040EF5DE71A
:1044200061EF7DE7A2EFBDE703EF1DE794EFE92E13
:104430009DE7F92E25EFC22E2DE7D22E36EFA32EC3
:104440003DE7B32E27EF3DE7FA0184918335E1F78D
:10445000FB0184918635C1F7FD0184918335A1F775
:10446000F8018491803281F7F7018491823461F7F9
:10447000F6018491813441F7F5018491823421F76A
:10448000F9018491893501F70E942D02609340045F
:1044900070934104809342049093430462E08EE061
:1044A0000E94910161E080E10E94910162E083E15C
:1044B0000E94910161E082E10E94910161E082E04D
:1044C0000E94910161E083E00E94910161E084E03B
:1044D0000E94910161E087E00E94910161E086E025
:1044E0000E94910161E085E00E94910160E088E016
:1044F0000E94910162E08FE00E94910160E084E0FF
:104500000E94630160E082E00E94630160E083E05A
:104510000E94630160E082E10E94630161E070E05B
:1045200080E090E00E94FA0161E082E10E94630174
:1045300060E083E00E94630160E080E10E9463012B
:1045400060E085E00E94630160E087E00E94630113
:1045500060E086E00E94630161E070E080E090E04E
:104560000E94FA0161E086E00E946301E091820608
:10457000F091830682E08083E0917E06F0917F06D1
:104580001082E0918006F09181068FEC808310927A
:104590008A06E0918606F091870686E08083E091A6
:1045A0008406F0918506808188698083E091840685
:1045B000F091850680818F7D8083219880916800AD
:1045C000816080936800EEE4F1E0E491E0936B0099
:1045D0000E944A0B8111C6C065E272E082E796E054
:1045E0000E944C1482E796E00E94E5141092370472
:1045F000109236048BE397E00E943D0B64E670E076
:1046000080E090E00E94FA016CE870E082E796E0BA
:104610000E9467022AE041E050E060E070E082E73B
:1046200096E00E945B146EE282E796E00E942B0304
:104630002AE041E050E060E070E082E796E00E940E
:104640005B142AE043E050E060E070E082E796E02F
:104650000E945B1464E670E080E090E00E94FA0142
:104660006AE182E796E00E942B0382E796E00E94CF
:10467000E514CC24C394D12C8091F6039091F703D8
:10468000892B09F085C0009124041091250478013C
:10469000FFEFEF1AFF0AF0922504E0922404D09273
:1046A0002704C092260461E082E00E94630161E079
:1046B00070E080E090E00E94FA0160E082E00E94F9
:1046C000630161E083E00E94630161E070E080E0EB
:1046D00090E00E94FA018FE00E943A019093F50366
:1046E0008093F403019709F04EC061E083E10E94DA
:1046F000910160E083E10E9463011093F70300934E
:10470000F603093F1105ECF761E070E080E090E00E
:104710000E94FA0129EFE216F1040CF4ADCF62E039
:1047200080E10E94910161E083E10E94910160E0DB
:1047300083E10E94630164EF71E080E090E00E94F9
:10474000FA0162E083E10E94910161E080E10E9450
:10475000910160E080E10E94630164EF71E080E01C
:1047600090E0D6CF6AE372E082E796E00E944C14B4
:1047700082E796E00E94E51481E090E09093370490
:104780008093360437CF62E083E10E949101BCCF71
:1047900061E070E080E090E00E94FA011092250450
:1047A0001092240481E090E09093270480932604E3
:1047B00062E083E10E94910160E086E00E94630173
:1047C00060E170E080E090E00E94FA0161E086E044
:1047D0000E94630180E092E00E944B1A90E0909367
:1047E000F5038093F4036091F4037091F5038091D5
:1047F000F6039091F7036817790709F49FC010E05A
:1048000000E08091F4039091F503081719070CF06C
:1048100071C061E080E10E94910160E080E10E944E
:1048200063010E942D026B017C01C092FA03D092B9
:10483000FB03E092FC03F092FD030E942D026C1931
:104840007D098E099F096C3271408105910578F4CC
:104850008EE00E943A01892B81F70E944D1A8091C7
:10486000F6039091F7039093F5038093F40320915E
:10487000F4033091F5038091F6039091F703281724
:104880003907C1F162E080E10E9491010E942D028E
:104890006B017C01C092FA03D092FB03E092FC030F
:1048A000F092FD030E942D026C197D098E099F096B
:1048B000683C71058105910578F48EE00E943A010B
:1048C000892B81F70E944D1A8091F6039091F7038E
:1048D0009093F5038093F4032091F4033091F50352
:1048E0008091F6039091F7032817390719F00F5FAD
:1048F0001F4F87CF0E942D026B017C01C092FA03EB
:10490000D092FB03E092FC03F092FD030E942D0283
:104910006C197D098E099F09683E734081059105D8
:1049200008F061CF8EE00E943A01892B79F70E944E
:104930004D1A8091F6039091F70351CF80E092E0F9
:104940000E94371A6091F6037091F7036F5F7F4FF3
:1049500070930501609304018AEF90E00E94533147
:104960006150710970930901609308018FEF91E024
:104970000E944B1A90E09093A9038093A8038EEFB6
:1049800091E00E944B1A90E09093A7038093A603B6
:104990008DEF91E00E944B1A90E09093A5038093D5
:1049A000A4038CEF91E00E944B1A90E09093A30334
:1049B0008093A2030E942D026B017C01C092FA0336
:1049C000D092FB03E092FC03F092FD038EE00E9484
:1049D0003A01892B89F462E080E10E9491010E94F2
:1049E0002D026C197D098E099F096131774281057D
:1049F000910560F30E944D1A61E080E10E949101EF
:104A000060E080E10E9463010E942D026093FA033E
:104A10007093FB038093FC039093FD030E942D028F
:104A200060933A0470933B0480933C0490933D045C
:104A300081E090E090933F0480933E048DE991E003
:104A40009093940780939307412C512C3201439407
:104A5000AA24AA94B12C01E010E082E796E00E941B
:104A6000E902892B09F4EBC14AE062E776E0CE0166
:104A70004C960E945F158C8C9D8C8114910439F0AA
:104A8000E8A0F9A06401E114F10409F0B9C36EE4EF
:104A900072E0CE0101960E942E15BE016F5F7F4F1E
:104AA000CE014C960E94EB14F82ECE0101960E9486
:104AB0004414FF20E1F01093270400932604809112
:104AC0002404909125040196909325048093240456
:104AD0001093F9030093F8032091F6033091F70344
:104AE0002817390724F410922504109224046BE54A
:104AF00072E0CE0101960E942E15BE016F5F7F4FBE
:104B0000CE014C960E94EB14F82ECE0101960E9425
:104B10004414FF20D9F010932704009326048091B9
:104B200024049091250401979093250480932404F4
:104B30001093F9030093F80397FF08C08091F603E0
:104B40009091F70390932504809324046AE672E021
:104B5000CE0101960E942E15BE016F5F7F4FCE01E0
:104B60004C960E94EB14F82ECE0101960E9444143C
:104B7000FF2009F464C0C8A0D9A0A1E18A2E912C1D
:104B800021E1C216D10420F04601B1E1CB2ED12C97
:104B900064EE71E0CE0101960E942E15E8A0F9A006
:104BA000CE14DF0450F58E149F0408F47401EC8DCC
:104BB000FD8DEE0DFF1D308010828C8D9D8DC80EF9
:104BC000D91EC114D10479F0F60101900020E9F753
:104BD00031974F018C189D08B401CE0101960E94B7
:104BE0000615811145C3CE0101960E9432148C8DA9
:104BF0009D8DE80EF91EF701308289819A81009718
:104C000009F43EC30E94F32D70932504609324049D
:104C100010932704009326041093F9030093F803DC
:104C20002091F6033091F7032617370724F43093C9
:104C3000250420932404CE0101960E9444146CE7BD
:104C400072E0CE0101960E942E15BE016F5F7F4F6C
:104C5000CE014C960E94EB14F82ECE0101960E94D4
:104C60004414FF2071F081E897E00E94E5146CE89D
:104C700072E081E897E00E94E91481E897E00E94E1
:104C8000E51469E972E0CE0101960E942E15BE017D
:104C90006F5F7F4FCE014C960E94EB14F82ECE0131
:104CA00001960E944414FF2071F081E897E00E9471
:104CB000E5146AEA72E081E897E00E94E91481E86D
:104CC00097E00E94E51468EB72E0CE0101960E9425
:104CD0002E15BE016F5F7F4FCE014C960E94EB14E4
:104CE000F82ECE0101960E944414FF2071F081E855
:104CF00097E00E94E51468EC72E081E897E00E947A
:104D0000E91481E897E00E94E5146FEC72E0CE01AF
:104D100001960E942E15BE016F5F7F4FCE014C960B
:104D20000E94EB14F82ECE0101960E944414FF203D
:104D300071F081E897E00E94E51460EE72E081E88E
:104D400097E00E94E91481E897E00E94E51468EE7C
:104D500072E0CE0101960E942E15BE016F5F7F4F5B
:104D6000CE014C960E94EB14F82ECE0101960E94C3
:104D70004414FF2071F081E897E00E94E51466EF8B
:104D800072E081E897E00E94E91481E897E00E94D0
:104D9000E51463E073E0CE0101960E942E15BE017A
:104DA0006F5F7F4FCE014C960E94EB14F82ECE0120
:104DB00001960E944414FF2071F081E897E00E9460
:104DC000E51462E173E081E897E00E94E91481E86C
:104DD00097E00E94E51460E273E0CE0101960E9424
:104DE0002E15BE016F5F7F4FCE014C960E94EB14D3
:104DF000F82ECE0101960E944414FF2021F010925B
:104E0000F9031092F8036FE273E0CE0101960E945D
:104E10002E15BE016F5F7F4FCE014C960E94EB14A2
:104E2000F82ECE0101960E944414FF2021F0109329
:104E3000F9030093F803CE014C960E94441410939A
:104E40000701009306010E942D02C090AA03D09092
:104E5000AB03E090AC03F090AD036C197D098E09B3
:104E60009F09613D77408105910538F480912204C6
:104E700090912304019709F05FC066EB70E082E730
:104E800096E00E9467026091F6037091F7034AE092
:104E900050E082E796E00E94A71482E796E00E9425
:104EA000E5148091220490912304019709F0ECC14C
:104EB00010922304109222040E942D026093AA03F0
:104EC0007093AB038093AC039093AD0367EA70E0FB
:104ED00082E796E00E94670281E897E00E94E5146D
:104EE0006DE373E081E897E00E94E9146091240487
:104EF000709125044AE050E081E897E00E94A714F1
:104F000060912404709125044AE050E082E796E025
:104F10000E94A71482E796E00E94E51481E897E0DA
:104F20000E94E5140E942D026093AA037093AB03C4
:104F30008093AC039093AD030E941F1C80912404C6
:104F4000909125049093F3038093F203F2ED2F2EBA
:104F5000F3E03F2E6101F60111921192119211922C
:104F60006F0182EF93E08E179F07A9F760E086E05C
:104F70000E94630161E070E080E090E00E94FA012D
:104F800061E086E00E94630161E085E00E946301C8
:104F900060E170E080E090E00E94FA0160E085E06E
:104FA0000E9463011092D1031092D0031092CF039C
:104FB0001092CE03E2EDEE2EE3E0FE2E70E2872E9D
:104FC000912C88E00E943A019093F5038093F403BA
:104FD0002091CE033091CF030197B9F4F70180817E
:104FE0009181A281B381B301A201022E04C0440FBA
:104FF000551F661F771F0A94D2F7842B952BA62B7B
:10500000B72B80839183A283B3832F5F3F4F30936D
:10501000CF032093CE038091D0039091D1030196CA
:105020009093D1038093D00360E087E00E946301F6
:105030008AE090E00E94CD0161E087E00E94630178
:10504000F1E08F1A910809F0BCCF1092CF031092B3
:10505000CE0324E0E20EF11CEC14FD0409F0AECF07
:105060008EEA93E09BA38AA362ED862E63E0962EE0
:105070006C01F60141915191619171916F01F401BF
:1050800081919191A191B1914F01481759076A07F8
:105090007B0751F00E942D026093400470934104FD
:1050A0008093420490934304FAECCF16F3E0DF06BA
:1050B00001F7F10181919191A191B1911F01EAA1B3
:1050C000FBA181939193A193B193FBA3EAA3E21473
:1050D000F30479F7809116049091170490931504C6
:1050E0008093140410921704109216048EE00E940C
:1050F0003A019093F5038093F403892B21F41093E4
:10510000170400931604E0901604F0901704E114BD
:10511000F10451F40E942D026093FA037093FB0393
:105120008093FC039093FD03809144049091450487
:10513000892B09F0B0C0F1E0EF16F10409F0AFC01F
:105140000E942D022091FA033091FB034091FC0351
:105150005091FD03621B730B840B950B693B7B40E5
:105160008105910520F0F0924504E09244040E94EC
:105170002D02C090FA03D090FB03E090FC03F09066
:10518000FD036C197D098E099F0961317742810504
:10519000910508F484C0E0903604F0903704E114DF
:1051A000F10409F0DCC010923904109238048091A7
:1051B0000801909109018E159F050CF40BC10E9406
:1051C000861B61E080E10E94910160E080E10E9425
:1051D00063016FEF80912A0490912B040E94371A8B
:1051E0006FEF80912804909129040E94371A0E9441
:1051F0001F1C0E94E612FFEFEF1AFF0AD8CF6101D1
:1052000016018FEF281A380AF6018081082E000C4B
:10521000990B0E943C30892B91F7F1E0EF1AF108CD
:10522000E80CF91CF7018081082E000C990B0E94F4
:105230003C30892B39F0EC14FD0420F0F1E0EF1A3A
:10524000F108F0CFA7014F5F5F4F4C195D0959A3DB
:1052500048A38C149D0420F4B601C4010E9492332B
:10526000EC8DFD8D88A199A1E80FF91F10820FCC5C
:105270009E828D82B60189819A810E94A633B7CC25
:1052800060E070E0CB01C0CC64E970E082E796E0BA
:105290000E94670235CEEA94EF2809F468CFE090C7
:1052A0001604F09017048091440490914504E11491
:1052B000F10409F4CAC0019709F0F4C062E080E18A
:1052C0000E949101E114F10409F0BCC18091140421
:1052D00090911504019709F0B5C1C0901204D090C7
:1052E000130464E670E080E090E00E94FA01CA9442
:1052F000CD2809F074C1C0903604D0903704C11491
:10530000D10409F03CC40E94E612809138049091C7
:10531000390460910401709105010E9453316C15AC
:105320007D050CF45CC16AEF70E080E090E00E94C3
:10533000FA0161E080E10E94910160E080E10E9459
:10534000630162E370E080E090E00E94FA0162E0B5
:1053500080E10E9491019FEFC91AD90AD6CF0E941D
:105360004A0B10933904009338040E94861B8091E5
:10537000380490913904892B49F16FEA77E18FE481
:1053800094E00E94D11668EC70E082E796E00E94FB
:10539000670282E796E00E94E5146FE474E082E71A
:1053A00096E00E94E91480913804909139040196A6
:1053B00090933904809338040E94861B62E877E159
:1053C0008FE494E00E94D1168111D1CF8BE397E056
:1053D0000E943D0B5CE0E52EF12C62E080E10E9432
:1053E000910160E170E080E090E00E94FA0161E0EC
:1053F00080E10E94910160E080E10E94630160E130
:1054000070E080E090E00E94FA0121E0E21AF108E9
:1054100021F7109245041092440480912404909145
:105420002504019790932504809324041092390455
:10543000109238040E942D026093FA037093FB03CC
:105440008093FC039093FD032ACF209114043091A4
:1054500015042130310509F02ECF009709F02BCF2C
:105460008091120490911304892BE1F43093270466
:105470002093260480912404909125040196909312
:105480002504809324043093F9032093F80320919A
:10549000F6033091F7032817390724F410922504F6
:1054A000109224040E942D02C0904004D090410428
:1054B000E0904204F09043046C197D098E099F0925
:1054C000653F71408105910510F00E948611E090C2
:1054D0002004F090210481E0E816F10499F50E947F
:1054E0002D0220911C0430911D0440911E04509106
:1054F0001F04621B730B840B950B613D7740810584
:10550000910500F10E942D0260931C0470931D040C
:1055100080931E0490931F04109221041092200483
:10552000F0921B04E0921A041092250410922404B5
:105530001092190410921804F0922704E0922604A5
:105540000E9486118091260490912704019709F00A
:105550008FC160E084E00E94630160E082E10E940C
:10556000630161E070E080E090E00E94FA0161E098
:1055700082E10E94630161E070E080E090E00E94BF
:10558000FA0160E083E00E94630161E070E080E086
:1055900090E00E94FA01D12CC12CE0902404F090FC
:1055A0002504CE14DF040CF02EC161E082E00E94DD
:1055B000630161E070E080E090E00E94FA0160E049
:1055C00082E00E9463018AE090E00E94CD0161E0E8
:1055D00083E00E946301FFEFCF1ADF0ADECF8091E4
:1055E000120490911304892B69F56AEF70E080E052
:1055F00090E00E94FA0161E080E10E94910160E088
:1056000080E10E94630164E670E080E090E00E9427
:10561000FA0162E080E10E9491011093130400936B
:10562000120410923904109238048091360490913B
:1056300037048130910569F49093390480933804DC
:105640000E94861B8091120490911304019709F027
:1056500090C00E94861B80911104882309F485C0A4
:105660001092110461E083E10E94910160E083E106
:105670000E94630160910E04862F90E090932F04A6
:1056800080932E0480910F0490E090932D048093DA
:105690002C048091360490913704892B71F4809109
:1056A0002A0490912B040E94371A60912C04809157
:1056B0002804909129040E94371A80913604909111
:1056C0003704019709F051C00E944A0B62E877E164
:1056D0008FE494E00E94D116811106C060EF77E15B
:1056E0008EEF93E00E94D11667E5CE0101960E94ED
:1056F000E718CE0101960E94DA0060EF70E08AE5BB
:1057000097E00E94670260912C0470912D044AE09A
:1057100050E08AE597E00E94A71464E473E08AE50C
:1057200097E00E94E91467EE70E08AE597E00E9436
:10573000670260912E0470912F044AE050E08AE5E0
:1057400097E00E94A71464E473E08AE597E00E9462
:10575000E91461ED70E08AE597E00E9467020E941B
:105760001F148BE397E00E943D0B62E083E10E94EF
:1057700091018091120490911304019709F092CE47
:105780008091160490911704019709F08BCE0E9426
:105790002D02C090FA03D090FB03E090FC03F09040
:1057A000FD036C197D098E099F09693B7B408105CA
:1057B000910508F477CE109245041092440410929B
:1057C0001304109212040E942D026093FA03709346
:1057D000FB038093FC039093FD0361E080E10E9452
:1057E000910160E080E10E94630180912404909126
:1057F0002504019790932504809324041092390482
:10580000109238044FCEE114F10471F460E082E1AB
:105810000E94630161E070E080E090E00E94FA0184
:1058200061E082E10E9463010E942D0260933A04CC
:1058300070933B0480933C0490933D0410933F0489
:1058400000933E041E141F0424F461E084E00E94CF
:10585000630180910601909107018130910521F447
:10586000909323048093220410922704109226041C
:1058700080913E0490913F04019709F070C10E940D
:105880002D02C0903A04D0903B04E0903C04F0908C
:105890003D046C197D098E099F096D3B724081059D
:1058A000910508F45CC10E942D0260933A04709344
:1058B0003B0480933C0490933D0410923F0410926B
:1058C0003E041092390410923804E0903604F090AF
:1058D000370481E0E816F10409F004C10E944A0B84
:1058E000F0923904E0923804F0923504E0923404E6
:1058F0000E94861B62E877E18FE494E00E94D11653
:10590000882309F442C010933504009334040E94A4
:10591000861B61E0CE0101960E94E718CE01019638
:105920000E94DA008AE597E00E94E10E892B41F19E
:1059300010923304109232044DE06AE577E0CE0114
:1059400001960E945F150E94C41070933304609307
:105950003204072E000C880B990B0E94FA014D812E
:105960005E8169817A8182E796E00E948B0282E7FC
:1059700096E00E94E514CE0101960E944414D2CF15
:105980000E941F140E94E612B3CF109235041092A9
:1059900034041093390400933804B0924B01A09260
:1059A0004A01B0920D01A0920C010E94861B62E890
:1059B00077E18FE494E00E94D116882309F44DC06A
:1059C0000E94861B61E0CE0101960E94E718CE017D
:1059D00001960E94DA008AE597E00E94E10E892B89
:1059E000D9F00E94C410C0903804D0903904CC0C77
:1059F000DD1CF601E65FFE4F718360830E94C410D8
:105A0000F601E85BFE4F718360830E94C4107093BF
:105A1000330460933204DFCF0E941F14609132047C
:105A200070913304072E000C880B990B0E94FA0129
:105A30000E94E6120E94861B8091380490913904DE
:105A4000880F991FFC01E85BFE4FB182A082865F40
:105A50009E4FFC01B182A082AACF8BE397E00E9407
:105A60003D0B8091380490913904909331048093D8
:105A700030041093390400933804809130049091DD
:105A800031048E159F050CF46AC080913804909102
:105A90003904880F991FFC01E85BFE4F208131819A
:105AA00030932F0420932E04865F9E4FFC0180814B
:105AB000918190932D0480932C048F3F910521F4C4
:105AC0002F3F310509F44BC0809134049091350487
:105AD000892B11F40E949B1E0E94E612FFEFEF1A21
