:100000000C94D0000C94F8000C94F8000C94E527A4
:100010000C948C270C94F8000C94F8000C94F800C5
:100020000C94F8000C94F8000C94F8000C94F80070
:100030000C94F8000C94F8000C94F8000C94F80060
:100040000C94EA260C94F8000C945A270C9434274C
:100050000C94F8000C94F8000C94F8000C94F80040
:100060000C94F8000C94F800705F6F666600705F87
:100070006F6E00440079007200730030003000534E
:10008000565320495220434F4D4D414E443D007C34
:100090003C3E5E2B3D3F2F5B5D3B2C2A225C007279
:1000A0005F5300795F53005356535F46575F004ECE
:1000B0006F205344204361726400535653204355CC
:1000C0005252454E5420494E5055543D00535653BC
:1000D000204E455720494E5055543D00535653200D
:1000E000544F54414C20494E505554533D00725F7B
:1000F0006F6E00795F6F6E00725F6F666600795F8A
:100100006F666600300031005253003000310059F4
:10011000530044656C6179286D696C6C6973656323
:100120006F6E6473293D3000416464726573733D82
:1001300000436F6D6D616E643D00000000002300A0
:100140002600290000000009000302000004050841
:10015000000000000000000000000000000000247B
:100160000027002A0000000000250028002B0004C2
:10017000040404040404040202020202020303034E
:10018000030303020203010204081020408001025D
:100190000408102001020408102040804000E128DB
:1001A00011241FBECFEFD8E0DEBFCDBF26E0AAE20C
:1001B000B2E001C01D92AB3DB207E1F712E0A0E052
:1001C000B1E0EEEAF6E702C005900D92AA32B1075F
:1001D000D9F710E0C0EDD0E004C02197FE010E94E5
:1001E000D239CF3CD107C9F70E9474290C94553BF2
:1001F0000C940000CF93DF93FC0182819381909354
:10020000A8068093A70684819581A681B7818093F3
:10021000A9069093AA06A093AB06B093AC0680857E
:100220009185A285B3858093AD069093AE06A09389
:10023000AF06B093B006DF011C96CF014996C1EB23
:10024000D6E02D912993A817B907D9F7818D928D02
:100250009093BF068093BE0685EA96E0DF91CF912A
:100260000895843081F028F48230E9F08330F9F089
:100270000895883071F0893091F08530B9F480911B
:1002800080008F7D03C0809180008F7780938000F5
:1002900008958091B0008F778093B0000895809189
:1002A000B0008F7DF9CF84B58F7784BD089584B574
:1002B0008F7DFBCFCF93DF93282F30E0F901EC5BEC
:1002C000FE4F8491F901EA57FE4FD491F901E159AB
:1002D000FE4FC491CC23A1F081110E943101EC2F7B
:1002E000F0E0EE0FFF1FE65CFE4FA591B491EC919C
:1002F000ED2381E090E009F480E0DF91CF91089553
:1003000080E090E0FACF1F93CF93DF93282F30E067
:10031000F901EC5BFE4F8491F901EA57FE4FD4914D
:10032000F901E159FE4FC491CC23A9F0162F811198
:100330000E943101EC2FF0E0EE0FFF1FEB59FE4F52
:10034000A591B4918FB7F894EC91111108C0D09594
:10035000DE23DC938FBFDF91CF911F910895DE2BB9
:10036000F8CFCF93DF9390E0FC01EA57FE4F249142
:1003700081599E4FFC0184918823C9F090E0880F39
:10038000991FFC01E55AFE4FA591B491FC01EB5970
:10039000FE4FC591D49161110DC09FB7F8948C9117
:1003A000209582238C938881282328839FBFDF9107
:1003B000CF910895623051F49FB7F8943C91822F09
:1003C000809583238C93E8812E2BEFCF8FB7F89401
:1003D000EC912E2B2C938FBFEACF880F991F880F9B
:1003E000991F05970197F1F708953FB7F894809109
:1003F000760390917703A0917803B091790326B5A5
:10040000A89B05C02F3F19F00196A11DB11D3FBF4C
:10041000BA2FA92F982F8827BC01CD01620F711D1B
:10042000811D911D42E0660F771F881F991F4A9515
:10043000D1F708958F929F92AF92BF92CF92DF92A1
:10044000EF92FF926B017C010E94F5014B015C0170
:10045000C114D104E104F104B9F00E94F501681956
:1004600079098A099B09683E73408105910580F3EB
:1004700021E0C21AD108E108F10888EE880E83E075
:10048000981EA11CB11CE4CFFF90EF90DF90CF909D
:10049000BF90AF909F908F9008952FB7F894609180
:1004A00072037091730380917403909175032FBF51
:1004B00008958F929F92AF92BF92EF92FF920F9307
:1004C0001F93CF93DF93EC018AE7E82E83E0F82EA9
:1004D00010E000E00E944D02688779878A879B8739
:1004E000E881F9810284F385E02DCE01099597FF1B
:1004F0001FC00E944D0288849984AA84BB84681915
:1005000079098A099B098C809D80AE80BF8068151F
:1005100079058A059B0520F3C801DF91CF911F91D2
:100520000F91FF90EF90BF90AF909F908F900895A4
:100530008A30910589F3F70181937F010F5F1F4F87
:100540000F33110539F6E8CF0895EF92FF920F931C
:100550001F93CF93DF938C017B01D0E0C0E0F701C4
:10056000EC0FFD1F6491662361F0D801ED91FC91C1
:100570000190F081E02DC8010995892B11F0219699
:10058000EECFCE01DF91CF911F910F91FF90EF90B1
:100590000895AF92BF92CF92DF92EF92FF920F93A6
:1005A0001F93CF93DF936C017B018B01040F151F09
:1005B000EB015E01AE18BF08C017D10759F0699171
:1005C000D601ED91FC910190F081E02DC6010995D5
:1005D000892B79F7C501DF91CF911F910F91FF9082
:1005E000EF90DF90CF90BF90AF900895FC01538DB6
:1005F000448D252F30E0842F90E0821B930B5417FD
:1006000010F0CF96089501970895FC01918D828D89
:10061000981761F0A28DAE0FBF2FB11D5D968C9122
:10062000928D9F5F9F73928F90E008958FEF9FEF61
:100630000895FC01918D828D981731F0828DE80F1D
:10064000F11D858D90E008958FEF9FEF0895FC01D7
:10065000918D228D892F90E0805C9F4F821B9109A4
:100660008F73992708958DEB95E00E94270321E071
:10067000892B09F420E0822F089580E090E0892BF7
:1006800029F00E94330381110C9400000895FC01AD
:10069000A48DA80FB92FB11DA35ABF4F2C91848DE3
:1006A00090E001968F739927848FA689B7892C9340
:1006B000A089B1898C91837080648C93938D848D93
:1006C000981306C00288F389E02D80818F7D808396
:1006D0000895EF92FF920F931F93CF93DF93EC0156
:1006E00081E0888F9B8D8C8D98131AC0E889F989D9
:1006F000808185FF15C09FB7F894EE89FF896083DC
:10070000E889F98980818370806480839FBF81E05C
:1007100090E0DF91CF911F910F91FF90EF9008959E
:10072000F62E0B8D10E00F5F1F4F0F731127E02E79
:100730008C8D8E110CC00FB607FCFACFE889F989B1
:10074000808185FFF5CFCE010E944703F1CFEB8D6D
:10075000EC0FFD2FF11DE35AFF4FF0829FB7F89485
:100760000B8FEA89FB8980818062CFCFCF93DF93A3
:10077000EC01888D8823B9F0AA89BB89E889F989B9
:100780008C9185FD03C0808186FD0DC00FB607FCEE
:10079000F7CF8C9185FFF2CF808185FFEDCFCE0121
:1007A0000E944703E9CFDF91CF9108958FB7F89466
:1007B000809181028FBF089561E0FC0184810E94D5
:1007C00083018091800281111092800208958EBD74
:1007D00000000DB407FEFDCF8EB508958FEF0C9489
:1007E000E7030F931F93CF93DF93EC010E944D0219
:1007F0008B010E94EE038F3F69F00E944D02601B47
:10080000710B6C177D07A8F380E0DF91CF911F91EA
:100810000F91089581E0F9CF8CBD9DBD0895CF93D0
:10082000DF93EC0180918002811109C081E0809307
:10083000800280915A0690915B060E940C0460E051
:100840008C81DF91CF910C9483018F929F92AF9214
:10085000BF92FF920F931F93CF93DF93EC01F62E7D
:1008600049015A018E81882389F08F8198859C01E6
:100870002F5F3F4F38872F838230924018F40E94B9
:10088000EE03F3CFCE010E94DC031E82CE010E9454
:100890000F048CE291E00E94F1038F2D80640E948E
:1008A000E70308E110E0D501C401002E04C0B695AD
:1008B000A795979587950A94D2F70E94E703085069
:1008C0001109083F8FEF180771F785E9FF2021F024
:1008D00028E087E8F2128FEF0E94E70310E00E9401
:1008E000EE038A8787FF04C01F3F11F01F5FF7CF19
:1008F000DF91CF911F910F91FF90BF90AF909F908C
:100900008F900895AF92BF92CF92DF92EF92FF92B5
:100910000F931F93CF93DF93EC016901C801820FFE
:10092000931F8130924050F58E81882379F0888121
:100930009981AA81BB8184179507A607B70731F46F
:100940008F819885C816D90608F042C0488359831C
:100950006A837B838B85833039F089E0440F551F90
:10096000661F771F8A95D1F79A01AB0161E1CE012D
:100970000E942504882389F083E08D83CE010E94A4
:10098000DC0380E0DF91CF911F910F91FF90EF90FA
:10099000DF90CF90BF90AF9008950E944D025B0111
:1009A0000E94EE038A878F3F69F40E944D026A1904
:1009B0007B096D327140A0F38FE08D83CE010E94E0
:1009C000DC03DCCF8E3F89F418861F8281E08E83A2
:1009D0008F8198858C159D0550F40E94EE038F81C0
:1009E0009885019698878F83F3CF8DE0E6CF6701D6
:1009F000E00EF11E0E94EE03F60181936F01EE15E9
:100A0000FF05C1F78F819885080F191F18870F837D
:100A10008985882319F001151240A0F08E81882362
:100A200089F08F8198859C012F5F3F4F38872F83F6
:100A30008230924018F40E94EE03F3CFCE010E9460
:100A4000DC031E8281E09ECFCF92DF92EF92FF9275
:100A50000F93CF93DF93EC01690182E141155105BA
:100A60006105710599F08B85833039F089E0440F79
:100A7000551F661F771F8A95D1F79A01AB0168E170
:100A8000CE010E942504882319F084E08D832DC0B7
:100A90008EEF0E94E70376018EEFD81AF70181915D
:100AA0007F010E94E703EC14FD04C1F78FEF0E9461
:100AB000E7038FEF0E94E7030E94EE038A878F719E
:100AC000853071F4011116C0CE010E94DC0381E073
:100AD000DF91CF910F91FF90EF90DF90CF9008952D
:100AE00081E18D83CE010E94DC03CE010E94DC03F4
:100AF00080E0EECF88E592E00E94F103811102C010
:100B000085E1C4CF20E030E0A9016DE0CE010E9474
:100B10002504882311F084E1B9CF0E94EE038111EE
:100B2000FACFD2CF0F93409183025091840260910B
:100B3000850270918602411551056105710599F094
:100B4000082F2DEB33E08091BB039091BC030E94F2
:100B50002405882349F01092830210928402109297
:100B600085021092860281E00F9108950F93CF9332
:100B7000C82F80918202811105C0C1E08C2FCF91D6
:100B80000F91089540910A0150910B0160910C0161
:100B900070910D010C2F2DEB33E08091BB039091F0
:100BA000BC030E942405811102C0C0E0E7CFCC2322
:100BB00021F381E00E9492058823B9F3109282020A
:100BC000DDCF8F929F92AF92BF92EF92FF920F93E1
:100BD0001F93CF934B015C01C42F80910A01909128
:100BE0000B01A0910C01B0910D0188159905AA0582
:100BF000BB0551F181E00E94B60581110BC080E078
:100C0000CF911F910F91FF90EF90BF90AF909F9069
:100C10008F9008958DEBE82E83E0F82E00E012E02F
:100C200030E020E0B501A4018091BB039091BC03AA
:100C30000E948204882319F380920A0190920B018A
:100C4000A0920C01B0920D01409182024C2B409376
:100C5000820281E0D5CFCF93DF93EC016E857F8553
:100C60008889998941E00E94E105882351F08A89A9
:100C700020E2829FC001112483549C4FDF91CF91C9
:100C8000089590E080E0FACF8F929F92AF92BF924A
:100C9000CF92DF92EF92FF92CF932CE536E0309324
:100CA000BC032093BB03882309F46DC040E060E0DF
:100CB00070E0CB010E94E10581110BC080E0CF9173
:100CC000FF90EF90DF90CF90BF90AF909F908F906C
:100CD000089580917B058F7789F7809187059091A2
:100CE0008805A0918905B0918A0584369105A105F2
:100CF000B10520F3C0908305D0908405E090850570
:100D0000F0908605C114D104E104F104B9F240E089
:100D1000C701B6010E94E105882381F28091C803D2
:100D20009091C9038115924049F6A091CD03AA2361
:100D300029F26091CB037091CC036115710509F420
:100D4000BDCF2091CA03222309F4B8CFA0937A061D
:100D500020936C0690E080E030E0E1E0F0E0C82F06
:100D6000AF01082E02C0440F551F0A94E2F7241762
:100D7000350769F041E0480F01968930910579F710
:100D8000409375069BCFC12CD12C7601C0CF8093A8
:100D900075062091D3033091D40350E040E0211533
:100DA000310541F42091E1033091E2034091E303E6
:100DB0005091E40320936D0630936E0640936F06C6
:100DC0005093700646015701860E971EA11CB11C58
:100DD00080927B0690927C06A0927D06B0927E0661
:100DE000E091CE03F091CF03F0938106E09380066B
:100DF000B0E00E945939DC01CB01880D991DAA1D74
:100E0000BB1D8093820690938306A0938406B093C3
:100E1000850625E0EE0FFF1F2A95E1F7E150FE4F12
:100E2000EF2FFF27E6958E0F9F1FA11DB11D809309
:100E3000760690937706A0937806B0937906809013
:100E4000D0039090D103B12CA12C8114910441F4D2
:100E50008090DD039090DE03A090DF03B090E0036C
:100E6000C81AD90AEA0AFB0AC80CD91CEA1CFB1CDE
:100E700004C0F694E794D794C794CA95D2F7C09269
:100E80007106D0927206E0927306F092740685EFB6
:100E9000C8168FE0D806E104F10428F48CE08093B2
:100EA0007F0681E00CCF80E125EFC2162FEFD2063E
:100EB000E104F104A0F38091E9039091EA03A09189
:100EC000EB03B091EC038093820690938306A0938A
:100ED0008406B093850680E2E2CF4F925F926F92D4
:100EE0007F928F929F92AF92BF92CF92DF92EF92BA
:100EF000FF920F931F93CF93DF93EC014230510584
:100F00006105710590F480E0DF91CF911F910F9101
:100F1000FF90EF90DF90CF90BF90AF909F908F9019
:100F20007F906F905F904F90089589859A85AB85EB
:100F3000BC850196A11DB11D84179507A607B707AB
:100F400010F3CB88DC88ED88FE888F89803109F02A
:100F500042C0BB27A72F962F852F480159012A0190
:100F60003B01C80ED91EEA1EFB1E80910A0190911A
:100F70000B01A0910C01B0910D01C816D906EA062B
:100F8000FB0699F58F898031C1F5B301A201552780
:100F900066277727440F551F43545C4FFA0191820F
:100FA0008082809182028160809382028A8982306D
:100FB00080F08D819E81AF81B8858C0D9D1DAE1D09
:100FC000BF1D8093830290938402A0938502B09307
:100FD000860281E099CFDB01CA01E7E0B695A795CB
:100FE00097958795EA95D1F7B8CF40E0C701B6014C
:100FF0000E94E1058111C6CF86CFB301A2014F77D0
:10100000552766277727440F551F440F551F435414
:101010005C4FFA0180829182A282B382C2CF8F920A
:101020009F92AF92BF92CF92DF92EF92FF920F9377
:101030001F93CF93DF93FC0181859285A385B485AF
:101040000196A11DB11D84179507A607B70770F477
:1010500080E0DF91CF911F910F91FF90EF90DF9093
:10106000CF90BF90AF909F908F9008958388948881
:10107000A588B6888789803189F5BB27A72F962F49
:10108000852FE9016A017B018F01BC01CD01680D4B
:10109000791D8A1D9B1D80900A0190900B01A090E4
:1010A0000C01B0900D0186169706A806B90601F549
:1010B000F8018789803111F5DD24EE24FF24F60143
:1010C000EE0FFF1FE354FC4F80819181B0E0A0E060
:1010D00088839983AA83BB8381E0BBCFDB01CA01EC
:1010E000C7E0B695A79597958795CA95D1F7C9CFCB
:1010F00040E00E94E1058111DBCFAACFE894C7F858
:10110000DD24EE24FF24F601EE0FFF1FEE0FFF1F7C
:10111000E354FC4F80819181A281B381BF70D8CF0D
:101120004F925F926F927F92AF92BF92CF92DF9277
:10113000EF92FF920F931F93CF93DF9300D000D0D5
:10114000CDB7DEB78C0149835A836B837C83590109
:10115000C12CD12C7601412C82E0582E612C712CAF
:1011600049815A816B817C819E012F5F3F4FC8016D
:101170000E940F08882339F1F8018585A3019201A7
:1011800004C0220F331F441F551F8A95D2F7DA017E
:10119000C901C80ED91EEA1EFB1E49815A816B8106
:1011A0007C818789803111F188EF9FEFAFEFBFE03D
:1011B000481759076A077B0798F2F501C082D18268
:1011C000E282F38281E00F900F900F900F90DF91F9
:1011D000CF911F910F91FF90EF90DF90CF90BF9034
:1011E000AF907F906F905F904F90089588EF9FEF42
:1011F000A0E0B0E0DDCFCF93DF93FC012581222377
:1012000021F080E0DF91CF910895EC0180917F067D
:10121000803159F582E08583178A108E118E128EE7
:101220008091800690918106B0E0A0E025E0880FD3
:10123000991FAA1FBB1F2A95D1F7838B948BA58B6F
:10124000B68B88E696E09C8F8B8F81E08C831E8224
:101250001F82188619861A861B861C861D861E8686
:101260001F86188A198A1A8ACDCF803251F683E0F8
:101270008583409182065091830660918406709127
:101280008506478B508F618F728F9F012D5E3F4F78
:1012900088E696E00E9490088111D3CFB2CF8F925A
:1012A0009F92AF92BF92CF92DF92EF92FF920F93F5
:1012B0001F93CF93DF93EC018D8181110EC080E0ED
:1012C000DF91CF911F910F91FF90EF90DF90CF9022
:1012D000BF90AF909F908F9008950B891C892D89A6
:1012E0003E89041715072607370748F34A015B01B3
:1012F000823031F48A869B86AC86BD8681E0E0CF61
:1013000081149104A104B10449F41E821F8218863D
:1013100019861A861B861C861D86F0CF0A851B85BA
:101320002C853D85EB8DFC8D858590E00996B90176
:10133000A8014150510961097109082E04C0769530
:101340006795579547950A94D2F775016401E1E0D6
:10135000CE1AD108E108F10804C0F694E794D794B6
:10136000C7948A95D2F7C416D506E606F70620F08C
:10137000012B022B032B11F58F89988DA98DBA8D26
:101380008E839F83A887B9878E010A5F1F4FC11480
:10139000D104E104F10409F4ADCF4E815F81688589
:1013A000798598018B8D9C8D0E940F0891E0C91A58
:1013B000D108E108F1088111EACF81CFC41AD50A1A
:1013C000E60AF70AE1CF3F924F925F926F927F92C7
:1013D0008F929F92AF92BF92CF92DF92EF92FF9245
:1013E0000F931F93CF93DF93CDB7DEB72C970FB634
:1013F000F894DEBF0FBECDBF5C01DC015B968D9023
:101400009C905C9716964D905D906D907C9019978E
:10141000411451046104710409F468C0BFEF4B1A10
:101420005B0A6B0A7B0A312CF40181859285A385C6
:10143000B4859C01AD012F5F3F4F4F4F5F4F298710
:101440003A874B875C87730162011D821E821F826F
:101450001886F40181859285A385B4852D813E810E
:101460004F815885281739074A075B0708F056C08F
:1014700089859A85AB85BC858C159D05AE05BF0514
:1014800050F482E0C82ED12CE12CF12C92E0492EB0
:10149000512C612C712C9E012F5F3F4FB701A6018B
:1014A000C4010E940F088823C9F189819A81AB8108
:1014B000BC81892B8A2B8B2B09F1260137019FEFE9
:1014C000491A590A690A790A2D813E814F81588546
:1014D0002F5F3F4F4F4F5F4F2D833E834F83588782
:1014E0003FEFC31AD30AE30AF30AB3CFF4014080F3
:1014F0005180628073803324339496CFC414D50412
:10150000E604F70409F70FEF1FEF2FEF3FE0B701F5
:10151000A601C4010E946D07811119C080E02C96BC
:101520000FB6F894DEBF0FBECDBFDF91CF911F91F4
:101530000F91FF90EF90DF90CF90BF90AF909F9072
:101540008F907F906F905F904F903F900895D5015E
:1015500016964D915D916D917C91199741155105AC
:101560006105710539F097018601C4010E946D077C
:101570008823A1F2D5011696CD92DD92ED92FC92D0
:101580001997332051F0D701C6010196A11DB11D55
:10159000F40180839183A283B383F5018789908DC1
:1015A000A18DB28D892B8A2B8B2B39F48481C78A2C
:1015B000D08EE18EF28E80688483F5018481806212
:1015C000848381E0ACCF1F93CF93DF93FC0125810F
:1015D000222371F1162FEC01848187FF1EC0CF01F9
:1015E0000E942B06FC01892B19F18D81823040F479
:1015F0008B899C89AD89BE89848F958FA68FB78F83
:101600008F89988D938F828F8F89988DA98DBA8DB0
:10161000B58BA48B8C818F778C83111103C08C8147
:101620008F7E8C83812FDF91CF911F910C94B60513
:1016300080E0DF91CF911F910895FF920F931F9348
:10164000CF93DF93EC018D81813041F090E080E019
:10165000DF91CF911F910F91FF9008958C8181FFB1
:10166000F5CF82FD1BC00091BB031091BC03C801E4
:101670000E940F040E94EE03F82EC8010E94DC03B2
:101680008FEFF812E3CF8C8185FF1BC060E0CE01A5
:101690000E94E30A8C818F7D8C83D8CF4B895C8933
:1016A0006D897E898A859B85AC85BD858417950764
:1016B000A607B707C1F2CE010E944F098111D3CF0F
:1016C000C5CF409183025091840260918502709150
:1016D0008602452B462B472B21F080E00E94920585
:1016E000B5CF80618C832A853B85317080E092E0A4
:1016F000821B930BADCFCF93DF93EC0161E00E948F
:10170000E30A882311F01D8281E0DF91CF910895D3
:10171000CF92DF92EF92FF921F93CF93DF9380914E
:101720008B06882321F086E896E00E947B0B1092BE
:1017300067061092650610926206109261068AE0B2
:10174000809360060E944D02EB0161E0809160068B
:101750000E94B10161E0809160060E9483011FB781
:10176000F8948091BA03811127C0E9E7F1E08491F0
:10177000E0E9F1E09491E82FF0E0EE0FFF1FE55A69
:10178000FE4FA591B491EC91E92321F461E08AE048
:101790000E94830161E08AE00E94B1018CB5806102
:1017A0008CBD8CB580648CBD61E08DE00E94B10180
:1017B00061E08BE00E94B1018091BA038F5F80935A
:1017C000BA031FBF82E580935A0610925B06809190
:1017D0005A0690915B060E940C041AE08FEF0E945B
:1017E000E7031150D9F78CE596E00E940F0420E042
:1017F00030E0A90160E08CE596E00E942504182FF6
:1018000080936606813081F00E944D026C1B7D0B37
:10181000613D774060F381E0809361068CE596E05E
:101820000E94DC0390E078C02AEA31E040E050E01A
:1018300068E08CE596E00E94250482FF2AC01093A0
:10184000670680916706C12CD12C7601823029F47D
:10185000C12CD12CE12C80E4F82E20E030E0A9014D
:1018600067E38CE596E00E942504A701960169E2F2
:101870008CE596E00E942504809366068823C1F0DB
:101880000E944D026C1B7D0B613D774030F388E078
:10189000C3CF14E00E94EE03809366061150D1F787
:1018A0008A3A11F082E0B8CF82E080936706C9CF10
:1018B000809167068230D1F420E030E0A9016AE32C
:1018C0008CE596E00E942504882311F086E0A4CFE1
:1018D0000E94EE03807C803C19F483E080936706CD
:1018E0000E94EE030E94EE030E94EE038CE596E058
:1018F0000E94DC0380E580935A0610925B0681E02B
:101900000E944406882389F086E896E00E94FB083E
:1019100091E0882309F486CF892FDF91CF911F9121
:10192000FF90EF90DF90CF90089580E00E944406F2
:10193000882309F477CFE8CF8F929F92AF92BF921E
:10194000CF92DF92EF92FF92CF93DF93EC010E9450
:10195000E30981110CC080E0DF91CF91FF90EF90FF
:10196000DF90CF90BF90AF909F908F900895EB8DB8
:10197000FC8DCE80DF80E884F98482E0C81AD1082B
:10198000E108F108858504C0CC0CDD1CEE1CFF1CB1
:101990008A95D2F786859785A089B189C80ED91E08
:1019A000EA1EFB1E848146015701880E911CA11C72
:1019B000B11CC814D904EA04FB04F9F081E0881AC8
:1019C0009108A108B10881E00E94B605882319F2A8
:1019D000EDEBF3E0119285E0ED3BF807D9F780924B
:1019E0000A0190920B01A0920C01B0920D0180911E
:1019F0008202816080938202DCCFEB8DFC8D258595
:101A000080E092E0A0E0B0E004C0880F991FAA1F18
:101A1000BB1F2A95D2F74B895C896D897E89840F1B
:101A2000951FA61FB71F8B8B9C8BAD8BBE8B81E048
:101A300093CF2F923F924F925F926F927F928F92AD
:101A40009F92AF92BF92CF92DF92EF92FF920F934D
:101A50001F93CF93DF9300D000D01F92CDB7DEB796
:101A60007C015B01342E5D83DC0115968C9115970A
:101A7000813009F0CEC014962C9021FECAC022FC01
:101A8000B4C0C32CDD8022947FE027222094B22DA5
:101A9000B1702B2ED7011A964D915D916D917C916D
:101AA0001D97C114D10409F428C15B968D919C91B6
:101AB0005C97FC0174807A948A019B0169E03695F9
:101AC0002795179507956A95D1F770228A011170AD
:101AD000711020C001151105E9F416964D915D9124
:101AE0006D917C911997411551056105710509F0BA
:101AF00099C057968D919D910D90BC91A02D009706
:101B0000A105B10509F0B0C0C7010E94E30988230F
:101B100009F47FC080E092E0801B910B46018C1598
:101B20009D0508F44C01D7015B964D915C915C9743
:101B300016968D919D910D90BC91A02D0297A109B3
:101B4000B109FA01258504C0880F991FAA1FBB1F80
:101B50002A95D2F74685578560897189840F951F2C
:101B6000A61FB71F9C01AD01270D311D411D511D41
:101B700029013A01811432E0930609F07BC080917B
:101B80000A0190910B01A0910C01B0910D018415F7
:101B90009505A605B70559F48FEF9FEFDC018093FB
:101BA0000A0190930B01A0930C01B0930D01022D3B
:101BB0009501B301A2018091BB039091BC030E94E7
:101BC0002405882331F19EEFB91AC818D908F70106
:101BD00082859385A485B585880D991DA11DB11DAC
:101BE00082879387A487B58755CFF70143895489A6
:101BF0006589768982859385A485B58548175907B7
:101C00006A077B0709F43DCFC7010E944F09811184
:101C100038CF81E090E0D70113969C938E93129772
:101C200080E007C09E012F5F3F4F0E940F08811187
:101C300002C090E079C089819A81AB81BC81F701B3
:101C4000238D348DF901278948EF5FEF60E070E064
:101C5000203121F048EF5FEF6FEF7FE084179507A9
:101C6000A607B70708F050CFF70186839783A087B0
:101C7000B18750CF0115110599F5D7011A964D91ED
:101C80005D916D917C911D9753968D919D910D90D5
:101C9000BC91A02D481759076A077B0708F181E01E
:101CA0000E94B605882309F4B4CF40920A015092ED
:101CB0000B0160920C0170920D0180918202816093
:101CC00080938202C80183549C4FD5019C01280D4A
:101CD000391DFC012E173F0759F04D914193FACF62
:101CE00041E0C301B2010E94E1058111EBCF91CF28
:101CF000281B390BA20EB31E68CFF7018389948984
:101D0000A589B68984179507A607B70738F4848193
:101D1000438B548B658B768B80688483F701848139
:101D200083FD1AC0832D9D810F900F900F900F900F
:101D30000F90DF91CF911F910F91FF90EF90DF9067
:101D4000CF90BF90AF909F908F907F906F905F905B
:101D50004F903F902F90089561E0C7010E94E30AE1
:101D6000882309F456CFDECFCF93DF931F92CDB7F0
:101D7000DEB7698341E050E0BE016F5F7F4F0E9494
:101D8000190D0F90DF91CF910895FC01DB011296A0
:101D90008D919C9113979383828381E791E0918346
:101DA000808314968C911497848315968C91159743
:101DB000858316964D915D916D917C91199746831F
:101DC0005783608771871A964D915D916D917C91D3
:101DD0001D9742875387648775871E964D915D9145
:101DE0006D917C91519746875787608B718B529686
:101DF0008C915297828B53964D915D916D917C9110
:101E00005697438B548B658B768B57964D915D918E
:101E10006D917C915A97478B508F618F728F5B9633
:101E20008D919C91948F838F08950895FC01818DED
:101E3000928D009719F061E00C94E30A0895DC019B
:101E40005996ED91FC913097B9F083899489A589D1
:101E5000B6894285538564857585841B950BA60BD1
:101E6000B70B811520E89207A105B10538F08FEF77
:101E70009FE7A0E0B0E0089590E080E00895DC01E5
:101E800059968D919C91009739F0DC01ED91FC9170
:101E90000480F581E02D099490E080E00895CF93CF
:101EA000DF93EC01E98DFA8D309749F481E090E001
:101EB0009B838A8390E080E0DF91CF910895138225
:101EC0001282898D9A8D0E94190DE98DFA8D2281D9
:101ED0003381232B59F7F0CFCF93DF931F92CDB7E8
:101EE000DEB76983DC01ED91FC910280F381E02D86
:101EF00041E050E0BE016F5F7F4F09950F90DF9189
:101F0000CF9108952F923F924F925F926F927F925E
:101F10008F929F92AF92BF92CF92DF92EF92FF92F9
:101F20000F931F93CF93DF9300D01F92CDB7DEB7EF
:101F3000FC018581811118C08FEF9FEF0F900F90EA
:101F40000F90DF91CF911F910F91FF90EF90DF9055
:101F5000CF90BF90AF909F908F907F906F905F9049
:101F60004F903F902F900895848180FFE5CF438963
:101F700054896589768982859385A485B585312CB8
:101F8000212C481759076A077B0719F0222423944C
:101F9000312C6F012101CE0101963C01DF01169623
:101FA000BB83AA834114510409F4C5C0F6014285DC
:101FB0005385648575854A01F1E09F22D6015B96C1
:101FC0008D919C915C978A019B01E9E0369527955C
:101FD00017950795EA95D1F71596EC91E230E9F55A
:101FE000FC01628D738D848D958D600F711F821F32
:101FF000931FA12C22E0B22EA818B9084A145B0442
:1020000008F45201F601248126FD04C0A114F2E077
:10201000BF0671F400910A0110910B0120910C018F
:1020200030910D01061717072807390709F05EC020
:1020300040E00E94E105882309F47ECFC401835467
:102040009C4FD3019C012A0D3B1DFC012E173F071D
:1020500009F46CC041914D93F9CFDC011496BC900A
:10206000BA94B0228114910479F4B1100DC0452BBB
:10207000462B472B69F5F6018789908DA18DB28D8E
:1020800086839783A087B187D6015B96ED91FC91FB
:102090005C9716966D917D918D919C9119976250E8
:1020A000710981099109258504C0660F771F881F72
:1020B000991F2A95D2F70685178520893189600FE7
:1020C000711F821F931F6B0D711D811D911D91CF7B
:1020D000D60116964D915D916D917C9119972A814B
:1020E0003B810E940F088111CFCF26CF730185015C
:1020F0009401AB01BC018091BB039091BC030E9491
:102100008204882309F418CF6A0C7B1CF6018285AF
:102110009385A485B5858A0D9B1DA11DB11D828760
:102120009387A487B5874A185B083CCF281B390BD7
:10213000620E731EEBCF2A94232809F0FDCE89810D
:1021400090E0FCCEFC01818D928D009711F00C94F3
:10215000820F8FEF9FEF08950F931F93CF93DF931D
:10216000EC01898D9A8D10E000E0009799F00E94B3
:10217000820F8C010F3F100769F0898D9A8DFC0149
:1021800042855385648575854150510961097109FE
:102190000E944F09C801DF91CF911F910F910895BF
:1021A0000F931F930E944D026093AD067093AE068D
:1021B0008093AF069093B00685EA96E00E94AC103B
:1021C00097FF1DC00E944D020091AD061091AE0612
:1021D0002091AF063091B006601B710B820B930B00
:1021E0000091A9061091AA062091AB063091AC0689
:1021F0006017710782079307F8F28FEF9FEF1F9127
:102200000F910895CF92DF92EF92FF92CF930E94A9
:10221000D010FC0197FD4EC08D32910521F0C09782
:102220000A9708F040C0C12CD12C7601C0E0E13003
:10223000F105D1F0ED32F105D9F1CF01C0970A9740
:1022400098F4AAE0B0E0A70196010E9459396F0105
:10225000FF0FEE08FF08C60ED71EE81EF91E80E32A
:10226000C81AD108E108F10885EA96E00E94A21098
:102270000E94D010FC01C0970A97C8F2E130F10526
:10228000B1F2CC2341F0F094E094D094C094C11CFE
:10229000D11CE11CF11CC701B601CF91FF90EF905A
:1022A000DF90CF90089585EA96E00E94A210AFCF0C
:1022B000C1E0DACFC12CD12C7601EDCF8FEF9FEFAB
:1022C000089590E080E008950895EF92FF920F93B3
:1022D0001F93CF93DF93DC015296ED90FC905397C0
:1022E000E114F10479F481E090E013969C938E93CD
:1022F000129790E080E0DF91CF911F910F91FF90B6
:10230000EF9008951D96ED91FC911E971C968C916F
:102310001C97982F90950FB754962C915497122F85
:10232000127021FD6095F8942081112319F1282B5A
:102330002083E7012197F1F728E0462F50E0308114
:1023400060FF1AC0382B3083E7012197F1F7BA01FB
:1023500075956795215089F7112381F08081892334
:1023600080830FBF52968D919C910197F1F781E088
:1023700090E0C1CF2923DCCF3923E5CF9081892B91
:10238000EFCF90E080E0089560E082E00E9483015A
:102390008AE090E00E94ED0161E082E00E9483010A
:1023A00061E070E080E090E00E941A0261E083E06A
:1023B0000C948301809166039091670320916803D8
:1023C000222331F00196909367038093660308956A
:1023D0002091200130912101820F931F9093670378
:1023E0008093660360911A0170911B01269FA001E2
:1023F000279F500D369F500D11244817590724F47C
:1024000010926703109266030895CF9362E0809163
:102410001E010E94B101C091220162E08C2F0E9436
:10242000B10164E670E080E090E00E941A0261E091
:102430008C2F0E94B10160E08C2FCF910C9483010E
:1024400080911901811111C081E08093190180E10F
:1024500090E0909323018093220183E190E0909398
:102460001F0180931E010C94051283E190E090936C
:1024700023018093220180E190E090931F018093DB
:102480001E010E940512109219010895EF92FF9209
:102490000F931F93CF93DF936091190170E0009128
:1024A000B5021091B602C091DC02D091DD02E0EEDF
:1024B000F2E0AEE8B2E080ECE82E82E0F82E20E018
:1024C00031E047E050E02C173D07E4F4878D90E0C1
:1024D000042E02C0959587950A94E2F780FF12C0FA
:1024E0005F968C915F9790E0042E02C0959587953A
:1024F0000A94E2F78170992786179707F1F401157E
:102500001105D9F02150310941505109E0F63197B8
:102510001197EE16FF06A9F6109210033093DF0212
:102520002093DE02D093DD02C093DC02DF91CF91D5
:102530001F910F91FF90EF90089581E08093100319
:102540003093DF022093DE023093DD022093DC0221
:10255000EDCFCF93C0911901C11146C081E090E049
:1025600090935D0280935C028091190390911A030D
:102570009093DD028093DC020E944612809110034A
:10258000811106C08091DE029091DF02892B31F02B
:102590008091DC029091DD02892B41F480E091E092
:1025A0009093DD028093DC020E9446122091DC02AF
:1025B0003091DD028091B3029091B40282179307AB
:1025C0003CF41092DD021092DC0281E08093100353
:1025D0008091DC029091DD02C1110FC090931A032B
:1025E00080931903CF91089510925D0210925C02BE
:1025F0008091260390912703BBCF9093270380936C
:102600002603F0CFCF92DF92EF92FF920F931F93AA
:10261000CF93DF936091190170E0E090B502F090E4
:10262000B602C091DC02D091DD02C0900003D090D0
:102630000103E0EEF2E00EE812E090E080E050E00E
:1026400040E08C179D070CF1208130E0042E02C081
:10265000359527950A94E2F720FF17C0D8012C91F1
:1026600030E0042E02C0359527950A94E2F72170D8
:1026700033272617370719F4E114F10431F40196D2
:102680008C159D0511F5E601C60101964F5F5F4F60
:1026900048305105B1F631960F5F1F4FB3E0E0307F
:1026A000FB0769F6109210039093DF028093DE021D
:1026B000D093DD02C093DC02DF91CF911F910F9187
:1026C000FF90EF90DF90CF90089521E020931003CA
:1026D0009093DF028093DE029093DD028093DC0210
:1026E000EBCFCF93C0911901C1113AC081E090E0C6
:1026F00090935D0280935C028091190390911A037C
:102700009093DD028093DC028091DC029091DD02E7
:1027100090930103809300030E94021380911003A1
:1027200081110DC08091DE029091DF0281159140F0
:1027300031F41092DD021092DC020E9402138091AB
:10274000DC029091DD02009719F421E02093100340
:10275000C1110FC090931A0380931903CF9108956C
:1027600010925D0210925C028091260390912703E3
:10277000C7CF9093270380932603F0CF8091100159
:102780009091110101969093110180931001099786
:102790007CF08091B0029091B10201969093B102C9
:1027A0008093B00281E090E090931101809310013A
:1027B0000895CF93DF9381E0809310038091B3025B
:1027C0009091B4022091B7022817190619F014F05D
:1027D0008093B7021092B1021092B00210921101D0
:1027E00010921001C1E0D0E08091B70290E08C1708
:1027F0009D0724F00E94BE132196F6CFE091B0020F
:10280000F091B102E257FD4F208130E0409110017C
:10281000509111014150510902C0359527954A95B3
:10282000E2F720FF0EC02091B5023091B6022130B0
:10283000310539F490931A0380931903DF91CF91F6
:1028400008959093270380932603F8CFCF92DF92C9
:10285000EF92FF920F931F93CF9381E08093100329
:1028600010921101109210011092B1021092B00258
:10287000C0911901C11160C081E090E090935D02A8
:1028800080935C028091190390911A0301979093B1
:102890001A03809319039093DD028093DC028091E8
:1028A000DC029091DD0297FF08C08091B302909105
:1028B000B4029093DD028093DC0201E010E02091ED
:1028C000DC023091DD02201731070CF043C080910B
:1028D000100190911101EC2EF12CC090B502D09016
:1028E000B602E091B002F091B102E257FD4FAF01A4
:1028F0004E585240608170E08C0101501109DB019B
:10290000002E02C0B595A7950A94E2F7A170BB27E7
:10291000AE15BF0521F4A1E0CA16D10401F19093D0
:102920001101809310015093B1024093B002309393
:10293000DD022093DC0223C010925D0210925C0243
:10294000809126039091270301979093270380930A
:102950002603A1CF0E94BE130F5F1F4FB0CF21509F
:10296000310937FF1EC090931101809310015093DD
:10297000B1024093B0021092DD021092DC0280910D
:10298000DC029091DD02C11115C090931A0380936F
:102990001903CF911F910F91FF90EF90DF90CF908F
:1029A0000895C801181619060CF4A6CF319788E0CF
:1029B00090E09DCF9093270380932603EACF1F9347
:1029C000CF93DF9381E08093100310921101109256
:1029D00010011092B1021092B00210911901111160
:1029E00049C081E090E090935D0280935C02809109
:1029F000190390911A03019690931A038093190377
:102A00009093DD028093DC02C1E0D0E08091DC0293
:102A10009091DD028C179D07DCF5C12FD0E020914D
:102A2000DC023091DD02E091B002F091B102E25798
:102A3000FD4F808190E04091100150911101415073
:102A4000510902C0959587954A95E2F781709927BB
:102A50008C179D0709F58091B5029091B6020197F8
:102A6000D9F42F5F3F4F3093DD022093DC020E94A8
:102A7000BE13D5CF10925D0210925C0280912603A6
:102A80009091270301969093270380932603B8CF54
:102A90000E94BE132196BACF8091B3029091B402E6
:102AA0008217930724F41092DD021092DC028091C9
:102AB000DC029091DD02111108C090931A038093FB
:102AC0001903DF91CF911F9108959093270380936D
:102AD0002603F7CF4F925F926F927F928F929F92D1
:102AE000AF92BF92CF92DF92EF92FF920F931F931C
:102AF0006C010E94F5012B015C014B01F12CE12CD2
:102B000087E0C81AD108E108F108F894439A88E0F0
:102B100090E00E94ED01439878948AE1880E911C20
:102B2000A11CB11C0E94F5019B01241935098901E2
:102B300030E020E00C151D052E053F0534F4681526
:102B400079058A059B0570F3E0CF1F910F91FF90E7
:102B5000EF90DF90CF90BF90AF909F908F907F903D
:102B60006F905F904F9008958F929F92AF92BF9217
:102B7000CF92DF92EF92FF920F931F93CF93DF9349
:102B800000D000D0CDB7DEB7FC018581813091F057
:102B900080E00F900F900F900F90DF91CF911F91D9
:102BA0000F91FF90EF90DF90CF90BF90AF909F90EC
:102BB0008F900895848181FFEBCF83899489A589C3
:102BC000B689892B8A2B8B2B09F45FC07F0140E0EB
:102BD00050E0BA01CF010E944F098823C9F2F701E2
:102BE000C38CD48C8788908CA18CB28C82E090E0CE
:102BF000A0E0B0E0F60180839183A283B3839E01BD
:102C00002F5F3F4FB501A401C6010E940F08882322
:102C100009F4BECF00E010E09801B501A401C6019F
:102C20000E946D07882309F4B3CF89809A80AB8016
:102C3000BC80F6018789803119F188EF9FEFAFEFF3
:102C4000BFE088169906AA06BB06C8F2F701178AE4
:102C5000108E118E128E138A148A158A168A848118
:102C60008068848361E0C7010E94E30A882309F435
:102C70008FCF40E050E0BA01C7010E944F0989CFD1
:102C800088EF9FEFA0E0B0E0DCCF81E082CFCF9271
:102C9000DF92EF92FF921F93CF93DF93EC0180E2DC
:102CA000689FF0011124E354FC4F9385917161F00A
:102CB000842F827449F080E0DF91CF911F91FF90C3
:102CC000EF90DF90CF900895142F6A8B80910A01C6
:102CD00090910B01A0910C01B0910D018E879F87FF
:102CE000A88BB98BC488D588F12CE12C7601DD2422
:102CF000CC24CF8AD88EE98EFA8E828D938DB0E067
:102D0000A0E0AC01BD014C295D296E297F294F8BC4
:102D1000588F698F7A8F8385887111F5848D958D91
:102D2000A68DB78D8B8B9C8BAD8BBE8B81E08D83FD
:102D3000812F8F708C831E821F82188619861A86B7
:102D40001B861C861D8681E016FFB6CFCE01DF9163
:102D5000CF911F91FF90EF90DF90CF900C94B4151E
:102D6000803109F0A8CF9E012D5E3F4F8B8D9C8D49
:102D70000E949008882309F49ECF84E0D8CF8091E8
:102D8000BE069091BF06009761F00E947B0B809178
:102D9000BE069091BF060E94743A1092BF06109230
:102DA000BE060895FB0101900020E9F73197AF01BD
:102DB000461B570BDC01ED91FC910280F381E02D65
:102DC00009948F929F92AF92BF92EF92FF920F93CE
:102DD0001F93CF93DF93CDB7DEB7A1970FB6F894CB
:102DE000DEBF0FBECDBF7C01FA01CB0119A222309C
:102DF00008F42AE08E010F5D1F4F822E912CB12C1A
:102E0000A12CBF01A50194010E943739F901CA0123
:102E10006A300CF5605DD8016E938D01232B242B55
:102E2000252B79F790E080E0109721F0BD01C701D4
:102E30000E94D216A1960FB6F894DEBF0FBECDBF8A
:102E4000DF91CF911F910F91FF90EF90BF90AF90C6
:102E50009F908F900895695CDECFCF92DF92EF92C2
:102E6000FF920F931F93CF93DF9377FF21C06A01E7
:102E70007B01EC01E881F9810190F081E02D6DE2A8
:102E800009958C0144275527BA014C195D096E0933
:102E90007F092AE0CE010E94E116800F911FDF9189
:102EA000CF911F910F91FF90EF90DF90CF900895F9
:102EB0002AE0DF91CF911F910F91FF90EF90DF906B
:102EC000CF900C94E1166DE971E00C94D2160F933B
:102ED0001F93CF93DF93EC010E94A5028C01CE01DA
:102EE0000E946317800F911FDF91CF911F910F9167
:102EF000089580915C0290915D024091260350916B
:102F00002703892B21F04091190350911A03052EB4
:102F1000000C660B770B8DEB95E00E942D178DEB67
:102F200095E00C94631763E770E08DEB95E00E94E9
:102F3000A50240917E0250917F02052E000C660B87
:102F4000770B8DEB95E00E942D178DEB95E00C949F
:102F5000631781E0809324010E94051280EC96E0C3
:102F60000E9463176EE670E080EC96E00E94A50276
:102F700080EC96E00C9463179F92AF92BF92CF9231
:102F8000DF92EF92FF920F931F93CF93DF93CDB712
:102F9000DEB72B970FB6F894DEBF0FBECDBF7C0116
:102FA000FC018581811115C0FE013196CE010C9680
:102FB0006F0130E231938E179F07E1F7DA0130E0BD
:102FC00087E09D91B92E992329F19E3239F48A30F8
:102FD00011F480E0D3C038E08AE0F3CFEFE8F0E00E
:102FE0004491442321F031969413FACFF2CF831702
:102FF00080F34FED490F4E3560F74FE9490F4A31E5
:1030000018F440EEB42EB90EF601E30FF11DB082B4
:103010003F5FD7CF89818032E1F2A22E8B01FB0185
:10302000838D948DF701948F838FFB011682178215
:10303000108611861286138614861586F8018285FD
:103040009385A485B58543895489658976898417D4
:103050009507A607B70708F04CC025E0B695A795D9
:10306000979587952A95D1F7F82FFF709F2EF80135
:103070008581823008F4ADCFC8010E94820F97FD90
:10308000A8CFF80182859385A485B5854F96A11DAB
:10309000B11D82879387A487B587F0E29F9EB00118
:1030A000112463547C4F6115710509F492CFFB0123
:1030B0008081882341F0853E09F04EC0BB2029F075
:1030C000BB24B394BBCFB1100EC0F701928A80919C
:1030D0000A0190910B01A0910C01B0910D0186871E
:1030E0009787A08BB18BFB0180818111E9CFBB2435
:1030F000B3948A2D8271823109F06BCFBB2009F421
:103100004FC0C7010E942B06009709F462CF20E24E
:10311000FC0111922A95E9F72BE0F601DC01019000
:103120000D922A95E1F721E238E2FC01318B208BE8
:1031300040E058E057874687338B228B318F208FB2
:10314000578B468B81E00E94B605882309F441CF56
:103150004A2DF70162890FC04BE050E0C6010E9482
:10316000FD3A892B09F06ACF8A2D80734A2D692D8B
:10317000803309F42ECFC7010E9447162B960FB655
:10318000F894DEBF0FBECDBFDF91CF911F910F919D
:10319000FF90EF90DF90CF90BF90AF909F900895F9
:1031A000F8018581823009F414CFC8010E949C0C7B
:1031B000882309F40ECFF701128A8DEB93E0A7CF95
:1031C0005F926F927F928F929F92AF92BF92CF92B7
:1031D000DF92EF92FF920F931F93CF93DF93CDB7C0
:1031E000DEB7C754D1090FB6F894DEBF0FBECDBF0E
:1031F0005C013B0119A218A281E791E09F8F8E8F9D
:103200001BA21C821B829A8389831E8210E000E02D
:103210006E018EE1C80ED11C86E8E82E86E0F82EFD
:10322000F501E00FF11F80818F3211F40F5F1F4F06
:10323000D501A00FB11FFE01FB9690E080E04F0189
:103240002D912F3249F0222339F00F5F1F4F019645
:1032500021938C309105A1F7880D991DFC011082F6
:10326000F501E00FF11F80818F3211F40F5F1F4FC6
:10327000F501E00FF11F508041E0511040E030E0D7
:1032800020E0B401C701F3010995811121C0F6E8DE
:10329000EF16F6E0FF06C1F480E0C95BDF4F0FB622
:1032A000F894DEBF0FBECDBFDF91CF911F910F917C
:1032B000FF90EF90DF90CF90BF90AF909F908F9056
:1032C0007F906F905F900895C7010E947B0BE4CFC1
:1032D000552091F021E0A401B701C6010E94BC175E
:1032E000982E86E8E81686E0F80681F0C7010E946D
:1032F0007B0B911010C0D0CF96E8E91696E0F90646
:1033000019F0C7010E947B0B81E0C7CF992021F201
:10331000FE0131967F019E2D8F2D7601C92ED82E6C
:103320007FCF1F93CF93DF93CDB7DEB76D970FB6E7
:10333000F894DEBF0FBECDBFAB011C821B8221E71C
:1033400031E03A8329831E8221E0BC01CE0101963F
:103350000E94BC1711E081110CC010E0812F6D9606
:103360000FB6F894DEBF0FBECDBFDF91CF911F9196
:103370000895CE0101960E947B0BF0CFCF93DF938F
:10338000CDB7DEB76D970FB6F894DEBF0FBECDBFD9
:10339000442399F1AB01BC011C821B8281E791E0BF
:1033A0009A8389831E8222E0CE0101960E94BC1777
:1033B00081110EC090E081E0911101C080E06D9616
:1033C0000FB6F894DEBF0FBECDBFDF91CF91089549
:1033D000CE0101960E94B415882361F3CE010196B7
:1033E0000E942B06009731F325EEFC0120831E82FC
:1033F00081E00E94B605982FDECF81E0E0CF8F926A
:103400009F92AF92BF92EF92FF920F931F93CF9331
:10341000DF93CDB7DEB7ED970FB6F894DEBF0FBEE2
:10342000CDBF8C017B011CA21BA281E791E09AA376
:1034300089A31EA2C8010E9491198111A0C023E393
:10344000A701B801CE0181960E94BC17811116C058
:1034500090E081E0911101C080E0ED960FB6F89404
:10346000DEBF0FBECDBFDF91CF911F910F91FF90B7
:10347000EF90BF90AF909F908F90089581E08DA3C3
:1034800084E08EA3CE0181960E949C0C882301F3D8
:1034900061E0CE0181960E94E30A8823C9F2CE0141
:1034A00081960E942B06FC01892B91F280E1838793
:1034B00080E2DE01119601900D928A95E1F7FE01FE
:1034C0003296CE010C9620E22193E817F907E1F736
:1034D0008EE2F82EF982ECADFDAD68AD79AD8AAD26
:1034E0009BAD6250710981099109258504C0660F61
:1034F000771F881F991F2A95D2F786849784A08802
:10350000B188680D791D8A1D9B1D41E00E94E1056F
:10351000882309F49DCF80E2FE013196ADEBB3E044
:1035200001900D928A95E1F7FA82F8018581825027
:10353000823000F14789508D618D728DCA019B01E7
:103540003E8B2D8B9C8F8B8F80E2FE013196ADEDF3
:10355000B3E001900D928A95E1F780E490E0A0E05D
:10356000B0E08BA79CA7ADA7BEA781E00E94B605DF
:10357000982F6FCF90E080E030E020E0E1CF81E055
:103580006CCFEF92FF920F931F93CF93DF93EC01D9
:103590007B018A011B821A8288EE93E0A0E0B0E0F2
:1035A0008C839D83AE83BF838DE791E0998388836D
:1035B0008DE190E00E94D8399A8F898F009779F039
:1035C0002DE1F701DC0101900D922A95E1F74CE025
:1035D00050E0B801CE010C960E94233B188EDF917B
:1035E000CF911F910F91FF90EF9008952F923F92EE
:1035F0004F925F926F927F928F929F92AF92BF9203
:10360000CF92DF92EF92FF920F931F93CF93DF93AE
:10361000CDB7DEB7C756D1090FB6F894DEBF0FBEDF
:10362000CDBF5C013B01A6964FAFA69719A218A289
:1036300081E791E09F8F8E8F1BA21C821B829A8351
:1036400089831E824E018EE1880E911CC4010E9466
:10365000FB0863018E010F5F1F4F240118016FE209
:1036600070E0C6010E940A3B009709F459C0F601B8
:1036700020812F3271F4FFEFCF1ADF0A902F812FB4
:103680008201492E582E942D852D2801092F182F9F
:10369000E6CF8C198D3008F08CE0E82EF12CA701D4
:1036A000B601CE01885A9F4F0E94233BE8E5F0E027
:1036B000EC0FFD1FEE0DFF1D1082C8010E947B0B59
:1036C00021E0AE01485A5F4FB201C8010E94BC1709
:1036D000811120C01EAE1DAE81E791E09CAF8BAF83
:1036E00021961FAE2197A896EEADFFADA8976E0E5E
:1036F0007F1EF3018081811120C0BE01655C7F4F78
:10370000C1010E94C50E40EA51E0B101C5010E940D
:10371000C11A31C0CE0CDF1CC2010E947B0BB3CF9B
:10372000C60186199709A8969FAF8EAFA897B201D8
:10373000CE01CB960E94C50ED6CF19A218A281E762
:1037400091E09F8F8E8F1BA221968FAD21978111C3
:103750002DC0F5011382128288EE93E0A0E0B0E064
:1037600084839583A683B7838DE791E091838083DB
:10377000128E118E1486C501C959DF4F0FB6F89409
:10378000DEBF0FBECDBFDF91CF911F910F91FF9094
:10379000EF90DF90CF90BF90AF909F908F907F90F1
:1037A0006F905F904F903F902F900895A6962FAD09
:1037B000A697A301BE01655C7F4FC4010E94BC17A0
:1037C000882339F2CE01CB960E947B0BA6968FAD53
:1037D000A6978670863039F449A95AA96BA97CA9A5
:1037E000C4010E944F09B401C1010E94C50EA3018A
:1037F0008CCF1F93CF93DF93EC01162F0E941139CA
:10380000181739F0612FCE01DF91CF911F910C94E1
:103810001939DF91CF911F9108950F931F93CF9383
:10382000DF93C091220161E08C2F0E94B10160E022
:103830008C2F0E948301D0E0C0E06FEFCE010E9488
:10384000F91B2196CF3F81E0D807B9F76091B30209
:1038500080E092E00E94F91B0CE010E0C091220190
:1038600062E08C2F0E94B10160E170E080E090E0A6
:103870000E941A0261E08C2F0E94B10160E08C2F3F
:103880000E94830160E170E080E090E00E941A02F3
:103890000150110919F762E08C2F0E94B10181E0FB
:1038A000809370031092DD021092DC02809170030D
:1038B000813009F07EC08EE00E945A019093DD02B3
:1038C0008093DC028091DC029091DD02892B99F3D8
:1038D0008EE00E945A019093DD028093DC02809179
:1038E000DC029091DD02019731F580916503882318
:1038F00079F310926503C0911E0161E08C2F0E9444
:10390000B10160E08C2F0E9483016091620360939B
:1039100061038FEF91E00E94F91B60916303609354
:1039200060038EEF91E00E94F91B62E080911E011E
:103930000E94B101CDCF8EE00E945A019093DD022A
:103940008093DC028091DC029091DD02892B99F357
:10395000C091220161E08C2F0E94B10160E08C2FA8
:103960000E94830160E270E080E090E00E941A0211
:1039700062E08C2F0E94B10182E08093700396CFA9
:103980008EE00E945A019093DD028093DC028091C8
:10399000DC029091DD02892B99F3C091220161E054
:1039A0008C2F0E94B10160E08C2F0E948301109245
:1039B000700380917003823099F58EE00E945A0165
:1039C0009093DD028093DC028091DC029091DD0215
:1039D0000197B1F680916503882379F3109265030E
:1039E000C0911E0161E08C2F0E94B10160E08C2F1C
:1039F0000E94830160916203609361038DEF91E007
:103A00000E94F91B60916303609360038CEF91E067
:103A10000E94F91B62E080911E010E94B101CDCF8E
:103A2000109270030E944D02609328037093290343
:103A300080932A0390932B03DF91CF911F910F91D5
:103A400008952091AE023091AF028091B002909122
:103A5000B1026091DC02820F931F0E94F91B0C944B
:103A600005120C9411393F924F925F926F927F92A0
:103A70008F929F92AF92BF92CF92DF92EF92FF927E
:103A80000F931F93CF93DF9300D000D000D0CDB71A
:103A9000DEB70E944D0260936C0370936D038093B8
:103AA0006E0390936F031092DF021092DE028EE895
:103AB000E82E82E0F82E2EE532E03A83298390EE5C
:103AC000C92E92E0D92E3601290101E012E03324FB
:103AD0003394AA24A394B12C1E821D828090DE020E
:103AE0009090DF023FEF831A930AF301808190E008
:103AF0000D8002C0959587950A94E2F780FFF2C089
:103B0000F201808190E00D8002C0959587950A941E
:103B1000E2F79C01217033273C832B8380FF06C092
:103B20008091110390911203019751F5C8010E94F1
:103B3000311D90E09093DD028093DC020D8002C085
:103B4000959587950A94E2F780FF9DC0B092170182
:103B5000A09216012091B5023091B602F701808142
:103B600090E00D8002C0959587950A94E2F780FF5A
:103B70008FC0232B09F490C02B813C81232B31F083
:103B800080911503909116030197D1F5C8010E9409
:103B9000311D90E09093DD028093DC020D8002C025
:103BA000959587950A94E2F780FF97C0B092170128
:103BB000A0921601F701808190E00D8002C09595DA
:103BC00087950A94E2F780FF1BC08091B50290911F
:103BD000B60281309105A1F490935D0280935C025E
:103BE000909218038092170390921A0380921903FF
:103BF00010921F03109216031092150330921003B7
:103C00009092DF028092DE022D813E812F5F3F4F36
:103C10003E832D832830310509F060CF3FEFE31A52
:103C2000F30A0F5F1F4F8FEF481A580A9FEF691A68
:103C3000790A0132E2E01E0709F04ECF80E093E0FE
:103C4000F60121916F01E981FA812193FA83E983D9
:103C50008C159D05A9F726960FB6F894DEBF0FBE0A
:103C6000CDBFDF91CF911F910F91FF90EF90DF902B
:103C7000CF90BF90AF909F908F907F906F905F900C
:103C80004F903F900895109217011092160162CF45
:103C90002130310509F06DCF10925D0210925C0267
:103CA000909214038092130390922703809226032C
:103CB00010922003809100039091010388159905CB
:103CC00009F45ACF1092120310921103309210038C
:103CD00090920103809200034FCF1092170110922F
:103CE000160168CF809117039091180388159905E4
:103CF000D1F48091B5029091B6020197A1F4809120
:103D00001F03811110C030921F030E944D02609367
:103D10001B0370931C0380931D0390931E0310924A
:103D20005D0210925C028091130390911403881538
:103D3000990509F065CF80912003811161CF309200
:103D400020030E944D0260931B0370931C03809319
:103D50001D0390931E03B0925D02A0925C0250CFAF
:103D6000CF93DF9310921101109210011092B102C3
:103D70001092B002C1E0D0E080917E0290917F026B
:103D80008C179D0724F00E94BE132196F5CF209139
:103D9000AE023091AF028091B0029091B102820FD9
:103DA000931F0E94311D90E09093DD028093DC020E
:103DB000DF91CF910895EF92FF920F931F93CF93CE
:103DC000DF930091190310911A03C0912603D0913B
:103DD0002703C8018C1B9D0BC017D1071CF0CE0117
:103DE000801B910B01979093DD028093DC0260E0D1
:103DF00084E00E94830160E082E10E94830161E02F
:103E000070E080E090E00E941A0261E082E10E948E
:103E1000830161E070E080E090E00E941A0260E0BF
:103E200083E00E94830161E070E080E090E00E9406
:103E30001A02F12CE12C8091DC029091DD028E15AA
:103E40009F0534F00E94C4118FEFE81AF80AF3CFEF
:103E500060E083E00E948301C017D10754F410E0B2
:103E600000E00C171D0784F40E94C4110F5F1F4F60
:103E7000F8CFF12CE12CE016F10634F40E94C411C5
:103E80008FEFE81AF80AF7CF2097A1F48091190371
:103E900090911A03892B71F460E082E10E94830102
:103EA00061E070E080E090E00E941A0261E082E14F
:103EB0000E9483010E944D0260930A0370930B03DA
:103EC00080930C0390930D03D0937F02C0937E02E6
:103ED0008EE492E09093AF028093AE020E94B01EF7
:103EE0002091100130911101215031098091DC02A3
:103EF0009091DD0202C0959587952A95E2F780FDA5
:103F00000AC060E086E00E94830161E070E080E02A
:103F100090E00E941A021C161D0624F461E084E061
:103F20000E94830180911801882319F081E0809319
:103F30000F0386E292E09093AF028093AE020E945C
:103F4000B01E209110013091110121503109809152
:103F5000DC029091DD0202C0959587952A95E2F7E3
:103F600080FD04C060E082E00E9483011092100393
:103F70001092070310920603DF91CF911F910F91CA
:103F8000FF90EF900895109227031092260310924D
:103F90001A031092190381E0809310030E94DB1E24
:103FA00062E0809122010E94B10180EC96E00E94C3
:103FB000631768E670E080EC96E00E94A50280EC52
:103FC00096E00C9463170E94B01E2091100130916E
:103FD00011012150310981E090E0A0E0B0E004C07F
:103FE000880F991FAA1FBB1F2A95D2F7809590951D
:103FF0002091DC023091DD02822393239093DD0235
:104000008093DC020E94211D0C9493170E94B01E25
:1040100020911001309111012150310981E090E08F
:10402000A0E0B0E004C0880F991FAA1FBB1F2A950B
:10403000D2F72091DC023091DD02822B932B9093FA
:10404000DD028093DC020E94211D0C949317809165
:104050006803882309F475C080910803811116C094
:10406000809167038F93809166038F9382EA91E03A
:104070009F938F938CE492E09F938F930E94323BA7
:104080000F900F900F900F900F900F90809108035A
:104090008130B1F4809167038F93809166038F9391
:1040A00080EB91E09F938F938CE492E09F938F93AA
:1040B0000E94323B0F900F900F900F900F900F9037
:1040C00080915C0290915D02892BB1F5809126036D
:1040D000909127039093DD028093DC028091DD02B2
:1040E0008F938091DC028F938DEB91E09F938F9360
:1040F0008CE293E09F938F930E94323B40E250E02A
:104100006CE273E08CE393E00E947C3640E250E086
:1041100060EA71E08CE393E00E945D360F900F90AF
:104120000F900F900F900F9040E250E06CE472E01F
:104130008CE393E00C945D368091190390911A03FF
:10414000C9CF80915C0290915D02892BA1F580918D
:104150002603909127039093DD028093DC02209147
:104160006603309167032F5F3F4F8091DC0290918F
:10417000DD02A901480F591F50935F0340935E036E
:1041800086509F4F820F931F90935D0380935C0333
:10419000493F510534F028EF30E030935F0320931E
:1041A0005E03833F914034F082EF91E090935D0392
:1041B00080935C0308958091190390911A03CBCFEB
:1041C0000F931F93CF93DF930E9427208091650365
:1041D000882309F400C1809170038111FCC0109202
:1041E0006503C0911E0161E08C2F0E94B10160E067
:1041F0008C2F0E94830162E08C2F0E94B10180917C
:104200000903882331F08FEF90E0909307038093A8
:10421000060380912401882309F496C0C0916203AB
:104220008FEF91E00E94311DC81308C0C091630355
:104230008EEF91E00E94311DC81781F080916203DA
:10424000803421F4809163038B3041F080916203CC
:10425000813079F580916303863159F5809164034B
:10426000813039F10E944D026093470270934802F9
:104270008093490290934A028091460281110FC0B7
:1042800081E08093460280911901811106C08091DE
:104290006203813011F40E9420120E94DF140E94F8
:1042A0004D026093470270934802809349029093B5
:1042B0004A02C09162038DEF91E00E94311DC81344
:1042C00008C0C09163038CEF91E00E94311DC817B4
:1042D00081F080916203803421F4809163038E30F9
:1042E00041F080916203813079F5809163038A31D6
:1042F00059F580916403813039F10E944D02609339
:104300004702709348028093490290934A02809139
:10431000460281110FC081E080934602809119010D
:10432000811106C080916203813011F40E94201235
:104330000E9426140E944D02609347027093480227
:104340008093490290934A02D0E0C0E011E080914E
:104350006203803441F490916303FE01EB5BFE4FF6
:104360008081981761F080916203813079F5909196
:104370006303FE01E55DFE4F8081981327C00E9414
:104380004D026093470270934802809349029093D4
:104390004A020E944D02609342027093430280934E
:1043A0004402909345028091460281110FC0109300
:1043B0004602C093B702809140029091410201965B
:1043C000909341028093400210933F022196CA319C
:1043D000D10509F0BCCF0E944D0200914702109117
:1043E00048022091490230914A02601B710B820BF6
:1043F000930B673971058105910510F01092460203
:1044000080913F02882309F416C210923F028091E6
:104410002401882309F40AC18091B7028A3008F088
:104420004FC120914002309141022130310509F005
:1044300017C190E090933E0280933D028091B702B5
:104440008B3071F480EC96E00E94631769E770E0AE
:1044500080EC96E00E94A50280EC96E00E94631733
:104460008091B7028C3071F480EC96E00E94631763
:1044700067E770E080EC96E00E94A50280EC96E091
:104480000E9463178091B7028D3071F480EC96E042
:104490000E94631765E770E080EC96E00E94A50239
:1044A00080EC96E00E9463178091B7028E3009F08D
:1044B0001FC18091190181110CC08091620381306C
:1044C00041F48091B5029091B602019711F40E94D7
:1044D00020120E94A9128091B702823181F5809149
:1044E00026039091270390937F0280937E0286E2B9
:1044F00092E09093AF028093AE020E94B01E209192
:10450000100130911101215031098091DC0290910C
:10451000DD0202C0959587952A95E2F780FD40C19E
:104520000E94051264E670E080E090E00E941A02AA
:104530000E9406200E94211D81E08093100380913B
:10454000B702833109F040C0809126039091270380
:1045500090937F0280937E0281E092E09093AF027D
:104560008093AE020E94B01E2091DC023091DD02E9
:10457000409110015091110141505109C901042E7F
:1045800002C0959587950A94E2F780FF0CC181E0FF
:1045900090E0A0E0B0E004C0880F991FAA1FBB1FE5
:1045A0004A95D2F780959095822393239093DD02CC
:1045B0008093DC020E94051264E670E080E090E0E7
:1045C0000E941A020E94211D8091B7028431C1F419
:1045D00080918D028823A1F08BEF91E00E94311D24
:1045E0008111F3C081E090E09093B6028093B50210
:1045F0000E9405126091B5028BEF91E00E94F91BB9
:104600008091B702863109F002C18091B502909184
:10461000B602019759F480918D02882339F0809178
:10462000190181110E9420120E94DF148091B702AB
:10463000853109F000C180912401882309F45EC10D
:104640001092240180912401811102C00E94C31F95
:1046500080912401882309F4EEC00E94A917EBC0C1
:104660002230310549F420913D0230913E023093D1
:104670003C0220933B02DDCE2330310549F42091EA
:104680003B0230913C0230933A0220933902EBCF47
:10469000243031050CF4D2CE90E090933E0280930A
:1046A0003D0210923C0210923B0210923A0210928C
:1046B000390281E090E09093410280934002BECEA7
:1046C0008A3009F0BBCE80912503882369F01092CF
:1046D00025030E94051264E670E080E090E00E94ED
:1046E0001A020E940512AACE81E080932503F9CF19
:1046F0008F3099F48091190181110CC0809162036F
:10470000813041F48091B5029091B602019711F485
:104710000E9420120E947113DECE803151F48091EC
:10472000B5029091B602019709F009CF0E942012BC
:10473000D2CE813109F0CFCE80912603909127030C
:1047400090937F0280937E028EE492E09093AF027A
:104750008093AE020E94B01E209110013091110191
:10476000215031098091DC029091DD0202C09595C3
:1047700087952A95E2F780FD08C00E9406200E94D6
:10478000211D81E080931003A6CE0E94051264E6ED
:1047900070E080E090E00E941A020E94E31FEFCFD9
:1047A0000E94E31FC7CE81E090E0A0E0B0E004C02B
:1047B000880F991FAA1FBB1F4A95D2F7822B932BF4
:1047C0009093DD028093DC02FDCE1092B60210922F
:1047D000B502C1E0C093190180E190E090932301FC
:1047E0008093220183E190E090931F0180931E014A
:1047F0000E94051264E670E080E090E00E941A02D8
:1048000010921A0310921903C0931003F1CE87314E
:1048100009F05EC08091B5029091B602019759F4FB
:1048200080918D02882339F08091190181110E94B5
:1048300020120E9426140E944D0200914202109103
:1048400043022091440230914502601B710B820BA0
:10485000930B613273408105910508F46AC0809121
:10486000400290914102181619060CF062C0809126
:104870002401882309F45DC08091B7028A3008F0D2
:1048800058C01092410210924002909139028091DA
:104890003B022AE0829F802D112424E6929F800D06
:1048A000112490913D02890F8093B70210923E022D
:1048B00010923D0210923C0210923B0210923A027A
:1048C00010923902DF91CF911F910F910C94D9135F
:1048D0008931C1F48091B5029091B602019709F037
:1048E000AACF80918D02882309F4A5CF8091190168
:1048F00081110E9420120E94A91298CE81E080931B
:104900002401A0CE883109F091CE8091B50290911A
:10491000B602019709F08FCF80918D02882309F4A8
:104920008ACF8091190181110E9420120E94711377
:104930007DCEDF91CF911F910F9108952F923F92DD
:104940004F925F926F927F928F929F92AF92BF929F
:10495000CF92DF92EF92FF920F931F93CF93DF934B
:1049600000D000D000D0CDB7DEB780910803811110
:104970008BC06FE770E08DEB95E00E94A5028091FF
:104980006003803130F46DE770E08DEB95E00E94BC
:10499000A5024091600350E070E060E020E18DEB03
:1049A00095E00E94E11680916103803130F46BE75D
:1049B00070E08DEB95E00E94A5024091610350E00C
:1049C00070E060E020E18DEB95E00E94E1168DEB58
:1049D00095E00E9463170E944D0260932803709334
:1049E000290380932A0390932B030E944D02609326
:1049F000B8027093B9028093BA029093BB022091DF
:104A000060032983309161033A833B9A44E04D83EC
:104A100030953B8320952C839EE6892E912CA12CEA
:104A2000B12C0E944D022B013C0180E093E20E94D8
:104A30006A155D81543009F44AC080EC98E00E9408
:104A4000ED0180E392E00E946A153D8131503D8383
:104A50003323C1F00E944D02DC01CB01841995097A
:104A6000A609B7098E369105A105B105D0F6A501B5
:104A70009401281B390B4A0B5B0BCA01B9010E9438
:104A80001A02CFCF0E94E0200E944D0260932803BB
:104A90007093290380932A0390932B0326960FB6D5
:104AA000F894DEBF0FBECDBFDF91CF911F910F9164
:104AB000FF90EF90DF90CF90BF90AF909F908F903E
:104AC0007F906F905F904F903F902F90089580E877
:104AD00091E10E94ED012A803B8009811C8180E2E6
:104AE0008E8380E392E00E946A156101780180E97B
:104AF00096E020FC02C080E392E00E94ED01F69473
:104B0000E794D794C794160187012E8121502E83F4
:104B10002111E7CF96CF0F931F93CF93DF9380910F
:104B20006B0380936A0310926B038EE00E945A011C
:104B30009093DD028093DC02892B19F481E080934D
:104B40006B038091240181110AC00E944D02609381
:104B500028037093290380932A0390932B03C09119
:104B60006B03C1110CC00E944D0260932803709327
:104B7000290380932A0390932B0310924B02809178
:104B80004B02811124C0CC2311F10E944D020091EF
:104B900028031091290320912A0330912B03601BD5
:104BA000710B820B930B693E73408105910578F080
:104BB00080918D02882359F08091B5029091B602C0
:104BC000019729F481E080934B020E94201280918A
:104BD000700381115EC0CC2309F45DC00E944D02B8
:104BE000009128031091290320912A0330912B036F
:104BF000601B710B820B930B693B7B408105910518
:104C000018F081E0809370030E944D020091280308
:104C10001091290320912A0330912B03601B710B03
:104C2000820B930B6131774281059105A0F1809150
:104C30006803811152C01092670310926603D0E09E
:104C4000C0E080911A0190911B018C179D070CF414
:104C500071C00E9427201091220161E0812F0E94E3
:104C6000B10160E0812F0E9483016FEF80915E03AC
:104C700090915F030E94F91B6FEF80915C0390910C
:104C80005D030E94F91B0E94E0200E94DA11219628
:104C9000D8CFC111B9CF80916B03811189C08091A8
:104CA0006A03882309F484C080917003811180C055
:104CB0008091690381117CC080912401811102C01F
:104CC0000E94A9178091B202882309F46BC0DF917A
:104CD000CF911F910F910C9471130E94880B81E06A
:104CE00090E090936703809366030E942720809151
:104CF000660390916703892BC9F06EEB79E18CE331
:104D000093E00E94E01880916603909167030196FA
:104D100090936703809366030E94272061E979E1FD
:104D20008CE393E00E94E0188111E1CF86E896E0E1
:104D30000E947B0BCCE0D0E01091220162E0812F39
:104D40000E94B10160E170E080E090E00E941A02F0
:104D500061E0812F0E94B10160E0812F0E948301F8
:104D600060E170E080E090E00E941A02219721F754
:104D700010927003809126039091270301979093DE
:104D800027038093260310926703109266030E9404
:104D90004D02609328037093290380932A03909314
:104DA0002B0379CFDF91CF911F910F910C94DF14DA
:104DB000DF91CF911F910F9108958091090388236E
:104DC00041F08FEF90E090930703809306030C94DB
:104DD0008B2508951F920F920FB60F9211242F93D7
:104DE0003F938F939F93AF93BF9380917203909162
:104DF0007303A0917403B09175033091710323E0A4
:104E0000230F2D3768F126E8230F0296A11DB11D4F
:104E1000209371038093720390937303A0937403A0
:104E2000B09375038091760390917703A0917803F6
:104E3000B09179030196A11DB11D809376039093E3
:104E40007703A0937803B0937903BF91AF919F91BB
:104E50008F913F912F910F900FBE0F901F9018953B
:104E60000196A11DB11DD4CF1F920F920FB60F92C4
:104E700011242F933F934F935F936F937F938F935F
:104E80009F93AF93BF93EF93FF938DEB95E00E94B9
:104E90004703FF91EF91BF91AF919F918F917F91C8
:104EA0006F915F914F913F912F910F900FBE0F9097
:104EB0001F9018951F920F920FB60F9211242F93E7
:104EC0008F939F93EF93FF93E091CD05F091CE05E3
:104ED0008081E091D305F091D40582FD1BC09081C3
:104EE0008091D6058F5F8F732091D705821741F08F
:104EF000E091D605F0E0E354FA4F958F8093D60504
:104F0000FF91EF919F918F912F910F900FBE0F9076
:104F10001F9018958081F4CF1F920F920FB60F92B9
:104F200011242F933F934F935F936F937F938F93AE
:104F30009F93AF93BF93CF93EF93FF9386B1C091AD
:104F4000880290918B02C923982F9095C923809352
:104F50008802C0FF05C0E0910E01F0910F01099594
:104F6000C1FF05C0E0910001F09101010995C2FF68
:104F700005C0E0910201F09103010995C3FF05C04E
:104F8000E0910401F09105010995C4FF05C0E0918D
:104F90000601F09107010995C5FF05C0E0910801E0
:104FA000F09109010995FF91EF91CF91BF91AF91D8
:104FB0009F918F917F916F915F914F913F912F9131
:104FC0000F900FBE0F901F9018951F920F920FB663
:104FD0000F9211240F931F932F933F934F935F933F
:104FE0006F937F938F939F93AF93BF93CF93EF93E1
:104FF000FF93C3B10E94F5018B019C0180912A02AD
:1050000090912B02A0912C02B0912D02B901A80120
:10501000481B590B6A0B7B0BCA0100932A021093A1
:105020002B0220932C0230932D0220912E02C1FDE1
:1050300088C0413066E4560710F4211119C010925F
:10504000380281E080932E02FF91EF91CF91BF91C2
:10505000AF919F918F917F916F915F914F913F9110
:105060002F911F910F910F900FBE0F901F901895C9
:10507000223069F59C0120523D40213C3840C0F46B
:1050800010922F02109234021092350210923602C2
:105090001092370281E090E0A0E0B0E0809330020F
:1050A00090933102A0933202B093330283E0CACFCF
:1050B000805996408136944008F07FC080912F023D
:1050C000803208F47AC081E080933802EFCF243038
:1050D00009F073C088519140813C984008F06DC040
:1050E0008091300290913102A0913202B09133024E
:1050F00040365440A0F04091340250913502609106
:10510000360270913702482B592B6A2B7B2B409328
:105110003402509335026093360270933702880F41
:10512000991FAA1FBB1F8093300290933102A09356
:105130003202B093330280912F028F5F80932F024F
:10514000B5CF213039F480549A4181389141A8F586
:1051500082E078CF233089F58851914081339240A5
:1051600060F580912F02803220F48091380280FF18
:1051700026C080913502809590913402981719F0DD
:1051800084E08093380280913702809590913602B6
:10519000981719F084E080933802789481E0809326
:1051A0006503809138028093640380913402809378
:1051B0006203809136028093630380E043CF84E0F2
:1051C00041CFCF92DF92EF92FF92CF93DF93EDEB3F
:1051D000F5E01382128288EEC82E83E0D82EE12CEF
:1051E000F12CC482D582E682F7828FE591E091832B
:1051F000808385EC90E09587848784EC90E09787A6
:10520000868780EC90E0918B808B81EC90E0938B93
:10521000828B82EC90E0958B848B86EC90E0978B70
:10522000868B118E128E138E148EEAE5F6E080E5E1
:1052300080831182ECE5F6E01582168211861386D2
:1052400082E090E0A0E0B0E084879587A687B787EA
:1052500013A215A614A681E791E093A782A717A62B
:10526000C0ECD6E01B821A82CC82DD82EE82FF8205
:105270008FE891E0998388831B8A1A8AE4EDF6E02F
:1052800060816D7F60836695617081E0682786E04C
:105290000E94830161E086E00E94B101ECE8F1E048
:1052A000E491EC87E5E7F1E0E491F0E0EE0FFF1F19
:1052B000EB59FE4F859194919E878D87E5EAF6E044
:1052C00013821282C482D582E682F7828DE791E052
:1052D00091838083128E118E1486DF91CF91FF907F
:1052E000EF90DF90CF900895CF93DF93CDB7DEB7E7
:1052F0006B970FB6F894DEBF0FBECDBF789484B520
:10530000836084BD85B5836085BD80916E008160BA
:1053100080936E0082E080938100809181008160A3
:1053200080938100809180008160809380008091D3
:10533000B10084608093B1008091B000816080935F
:10534000B00087E880937A001092C10040EF5DE7DB
:1053500061EF7DE7A2EFBDE703EF1DE7E4EFEE2E7F
:10536000EDE7FE2EF5EFCF2EFDE7DF2E86EFA82E20
:105370008DE7B82E27EF3DE7FA0184918335E1F7F9
:10538000FB0184918635C1F7FD0184918335A1F736
:10539000F8018491803281F7F7018491823461F7BA
:1053A000F6018491813441F7F5018491823421F72B
:1053B000F9018491893501F70E944D0260936C03D5
:1053C00070936D0380936E0390936F0362E08EE0A1
:1053D0000E94B1011091220161E0812F0E94B10170
:1053E00062E080911E010E94B10161E082E10E94B1
:1053F000B10161E082E00E94B10161E083E00E94BE
:10540000B10161E084E00E94B10161E087E00E94A7
:10541000B10161E086E00E94B10161E085E00E9497
:10542000B10160E088E00E94B10162E08FE00E947B
:10543000B10160E084E00E94830160E082E00E94AC
:10544000830161E070E080E090E00E941A0260E079
:1054500083E00E94830160E082E10E94830161E0B9
:1054600070E080E090E00E941A0261E082E10E9418
:10547000830160E083E00E94830160E0812F0E944D
:10548000830160E085E00E94830160E087E00E9484
:10549000830160E086E00E94830161E070E080E0CB
:1054A00090E00E941A0261E086E00E948301E09190
:1054B000CD05F091CE0582E08083E091C905F091A1
:1054C000CA051082E091CB05F091CC058FEC80836A
:1054D0001092D505E091D105F091D20586E0808348
:1054E000E091CF05F091D005808188698083E091BB
:1054F000CF05F091D00580818F7D80838DE991E08B
:105500009093D3068093D2062198809168008160A1
:1055100080936800EFE8F1E0E491E0936B000E9473
:10552000880B81117CC16FEA70E08DEB95E00E94E1
:1055300067171092680386E896E00E947B0B64E68A
:1055400070E080E090E00E941A0267EA70E08DEB64
:1055500095E00E94A5022AE041E050E060E070E0A2
:105560008DEB95E00E94E1166EE28DEB95E00E94D6
:1055700069032AE042E050E060E070E08DEB95E0E6
:105580000E94E1162AE040E050E0BA018DEB95E080
:105590000E94E11664E670E080E090E00E941A024A
:1055A0006AE18DEB95E00E9469038DEB95E00E9426
:1055B000631760ED71E08DEB95E00E94D21640918B
:1055C00012015091130160911401709115012AE0AC
:1055D0008DEB95E00E94E1168DEB95E00E9463173C
:1055E000712C612C552453948091B3029091B40294
:1055F000892B09F099C1E0902603F0902703C70199
:10560000019690932703809326035092100361E044
:1056100082E00E94830161E070E080E090E00E94FF
:105620001A0261E083E00E94830161E070E080E0A3
:1056300090E00E941A028FE00E945A015C01909350
:10564000DD028093DC0210911E01019709F031C147
:1056500061E0812F0E94B10160E0812F0E948301EF
:10566000F092B402E092B30229EFE216F104E4F7FB
:1056700061E085E00E9483010091B0021091B102C7
:105680000A581D4FC8010E94311D882E912C9092FE
:10569000AF028092AE0280911001909111010197AA
:1056A000C12CD12C7601C39404C0CC0CDD1CEE1CA3
:1056B000FF1C8A95D2F7AB2809F400C1C828D92865
:1056C000D092AF02C092AE026091AE02C8010E94B9
:1056D000F91B60E085E00E94830160E086E00E94A3
:1056E0008301E090B002F090B10282E6E81A8DEFFB
:1056F000F80AC7010E94311D082F10E01093AF0275
:105700000093AE028091DC029091DD02892B09F4B6
:10571000E6C020911001309111012150310981E042
:1057200090E0A0E0B0E004C0880F991FAA1FBB1F43
:105730002A95D2F7802B912B9093AF028093AE02E3
:105740006091AE02C7010E94F91B61E086E00E94F1
:10575000830160E082E00E94830161E070E080E00C
:1057600090E00E941A028091DC029091DD02892B68
:1057700009F58FE00E945A010197E1F4E091B0022F
:10578000F091B102E257FD4F2091100130911101CB
:105790002150310981E090E0A0E0B0E004C0880F22
:1057A000991FAA1FBB1F2A95D2F72081822B8083C5
:1057B00050928D0261E070E080E090E00E941A0259
:1057C0008091260390912703893F91050CF4A9C08D
:1057D0001091220162E0812F0E94B10100911E010F
:1057E00061E0802F0E94B10160E0802F0E94830160
:1057F00064EF71E080E090E00E941A0262E0802F86
:105800000E94B10161E0812F0E94B10160E0812F0F
:105810000E94830164EF71E080E090E0CFCF81E0EF
:105820008093680341E068EC71E0CE0101960E942C
:10583000F61ACE0101960E94FA00E091BE06F091A0
:10584000BF06309709F477CE8581882309F473CE9B
:1058500085EA96E00E945902009759F0FC01E6584B
:10586000FC4F1082319780818B3619F481E0809350
:10587000B2020E94021170931D0160931C010E94EC
:1058800002116093020370930303809304039093C7
:105890000503611571058105910541F060931201C1
:1058A0007093130180931401909315010E94BF1609
:1058B00042CE62E0812F0E94B101DACE8FE00E94D9
:1058C0005A01019709F0FACEC094D0948C209D2003
:1058D0009092AF028092AE0266246394F5CE8FE080
:1058E0000E945A012091100130911101215031097B
:1058F00041E050E060E070E004C0440F551F661FB7
:10590000771F2A95D2F7019709F003CF409550955C
:10591000402351235093AF024093AE0277247394F7
:105920000FCF0E94BE1360CE662D8DE992E00E94DB
:10593000F91B672D85EC92E00E94F91B61E070E095
:1059400080E090E00E941A02109227031092260332
:1059500081E08093100362E080911E010E94B101FA
:1059600061E086E00E94830180E092E00E94311DA8
:1059700090E09093DD028093DC026091DC027091F4
:10598000DD028091B3029091B4026817790709F49F
:10599000A2C010E000E08091DC029091DD020817C7
:1059A00019070CF074C0F090220161E08F2D0E9465
:1059B000B10160E08F2D0E9483010E944D026B01B6
:1059C0007C01C0922803D0922903E0922A03F0922E
:1059D0002B030E944D026C197D098E099F096C32C0
:1059E00071408105910578F48EE00E945A01892B5F
:1059F00081F70E940D1C8091B3029091B4029093A4
:105A0000DD028093DC022091DC023091DD02809186
:105A1000B3029091B40228173907C9F162E080916E
:105A200022010E94B1010E944D026B017C01C092D3
:105A30002803D0922903E0922A03F0922B030E94BC
:105A40004D026C197D098E099F09683C710581051D
:105A5000910578F48EE00E945A01892B81F70E940B
:105A60000D1C8091B3029091B4029093DD0280935B
:105A7000DC022091DC023091DD028091B302909132
:105A8000B4022817390719F00F5F1F4F84CF0E9407
:105A90004D026B017C01C0922803D0922903E09251
:105AA0002A03F0922B030E944D026C197D098E0986
:105AB0009F09683E73408105910508F05ECF8EE036
:105AC0000E945A01892B79F70E940D1C8091B30224
:105AD0009091B4024ECF80E092E00E94F91B8BEFD0
