:100000000C94D3000C94FB000C94FB000C947A2706
:100010000C9421270C94FB000C94FB000C94FB0027
:100020000C94FB000C94FB000C94FB000C94FB0064
:100030000C94FB000C94FB000C94FB000C94FB0054
:100040000C947F260C94FB000C94EF260C94C9268C
:100050000C94FB000C94FB000C94FB000C94FB0034
:100060000C94FB000C94FB00705F6F666600705F81
:100070006F6E00440079007200730030003000534E
:10008000565320495220434F4D4D414E443D007C34
:100090003C3E5E2B3D3F2F5B5D3B2C2A225C007279
:1000A0005F5300795F53005F4245544100535653FC
:1000B0005F46575F004E6F205344204361726400D7
:1000C0005356532043555252454E5420494E505595
:1000D000543D00535653204E455720494E505554D9
:1000E0003D0053565320544F54414C20494E5055D7
:1000F00054533D00725F6F6E00795F6F6E00725FE8
:100100006F666600795F6F6666003000310052539B
:10011000003000310059530044656C6179286D69E5
:100120006C6C697365636F6E6473293D3000416464
:1001300064726573733D00436F6D6D616E643D0065
:100140000000000023002600290000000009000331
:10015000020000040508000000000000000000008C
:100160000000000000240027002A000000000025F5
:100170000028002B00040404040404040402020206
:100180000202020303030303030202030102040841
:1001900010204080010204081020010204081020F1
:1001A00040804000762811241FBECFEFD8E0DEBF8C
:1001B000CDBF26E0A0E1B2E001C01D92A13CB20794
:1001C000E1F712E0A0E0B1E0ECEDF5E702C0059048
:1001D0000D92A031B107D9F710E0C3EDD0E004C013
:1001E0002197FE010E946939C23DD107C9F70E94DB
:1001F00009290C94EC3A0C940000CF93DF93FC0196
:100200008281938190938E0680938D06848195815F
:10021000A681B78180938F0690939006A093910654
:10022000B093920680859185A285B38580939306CD
:1002300090939406A0939506B0939606DF011C96C2
:10024000CF014996C7E9D6E02D912993A817B907A0
:10025000D9F7818D928D9093A5068093A4068BE8A3
:1002600096E0DF91CF910895843081F028F48230B8
:10027000E9F08330F9F00895883071F0893091F019
:100280008530B9F4809180008F7D03C0809180001B
:100290008F778093800008958091B0008F7780934E
:1002A000B00008958091B0008F7DF9CF84B58F772D
:1002B00084BD089584B58F7DFBCFCF93DF93282F26
:1002C00030E0F901E65BFE4F8491F901E457FE4FFF
:1002D000D491F901EB58FE4FC491CC23A1F08111C8
:1002E0000E943401EC2FF0E0EE0FFF1FE05CFE4FA8
:1002F000A591B491EC91ED2381E090E009F480E0C8
:10030000DF91CF91089580E090E0FACF1F93CF93D3
:10031000DF93282F30E0F901E65BFE4F8491F9016D
:10032000E457FE4FD491F901EB58FE4FC491CC2312
:10033000A9F0162F81110E943401EC2FF0E0EE0F8E
:10034000FF1FE559FE4FA591B4918FB7F894EC913A
:10035000111108C0D095DE23DC938FBFDF91CF91C0
:100360001F910895DE2BF8CFCF93DF9390E0FC012F
:10037000E457FE4F24918B589E4FFC0184918823B3
:10038000C9F090E0880F991FFC01EF59FE4FA5912D
:10039000B491FC01E559FE4FC591D49161110DC096
:1003A0009FB7F8948C91209582238C938881282381
:1003B00028839FBFDF91CF910895623051F49FB79A
:1003C000F8943C91822F809583238C93E8812E2B87
:1003D000EFCF8FB7F894EC912E2B2C938FBFEACFF1
:1003E000880F991F880F991F05970197F1F70895B6
:1003F0003FB7F89480915C0390915D03A0915E03F8
:10040000B0915F0326B5A89B05C02F3F19F0019658
:10041000A11DB11D3FBFBA2FA92F982F8827BC015E
:10042000CD01620F711D811D911D42E0660F771F86
:10043000881F991F4A95D1F708958F929F92AF9286
:10044000BF92CF92DF92EF92FF926B017C010E94EC
:10045000F8014B015C01C114D104E104F104B9F0CD
:100460000E94F801681979098A099B09683E73405E
:100470008105910580F321E0C21AD108E108F10855
:1004800088EE880E83E0981EA11CB11CE4CFFF907B
:10049000EF90DF90CF90BF90AF909F908F90089596
:1004A0002FB7F894609158037091590380915A03C3
:1004B00090915B032FBF08958F929F92AF92BF924E
:1004C000EF92FF920F931F93CF93DF93EC0180E69F
:1004D000E82E83E0F82E10E000E00E9450026887CA
:1004E00079878A879B87E881F9810284F385E02DEB
:1004F000CE01099597FF1FC00E94500288849984FD
:10050000AA84BB84681979098A099B098C809D801B
:10051000AE80BF80681579058A059B0520F3C80168
:10052000DF91CF911F910F91FF90EF90BF90AF900F
:100530009F908F9008958A30910589F3F7018193F8
:100540007F010F5F1F4F0F33110539F6E8CF089574
:10055000EF92FF920F931F93CF93DF938C017B0158
:10056000D0E0C0E0F701EC0FFD1F6491662361F05D
:10057000D801ED91FC910190F081E02DC801099521
:10058000892B11F02196EECFCE01DF91CF911F91F3
:100590000F91FF90EF900895AF92BF92CF92DF92AC
:1005A000EF92FF920F931F93CF93DF936C017B0128
:1005B0008B01040F151FEB015E01AE18BF08C017B9
:1005C000D10759F06991D601ED91FC910190F0812C
:1005D000E02DC6010995892B79F7C501DF91CF91EF
:1005E0001F910F91FF90EF90DF90CF90BF90AF9051
:1005F0000895FC01538D448D252F30E0842F90E029
:10060000821B930B541710F0CF960895019708950D
:10061000FC01918D828D981761F0A28DAE0FBF2FD6
:10062000B11D5D968C91928D9F5F9F73928F90E02C
:1006300008958FEF9FEF0895FC01918D828D98179B
:1006400031F0828DE80FF11D858D90E008958FEFD8
:100650009FEF0895FC01918D228D892F90E0805CA1
:100660009F4F821B91098F739927089583EA95E024
:100670000E942A0321E0892B09F420E0822F0895AB
:1006800080E090E0892B29F00E94360381110C94C0
:1006900000000895FC01A48DA80FB92FB11DA35A25
:1006A000BF4F2C91848D90E001968F739927848F92
:1006B000A689B7892C93A089B1898C9183708064B5
:1006C0008C93938D848D981306C00288F389E02D56
:1006D00080818F7D80830895EF92FF920F931F9307
:1006E000CF93DF93EC0181E0888F9B8D8C8D9813E5
:1006F0001AC0E889F989808185FF15C09FB7F894F1
:10070000EE89FF896083E889F9898081837080643C
:1007100080839FBF81E090E0DF91CF911F910F9187
:10072000FF90EF900895F62E0B8D10E00F5F1F4F96
:100730000F731127E02E8C8D8E110CC00FB607FCA5
:10074000FACFE889F989808185FFF5CFCE010E9433
:100750004A03F1CFEB8DEC0FFD2FF11DE35AFF4F54
:10076000F0829FB7F8940B8FEA89FB8980818062C1
:10077000CFCFCF93DF93EC01888D8823B9F0AA897E
:10078000BB89E889F9898C9185FD03C0808186FD4C
:100790000DC00FB607FCF7CF8C9185FFF2CF80819B
:1007A00085FFEDCFCE010E944A03E9CFDF91CF91C3
:1007B00008958FB7F894809167028FBF089561E024
:1007C000FC0184810E948601809166028111109251
:1007D000660208958EBD00000DB407FEFDCF8EB5F4
:1007E00008958FEF0C94EA030F931F93CF93DF9339
:1007F000EC010E9450028B010E94F1038F3F69F0CF
:100800000E945002601B710B6C177D07A8F380E0FB
:10081000DF91CF911F910F91089581E0F9CF8CBDA9
:100820009DBD0895CF93DF93EC0180916602811105
:1008300009C081E080936602809140069091410654
:100840000E940F0460E08C81DF91CF910C948601AF
:100850008F929F92AF92BF92FF920F931F93CF936D
:10086000DF93EC01F62E49015A018E81882389F02D
:100870008F8198859C012F5F3F4F38872F8382306F
:10088000924018F40E94F103F3CFCE010E94DF03DF
:100890001E82CE010E9412048CE291E00E94F403B9
:1008A0008F2D80640E94EA0308E110E0D501C401A5
:1008B000002E04C0B695A795979587950A94D2F710
:1008C0000E94EA0308501109083F8FEF180771F7DB
:1008D00085E9FF2021F028E087E8F2128FEF0E94DF
:1008E000EA0310E00E94F1038A8787FF04C01F3FDC
:1008F00011F01F5FF7CFDF91CF911F910F91FF9004
:10090000BF90AF909F908F900895AF92BF92CF927B
:10091000DF92EF92FF920F931F93CF93DF93EC013F
:100920006901C801820F931F8130924050F58E817A
:10093000882379F088819981AA81BB8184179507E2
:10094000A607B70731F48F819885C816D90608F035
:1009500042C0488359836A837B838B85833039F017
:1009600089E0440F551F661F771F8A95D1F79A01BA
:10097000AB0161E1CE010E942804882389F083E065
:100980008D83CE010E94DF0380E0DF91CF911F9124
:100990000F91FF90EF90DF90CF90BF90AF900895B0
:1009A0000E9450025B010E94F1038A878F3F69F425
:1009B0000E9450026A197B096D327140A0F38FE0EA
:1009C0008D83CE010E94DF03DCCF8E3F89F4188631
:1009D0001F8281E08E838F8198858C159D0550F450
:1009E0000E94F1038F819885019698878F83F3CFBA
:1009F0008DE0E6CF6701E00EF11E0E94F103F601E3
:100A000081936F01EE15FF05C1F78F819885080F5F
:100A1000191F18870F838985882319F00115124043
:100A2000A0F08E81882389F08F8198859C012F5FAB
:100A30003F4F38872F838230924018F40E94F10391
:100A4000F3CFCE010E94DF031E8281E09ECFCF92C2
:100A5000DF92EF92FF920F93CF93DF93EC01690146
:100A600082E1411551056105710599F08B8583304F
:100A700039F089E0440F551F661F771F8A95D1F71B
:100A80009A01AB0168E1CE010E942804882319F085
:100A900084E08D832DC08EEF0E94EA0376018EEFF5
:100AA000D81AF70181917F010E94EA03EC14FD043A
:100AB000C1F78FEF0E94EA038FEF0E94EA030E94C2
:100AC000F1038A878F71853071F4011116C0CE0150
:100AD0000E94DF0381E0DF91CF910F91FF90EF90B3
:100AE000DF90CF90089581E18D83CE010E94DF03D6
:100AF000CE010E94DF0380E0EECF88E592E00E9405
:100B0000F403811102C085E1C4CF20E030E0A901E7
:100B10006DE0CE010E942804882311F084E1B9CF52
:100B20000E94F1038111FACFD2CF0F934091690255
:100B300050916A0260916B0270916C0241155105EF
:100B40006105710599F0082F23EA33E08091A10334
:100B50009091A2030E942705882349F01092690210
:100B600010926A0210926B0210926C0281E00F9157
:100B700008950F93CF93C82F80916802811105C00B
:100B8000C1E08C2FCF910F91089540910A015091AF
:100B90000B0160910C0170910D010C2F23EA33E0E1
:100BA0008091A1039091A2030E942705811102C0A8
:100BB000C0E0E7CFCC2321F381E00E949505882394
:100BC000B9F310926802DDCF8F929F92AF92BF92DD
:100BD000EF92FF920F931F93CF934B015C01C42FB1
:100BE00080910A0190910B01A0910C01B0910D012F
:100BF00088159905AA05BB0551F181E00E94B90548
:100C000081110BC080E0CF911F910F91FF90EF9069
:100C1000BF90AF909F908F90089583EAE82E83E075
:100C2000F82E00E012E030E020E0B501A401809150
:100C3000A1039091A2030E948504882319F3809256
:100C40000A0190920B01A0920C01B0920D0140910B
:100C500068024C2B4093680281E0D5CFCF93DF939D
:100C6000EC016E857F858889998941E00E94E405C1
:100C7000882351F08A8920E2829FC00111248D557A
:100C80009C4FDF91CF91089590E080E0FACF8F9252
:100C90009F92AF92BF92CF92DF92EF92FF92CF934B
:100CA00022E436E03093A2032093A103882309F4C1
:100CB0006DC040E060E070E0CB010E94E40581116E
:100CC0000BC080E0CF91FF90EF90DF90CF90BF906E
:100CD000AF909F908F900895809161058F7789F7ED
:100CE00080916D0590916E05A0916F05B091700592
:100CF00084369105A105B10520F3C0906905D09017
:100D00006A05E0906B05F0906C05C114D104E10414
:100D1000F104B9F240E0C701B6010E94E40588235E
:100D200081F28091AE039091AF038115924049F614
:100D3000A091B303AA2329F26091B1037091B20389
:100D40006115710509F4BDCF2091B003222309F488
:100D5000B8CFA09360062093520690E080E030E088
:100D6000E1E0F0E0C82FAF01082E02C0440F551F8C
:100D70000A94E2F72417350769F041E0480F01961D
:100D80008930910579F740935B069BCFC12CD12C1C
:100D90007601C0CF80935B062091B9033091BA03EE
:100DA00050E040E02115310541F42091C703309116
:100DB000C8034091C9035091CA032093530630934E
:100DC0005406409355065093560646015701860E29
:100DD000971EA11CB11C8092610690926206A0929F
:100DE0006306B0926406E091B403F091B503F0930A
:100DF0006706E0936606B0E00E94F038DC01CB01A4
:100E0000880D991DAA1DBB1D8093680690936906E5
:100E1000A0936A06B0936B0625E0EE0FFF1F2A959C
:100E2000E1F7E150FE4FEF2FFF27E6958E0F9F1F52
:100E3000A11DB11D80935C0690935D06A0935E0694
:100E4000B0935F068090B6039090B703B12CA12CAD
:100E50008114910441F48090C3039090C403A09046
:100E6000C503B090C603C81AD90AEA0AFB0AC80C1F
:100E7000D91CEA1CFB1C04C0F694E794D794C794D1
:100E8000CA95D2F7C0925706D0925806E0925906FA
:100E9000F0925A0685EFC8168FE0D806E104F104F7
:100EA00028F48CE08093650681E00CCF80E125EF8B
:100EB000C2162FEFD206E104F104A0F38091CF0314
:100EC0009091D003A091D103B091D2038093680692
:100ED00090936906A0936A06B0936B0680E2E2CF16
:100EE0004F925F926F927F928F929F92AF92BF923A
:100EF000CF92DF92EF92FF920F931F93CF93DF93E6
:100F0000EC01423051056105710590F480E0DF91FC
:100F1000CF911F910F91FF90EF90DF90CF90BF90F6
:100F2000AF909F908F907F906F905F904F900895BB
:100F300089859A85AB85BC850196A11DB11D841755
:100F40009507A607B70710F3CB88DC88ED88FE88E5
:100F50008F89803109F042C0BB27A72F962F852F9C
:100F6000480159012A013B01C80ED91EEA1EFB1E89
:100F700080910A0190910B01A0910C01B0910D019B
:100F8000C816D906EA06FB0699F58F898031C1F5A6
:100F9000B301A201552766277727440F551F4D55EA
:100FA0005C4FFA0191828082809168028160809317
:100FB00068028A89823080F08D819E81AF81B885F8
:100FC0008C0D9D1DAE1DBF1D8093690290936A021A
:100FD000A0936B02B0936C0281E099CFDB01CA0150
:100FE000E7E0B695A79597958795EA95D1F7B8CF9D
:100FF00040E0C701B6010E94E4058111C6CF86CF4B
:10100000B301A2014F77552766277727440F551F55
:10101000440F551F4D555C4FFA0180829182A28288
:10102000B382C2CF8F929F92AF92BF92CF92DF9244
:10103000EF92FF920F931F93CF93DF93FC01818573
:101040009285A385B4850196A11DB11D84179507CE
:10105000A607B70770F480E0DF91CF911F910F9141
:10106000FF90EF90DF90CF90BF90AF909F908F90C8
:10107000089583889488A588B6888789803189F502
:10108000BB27A72F962F852FE9016A017B018F01CE
:10109000BC01CD01680D791D8A1D9B1D80900A0140
:1010A00090900B01A0900C01B0900D018616970650
:1010B000A806B90601F5F8018789803111F5DD240C
:1010C000EE24FF24F601EE0FFF1FED55FC4F80814B
:1010D0009181B0E0A0E088839983AA83BB8381E0FB
:1010E000BBCFDB01CA01C7E0B695A7959795879559
:1010F000CA95D1F7C9CF40E00E94E4058111DBCF4A
:10110000AACFE894C7F8DD24EE24FF24F601EE0F01
:10111000FF1FEE0FFF1FED55FC4F80819181A281D3
:10112000B381BF70D8CF4F925F926F927F92AF9290
:10113000BF92CF92DF92EF92FF920F931F93CF93C4
:10114000DF9300D000D0CDB7DEB78C0149835A833E
:101150006B837C835901C12CD12C7601412C82E018
:10116000582E612C712C49815A816B817C819E01A2
:101170002F5F3F4FC8010E941208882339F1F80100
:101180008585A301920104C0220F331F441F551F00
:101190008A95D2F7DA01C901C80ED91EEA1EFB1ED4
:1011A00049815A816B817C818789803111F188EF77
:1011B0009FEFAFEFBFE0481759076A077B0798F228
:1011C000F501C082D182E282F38281E00F900F901C
:1011D0000F900F90DF91CF911F910F91FF90EF90A3
:1011E000DF90CF90BF90AF907F906F905F904F90C7
:1011F000089588EF9FEFA0E0B0E0DDCFCF93DF93BD
:10120000FC012581222321F080E0DF91CF91089518
:10121000EC0180916506803159F582E08583178A5B
:10122000108E118E128E8091660690916706B0E046
:10123000A0E025E0880F991FAA1FBB1F2A95D1F7B0
:10124000838B948BA58BB68B8EE496E09C8F8B8FD3
:1012500081E08C831E821F82188619861A861B865F
:101260001C861D861E861F86188A198A1A8ACDCF6B
:10127000803251F683E0858340916806509169067B
:1012800060916A0670916B06478B508F618F728FE9
:101290009F012D5E3F4F8EE496E00E9493088111DE
:1012A000D3CFB2CF8F929F92AF92BF92CF92DF9265
:1012B000EF92FF920F931F93CF93DF93EC018D81F9
:1012C00081110EC080E0DF91CF911F910F91FF90AF
:1012D000EF90DF90CF90BF90AF909F908F90089548
:1012E0000B891C892D893E890417150726073707A6
:1012F00048F34A015B01823031F48A869B86AC86D2
:10130000BD8681E0E0CF81149104A104B10449F4C9
:101310001E821F82188619861A861B861C861D86C9
:10132000F0CF0A851B852C853D85EB8DFC8D858551
:1013300090E00996B901A80141505109610971096C
:10134000082E04C076956795579547950A94D2F76D
:1013500075016401E1E0CE1AD108E108F10804C08A
:10136000F694E794D794C7948A95D2F7C416D50615
:10137000E606F70620F0012B022B032B11F58F89CF
:10138000988DA98DBA8D8E839F83A887B9878E018A
:101390000A5F1F4FC114D104E104F10409F4ADCF79
:1013A0004E815F816885798598018B8D9C8D0E9427
:1013B000120891E0C91AD108E108F1088111EACFB9
:1013C00081CFC41AD50AE60AF70AE1CF3F924F92BD
:1013D0005F926F927F928F929F92AF92BF92CF92C5
:1013E000DF92EF92FF920F931F93CF93DF93CDB7CE
:1013F000DEB72C970FB6F894DEBF0FBECDBF5C01F1
:10140000DC015B968D909C905C9716964D905D905C
:101410006D907C901997411451046104710409F492
:1014200068C0BFEF4B1A5B0A6B0A7B0A312CF401D0
:1014300081859285A385B4859C01AD012F5F3F4FC7
:101440004F4F5F4F29873A874B875C877301620153
:101450001D821E821F821886F40181859285A385D4
:10146000B4852D813E814F815885281739074A0759
:101470005B0708F056C089859A85AB85BC858C15BD
:101480009D05AE05BF0550F482E0C82ED12CE12C9D
:10149000F12C92E0492E512C612C712C9E012F5F72
:1014A0003F4FB701A601C4010E9412088823C9F169
:1014B00089819A81AB81BC81892B8A2B8B2B09F185
:1014C000260137019FEF491A590A690A790A2D81C5
:1014D0003E814F8158852F5F3F4F4F4F5F4F2D8388
:1014E0003E834F8358873FEFC31AD30AE30AF30AB8
:1014F000B3CFF401408051806280738033243394F1
:1015000096CFC414D504E604F70409F70FEF1FEFD4
:101510002FEF3FE0B701A601C4010E9470078111BF
:1015200019C080E02C960FB6F894DEBF0FBECDBF79
:10153000DF91CF911F910F91FF90EF90DF90CF90AF
:10154000BF90AF909F908F907F906F905F904F90E3
:101550003F900895D50116964D915D916D917C91C6
:101560001997411551056105710539F097018601FB
:10157000C4010E9470078823A1F2D5011696CD926E
:10158000DD92ED92FC921997332051F0D701C601FC
:101590000196A11DB11DF40180839183A283B383C1
:1015A000F5018789908DA18DB28D892B8A2B8B2B8C
:1015B00039F48481C78AD08EE18EF28E806884836C
:1015C000F50184818062848381E0ACCF1F93CF9347
:1015D000DF93FC012581222371F1162FEC01848118
:1015E00087FF1EC0CF010E942E06FC01892B19F136
:1015F0008D81823040F48B899C89AD89BE89848F2E
:10160000958FA68FB78F8F89988D938F828F8F89B3
:10161000988DA98DBA8DB58BA48B8C818F778C8397
:10162000111103C08C818F7E8C83812FDF91CF912C
:101630001F910C94B90580E0DF91CF911F9108951F
:10164000FF920F931F93CF93DF93EC018D81813035
:1016500041F090E080E0DF91CF911F910F91FF90DA
:1016600008958C8181FFF5CF82FD1BC00091A103FD
:101670001091A203C8010E9412040E94F103F82EE7
:10168000C8010E94DF038FEFF812E3CF8C8185FF42
:101690001BC060E0CE010E94E60A8C818F7D8C83A6
:1016A000D8CF4B895C896D897E898A859B85AC857D
:1016B000BD8584179507A607B707C1F2CE010E9422
:1016C00052098111D3CFC5CF4091690250916A026E
:1016D00060916B0270916C02452B462B472B21F0D9
:1016E00080E00E949505B5CF80618C832A853B857B
:1016F000317080E092E0821B930BADCFCF93DF93EC
:10170000EC0161E00E94E60A882311F01D8281E06D
:10171000DF91CF910895CF92DF92EF92FF921F93C6
:10172000CF93DF9380917106882321F08CE696E0B9
:101730000E947E0B10924D0610924B0610924806A6
:10174000109247068AE0809346060E945002EB0101
:1017500061E0809146060E94B40161E080914606F6
:101760000E9486011FB7F8948091A003811127C0C1
:10177000EFE7F1E08491E6E9F1E09491E82FF0E001
:10178000EE0FFF1FEF59FE4FA591B491EC91E923A5
:1017900021F461E08AE00E94860161E08AE00E9413
:1017A000B4018CB580618CBD8CB580648CBD61E06A
:1017B0008DE00E94B40161E08BE00E94B401809151
:1017C000A0038F5F8093A0031FBF82E58093400634
:1017D0001092410680914006909141060E940F04AC
:1017E0001AE08FEF0E94EA031150D9F782E496E0E5
:1017F0000E94120420E030E0A90160E082E496E05B
:101800000E942804182F80934C06813081F00E949A
:1018100050026C1B7D0B613D774060F381E080934B
:10182000470682E496E00E94DF0390E078C02AEA4F
:1018300031E040E050E068E082E496E00E94280455
:1018400082FF2AC010934D0680914D06C12CD12CE9
:101850007601823029F4C12CD12CE12C80E4F82EC1
:1018600020E030E0A90167E382E496E00E942804CA
:10187000A701960169E282E496E00E942804809321
:101880004C068823C1F00E9450026C1B7D0B613D09
:10189000774030F388E0C3CF14E00E94F1038093D7
:1018A0004C061150D1F78A3A11F082E0B8CF82E0AD
:1018B00080934D06C9CF80914D068230D1F420E04F
:1018C00030E0A9016AE382E496E00E9428048823BC
:1018D00011F086E0A4CF0E94F103807C803C19F4D3
:1018E00083E080934D060E94F1030E94F1030E9461
:1018F000F10382E496E00E94DF0380E580934006D6
:101900001092410681E00E944706882389F08CE608
:1019100096E00E94FE0891E0882309F486CF892F83
:10192000DF91CF911F91FF90EF90DF90CF900895BE
:1019300080E00E944706882309F477CFE8CF8F9292
:101940009F92AF92BF92CF92DF92EF92FF92CF938E
:10195000DF93EC010E94E60981110CC080E0DF9169
:10196000CF91FF90EF90DF90CF90BF90AF909F907E
:101970008F900895EB8DFC8DCE80DF80E884F98414
:1019800082E0C81AD108E108F108858504C0CC0CB2
:10199000DD1CEE1CFF1C8A95D2F786859785A089F1
:1019A000B189C80ED91EEA1EFB1E8481460157016B
:1019B000880E911CA11CB11CC814D904EA04FB04B4
:1019C000F9F081E0881A9108A108B10881E00E942D
:1019D000B905882319F2E3EAF3E0119285E0E33ACE
:1019E000F807D9F780920A0190920B01A0920C019E
:1019F000B0920D0180916802816080936802DCCF13
:101A0000EB8DFC8D258580E092E0A0E0B0E004C085
:101A1000880F991FAA1FBB1F2A95D2F74B895C8993
:101A20006D897E89840F951FA61FB71F8B8B9C8B9A
:101A3000AD8BBE8B81E093CF2F923F924F925F92FE
:101A40006F927F928F929F92AF92BF92CF92DF92CE
:101A5000EF92FF920F931F93CF93DF9300D000D0AC
:101A60001F92CDB7DEB77C015B01342E5D83DC01B4
:101A700015968C911597813009F0CEC014962C9054
:101A800021FECAC022FCB4C0C32CDD8022947FE0BA
:101A900027222094B22DB1702B2ED7011A964D918A
:101AA0005D916D917C911D97C114D10409F428C1F9
:101AB0005B968D919C915C97FC0174807A948A016D
:101AC0009B0169E036952795179507956A95D1F79B
:101AD00070228A011170711020C001151105E9F4FE
:101AE00016964D915D916D917C9119974115510517
:101AF0006105710509F099C057968D919D910D90E2
:101B0000BC91A02D0097A105B10509F0B0C0C70197
:101B10000E94E609882309F47FC080E092E0801BE0
:101B2000910B46018C159D0508F44C01D7015B967D
:101B30004D915C915C9716968D919D910D90BC9105
:101B4000A02D0297A109B109FA01258504C0880FCB
:101B5000991FAA1FBB1F2A95D2F746855785608912
:101B60007189840F951FA61FB71F9C01AD01270D1A
:101B7000311D411D511D29013A01811432E09306A6
:101B800009F07BC080910A0190910B01A0910C019A
:101B9000B0910D0184159505A605B70559F48FEF91
:101BA0009FEFDC0180930A0190930B01A0930C013D
:101BB000B0930D01022D9501B301A2018091A10303
:101BC0009091A2030E942705882331F19EEFB91A54
:101BD000C818D908F70182859385A485B585880D35
:101BE000991DA11DB11D82879387A487B58755CF05
:101BF000F701438954896589768982859385A4850F
:101C0000B585481759076A077B0709F43DCFC70117
:101C10000E945209811138CF81E090E0D7011396DC
:101C20009C938E93129780E007C09E012F5F3F4FD9
:101C30000E941208811102C090E079C089819A81C6
:101C4000AB81BC81F701238D348DF901278948EFE1
:101C50005FEF60E070E0203121F048EF5FEF6FEF61
:101C60007FE084179507A607B70708F050CFF70164
:101C700086839783A087B18750CF0115110599F509
:101C8000D7011A964D915D916D917C911D97539658
:101C90008D919D910D90BC91A02D481759076A0711
:101CA0007B0708F181E00E94B905882309F4B4CFCD
:101CB00040920A0150920B0160920C0170920D014A
:101CC00080916802816080936802C8018D559C4FA5
:101CD000D5019C01280D391DFC012E173F0759F035
:101CE0004D914193FACF41E0C301B2010E94E40556
:101CF0008111EBCF91CF281B390BA20EB31E68CFF9
:101D0000F70183899489A589B68984179507A60761
:101D1000B70738F48481438B548B658B768B80684E
:101D20008483F701848183FD1AC0832D9D810F90E8
:101D30000F900F900F900F90DF91CF911F910F9107
:101D4000FF90EF90DF90CF90BF90AF909F908F90DB
:101D50007F906F905F904F903F902F90089561E03B
:101D6000C7010E94E60A882309F456CFDECFCF933D
:101D7000DF931F92CDB7DEB7698341E050E0BE012B
:101D80006F5F7F4F0E941C0D0F90DF91CF910895E0
:101D9000FC01DB0112968D919C91139793838283B2
:101DA00087E591E09183808314968C9114978483C6
:101DB00015968C911597858316964D915D916D9131
:101DC0007C91199746835783608771871A964D9146
:101DD0005D916D917C911D974287538764877587CC
:101DE0001E964D915D916D917C91519746875787D5
:101DF000608B718B52968C915297828B53964D913A
:101E00005D916D917C915697438B548B658B768B4E
:101E100057964D915D916D917C915A97478B508F5C
:101E2000618F728F5B968D919C91948F838F0895B3
:101E30000895FC01818D928D009719F061E00C945A
:101E4000E60A0895DC015996ED91FC913097B9F0BE
:101E500083899489A589B68942855385648575856A
:101E6000841B950BA60BB70B811520E89207A105E3
:101E7000B10538F08FEF9FE7A0E0B0E0089590E063
:101E800080E00895DC0159968D919C91009739F07E
:101E9000DC01ED91FC910480F581E02D099490E046
:101EA00080E00895CF93DF93EC01E98DFA8D3097B0
:101EB00049F481E090E09B838A8390E080E0DF91A9
:101EC000CF91089513821282898D9A8D0E941C0DE4
:101ED000E98DFA8D22813381232B59F7F0CFCF93EF
:101EE000DF931F92CDB7DEB76983DC01ED91FC91E2
:101EF0000280F381E02D41E050E0BE016F5F7F4F33
:101F000009950F90DF91CF9108952F923F924F92B4
:101F10005F926F927F928F929F92AF92BF92CF9279
:101F2000DF92EF92FF920F931F93CF93DF9300D036
:101F30001F92CDB7DEB7FC018581811118C08FEFEC
:101F40009FEF0F900F900F90DF91CF911F910F9106
:101F5000FF90EF90DF90CF90BF90AF909F908F90C9
:101F60007F906F905F904F903F902F900895848165
:101F700080FFE5CF43895489658976898285938579
:101F8000A485B585312C212C481759076A077B0792
:101F900019F022242394312C6F012101CE010196E6
:101FA0003C01DF011696BB83AA834114510409F456
:101FB000C5C0F60142855385648575854A01F1E007
:101FC0009F22D6015B968D919C915C978A019B0123
:101FD000E9E03695279517950795EA95D1F7159677
:101FE000EC91E230E9F5FC01628D738D848D958D65
:101FF000600F711F821F931FA12C22E0B22EA81820
:10200000B9084A145B0408F45201F601248126FD44
:1020100004C0A114F2E0BF0671F400910A0110910E
:102020000B0120910C0130910D01061717072807AD
:10203000390709F05EC040E00E94E405882309F4F6
:102040007ECFC4018D559C4FD3019C012A0D3B1DB1
:10205000FC012E173F0709F46CC041914D93F9CF55
:10206000DC011496BC90BA94B0228114910479F4E6
:10207000B1100DC0452B462B472B69F5F60187891A
:10208000908DA18DB28D86839783A087B187D6016D
:102090005B96ED91FC915C9716966D917D918D917B
:1020A0009C9119976250710981099109258504C095
:1020B000660F771F881F991F2A95D2F70685178507
:1020C00020893189600F711F821F931F6B0D711D55
:1020D000811D911D91CFD60116964D915D916D9107
:1020E0007C9119972A813B810E9412088111CFCFE0
:1020F00026CF730185019401AB01BC018091A1033E
:102100009091A2030E948504882309F418CF6A0CD9
:102110007B1CF60182859385A485B5858A0D9B1D60
:10212000A11DB11D82879387A487B5874A185B08D4
:102130003CCF281B390B620E731EEBCF2A94232849
:1021400009F0FDCE898190E0FCCEFC01818D928D5D
:10215000009711F00C94850F8FEF9FEF08950F9368
:102160001F93CF93DF93EC01898D9A8D10E000E0EF
:10217000009799F00E94850F8C010F3F100769F0BE
:10218000898D9A8DFC014285538564857585415002
:102190005109610971090E945209C801DF91CF916B
:1021A0001F910F9108950F931F930E945002609307
:1021B00093067093940680939506909396068BE809
:1021C00096E00E94AF1097FF1DC00E945002009140
:1021D0009306109194062091950630919606601B07
:1021E000710B820B930B00918F061091900620913A
:1021F0009106309192066017710782079307F8F2F3
:102200008FEF9FEF1F910F910895CF92DF92EF9282
:10221000FF92CF930E94D310FC0197FD4EC08D32E8
:10222000910521F0C0970A9708F040C0C12CD12C2D
:102230007601C0E0E130F105D1F0ED32F105D9F1E0
:10224000CF01C0970A9798F4AAE0B0E0A7019601E1
:102250000E94F0386F01FF0FEE08FF08C60ED71E70
:10226000E81EF91E80E3C81AD108E108F1088BE8DE
:1022700096E00E94A5100E94D310FC01C0970A9717
:10228000C8F2E130F105B1F2CC2341F0F094E094D2
:10229000D094C094C11CD11CE11CF11CC701B60133
:1022A000CF91FF90EF90DF90CF9008958BE896E06C
:1022B0000E94A510AFCFC1E0DACFC12CD12C76019E
:1022C000EDCF8FEF9FEF089590E080E0089508959F
:1022D000EF92FF920F931F93CF93DF93DC015296FF
:1022E000ED90FC905397E114F10479F481E090E0D3
:1022F00013969C938E93129790E080E0DF91CF919C
:102300001F910F91FF90EF9008951D96ED91FC9114
:102310001E971C968C911C97982F90950FB75496EA
:102320002C915497122F127021FD6095F894208102
:10233000112319F1282B2083E7012197F1F728E0D9
:10234000462F50E0308160FF1AC0382B3083E70100
:102350002197F1F7BA0175956795215089F71123F7
:1023600081F08081892380830FBF52968D919C914B
:102370000197F1F781E090E0C1CF2923DCCF392329
:10238000E5CF9081892BEFCF90E080E0089560E069
:1023900082E00E9486018AE090E00E94F00161E004
:1023A00082E00E94860161E070E080E090E00E949F
:1023B0001D0261E083E00C94860180914C039091B2
:1023C0004D0320914E03222331F0019690934D034B
:1023D00080934C0308952091200130912101820FB8
:1023E000931F90934D0380934C0360911A01709159
:1023F0001B01269FA001279F500D369F500D1124D1
:102400004817590724F410924D0310924C03089575
:10241000CF9362E080911E010E94B401C09122011D
:1024200062E08C2F0E94B40164E670E080E090E0EE
:102430000E941D0261E08C2F0E94B40160E08C2F8D
:10244000CF910C94860180911901811111C081E016
:102450008093190180E190E0909323018093220101
:1024600083E190E090931F0180931E010C94081269
:1024700083E190E0909323018093220180E190E03A
:1024800090931F0180931E010E940812109219015F
:102490000895EF92FF920F931F93CF93DF93609174
:1024A000190170E000919B0210919C02C091C20240
:1024B000D091C302E6ECF2E0A4E7B2E086EAE82EAF
:1024C00082E0F82E20E031E047E050E02C173D0795
:1024D000E4F4878D90E0042E02C0959587950A94C8
:1024E000E2F780FF12C05F968C915F9790E0042E18
:1024F00002C0959587950A94E2F78170992786170F
:102500009707F1F401151105D9F021503109415017
:102510005109E0F631971197EE16FF06A9F61092D1
:10252000F6023093C5022093C402D093C302C09335
:10253000C202DF91CF911F910F91FF90EF9008950C
:1025400081E08093F6023093C5022093C402309359
:10255000C3022093C202EDCFCF93C0911901C111E4
:1025600046C081E090E090934302809342028091C4
:10257000FF02909100039093C3028093C2020E94D5
:1025800049128091F602811106C08091C402909197
:10259000C502892B31F08091C2029091C302892B30
:1025A00041F480E091E09093C3028093C2020E94C4
:1025B00049122091C2023091C302809199029091F8
:1025C0009A02821793073CF41092C3021092C2023F
:1025D00081E08093F6028091C2029091C302C11102
:1025E0000FC0909300038093FF02CF910895109243
:1025F00043021092420280910C0390910D03BBCFD5
:1026000090930D0380930C03F0CFCF92DF92EF9263
:10261000FF920F931F93CF93DF936091190170E0A6
:10262000E0909B02F0909C02C091C202D091C30244
:10263000C090E602D090E702E6ECF2E004E712E098
:1026400090E080E050E040E08C179D070CF1208185
:1026500030E0042E02C0359527950A94E2F720FF5A
:1026600017C0D8012C9130E0042E02C03595279573
:102670000A94E2F7217033272617370719F4E1147B
:10268000F10431F401968C159D0511F5E601C601A2
:1026900001964F5F5F4F48305105B1F631960F5F9D
:1026A0001F4FB2E0E63EFB0769F61092F6029093E8
:1026B000C5028093C402D093C302C093C202DF91CB
:1026C000CF911F910F91FF90EF90DF90CF900895E1
:1026D00021E02093F6029093C5028093C402909368
:1026E000C3028093C202EBCFCF93C0911901C111F5
:1026F0003AC081E090E0909343028093420280913F
:10270000FF02909100039093C3028093C2028091D4
:10271000C2029091C3029093E7028093E6020E9466
:1027200005138091F60281110DC08091C402909131
:10273000C5028115914031F41092C3021092C20279
:102740000E9405138091C2029091C302009719F470
:1027500021E02093F602C1110FC0909300038093F3
:10276000FF02CF910895109243021092420280918D
:102770000C0390910D03C7CF90930D0380930C032E
:10278000F0CF809110019091110101969093110169
:102790008093100109977CF08091960290919702A6
:1027A0000196909397028093960281E090E0909337
:1027B0001101809310010895CF93DF9381E08093FE
:1027C000F6028091990290919A0220919D02281719
:1027D000190619F014F080939D021092970210923E
:1027E00096021092110110921001C1E0D0E0809188
:1027F0009D0290E08C179D0724F00E94C113219642
:10280000F6CFE0919602F0919702EC58FD4F2081AF
:1028100030E040911001509111014150510902C026
:10282000359527954A95E2F720FF0EC020919B022F
:1028300030919C022130310539F49093000380934C
:10284000FF02DF91CF91089590930D0380930C03C5
:10285000F8CFCF92DF92EF92FF920F931F93CF9317
:1028600081E08093F60210921101109210011092F3
:10287000970210929602C0911901C11160C081E0C7
:1028800090E090934302809342028091FF029091E6
:1028900000030197909300038093FF029093C3027B
:1028A0008093C2028091C2029091C30297FF08C038
:1028B0008091990290919A029093C3028093C202F0
:1028C00001E010E02091C2023091C30220173107CD
:1028D0000CF043C08091100190911101EC2EF12C6D
:1028E000C0909B02D0909C02E0919602F0919702DA
:1028F000EC58FD4FAF0144575240608170E08C01AD
:1029000001501109DB01002E02C0B595A7950A946C
:10291000E2F7A170BB27AE15BF0521F4A1E0CA16EE
:10292000D10401F19093110180931001509397020B
:10293000409396023093C3022093C20223C01092A8
:1029400043021092420280910C0390910D03019773
:1029500090930D0380930C03A1CF0E94C1130F5FCE
:102960001F4FB0CF2150310937FF1EC09093110186
:102970008093100150939702409396021092C302E5
:102980001092C2028091C2029091C302C11115C07F
:10299000909300038093FF02CF911F910F91FF90BE
:1029A000EF90DF90CF900895C801181619060CF427
:1029B000A6CF319788E090E09DCF90930D03809350
:1029C0000C03EACF1F93CF93DF9381E08093F6024D
:1029D000109211011092100110929702109296021B
:1029E00010911901111149C081E090E090934302C8
:1029F000809342028091FF02909100030196909390
:102A000000038093FF029093C3028093C202C1E04F
:102A1000D0E08091C2029091C3028C179D07DCF533
:102A2000C12FD0E02091C2023091C302E091960202
:102A3000F0919702EC58FD4F808190E04091100199
:102A4000509111014150510902C0959587954A95C1
:102A5000E2F7817099278C179D0709F580919B02F9
:102A600090919C020197D9F42F5F3F4F3093C3029E
:102A70002093C2020E94C113D5CF1092430210923C
:102A8000420280910C0390910D03019690930D03E7
:102A900080930C03B8CF0E94C1132196BACF8091C6
:102AA000990290919A028217930724F41092C3021C
:102AB0001092C2028091C2029091C302111108C00B
:102AC000909300038093FF02DF91CF911F910895AF
:102AD00090930D0380930C03F7CF4F925F926F9208
:102AE0007F928F929F92AF92BF92CF92DF92EF929E
:102AF000FF920F931F936C010E94F8012B015C0160
:102B00004B01F12CE12C87E0C81AD108E108F1084B
:102B1000F894439A88E090E00E94F00143987894FA
:102B20008AE1880E911CA11CB11C0E94F8019B0136
:102B300024193509890130E020E00C151D052E050A
:102B40003F0534F4681579058A059B0570F3E0CFDD
:102B50001F910F91FF90EF90DF90CF90BF90AF90BB
:102B60009F908F907F906F905F904F9008958F927D
:102B70009F92AF92BF92CF92DF92EF92FF920F930C
:102B80001F93CF93DF9300D000D0CDB7DEB7FC0109
:102B90008581813091F080E00F900F900F900F9021
:102BA000DF91CF911F910F91FF90EF90DF90CF9029
:102BB000BF90AF909F908F900895848181FFEBCF5D
:102BC00083899489A589B689892B8A2B8B2B09F453
:102BD0005FC07F0140E050E0BA01CF010E9452097E
:102BE0008823C9F2F701C38CD48C8788908CA18C80
:102BF000B28C82E090E0A0E0B0E0F60180839183A7
:102C0000A283B3839E012F5F3F4FB501A401C6018C
:102C10000E941208882309F4BECF00E010E098015A
:102C2000B501A401C6010E947007882309F4B3CF3F
:102C300089809A80AB80BC80F6018789803119F148
:102C400088EF9FEFAFEFBFE088169906AA06BB0694
:102C5000C8F2F701178A108E118E128E138A148A09
:102C6000158A168A84818068848361E0C7010E9486
:102C7000E60A882309F48FCF40E050E0BA01C7018B
:102C80000E94520989CF88EF9FEFA0E0B0E0DCCF2F
:102C900081E082CFCF92DF92EF92FF921F93CF938A
:102CA000DF93EC0180E2689FF0011124ED55FC4FA9
:102CB0009385917161F0842F827449F080E0DF91F7
:102CC000CF911F91FF90EF90DF90CF900895142F38
:102CD0006A8B80910A0190910B01A0910C01B09137
:102CE0000D018E879F87A88BB98BC488D588F12C5E
:102CF000E12C7601DD24CC24CF8AD88EE98EFA8EA1
:102D0000828D938DB0E0A0E0AC01BD014C295D291E
:102D10006E297F294F8B588F698F7A8F83858871B1
:102D200011F5848D958DA68DB78D8B8B9C8BAD8B7E
:102D3000BE8B81E08D83812F8F708C831E821F82DA
:102D4000188619861A861B861C861D8681E016FF4A
:102D5000B6CFCE01DF91CF911F91FF90EF90DF9022
:102D6000CF900C94B715803109F0A8CF9E012D5E4D
:102D70003F4F8B8D9C8D0E949308882309F49ECF32
:102D800084E0D8CF8091A4069091A506009761F0C9
:102D90000E947E0B8091A4069091A5060E940B3A9A
:102DA0001092A5061092A4060895FB010190002040
:102DB000E9F73197AF01461B570BDC01ED91FC9110
:102DC0000280F381E02D09948F929F92AF92BF927F
:102DD000EF92FF920F931F93CF93DF93CDB7DEB7A0
:102DE000A1970FB6F894DEBF0FBECDBF7C01FA01EC
:102DF000CB0119A2223008F42AE08E010F5D1F4F8B
:102E0000822E912CB12CA12CBF01A50194010E940E
:102E1000CE38F901CA016A300CF5605DD8016E93B5
:102E20008D01232B242B252B79F790E080E0109740
:102E300021F0BD01C7010E94D516A1960FB6F894E6
:102E4000DEBF0FBECDBFDF91CF911F910F91FF90DD
:102E5000EF90BF90AF909F908F900895695CDECF08
:102E6000CF92DF92EF92FF920F931F93CF93DF9356
:102E700077FF21C06A017B01EC01E881F9810190B3
:102E8000F081E02D6DE209958C0144275527BA01A8
:102E90004C195D096E097F092AE0CE010E94E416F3
:102EA000800F911FDF91CF911F910F91FF90EF90B5
:102EB000DF90CF9008952AE0DF91CF911F910F917D
:102EC000FF90EF90DF90CF900C94E41663E871E0F0
:102ED0000C94D5160F931F93CF93DF93EC010E94B0
:102EE000A8028C01CE010E946617800F911FDF910E
:102EF000CF911F910F9108958091420290914302CA
:102F000040910C0350910D03892B21F04091FF0259
:102F100050910003052E000C660B770B83EA95E0B9
:102F20000E94301783EA95E00C94661763E770E01F
:102F300083EA95E00E94A8024091640250916502E4
:102F4000052E000C660B770B83EA95E00E94301784
:102F500083EA95E00C94661781E0809324010E9437
:102F6000081286EA96E00E9466176EE670E086EA2E
:102F700096E00E94A80286EA96E00C9466179F925B
:102F8000AF92BF92CF92DF92EF92FF920F931F9377
:102F9000CF93DF93CDB7DEB72B970FB6F894DEBF94
:102FA0000FBECDBF7C01FC018581811115C0FE01E2
:102FB0003196CE010C966F0130E231938E179F0748
:102FC000E1F7DA0130E087E09D91B92E992329F1EC
:102FD0009E3239F48A3011F480E0D3C038E08AE0C0
:102FE000F3CFEFE8F0E04491442321F031969413BD
:102FF000FACFF2CF831780F34FED490F4E3560F7CC
:103000004FE9490F4A3118F440EEB42EB90EF601DB
:10301000E30FF11DB0823F5FD7CF89818032E1F2AB
:10302000A22E8B01FB01838D948DF701948F838FEA
:10303000FB0116821782108611861286138614866B
:103040001586F80182859385A485B58543895489C1
:103050006589768984179507A607B70708F04CC0DD
:1030600025E0B695A795979587952A95D1F7F82FDE
:10307000FF709F2EF8018581823008F4ADCFC80122
:103080000E94850F97FDA8CFF80182859385A485BE
:10309000B5854F96A11DB11D82879387A487B587FB
:1030A000F0E29F9EB00111246D557C4F61157105B2
:1030B00009F492CFFB018081882341F0853E09F01D
:1030C0004EC0BB2029F0BB24B394BBCFB1100EC0BF
:1030D000F701928A80910A0190910B01A0910C0155
:1030E000B0910D0186879787A08BB18BFB01808102
:1030F0008111E9CFBB24B3948A2D8271823109F00A
:103100006BCFBB2009F44FC0C7010E942E06009769
:1031100009F462CF20E2FC0111922A95E9F72BE035
:10312000F601DC0101900D922A95E1F721E238E2E7
:10313000FC01318B208B40E058E057874687338B6A
:10314000228B318F208F578B468B81E00E94B905EF
:10315000882309F441CF4A2DF70162890FC04BE063
:1031600050E0C6010E94943A892B09F06ACF8A2D5B
:1031700080734A2D692D803309F42ECFC7010E9438
:103180004A162B960FB6F894DEBF0FBECDBFDF9167
:10319000CF911F910F91FF90EF90DF90CF90BF9054
:1031A000AF909F900895F8018581823009F414CF83
:1031B000C8010E949F0C882309F40ECFF701128AE0
:1031C00083EA93E0A7CF5F926F927F928F929F9254
:1031D000AF92BF92CF92DF92EF92FF920F931F9325
:1031E000CF93DF93CDB7DEB7C754D1090FB6F894AC
:1031F000DEBF0FBECDBF5C013B0119A218A287E55F
:1032000091E09F8F8E8F1BA21C821B829A838983E1
:103210001E8210E000E06E018EE1C80ED11C8CE62B
:10322000E82E86E0F82EF501E00FF11F80818F3245
:1032300011F40F5F1F4FD501A00FB11FFE01FB96C8
:1032400090E080E04F012D912F3249F0222339F098
:103250000F5F1F4F019621938C309105A1F7880DC8
:10326000991DFC011082F501E00FF11F80818F3262
:1032700011F40F5F1F4FF501E00FF11F508041E087
:10328000511040E030E020E0B401C701F30109959E
:10329000811121C0FCE6EF16F6E0FF06C1F480E0E4
:1032A000C95BDF4F0FB6F894DEBF0FBECDBFDF9115
:1032B000CF911F910F91FF90EF90DF90CF90BF9033
:1032C000AF909F908F907F906F905F900895C7010F
:1032D0000E947E0BE4CF552091F021E0A401B701BC
:1032E000C6010E94BF17982E8CE6E81686E0F80605
:1032F00081F0C7010E947E0B911010C0D0CF9CE6D8
:10330000E91696E0F90619F0C7010E947E0B81E0EC
:10331000C7CF992021F2FE0131967F019E2D8F2D7E
:103320007601C92ED82E7FCF1F93CF93DF93CDB7D1
:10333000DEB76D970FB6F894DEBF0FBECDBFAB0101
:103340001C821B8227E531E03A8329831E8221E01B
:10335000BC01CE0101960E94BF1711E081110CC083
:1033600010E0812F6D960FB6F894DEBF0FBECDBF73
:10337000DF91CF911F910895CE0101960E947E0B9F
:10338000F0CFCF93DF93CDB7DEB76D970FB6F8943C
:10339000DEBF0FBECDBF442399F1AB01BC011C823F
:1033A0001B8287E591E09A8389831E8222E0CE0109
:1033B00001960E94BF1781110EC090E081E091112B
:1033C00001C080E06D960FB6F894DEBF0FBECDBF92
:1033D000DF91CF910895CE0101960E94B715882301
:1033E00061F3CE0101960E942E06009731F325EE7F
:1033F000FC0120831E8281E00E94B905982FDECF58
:1034000081E0E0CF8F929F92AF92BF92EF92FF92B6
:103410000F931F93CF93DF93CDB7DEB7ED970FB622
:10342000F894DEBF0FBECDBF8C017B011CA21BA296
:1034300087E591E09AA389A31EA2C8010E9494196E
:103440008111A0C023E3A701B801CE0181960E949B
:10345000BF17811116C090E081E0911101C080E09A
:10346000ED960FB6F894DEBF0FBECDBFDF91CF91C2
:103470001F910F91FF90EF90BF90AF909F908F9012
:10348000089581E08DA384E08EA3CE0181960E94F1
:103490009F0C882301F361E0CE0181960E94E60A29
:1034A0008823C9F2CE0181960E942E06FC01892B49
:1034B00091F280E1838780E2DE01119601900D9206
:1034C0008A95E1F7FE013296CE010C9620E2219317
:1034D000E817F907E1F78EE2F82EF982ECADFDADC1
:1034E00068AD79AD8AAD9BAD6250710981099109D2
:1034F000258504C0660F771F881F991F2A95D2F76C
:1035000086849784A088B188680D791D8A1D9B1DCB
:1035100041E00E94E405882309F49DCF80E2FE018A
:103520003196A3EAB3E001900D928A95E1F7FA8211
:10353000F80185818250823000F14789508D618D7C
:10354000728DCA019B013E8B2D8B9C8F8B8F80E2ED
:10355000FE013196A3ECB3E001900D928A95E1F75C
:1035600080E490E0A0E0B0E08BA79CA7ADA7BEA749
:1035700081E00E94B905982F6FCF90E080E030E0A5
:1035800020E0E1CF81E06CCFEF92FF920F931F9389
:10359000CF93DF93EC017B018A011B821A8288EEB4
:1035A00093E0A0E0B0E08C839D83AE83BF8383E68D
:1035B00091E0998388838DE190E00E946F399A8F22
:1035C000898F009779F02DE1F701DC0101900D92D0
:1035D0002A95E1F74CE050E0B801CE010C960E942C
:1035E000BA3A188EDF91CF911F910F91FF90EF9013
:1035F00008952F923F924F925F926F927F928F9297
:103600009F92AF92BF92CF92DF92EF92FF920F9371
:103610001F93CF93DF93CDB7DEB7C756D1090FB64F
:10362000F894DEBF0FBECDBF5C013B01A6964FAF45
:10363000A69719A218A287E591E09F8F8E8F1BA2F3
:103640001C821B829A8389831E824E018EE1880E22
:10365000911CC4010E94FE0863018E010F5F1F4F81
:10366000240118016FE270E0C6010E94A13A0097A0
:1036700009F459C0F60120812F3271F4FFEFCF1AFF
:10368000DF0A902F812F8201492E582E942D852DEF
:103690002801092F182FE6CF8C198D3008F08CE007
:1036A000E82EF12CA701B601CE01885A9F4F0E9447
:1036B000BA3AE8E5F0E0EC0FFD1FEE0DFF1D1082B9
:1036C000C8010E947E0B21E0AE01485A5F4FB20153
:1036D000C8010E94BF17811120C01EAE1DAE87E534
:1036E00091E09CAF8BAF21961FAE2197A896EEADCF
:1036F000FFADA8976E0E7F1EF3018081811120C05F
:10370000BE01655C7F4FC1010E94C80E46E851E0D2
:10371000B101C5010E94C41A31C0CE0CDF1CC20128
:103720000E947E0BB3CFC60186199709A8969FAF5A
:103730008EAFA897B201CE01CB960E94C80ED6CF0D
:1037400019A218A287E591E09F8F8E8F1BA2219668
:103750008FAD219781112DC0F5011382128288EE61
:1037600093E0A0E0B0E084839583A683B78383E6EB
:1037700091E091838083128E118E1486C501C95900
:10378000DF4F0FB6F894DEBF0FBECDBFDF91CF91F4
:103790001F910F91FF90EF90DF90CF90BF90AF906F
:1037A0009F908F907F906F905F904F903F902F9061
:1037B0000895A6962FADA697A301BE01655C7F4F25
:1037C000C4010E94BF17882339F2CE01CB960E9414
:1037D0007E0BA6968FADA6978670863039F449A9E0
:1037E0005AA96BA97CA9C4010E945209B401C10164
:1037F0000E94C80EA3018CCF1F93CF93DF93EC01DF
:10380000162F0E94A838181739F0612FCE01DF91CA
:10381000CF911F910C94B038DF91CF911F910895F3
:103820000F931F93CF93DF93C091220161E08C2F00
:103830000E94B40160E08C2F0E948601D0E0C0E0BD
:103840006FEFCE010E94FC1B2196CF3F81E0D8078D
:10385000B9F76091990280E092E00E94FC1B0CE0B5
:1038600010E0C091220162E08C2F0E94B40160E15F
:1038700070E080E090E00E941D0261E08C2F0E94C9
:10388000B40160E08C2F0E94860160E170E080E06E
:1038900090E00E941D020150110919F762E08C2F7F
:1038A0000E94B40181E0809356031092C3021092EB
:1038B000C20280915603813009F07EC08EE00E94E2
:1038C0005D019093C3028093C2028091C2029091E5
:1038D000C302892B99F38EE00E945D019093C3028D
:1038E0008093C2028091C2029091C302019731F588
:1038F00080914B03882379F310924B03C0911E01F2
:1039000061E08C2F0E94B40160E08C2F0E94860140
:1039100060914803609347038FEF91E00E94FC1B86
:1039200060914903609346038EEF91E00E94FC1B77
:1039300062E080911E010E94B401CDCF8EE00E9412
:103940005D019093C3028093C2028091C202909164
:10395000C302892B99F3C091220161E08C2F0E9450
:10396000B40160E08C2F0E94860160E270E080E08C
:1039700090E00E941D0262E08C2F0E94B40182E060
:103980008093560396CF8EE00E945D019093C30210
:103990008093C2028091C2029091C302892B99F355
:1039A000C091220161E08C2F0E94B40160E08C2F55
:1039B0000E9486011092560380915603823099F539
:1039C0008EE00E945D019093C3028093C2028091B9
:1039D000C2029091C3020197B1F680914B038823F4
:1039E00079F310924B03C0911E0161E08C2F0E946D
:1039F000B40160E08C2F0E948601609148036093BF
:103A000047038DEF91E00E94FC1B60914903609396
:103A100046038CEF91E00E94FC1B62E080911E0146
:103A20000E94B401CDCF109256030E9450026093C1
:103A30000E0370930F038093100390931103DF9193
:103A4000CF911F910F91089520919402309195028A
:103A500080919602909197026091C202820F931F0B
:103A60000E94FC1B0C9408120C94A8383F924F92B1
:103A70005F926F927F928F929F92AF92BF92CF92FE
:103A8000DF92EF92FF920F931F93CF93DF9300D0BB
:103A900000D000D0CDB7DEB70E9450026093520331
:103AA0007093530380935403909355031092C5026F
:103AB0001092C40284E7E82E82E0F82E24E432E07B
:103AC0003A83298396ECC92E92E0D92E360129013A
:103AD00001E012E033243394AA24A394B12C1E8273
:103AE0001D828090C4029090C5023FEF831A930A12
:103AF000F301808190E00D8002C0959587950A942E
:103B0000E2F780FFF2C0F201808190E00D8002C0F8
:103B1000959587950A94E2F79C01217033273C83A1
:103B20002B8380FF06C08091F7029091F8020197E5
:103B300051F5C8010E94341D90E09093C302809318
:103B4000C2020D8002C0959587950A94E2F780FF26
:103B50009DC0B0921701A092160120919B02309156
:103B60009C02F701808190E00D8002C095958795B9
:103B70000A94E2F780FF8FC0232B09F490C02B81B9
:103B80003C81232B31F08091FB029091FC02019744
:103B9000D1F5C8010E94341D90E09093C302809338
:103BA000C2020D8002C0959587950A94E2F780FFC6
:103BB00097C0B0921701A0921601F701808190E0A2
:103BC0000D8002C0959587950A94E2F780FF1BC08F
:103BD00080919B0290919C0281309105A1F4909379
:103BE0004302809342029092FE028092FD029092E4
:103BF00000038092FF02109205031092FC021092C3
:103C0000FB023092F6029092C5028092C4022D818E
:103C10003E812F5F3F4F3E832D832830310509F0D1
:103C200060CF3FEFE31AF30A0F5F1F4F8FEF481A81
:103C3000580A9FEF691A790A0132E2E01E0709F07B
:103C40004ECF86EE92E0F60121916F01E981FA8173
:103C50002193FA83E9838C159D05A9F726960FB663
:103C6000F894DEBF0FBECDBFDF91CF911F910F91B2
:103C7000FF90EF90DF90CF90BF90AF909F908F908C
:103C80007F906F905F904F903F9008951092170132
:103C90001092160162CF2130310509F06DCF1092DC
:103CA0004302109242029092FA028092F90290929C
:103CB0000D0380920C03109206038091E60290910E
:103CC000E7028815990509F45ACF1092F80210926C
:103CD000F7023092F6029092E7028092E6024FCF0E
:103CE000109217011092160168CF8091FD029091F9
:103CF000FE0288159905D1F480919B0290919C0257
:103D00000197A1F480910503811110C03092050341
:103D10000E94500260930103709302038093030397
:103D20009093040310924302109242028091F90290
:103D30009091FA028815990509F065CF80910603E4
:103D4000811161CF309206030E94500260930103FB
:103D5000709302038093030390930403B092430291
:103D6000A092420250CFCF93DF9310921101109294
:103D700010011092970210929602C1E0D0E080915B
:103D80006402909165028C179D0724F00E94C11374
:103D90002196F5CF20919402309195028091960260
:103DA00090919702820F931F0E94341D90E0909390
:103DB000C3028093C202DF91CF910895EF92FF92E8
:103DC0000F931F93CF93DF930091FF021091000395
:103DD000C0910C03D0910D03C8018C1B9D0BC01723
:103DE000D1071CF0CE01801B910B01979093C30269
:103DF0008093C20260E084E00E94860160E082E17C
:103E00000E94860161E070E080E090E00E941D0267
:103E100061E082E10E94860161E070E080E090E074
:103E20000E941D0260E083E00E94860161E070E074
:103E300080E090E00E941D02F12CE12C8091C202F2
:103E40009091C3028E159F0534F00E94C7118FEF29
:103E5000E81AF80AF3CF60E083E00E948601C017F9
:103E6000D10754F410E000E00C171D0784F40E9401
:103E7000C7110F5F1F4FF8CFF12CE12CE016F106B0
:103E800034F40E94C7118FEFE81AF80AF7CF209791
:103E9000A1F48091FF0290910003892B71F460E0FE
:103EA00082E10E94860161E070E080E090E00E9483
:103EB0001D0261E082E10E9486010E94500260932F
:103EC000F0027093F1028093F2029093F302D09388
:103ED0006502C09364028EE492E090939502809311
:103EE00094020E94B31E1C161D0624F461E084E0B7
:103EF0000E94860180911801882319F081E0809347
:103F0000F50286E292E090939502809394020E94DB
:103F1000B31E20911001309111012150310980917F
:103F2000C2029091C30202C0959587952A95E2F747
:103F300080FD04C060E082E00E9486011092F602DB
:103F40001092ED021092EC02DF91CF911F910F9130
:103F5000FF90EF90089510920D0310920C031092B1
:103F600000031092FF0281E08093F6020E94DE1EA1
:103F700062E0809122010E94B40186EA96E00E94EC
:103F8000661768E670E086EA96E00E94A80286EA74
:103F900096E00C9466170E94B31E20911001309198
:103FA00011012150310981E090E0A0E0B0E004C0AF
:103FB000880F991FAA1FBB1F2A95D2F7809590954D
:103FC0002091C2023091C302822393239093C302B3
:103FD0008093C2020E94241D0C9496170E94B31E67
:103FE00020911001309111012150310981E090E0C0
:103FF000A0E0B0E004C0880F991FAA1FBB1F2A953C
:10400000D2F72091C2023091C302822B932B90935E
:10401000C3028093C2020E94241D0C9496178091C3
:104020004E03882309F475C08091EE02811116C0F9
:1040300080914D038F9380914C038F9388E891E09A
:104040009F938F9382E392E09F938F930E94C93A4C
:104050000F900F900F900F900F900F908091EE02A5
:104060008130B1F480914D038F9380914C038F93F5
:1040700086E991E09F938F9382E392E09F938F93E1
:104080000E94C93A0F900F900F900F900F900F90D1
:104090008091420290914302892BB1F580910C03EB
:1040A00090910D039093C3028093C2028091C3024A
:1040B0008F938091C2028F9383EA91E09F938F93B5
:1040C00082E193E09F938F930E94C93A40E250E0CF
:1040D00062E173E082E293E00E94133640E250E036
:1040E00066E871E082E293E00E94F4350F900F9051
:1040F0000F900F900F900F9040E250E062E372E05B
:1041000082E293E00C94F4358091FF0290910003D9
:10411000C9CF8091420290914302892BA1F58091F1
:104120000C0390910D039093C3028093C2022091DF
:104130004C0330914D032F5F3F4F8091C20290910D
:10414000C302A901480F591F5093450340934403EC
:1041500086509F4F820F931F909343038093420397
:10416000493F510534F028EF30E030934503209368
:104170004403833F914034F082EF91E090934303F6
:104180008093420308958091FF0290910003CBCF6A
:104190000F931F93CF93DF930E940F2080914B03C7
:1041A000882309F4CFC0809156038111CBC01092AF
:1041B0004B03C0911E0161E08C2F0E94B40160E0AE
:1041C0008C2F0E94860162E08C2F0E94B4018091A6
:1041D000EF02882331F08FEF90E09093ED0280930F
:1041E000EC0280912401882309F472C0C091480335
:1041F0008FEF91E00E94341DC81308C0C09149039D
:104200008EEF91E00E94341DC81741F08091480361
:10421000803429F5809149038B3009F580914A0358
:104220008130E9F00E94500260932D0270932E02BB
:1042300080932F029093300280912C02811105C04F
:1042400081E080932C020E94E2140E94500260934D
:104250002D0270932E0280932F0290933002C09112
:1042600048038DEF91E00E94341DC81308C0C0912F
:1042700049038CEF91E00E94341DC81741F08091F2
:104280004803803429F5809149038E3009F58091E7
:104290004A038130E9F00E94500260932D0270932E
:1042A0002E0280932F029093300280912C02811174
:1042B00005C081E080932C020E9429140E945002C4
:1042C00060932D0270932E0280932F029093300200
:1042D000D0E0C0E011E080914803803479F59091FE
:1042E0004903FE01E55DFE4F8081981327C00E94BF
:1042F000500260932D0270932E0280932F029093B0
:1043000030020E9450026093280270932902809329
:104310002A0290932B0280912C0281110FC01093DE
:104320002C02C0939D028091260290912702019653
:104330009093270280932602109325022196C6317E
:10434000D10549F60E94500200912D0210912E02D3
:1043500020912F0230913002601B710B820B930B66
:10436000673971058105910510F010922C0280913A
:104370002401882309F4A4C180919D028A3008F0A9
:1043800050C020912602309127022130310509F0DA
:10439000F5C090912502992339F090E09093240282
:1043A00080932302109225020E945002009128025D
:1043B0001091290220912A0230912B02601B710B6F
:1043C000820B930B613273408105910550F180910E
:1043D000260290912702181619061CF51092270242
:1043E0001092260290911F02809121022AE0829F62
:1043F000802D112424E6929F800D11249091230298
:10440000890F80939D021092240210922302109231
:104410002202109221021092200210921F020E948A
:10442000DC1380919D028A30B9F4809125028823A3
:1044300099F01092250280910B03882309F4C1C0E2
:1044400010920B030E94081264E670E080E090E096
:104450000E941D020E94081280919D028B30A1F4DF
:1044600080912502882381F01092250286EA96E049
:104470000E94661769E770E086EA96E00E94A8024B
:1044800086EA96E00E94661780919D028C30A1F426
:1044900080912502882381F01092250286EA96E019
:1044A0000E94661767E770E086EA96E00E94A8021D
:1044B00086EA96E00E94661780919D028D30A1F4F5
:1044C00080912502882381F01092250286EA96E0E9
:1044D0000E94661765E770E086EA96E00E94A802EF
:1044E00086EA96E00E94661780919D028E3009F060
:1044F0006CC080912502882321F0109225020E9431
:10450000AC1280919D02823109F06AC0809125022F
:10451000882309F465C01092250280910C039091C4
:104520000D03909365028093640286E292E090937B
:104530009502809394020E94B31E20911001309145
:104540001101215031098091C2029091C30202C031
:10455000959587952A95E2F780FDF5C00E9408128F
:1045600064E670E080E090E00E941D020E94EE1F71
:104570000E94241D81E08093F60232C02230310572
:1045800071F490912502992309F40ECF2091230212
:10459000309124023093220220932102FECE233058
:1045A000310509F00BC190912502992309F4FCCE45
:1045B00020912102309122023093200220931F0289
:1045C000E5CF81E080930B0345CF8F3009F09CC08D
:1045D00080912502882321F0109225020E947413F5
:1045E00080919D02833109F047C080912502882384
:1045F00009F442C01092250280910C0390910D03A2
:10460000909365028093640281E092E0909395021A
:10461000809394020E94B31E2091C2023091C30283
:10462000409110015091110141505109C901042ECE
:1046300002C0959587950A94E2F780FF87C081E0D4
:1046400090E0A0E0B0E004C0880F991FAA1FBB1F34
:104650004A95D2F780959095822393239093C30235
:104660008093C2020E94081264E670E080E090E04D
:104670000E941D020E94241D80919D02843101F53B
:1046800080912502882309F4E9C080917302882370
:1046900009F4E4C0109225028BEF91E00E94341DD2
:1046A000811166C081E090E090939C0280939B0210
:1046B0000E94081260919B028BEF91E00E94FC1B0C
:1046C00080919D02853109F0C9C08091250288231F
:1046D00009F4C4C01092250280912401882309F4B2
:1046E00069C01092240180912401811102C00E94AE
:1046F000AB1F80912401882309F4B0C0DF91CF91D2
:104700001F910F910C94AC17803109F074C0809107
:104710002502882309F464CF80919B0290919C022A
:10472000019709F05DCF109225020E942312E9CE75
:104730000E94081264E670E080E090E00E941D0292
:104740000E94CB1F85C00E94CB1F12CF81E090E05A
:10475000A0E0B0E004C0880F991FAA1FBB1F4A95B4
:10476000D2F7822B932B9093C3028093C20282CF05
:1047700010929C0210929B02C1E0C093190180E14B
:1047800090E0909323018093220183E190E0909345
:104790001F0180931E010E94081264E670E080E011
:1047A00090E00E941D02109200031092FF02C0933D
:1047B000F6027ECF81E08093240195CF243031052D
:1047C0000CF4F2CD90912502992309F4EDCD90E0FF
:1047D00090932402809323021092220210922102CD
:1047E0001092200210921F0281E090E09093270225
:1047F00080932602D7CD813109F083CE80912502A6
:10480000882309F4EDCE1092250280910C0390913B
:104810000D0390936502809364028EE492E090937E
:104820009502809394020E94B31E20911001309152
:104830001101215031098091C2029091C30202C03E
:10484000959587952A95E2F780FD72CF0E94EE1F1D
:104850000E94241D81E08093F60253CEDF91CF9118
:104860001F910F9108952F923F924F925F926F92F6
:104870007F928F929F92AF92BF92CF92DF92EF92F0
:10488000FF920F931F93CF93DF9300D000D000D0FF
:10489000CDB7DEB78091EE0281118BC06FE770E07B
:1048A00083EA95E00E94A80280914603803130F4AB
:1048B0006DE770E083EA95E00E94A802409146030C
:1048C00050E070E060E020E183EA95E00E94E416A9
:1048D00080914703803130F46BE770E083EA95E024
:1048E0000E94A8024091470350E070E060E020E1A0
:1048F00083EA95E00E94E41683EA95E00E94661739
:104900000E94500260930E0370930F038093100374
:10491000909311030E94500260939E0270939F0235
:104920008093A0029093A1022091460329833091A5
:1049300047033A833B9A44E04D8330953B8320956F
:104940002C839EE6892E912CA12CB12C0E94500222
:104950002B013C0180E093E20E946D155D81543093
:1049600009F44AC080EC98E00E94F00180E392E0F4
:104970000E946D153D8131503D833323C1F00E946B
:104980005002DC01CB0184199509A609B7098E36BE
:104990009105A105B105D0F6A5019401281B390B9D
:1049A0004A0B5B0BCA01B9010E941D02CFCF0E94C6
:1049B000C8200E94500260930E0370930F038093EF
:1049C00010039093110326960FB6F894DEBF0FBE26
:1049D000CDBFDF91CF911F910F91FF90EF90DF90AE
:1049E000CF90BF90AF909F908F907F906F905F908F
:1049F0004F903F902F90089580E891E10E94F00140
:104A00002A803B8009811C8180E28E8380E392E0D2
:104A10000E946D156101780180E996E020FC02C0DA
:104A200080E392E00E94F001F694E794D794C79453
:104A3000160187012E8121502E832111E7CF96CFB9
:104A40000F931F93CF93DF93809151038093500373
:104A5000109251038EE00E945D019093C3028093F7
:104A6000C202892B19F481E08093510380912401C3
:104A700081110AC00E94500260930E0370930F03CD
:104A80008093100390931103C0915103C1110CC086
:104A90000E94500260930E0370930F0380931003E3
:104AA000909311031092310280913102811124C040
:104AB000CC2311F10E94500200910E0310910F03BC
:104AC0002091100330911103601B710B820B930B2B
:104AD000693E73408105910578F0809173028823C7
:104AE00059F080919B0290919C02019729F481E0FA
:104AF000809331020E9423128091560381115EC07F
:104B0000CC2309F45DC00E94500200910E03109165
:104B10000F032091100330911103601B710B820B66
:104B2000930B693B7B408105910518F081E08093F0
:104B300056030E94500200910E0310910F03209122
:104B4000100330911103601B710B820B930B6131C9
:104B5000774281059105A0F180914E03811152C0E9
:104B600010924D0310924C03D0E0C0E080911A01E6
:104B700090911B018C179D070CF471C00E940F20AF
:104B80001091220161E0812F0E94B40160E0812F29
:104B90000E9486016FEF80914403909145030E942B
:104BA000FC1B6FEF80914203909143030E94FC1B1A
:104BB0000E94C8200E94DD112196D8CFC111B9CF23
:104BC00080915103811189C080915003882309F499
:104BD00084C080915603811180C080914F03811160
:104BE0007CC080912401811102C00E94AC17809189
:104BF0009802882309F46BC0DF91CF911F910F9128
:104C00000C9474130E948B0B81E090E090934D0301
:104C100080934C030E940F2080914C0390914D0390
:104C2000892BC9F061EC79E182E293E00E94E318FC
:104C300080914C0390914D03019690934D03809386
:104C40004C030E940F2064E979E182E293E00E9424
:104C5000E3188111E1CF8CE696E00E947E0BCCE058
:104C6000D0E01091220162E0812F0E94B40160E146
:104C700070E080E090E00E941D0261E0812F0E94C0
:104C8000B40160E0812F0E94860160E170E080E065
:104C900090E00E941D02219721F710925603809107
:104CA0000C0390910D03019790930D0380930C03D7
:104CB00010924D0310924C030E94500260930E0319
:104CC00070930F03809310039093110379CFDF91BA
:104CD000CF911F910F910C94E214DF91CF911F910E
:104CE0000F9108958091EF02882341F08FEF90E0BB
:104CF0009093ED028093EC020C94202508951F926E
:104D00000F920FB60F9211242F933F938F939F937F
:104D1000AF93BF938091580390915903A0915A0388
:104D2000B0915B033091570323E0230F2D3768F1D7
:104D300026E8230F0296A11DB11D209357038093EF
:104D4000580390935903A0935A03B0935B03809147
:104D50005C0390915D03A0915E03B0915F030196A7
:104D6000A11DB11D80935C0390935D03A0935E032E
:104D7000B0935F03BF91AF919F918F913F912F911E
:104D80000F900FBE0F901F9018950196A11DB11D99
:104D9000D4CF1F920F920FB60F9211242F933F93EF
:104DA0004F935F936F937F938F939F93AF93BF9333
:104DB000EF93FF9383EA95E00E944A03FF91EF91FE
:104DC000BF91AF919F918F917F916F915F914F9123
:104DD0003F912F910F900FBE0F901F9018951F922B
:104DE0000F920FB60F9211242F938F939F93EF93EF
:104DF000FF93E091B305F091B4058081E091B9058E
:104E0000F091BA0582FD1BC090818091BC058F5F37
:104E10008F732091BD05821741F0E091BC05F0E051
:104E2000ED55FA4F958F8093BC05FF91EF919F91BF
:104E30008F912F910F900FBE0F901F90189580812A
:104E4000F4CF1F920F920FB60F9211242F933F931E
:104E50004F935F936F937F938F939F93AF93BF9382
:104E6000CF93EF93FF9386B1C0916E029091710240
:104E7000C923982F9095C92380936E02C0FF05C067
:104E8000E0910E01F0910F010995C1FF05C0E0917D
:104E90000001F09101010995C2FF05C0E0910201F6
:104EA000F09103010995C3FF05C0E0910401F09161
:104EB00005010995C4FF05C0E0910601F0910701C5
:104EC0000995C5FF05C0E0910801F0910901099518
:104ED000FF91EF91CF91BF91AF919F918F917F9172
:104EE0006F915F914F913F912F910F900FBE0F9057
:104EF0001F9018951F920F920FB60F9211240F93C7
:104F00001F932F933F934F935F936F937F938F9351
:104F10009F93AF93BF93CF93EF93FF93C3B10E943F
:104F2000F8018B019C018091100290911102A091D7
:104F30001202B0911302B901A801481B590B6A0B68
:104F40007B0BCA01009310021093110220931202EE
:104F50003093130220911402C1FD88C0413066E4F1
:104F6000560710F4211119C010921E0281E080939F
:104F70001402FF91EF91CF91BF91AF919F918F91CB
:104F80007F916F915F914F913F912F911F910F9161
:104F90000F900FBE0F901F901895223069F59C015D
:104FA00020523D40213C3840C0F41092150210922E
:104FB0001A0210921B0210921C0210921D0281E034
:104FC00090E0A0E0B0E08093160290931702A093C7
:104FD0001802B093190283E0CACF805996408136F7
:104FE000944008F07FC080911502803208F47AC0A6
:104FF00081E080931E02EFCF243009F073C0885106
:105000009140813C984008F06DC0809116029091CB
:105010001702A0911802B091190240365440A0F036
:1050200040911A0250911B0260911C0270911D0266
:10503000482B592B6A2B7B2B40931A0250931B024F
:1050400060931C0270931D02880F991FAA1FBB1F3B
:105050008093160290931702A0931802B09319023E
:10506000809115028F5F80931502B5CF213039F4FE
:1050700080549A4181389141A8F582E078CF23305D
:1050800089F5885191408133924060F580911502F5
:10509000803220F480911E0280FF26C080911B0286
:1050A000809590911A02981719F084E080931E025F
:1050B00080911D02809590911C02981719F084E050
:1050C00080931E02789481E080934B0380911E02AE
:1050D00080934A0380911A028093480380911C02B6
:1050E0008093490380E043CF84E041CFCF92DF92A9
:1050F000EF92FF92CF93DF93E3EAF5E013821282FF
:1051000088EEC82E83E0D82EE12CF12CC482D58203
:10511000E682F78285E491E09183808385EC90E0DC
:105120009587848784EC90E09787868780EC90E071
:10513000918B808B81EC90E0938B828B82EC90E062
:10514000958B848B86EC90E0978B868B118E128EDC
:10515000138E148EE0E4F6E080E580831182E2E4B1
:10516000F6E0158216821186138682E090E0A0E0B8
:10517000B0E084879587A687B78713A215A614A6E3
:1051800087E591E093A782A717A6C6EAD6E01B821F
:105190001A82CC82DD82EE82FF8285E791E09983DC
:1051A00088831B8A1A8AEAEBF6E060816D7F608350
:1051B0006695617081E0682786E00E94860161E063
:1051C00086E00E94B401E2E9F1E0E491EC87EBE7CC
:1051D000F1E0E491F0E0EE0FFF1FE559FE4F8591FD
:1051E00094919E878D87EBE8F6E013821282C48249
:1051F000D582E682F78283E691E091838083128EE6
:10520000118E1486DF91CF91FF90EF90DF90CF90B9
:105210000895CF93DF93CDB7DEB76B970FB6F894B1
:10522000DEBF0FBECDBF789484B5836084BD85B5E5
:10523000836085BD80916E00816080936E0082E006
:1052400080938100809181008160809381008091B2
:1052500080008160809380008091B10084608093A1
:10526000B1008091B00081608093B00087E88093A6
:105270007A001092C10040EF5DE761EF7DE7A2EF99
:10528000BDE703EF1DE7E4EFEE2EEDE7FE2EF5EFB1
:10529000CF2EFDE7DF2E86EFA82E8DE7B82E27EF65
:1052A0003DE7FA0184918335E1F7FB01849186356E
:1052B000C1F7FD0184918335A1F7F8018491803213
:1052C00081F7F7018491823461F7F601849181348A
:1052D00041F7F5018491823421F7F90184918935F0
:1052E00001F70E945002609352037093530380931E
:1052F00054039093550362E08EE00E94B401109134
:10530000220161E0812F0E94B40162E080911E01C0
:105310000E94B40161E082E10E94B40161E082E098
:105320000E94B40161E083E00E94B40161E084E086
:105330000E94B40161E087E00E94B40161E086E070
:105340000E94B40161E085E00E94B40160E088E061
:105350000E94B40162E08FE00E94B40160E084E04A
:105360000E94860160E082E00E94860161E070E0B8
:1053700080E090E00E941D0260E083E00E948601D0
:1053800060E082E10E94860161E070E080E090E0F0
:105390000E941D0261E082E10E94860160E083E0DC
:1053A0000E94860160E0812F0E94860160E085E016
:1053B0000E94860160E087E00E94860160E086E04E
:1053C0000E94860161E070E080E090E00E941D0292
:1053D000E091B305F091B40582E08083E091AF05E0
:1053E000F091B0051082E091B105F091B2058FEC1B
:1053F00080831092BB05E091B705F091B80586E077
:105400008083E091B505F091B6058081886980833D
:10541000E091B505F091B60580818F7D80838DE99F
:1054200091E09093B9068093B80621988091680026
:10543000816080936800E5E9F1E0E491E0936B001E
:105440000E948B0B811182C165EB70E083EA95E0CD
:105450000E946A1710924E038CE696E00E947E0B23
:1054600064E670E080E090E00E941D026DEA70E06A
:1054700083EA95E00E94A8022AE041E050E060E063
:1054800070E083EA95E00E94E4166EE283EA95E01C
:105490000E946C032AE042E050E060E070E083EAA2
:1054A00095E00E94E4162AE040E050E0BA0183EA69
:1054B00095E00E94E41667EA70E083EA95E00E94B6
:1054C000A80264E670E080E090E00E941D026AE1BC
:1054D00083EA95E00E946C0383EA95E00E946617D8
:1054E00066EB71E083EA95E00E94D51640911201C7
:1054F0005091130160911401709115012AE083EA23
:1055000095E00E94E41683EA95E00E946617712CEC
:10551000612C552453948091990290919A02892B81
:1055200009F099C1E0900C03F0900D03C7010196BA
:1055300090930D0380930C035092F60261E082E099
:105540000E94860161E070E080E090E00E941D0210
:1055500061E083E00E94860161E070E080E090E01D
:105560000E941D028FE00E945D015C019093C302C6
:105570008093C20210911E01019709F031C161E0D0
:10558000812F0E94B40160E0812F0E948601F09279
:105590009A02E092990229EFE216F104E4F761E041
:1055A00085E00E94860100919602109197020A58A8
:1055B0001D4FC8010E94341D882E912C9092950297
:1055C0008092940280911001909111010197C12C59
:1055D000D12C7601C39404C0CC0CDD1CEE1CFF1C46
:1055E0008A95D2F7AB2809F400C1C828D928D092EF
:1055F0009502C092940260919402C8010E94FC1B23
:1056000060E085E00E94860161E086E00E948601FC
:10561000E0909602F090970282E6E81A8DEFF80A81
:10562000C7010E94341D082F10E0109395020093CB
:1056300094028091C2029091C302892B09F4E6C0C2
:1056400020911001309111012150310981E090E049
:10565000A0E0B0E004C0880F991FAA1FBB1F2A95C5
:10566000D2F7802B912B90939502809394026091B6
:105670009402C7010E94FC1B60E086E00E94860144
:1056800060E082E00E94860161E070E080E090E0EE
:105690000E941D028091C2029091C302892B09F5DC
:1056A0008FE00E945D010197E1F4E0919602F09194
:1056B0009702EC58FD4F20911001309111012150BB
:1056C000310981E090E0A0E0B0E004C0880F991FAC
:1056D000AA1FBB1F2A95D2F72081822B808350926C
:1056E000730261E070E080E090E00E941D02809112
:1056F0000C0390910D03893F91050CF4A9C0109102
:10570000220162E0812F0E94B40100911E0161E03C
:10571000802F0E94B40160E0802F0E94860164EF18
:1057200071E080E090E00E941D0262E0802F0E9404
:10573000B40161E0812F0E94B40160E0812F0E94DA
:10574000860164EF71E080E090E0CFCF81E080934C
:105750004E0341E06EEA71E0CE0101960E94F91A13
:10576000CE0101960E94FD00E091A406F091A506ED
:10577000309709F471CE8581882309F46DCE8BE8CA
:1057800096E00E945C02009759F0FC01E05AFC4F41
:105790001082319780818B3619F481E080939802D2
:1057A0000E94051170931D0160931C010E94051158
:1057B0006093E8027093E9028093EA029093EB020F
:1057C000611571058105910541F060931201709397
:1057D000130180931401909315010E94C2163CCED0
:1057E00062E0812F0E94B401DACE8FE00E945D0159
:1057F000019709F0FACEC094D0948C209D2090920D
:1058000095028092940266246394F5CE8FE00E9404
:105810005D0120911001309111012150310941E0C9
:1058200050E060E070E004C0440F551F661F771F12
:105830002A95D2F7019709F003CF40955095402360
:1058400051235093950240939402772473940FCF81
:105850000E94C11360CE662D8DE992E00E94FC1B70
:10586000672D85EC92E00E94FC1B61E070E080E017
:1058700090E00E941D0210920D0310920C0381E033
:105880008093F60262E080911E010E94B40161E003
:1058900086E00E94860180E092E00E94341D90E044
:1058A0009093C3028093C2026091C2027091C302BE
:1058B0008091990290919A026817790709F4A2C021
:1058C00010E000E08091C2029091C302081719070E
:1058D0000CF074C0F090220161E08F2D0E94B401A1
:1058E00060E08F2D0E9486010E9450026B017C01B6
:1058F000C0920E03D0920F03E0921003F0921103B6
:105900000E9450026C197D098E099F096C3271400A
:105910008105910578F48EE00E945D01892B81F765
:105920000E94101C8091990290919A029093C30258
:105930008093C2022091C2023091C30280919902E9
:1059400090919A0228173907C9F162E080912201EB
:105950000E94B4010E9450026B017C01C0920E03B0
:10596000D0920F03E0921003F09211030E945002B4
:105970006C197D098E099F09683C710581059105A7
:1059800078F48EE00E945D01892B81F70E94101C43
:105990008091990290919A029093C3028093C202DF
:1059A0002091C2023091C3028091990290919A0293
:1059B0002817390719F00F5F1F4F84CF0E9450023C
:1059C0006B017C01C0920E03D0920F03E092100392
:1059D000F09211030E9450026C197D098E099F09F3
:1059E000683E73408105910508F05ECF8EE00E940D
:1059F0005D01892B79F70E94101C8091990290918A
:105A00009A024ECF80E092E00E94FC1B8BEF91E067
:105A10000E94341D282F30E030939C0220939B027B
:105A2000823020F010929C0210929B028EE00E9425
:105A30005D0120919B0230919C02892B89F4809119
:105A40007302882369F02F5F3F4F30939C022093AD
:105A50009B022230310524F010929C0210929B028E
:105A600060919B028BEF91E00E94FC1B6091990278
:105A700070919A026F5F7F4F7093210160932001B4
:105A80008AEF90E00E9441396150710970931B01C7
:105A900060931A010E9450026B017C01C0920E03B8
:105AA000D0920F03E0921003F09211038EE00E9457
:105AB0005D0120912201892B89F462E0822F0E94EE
:105AC000B4010E9450026C197D098E099F09613151
:105AD00077428105910550F30E94101C109122011C
