:100000000C94B0000C94D8000C94D8000C94A01F51
:100010000C94D8000C94D8000C94D8000C94D80000
:100020000C94D8000C94D8000C94D8000C94D800F0
:100030000C94D8000C94D8000C94D8000C94D800E0
:100040000C94FE1E0C94D8000C946E1F0C94481F48
:100050000C94D8000C94D8000C94D8000C94D800C0
:100060000C94D8000C94D800300030005356532024
:10007000495220434F4D4D414E443D007C3C3E5E35
:100080002B3D3F2F5B5D3B2C2A225C005356535F78
:1000900046575F005356532043555252454E542005
:1000A000494E5055543D00535653204E4557204914
:1000B0004E5055543D0053565320544F54414C20FC
:1000C000494E505554533D0044656C657465642039
:1000D0000044656C6179286D696C6C697365636F48
:1000E0006E6473293D3000416464726573733D0032
:1000F000436F6D6D616E643D0000000000230026BB
:1001000000290000000009000302000004050800A7
:1001100000000000000000000000000000002400BB
:1001200027002A0000000000250028002B000404FE
:10013000040404040404020202020202030303038F
:10014000030302020301020408102040800102049C
:100150000810200102040810204080409C206D2AD5
:1001600011241FBECFEFD8E0DEBFCDBF26E0A4ED47
:10017000B1E001C01D92A230B207E1F711E0A0E0AA
:10018000B1E0ECE4F0E602C005900D92A43DB107A9
:10019000D9F710E0CFEAD0E004C02197FE010E9419
:1001A000D72DCE3AD107C9F70E9437210C941930C8
:1001B0000C940000CF93DF93FC0182819381909394
:1001C000C5058093C40584819581A681B7818093FC
:1001D000C6059093C705A093C805B093C90580854F
:1001E0009185A285B3858093CA059093CB05A09392
:1001F000CC05B093CD05DF011C96CF014996CEEC1E
:10020000D5E02D912993A817B907D9F7818D928D43
:100210009093DC058093DB0582EC95E0DF91CF9134
:100220000895843081F028F48230E9F08330F9F0C9
:100230000895883071F0893091F08530B9F480915B
:1002400080008F7D03C0809180008F778093800035
:1002500008958091B0008F778093B00008958091C9
:10026000B0008F7DF9CF84B58F7784BD089584B5B4
:100270008F7DFBCFCF93DF93282F30E0F901ED5F27
:10028000FE4F8491F901EB5BFE4FD491F901E25DE1
:10029000FE4FC491CC23A1F081110E941101EC2FDB
:1002A000F0E0EE0FFF1FE750FF4FA591B491EC91E6
:1002B000ED2381E090E009F480E0DF91CF91089593
:1002C00080E090E0FACF1F93CF93DF93282F30E0A8
:1002D000F901ED5FFE4F8491F901EB5BFE4FD49184
:1002E000F901E25DFE4FC491CC23A9F0162F8111D4
:1002F0000E941101EC2FF0E0EE0FFF1FEC5DFE4FAE
:10030000A591B4918FB7F894EC91111108C0D095D4
:10031000DE23DC938FBFDF91CF911F910895DE2BF9
:10032000F8CFCF93DF9390E0FC01EB5BFE4F24917D
:10033000825D9E4FFC0184918823C9F090E0880F74
:10034000991FFC01E65EFE4FA591B491FC01EC5DA6
:10035000FE4FC591D49161110DC09FB7F8948C9157
:10036000209582238C938881282328839FBFDF9147
:10037000CF910895623051F49FB7F8943C91822F49
:10038000809583238C93E8812E2BEFCF8FB7F89441
:10039000EC912E2B2C938FBFEACF880F991F880FDB
:1003A000991F05970197F1F708953FB7F894809149
:1003B000B3029091B402A091B502B091B60226B5F5
:1003C000A89B05C02F3F19F00196A11DB11D3FBF8D
:1003D000BA2FA92F982F8827BC01CD01620F711D5C
:1003E000811D911D42E0660F771F881F991F4A9556
:1003F000D1F708958F929F92AF92BF92CF92DF92E2
:10040000EF92FF926B017C010E94D5014B015C01D0
:10041000C114D104E104F104B9F00E94D5016819B6
:1004200079098A099B09683E73408105910580F32B
:1004300021E0C21AD108E108F10888EE880E83E0B5
:10044000981EA11CB11CE4CFFF90EF90DF90CF90DD
:10045000BF90AF909F908F9008952FB7F8946091C0
:10046000AF027091B0028091B1029091B2022FBFA1
:100470000895EF92FF920F931F93CF93DF938C0118
:100480007B01D0E0C0E0F701EC0FFD1F6491662313
:1004900061F0D801ED91FC910190F081E02DC8014F
:1004A0000995892B11F02196EECFCE01DF91CF91E6
:1004B0001F910F91FF90EF900895AF92BF92CF924E
:1004C000DF92EF92FF920F931F93CF93DF936C0114
:1004D0007B018B01040F151FEB015E01AE18BF08F5
:1004E000C017D10759F06991D601ED91FC910190A7
:1004F000F081E02DC6010995892B79F7C501DF91BF
:10050000CF911F910F91FF90EF90DF90CF90BF9010
:10051000AF900895FC01538D448D252F30E0842F3A
:1005200090E0821B930B541710F0CF96089501971B
:100530000895FC01918D828D981761F0A28DAE0F08
:10054000BF2FB11D5D968C91928D9F5F9F73928F8F
:1005500090E008958FEF9FEF0895FC01918D828DBB
:10056000981731F0828DE80FF11D858D90E0089588
:100570008FEF9FEF0895FC01918D228D892F90E0E0
:10058000805C9F4F821B91098F73992708958AED94
:1005900094E00E94BB0221E0892B09F420E0822F25
:1005A000089580E090E0892B29F00E94C702811114
:1005B0000C9400000895FC01A48DA80FB92FB11D63
:1005C000A35ABF4F2C91848D90E001968F73992789
:1005D000848FA689B7892C93A089B1898C91837067
:1005E00080648C93938D848D981306C00288F38960
:1005F000E02D80818F7D80830895EF92FF920F938D
:100600001F93CF93DF93EC0181E0888F9B8D8C8DBE
:1006100098131AC0E889F989808185FF15C09FB7B2
:10062000F894EE89FF896083E889F9898081837075
:10063000806480839FBF81E090E0DF91CF911F9124
:100640000F91FF90EF900895F62E0B8D10E00F5F45
:100650001F4F0F731127E02E8C8D8E110CC00FB61B
:1006600007FCFACFE889F989808185FFF5CFCE01B3
:100670000E94DB02F1CFEB8DEC0FFD2FF11DE35A51
:10068000FF4FF0829FB7F8940B8FEA89FB89808136
:100690008062CFCFCF93DF93EC01888D8823B9F0B0
:1006A000AA89BB89E889F9898C9185FD03C080817D
:1006B00086FD0DC00FB607FCF7CF8C9185FFF2CFFA
:1006C000808185FFEDCFCE010E94DB02E9CFDF9173
:1006D000CF9108958FB7F89480910A028FBF089543
:1006E00061E0FC0184810E94630180910902811113
:1006F0001092090208958EBD00000DB407FEFDCFD3
:100700008EB508958FEF0C947B030F931F93CF93B7
:10071000DF93EC010E942D028B010E9482038F3F28
:1007200069F00E942D02601B710B6C177D07A8F306
:1007300080E0DF91CF911F910F91089581E0F9CF73
:100740008CBD9DBD0895CF93DF93EC01809109028C
:10075000811109C081E08093090280917705909111
:1007600078050E94A00360E08C81DF91CF910C940A
:1007700063018F929F92AF92BF92FF920F931F934C
:10078000CF93DF93EC01F62E49015A018E81882325
:1007900089F08F8198859C012F5F3F4F38872F8389
:1007A0008230924018F40E948203F3CFCE010E945F
:1007B00070031E82CE010E94A3038CE291E00E948E
:1007C00085038F2D80640E947B0308E110E0D50132
:1007D000C401002E04C0B695A795979587950A94F5
:1007E000D2F70E947B0308501109083F8FEF1807CA
:1007F00071F785E9FF2021F028E087E8F2128FEFFA
:100800000E947B0310E00E9482038A8787FF04C056
:100810001F3F11F01F5FF7CFDF91CF911F910F9115
:10082000FF90BF90AF909F908F900895AF92BF922E
:10083000CF92DF92EF92FF920F931F93CF93DF93AC
:10084000EC016901C801820F931F8130924050F57D
:100850008E81882379F088819981AA81BB81841750
:100860009507A607B70731F48F819885C816D90672
:1008700008F042C0488359836A837B838B85833029
:1008800039F089E0440F551F661F771F8A95D1F70D
:100890009A01AB0161E1CE010E94B903882389F07E
:1008A00083E08D83CE010E94700380E0DF91CF91C1
:1008B0001F910F91FF90EF90DF90CF90BF90AF907E
:1008C00008950E942D025B010E9482038A878F3F58
:1008D00069F40E942D026A197B096D327140A0F300
:1008E0008FE08D83CE010E947003DCCF8E3F89F4B0
:1008F00018861F8281E08E838F8198858C159D05D7
:1009000050F40E9482038F819885019698878F8387
:10091000F3CF8DE0E6CF6701E00EF11E0E94820367
:10092000F60181936F01EE15FF05C1F78F81988560
:10093000080F191F18870F838985882319F001155F
:100940001240A0F08E81882389F08F8198859C01C8
:100950002F5F3F4F38872F838230924018F40E94D8
:100960008203F3CFCE010E9470031E8281E09ECFEE
:10097000CF92DF92EF92FF920F93CF93DF93EC0130
:10098000690182E1411551056105710599F08B8579
:10099000833039F089E0440F551F661F771F8A9511
:1009A000D1F79A01AB0168E1CE010E94B903882317
:1009B00019F084E08D832DC08EEF0E947B037601B9
:1009C0008EEFD81AF70181917F010E947B03EC140E
:1009D000FD04C1F78FEF0E947B038FEF0E947B0322
:1009E0000E9482038A878F71853071F4011116C0CD
:1009F000CE010E94700381E0DF91CF910F91FF90B3
:100A0000EF90DF90CF90089581E18D83CE010E9419
:100A10007003CE010E94700380E0EECF88E592E083
:100A20000E948503811102C085E1C4CF20E030E03F
:100A3000A9016DE0CE010E94B903882311F084E181
:100A4000B9CF0E9482038111FACFD2CF0F93409188
:100A50000C0250910D0260910E0270910F0241152F
:100A600051056105710599F0082F2AED32E080915A
:100A7000D8029091D9020E94B804882349F01092BC
:100A80000C0210920D0210920E0210920F0281E0E1
:100A90000F9108950F93CF93C82F80910B0281116E
:100AA00005C0C1E08C2FCF910F91089540910001B6
:100AB0005091010160910201709103010C2F2AED08
:100AC00032E08091D8029091D9020E94B80481113D
:100AD00002C0C0E0E7CFCC2321F381E00E942605CD
:100AE0008823B9F310920B02DDCF8F929F92AF92C1
:100AF000BF92EF92FF920F931F93CF934B015C0134
:100B0000C42F8091000190910101A0910201B09148
:100B1000030188159905AA05BB0551F181E00E94E2
:100B20004A0581110BC080E0CF911F910F91FF907A
:100B3000EF90BF90AF909F908F9008958AEDE82E30
:100B400082E0F82E00E012E030E020E0B501A401E0
:100B50008091D8029091D9020E941604882319F33B
:100B60008092000190920101A0920201B0920301D3
:100B700040910B024C2B40930B0281E0D5CFCF93D9
:100B8000DF93EC016E857F858889998941E00E9419
:100B90007505882351F08A8920E2829FC0011124C3
:100BA00086529D4FDF91CF91089590E080E0FACF7B
:100BB0008F929F92AF92BF92CF92DF92EF92FF926D
:100BC000CF9329E735E03093D9022093D8028823C8
:100BD00009F46DC040E060E070E0CB010E94750553
:100BE00081110BC080E0CF91FF90EF90DF90CF900C
:100BF000BF90AF909F908F900895809198048F77C9
:100C000089F78091A4049091A504A091A604B091C5
:100C1000A70484369105A105B10520F3C090A00476
:100C2000D090A104E090A204F090A304C114D104D8
:100C3000E104F104B9F240E0C701B6010E94750574
:100C4000882381F28091E5029091E602811592401D
:100C500049F6A091EA02AA2329F26091E802709174
:100C6000E9026115710509F4BDCF2091E702222345
:100C700009F4B8CFA09397052093890590E080E010
:100C800030E0E1E0F0E0C82FAF01082E02C0440FD1
:100C9000551F0A94E2F72417350769F041E0480F21
:100CA00001968930910579F7409392059BCFC12C2D
:100CB000D12C7601C0CF809392052091F002309123
:100CC000F10250E040E02115310541F42091FE028F
:100CD0003091FF02409100035091010320938A0557
:100CE00030938B0540938C0550938D054601570139
:100CF000860E971EA11CB11C8092980590929905B2
:100D0000A0929A05B0929B05E091EB02F091EC0263
:100D1000F0939E05E0939D05B0E00E943C2DDC0120
:100D2000CB01880D991DAA1DBB1D80939F05909333
:100D3000A005A093A105B093A20525E0EE0FFF1F2B
:100D40002A95E1F7E150FE4FEF2FFF27E6958E0F32
:100D50009F1FA11DB11D8093930590939405A093AF
:100D60009505B09396058090ED029090EE02B12C1F
:100D7000A12C8114910441F48090FA029090FB021E
:100D8000A090FC02B090FD02C81AD90AEA0AFB0A38
:100D9000C80CD91CEA1CFB1C04C0F694E794D79439
:100DA000C794CA95D2F7C0928E05D0928F05E09273
:100DB0009005F092910585EFC8168FE0D806E10402
:100DC000F10428F48CE080939C0581E00CCF80E155
:100DD00025EFC2162FEFD206E104F104A0F38091B3
:100DE000060390910703A0910803B0910903809333
:100DF0009F059093A005A093A105B093A20580E262
:100E0000E2CF4F925F926F927F928F929F92AF92BA
:100E1000BF92CF92DF92EF92FF920F931F93CF93E7
:100E2000DF93EC01423051056105710590F480E0DB
:100E3000DF91CF911F910F91FF90EF90DF90CF90B6
:100E4000BF90AF909F908F907F906F905F904F90EA
:100E5000089589859A85AB85BC850196A11DB11D34
:100E600084179507A607B70710F3CB88DC88ED88B1
:100E7000FE888F89803109F042C0BB27A72F962FAB
:100E8000852F480159012A013B01C80ED91EEA1ECF
:100E9000FB1E8091000190910101A0910201B0918F
:100EA0000301C816D906EA06FB0699F58F89803139
:100EB000C1F5B301A201552766277727440F551FB7
:100EC00046525D4FFA019182808280910B028160CF
:100ED00080930B028A89823080F08D819E81AF8160
:100EE000B8858C0D9D1DAE1DBF1D80930C02909387
:100EF0000D02A0930E02B0930F0281E099CFDB01A7
:100F0000CA01E7E0B695A79597958795EA95D1F739
:100F1000B8CF40E0C701B6010E9475058111C6CF68
:100F200086CFB301A2014F77552766277727440F55
:100F3000551F440F551F46525D4FFA018082918222
:100F4000A282B382C2CF8F929F92AF92BF92CF9272
:100F5000DF92EF92FF920F931F93CF93DF93FC01E9
:100F600081859285A385B4850196A11DB11D841745
:100F70009507A607B70770F480E0DF91CF911F9126
:100F80000F91FF90EF90DF90CF90BF90AF909F9028
:100F90008F90089583889488A588B6888789803142
:100FA00089F5BB27A72F962F852FE9016A017B01C1
:100FB0008F01BC01CD01680D791D8A1D9B1D80909C
:100FC000000190900101A0900201B09003018616EB
:100FD0009706A806B90601F5F8018789803111F551
:100FE000DD24EE24FF24F601EE0FFF1FE652FD4F35
:100FF00080819181B0E0A0E088839983AA83BB833C
:1010000081E0BBCFDB01CA01C7E0B695A7959795F4
:101010008795CA95D1F7C9CF40E00E947505811127
:10102000DBCFAACFE894C7F8DD24EE24FF24F60135
:10103000EE0FFF1FEE0FFF1FE652FD4F80819181E3
:10104000A281B381BF70D8CF4F925F926F927F928F
:10105000AF92BF92CF92DF92EF92FF920F931F93C6
:10106000CF93DF9300D000D0CDB7DEB78C0149839A
:101070005A836B837C835901C12CD12C7601412C7E
:1010800082E0582E612C712C49815A816B817C81C0
:101090009E012F5F3F4FC8010E94A307882339F1AB
:1010A000F8018585A301920104C0220F331F441F5C
:1010B000551F8A95D2F7DA01C901C80ED91EEA1E5A
:1010C000FB1E49815A816B817C818789803111F1B6
:1010D00088EF9FEFAFEFBFE0481759076A077B071C
:1010E00098F2F501C082D182E282F38281E00F9012
:1010F0000F900F900F90DF91CF911F910F91FF9064
:10110000EF90DF90CF90BF90AF907F906F905F9007
:101110004F90089588EF9FEFA0E0B0E0DDCFCF9330
:10112000DF93FC012581222321F080E0DF91CF9124
:101130000895EC0180919C05803159F582E085830A
:10114000178A108E118E128E80919D0590919E05AA
:10115000B0E0A0E025E0880F991FAA1FBB1F2A95C9
:10116000D1F7838B948BA58BB68B85E895E09C8F0C
:101170008B8F81E08C831E821F82188619861A86C7
:101180001B861C861D861E861F86188A198A1A8A47
:10119000CDCF803251F683E0858340919F055091F9
:1011A000A0056091A1057091A205478B508F618FBA
:1011B000728F9F012D5E3F4F85E895E00E942408C5
:1011C0008111D3CFB2CF8F929F92AF92BF92CF9225
:1011D000DF92EF92FF920F931F93CF93DF93EC0177
:1011E0008D8181110EC080E0DF91CF911F910F9111
:1011F000FF90EF90DF90CF90BF90AF909F908F9037
:1012000008950B891C892D893E8904171507260727
:10121000370748F34A015B01823031F48A869B86A6
:10122000AC86BD8681E0E0CF81149104A104B104B5
:1012300049F41E821F82188619861A861B861C8610
:101240001D86F0CF0A851B852C853D85EB8DFC8D99
:10125000858590E00996B901A801415051096109BD
:101260007109082E04C076956795579547950A949D
:10127000D2F775016401E1E0CE1AD108E108F10866
:1012800004C0F694E794D794C7948A95D2F7C4160D
:10129000D506E606F70620F0012B022B032B11F5ED
:1012A0008F89988DA98DBA8D8E839F83A887B987E2
:1012B0008E010A5F1F4FC114D104E104F10409F447
:1012C000ADCF4E815F816885798598018B8D9C8D2E
:1012D0000E94A30791E0C91AD108E108F108811121
:1012E000EACF81CFC41AD50AE60AF70AE1CF3F92C6
:1012F0004F925F926F927F928F929F92AF92BF9226
:10130000CF92DF92EF92FF920F931F93CF93DF93D1
:10131000CDB7DEB72C970FB6F894DEBF0FBECDBFAA
:101320005C01DC015B968D909C905C9716964D90CD
:101330005D906D907C901997411451046104710483
:1013400009F468C0BFEF4B1A5B0A6B0A7B0A312CA9
:10135000F40181859285A385B4859C01AD012F5F41
:101360003F4F4F4F5F4F29873A874B875C87730109
:1013700062011D821E821F821886F401818592857A
:10138000A385B4852D813E814F8158852817390763
:101390004A075B0708F056C089859A85AB85BC85EE
:1013A0008C159D05AE05BF0550F482E0C82ED12CEA
:1013B000E12CF12C92E0492E512C612C712C9E01D4
:1013C0002F5F3F4FB701A601C4010E94A3078823E6
:1013D000C9F189819A81AB81BC81892B8A2B8B2BA6
:1013E00009F1260137019FEF491A590A690A790A5A
:1013F0002D813E814F8158852F5F3F4F4F4F5F4F6B
:101400002D833E834F8358873FEFC31AD30AE30AE5
:10141000F30AB3CFF401408051806280738033249B
:10142000339496CFC414D504E604F70409F70FEFFC
:101430001FEF2FEF3FE0B701A601C4010E94010793
:10144000811119C080E02C960FB6F894DEBF0FBE54
:10145000CDBFDF91CF911F910F91FF90EF90DF9063
:10146000CF90BF90AF909F908F907F906F905F9044
:101470004F903F900895D50116964D915D916D91D5
:101480007C911997411551056105710539F0970156
:101490008601C4010E9401078823A1F2D501169696
:1014A000CD92DD92ED92FC921997332051F0D70145
:1014B000C6010196A11DB11DF40180839183A28311
:1014C000B383F5018789908DA18DB28D892B8A2BED
:1014D0008B2B39F48481C78AD08EE18EF28E80689E
:1014E0008483F50184818062848381E0ACCF1F9383
:1014F000CF93DF93FC012581222371F1162FEC019C
:10150000848187FF1EC0CF010E94BF05FC01892B8B
:1015100019F18D81823040F48B899C89AD89BE8917
:10152000848F958FA68FB78F8F89988D938F828F99
:101530008F89988DA98DBA8DB58BA48B8C818F776F
:101540008C83111103C08C818F7E8C83812FDF915E
:10155000CF911F910C944A0580E0DF91CF911F91AC
:101560000895FF920F931F93CF93DF93EC018D812A
:10157000813041F090E080E0DF91CF911F910F9199
:10158000FF9008958C8181FFF5CF82FD1BC00091F3
:10159000D8021091D902C8010E94A3030E948203BD
:1015A000F82EC8010E9470038FEFF812E3CF8C81F0
:1015B00085FF1BC060E0CE010E94770A8C818F7D81
:1015C0008C83D8CF4B895C896D897E898A859B8580
:1015D000AC85BD8584179507A607B707C1F2CE0174
:1015E0000E94E3088111D3CFC5CF40910C025091E6
:1015F0000D0260910E0270910F02452B462B472B76
:1016000021F080E00E942605B5CF80618C832A8579
:101610003B85317080E092E0821B930BADCFCF937E
:10162000DF93EC0161E00E94770A882311F01D82AC
:1016300081E0DF91CF910895CF92DF92EF92FF92F8
:101640001F93CF93DF938091A805882321F083EA2D
:1016500095E00E940F0B1092840510928205109263
:101660007F0510927E058AE080937D050E942D0201
:10167000EB0161E080917D050E94910161E0809124
:101680007D050E9463011FB7F8948091D7028111F4
:1016900027C0E8E3F1E08491EFE4F1E09491E82FD2
:1016A000F0E0EE0FFF1FE65EFE4FA591B491EC91C6
:1016B000E92321F461E08AE00E94630161E08AE0AD
:1016C0000E9491018CB580618CBD8CB580648CBD0D
:1016D00061E08DE00E94910161E08BE00E94910148
:1016E0008091D7028F5F8093D7021FBF82E58093DE
:1016F00077051092780580917705909178050E9482
:10170000A0031AE08FEF0E947B031150D9F789E7FD
:1017100095E00E94A30320E030E0A90160E089E7A2
:1017200095E00E94B903182F80938305813081F0E2
:101730000E942D026C1B7D0B613D774060F381E0C0
:1017400080937E0589E795E00E94700390E078C061
:101750002AEA31E040E050E068E089E795E00E9445
:10176000B90382FF2AC01093840580918405C12C9F
:10177000D12C7601823029F4C12CD12CE12C80E4CB
:10178000F82E20E030E0A90167E389E795E00E94A8
:10179000B903A701960169E289E795E00E94B903C0
:1017A000809383058823C1F00E942D026C1B7D0B62
:1017B000613D774030F388E0C3CF14E00E9482039C
:1017C000809383051150D1F78A3A11F082E0B8CFA7
:1017D00082E080938405C9CF809184058230D1F462
:1017E00020E030E0A9016AE389E795E00E94B903AF
:1017F000882311F086E0A4CF0E948203807C803C85
:1018000019F483E0809384050E9482030E9482037E
:101810000E94820389E795E00E94700380E580932F
:1018200077051092780581E00E94D805882389F019
:1018300083EA95E00E948F0891E0882309F486CF1F
:10184000892FDF91CF911F91FF90EF90DF90CF9084
:10185000089580E00E94D805882309F477CFE8CF67
:101860008F929F92AF92BF92CF92DF92EF92FF92B0
:10187000CF93DF93EC010E94770981110CC080E0C7
:10188000DF91CF91FF90EF90DF90CF90BF90AF901E
:101890009F908F900895EB8DFC8DCE80DF80E88443
:1018A000F98482E0C81AD108E108F108858504C0EE
:1018B000CC0CDD1CEE1CFF1C8A95D2F78685978523
:1018C000A089B189C80ED91EEA1EFB1E848146017B
:1018D0005701880E911CA11CB11CC814D904EA043C
:1018E000FB04F9F081E0881A9108A108B10881E0B1
:1018F0000E944A05882319F2EAEDF2E0119284E091
:10190000EA3DF807D9F78092000190920101A09278
:101910000201B092030180910B02816080930B025F
:10192000DCCFEB8DFC8D258580E092E0A0E0B0E07F
:1019300004C0880F991FAA1FBB1F2A95D2F74B8995
:101940005C896D897E89840F951FA61FB71F8B8BBD
:101950009C8BAD8BBE8B81E093CF2F923F924F92A9
:101960005F926F927F928F929F92AF92BF92CF922F
:10197000DF92EF92FF920F931F93CF93DF9300D0EC
:1019800000D01F92CDB7DEB77C015B01342E5D83A2
:10199000DC0115968C911597813009F0CEC0149614
:1019A0002C9021FECAC022FCB4C0C32CDD8022943E
:1019B0007FE027222094B22DB1702B2ED7011A96EA
:1019C0004D915D916D917C911D97C114D10409F4E5
:1019D00028C15B968D919C915C97FC0174807A94F0
:1019E0008A019B0169E036952795179507956A95B9
:1019F000D1F770228A011170711020C001151105F4
:101A0000E9F416964D915D916D917C911997411570
:101A100051056105710509F099C057968D919D9109
:101A20000D90BC91A02D0097A105B10509F0B0C0A3
:101A3000C7010E947709882309F47FC080E092E003
:101A4000801B910B46018C159D0508F44C01D701B4
:101A50005B964D915C915C9716968D919D910D9042
:101A6000BC91A02D0297A109B109FA01258504C0F6
:101A7000880F991FAA1FBB1F2A95D2F74685578545
:101A800060897189840F951FA61FB71F9C01AD0146
:101A9000270D311D411D511D29013A01811432E0EC
:101AA000930609F07BC08091000190910101A09103
:101AB0000201B091030184159505A605B70559F4F7
:101AC0008FEF9FEFDC018093000190930101A093C1
:101AD0000201B0930301022D9501B301A20180918F
:101AE000D8029091D9020E94B804882331F19EEF68
:101AF000B91AC818D908F70182859385A485B585D8
:101B0000880D991DA11DB11D82879387A487B58774
:101B100055CFF701438954896589768982859385F4
:101B2000A485B585481759076A077B0709F43DCF97
:101B3000C7010E94E308811138CF81E090E0D7010E
:101B400013969C938E93129780E007C09E012F5F9F
:101B50003F4F0E94A307811102C090E079C08981A4
:101B60009A81AB81BC81F701238D348DF9012789DE
:101B700048EF5FEF60E070E0203121F048EF5FEF69
:101B80006FEF7FE084179507A607B70708F050CFDF
:101B9000F70186839783A087B18750CF0115110580
:101BA00099F5D7011A964D915D916D917C911D9794
:101BB00053968D919D910D90BC91A02D481759077A
:101BC0006A077B0708F181E00E944A05882309F42F
:101BD000B4CF4092000150920101609202017092D4
:101BE000030180910B02816080930B02C801865231
:101BF0009D4FD5019C01280D391DFC012E173F0773
:101C000059F04D914193FACF41E0C301B2010E94D6
:101C100075058111EBCF91CF281B390BA20EB31E96
:101C200068CFF70183899489A589B68984179507B8
:101C3000A607B70738F48481438B548B658B768B6A
:101C400080688483F701848183FD1AC0832D9D8180
:101C50000F900F900F900F900F90DF91CF911F91E9
:101C60000F91FF90EF90DF90CF90BF90AF909F903B
:101C70008F907F906F905F904F903F902F9008953E
:101C800061E0C7010E94770A882309F456CFDECFAE
:101C9000CF93DF931F92CDB7DEB7698341E050E069
:101CA000BE016F5F7F4F0E94AD0C0F90DF91CF910F
:101CB0000895FC01DB0112968D919C9113979383FB
:101CC00082838AE391E09183808314968C911497A8
:101CD000848315968C911597858316964D915D9109
:101CE0006D917C91199746835783608771871A9607
:101CF0004D915D916D917C911D97428753876487CB
:101D000075871E964D915D916D917C915197468797
:101D10005787608B718B52968C915297828B53961A
:101D20004D915D916D917C915697438B548B658B52
:101D3000768B57964D915D916D917C915A97478B1B
:101D4000508F618F728F5B968D919C91948F838F52
:101D500008950895FC01818D928D009719F061E03E
:101D60000C94770A0895DC015996ED91FC91309717
:101D7000B9F083899489A589B6894285538564859C
:101D80007585841B950BA60BB70B811520E8920770
:101D9000A105B10538F08FEF9FE7A0E0B0E008950E
:101DA00090E080E00895DC0159968D919C91009718
:101DB00039F0DC01ED91FC910480F581E02D09946E
:101DC00090E080E00895CF93DF93EC01E98DFA8DE8
:101DD000309749F481E090E09B838A8390E080E033
:101DE000DF91CF91089513821282898D9A8D0E947E
:101DF000AD0CE98DFA8D22813381232B59F7F0CF79
:101E0000CF93DF931F92CDB7DEB76983DC01ED91ED
:101E1000FC910280F381E02D41E050E0BE016F5F54
:101E20007F4F09950F90DF91CF9108952F923F92A8
:101E30004F925F926F927F928F929F92AF92BF92DA
:101E4000CF92DF92EF92FF920F931F93CF93DF9386
:101E500000D01F92CDB7DEB7FC018581811118C07B
:101E60008FEF9FEF0F900F900F90DF91CF911F9109
:101E70000F91FF90EF90DF90CF90BF90AF909F9029
:101E80008F907F906F905F904F903F902F9008952C
:101E9000848180FFE5CF438954896589768982856D
:101EA0009385A485B585312C212C481759076A07DD
:101EB0007B0719F022242394312C6F012101CE01DC
:101EC00001963C01DF011696BB83AA83411451049D
:101ED00009F4C5C0F60142855385648575854A01BC
:101EE000F1E09F22D6015B968D919C915C978A01CF
:101EF0009B01E9E03695279517950795EA95D1F767
:101F00001596EC91E230E9F5FC01628D738D848DBC
:101F1000958D600F711F821F931FA12C22E0B22E9E
:101F2000A818B9084A145B0408F45201F601248188
:101F300026FD04C0A114F2E0BF0671F40091000177
:101F4000109101012091020130910301061717073A
:101F50002807390709F05EC040E00E947505882314
:101F600009F47ECFC40186529D4FD3019C012A0DF6
:101F70003B1DFC012E173F0709F46CC041914D93A6
:101F8000F9CFDC011496BC90BA94B022811491046C
:101F900079F4B1100DC0452B462B472B69F5F6019E
:101FA0008789908DA18DB28D86839783A087B18715
:101FB000D6015B96ED91FC915C9716966D917D91A3
:101FC0008D919C911997625071098109910925851C
:101FD00004C0660F771F881F991F2A95D2F70685C0
:101FE000178520893189600F711F821F931F6B0D28
:101FF000711D811D911D91CFD60116964D915D9158
:102000006D917C9119972A813B810E94A3078111D0
:10201000CFCF26CF730185019401AB01BC01809124
:10202000D8029091D9020E941604882309F418CF8F
:102030006A0C7B1CF60182859385A485B5858A0D83
:102040009B1DA11DB11D82879387A487B5874A1860
:102050005B083CCF281B390B620E731EEBCF2A9412
:10206000232809F0FDCE898190E0FCCEFC01818D12
:10207000928D009711F00C94160F8FEF9FEF08953B
:102080000F931F930E942D026093CA057093CB0596
:102090008093CC059093CD0582EC95E00E9436109C
:1020A00097FF1DC00E942D020091CA051091CB051B
:1020B0002091CC053091CD05601B710B820B930BE9
:1020C0000091C6051091C7052091C8053091C9053A
:1020D0006017710782079307F8F28FEF9FEF1F9148
:1020E0000F9108950F931F93CF93DF93EC01898D88
:1020F0009A8D10E000E0009799F00E94160F8C0175
:102100000F3F100769F0898D9A8DFC014285538538
:102110006485758541505109610971090E94E30880
:10212000C801DF91CF911F910F9108950F931F93D5
:102130000E942D026093CA057093CB058093CC0555
:102140009093CD0582EC95E00E94721097FF1DC020
:102150000E942D020091CA051091CB052091CC055B
:102160003091CD05601B710B820B930B0091C6055E
:102170001091C7052091C8053091C90560177107F6
:1021800082079307F8F28FEF9FEF1F910F91089549
:10219000CF92DF92EF92FF92CF930E949610FC01B4
:1021A00097FD4EC08D32910521F0C0970A9708F037
:1021B00040C0C12CD12C7601C0E0E130F105D1F056
:1021C000ED32F105D9F1CF01C0970A9798F4AAE052
:1021D000B0E0A70196010E943C2D6F01FF0FEE08B1
:1021E000FF08C60ED71EE81EF91E80E3C81AD108E4
:1021F000E108F10882EC95E00E9436100E949610EA
:10220000FC01C0970A97C8F2E130F105B1F2CC2386
:1022100041F0F094E094D094C094C11CD11CE11C16
:10222000F11CC701B601CF91FF90EF90DF90CF90E6
:10223000089582EC95E00E943610AFCFC1E0DACF6E
:10224000C12CD12C7601EDCF8FEF9FEF089590E058
:1022500080E008950895EF92FF920F931F93CF931C
:10226000DF93DC015296ED90FC905397E114F1045A
:1022700079F481E090E013969C938E93129790E00E
:1022800080E0DF91CF911F910F91FF90EF90089523
:102290001D96ED91FC911E971C968C911C97982F82
:1022A00090950FB754962C915497122F127021FDD0
:1022B0006095F8942081112319F1282B2083E701E0
:1022C0002197F1F728E0462F50E0308160FF1AC0D7
:1022D000382B3083E7012197F1F7BA01759567959F
:1022E000215089F7112381F08081892380830FBFDA
:1022F00052968D919C910197F1F781E090E0C1CFCA
:102300002923DCCF3923E5CF9081892BEFCF90E0D3
:1023100080E008952F923F924F925F926F927F924A
:102320008F929F92AF92BF92CF92DF92EF92FF92E5
:102330000F931F93CF93DF93CDB7DEB728970FB6D8
:10234000F894DEBF0FBECDBF10921D0210921C028A
:10235000609188027091890278876F8380918602EC
:10236000909187029E838D83709192026091930277
:10237000A0918E02B0918F02209120023091210213
:102380002090940230909502C0906602D09067022F
:1023900002E412E0F2E2EF2EF2E0FF2E1A8309834C
:1023A00050E040E0E981FA81419051906190719054
:1023B000FA83E98390E080E0FA013196FC83EB83B5
:1023C00053014201082E04C0B694A79497948794B1
:1023D0000A94D2F780FE2AC0F70180809180A28003
:1023E000B380082E04C0B694A794979487940A9457
:1023F000D2F780FE04C0EF81F8853197B9F46B8184
:102400007C81680F791F7E836D832617370709F457
:10241000B3C07D816E812D813E81D12CC12C2224BF
:102420002394312C18861F82B0E0A0E00196803200
:10243000910531F6405E5F4F84E0E80EF11C4115D6
:1024400091E0590709F0AECF50931F0240931E024E
:10245000B0938F02A0938E02ED81FE81F0938702EC
:10246000E09386028F8198859093890280938802F9
:102470003092950220929402D0926702C092660236
:102480003093210220932002709392026093930272
:10249000CD2809F058C010921F0210921E02AA24E3
:1024A000A394B12C80E2882E912CC0901C02D09075
:1024B0001D02E0901E02F0901F029FEFE91AF90A38
:1024C000F80180819181A281B3810C2C04C0B69562
:1024D000A795979587950A94D2F780FD19C06D81CD
:1024E0007E816E157F05A1F480918E0290918F02FE
:1024F000892B71F4B0928F02A0928E020E942D025D
:1025000060938A0270938B0280938C0290938D0269
:102510007FEFC71AD70AD0921D02C0921C02F09218
:102520001F02E0921E0281E0881A910809F0BDCFD7
:1025300010921D0210921C020C5F1F4F92E0023697
:10254000190709F0AFCF28960FB6F894DEBF0FBE7B
:10255000CDBFDF91CF911F910F91FF90EF90DF9052
:10256000CF90BF90AF909F908F907F906F905F9033
:102570004F903F902F900895722F632F55CF8091E9
:10258000A4029091A5022091A2023091A3022130D1
:10259000310531F401969093A5028093A402089529
:1025A0002091040130910501820F931F9093A502A1
:1025B0008093A4026091080170910901269FA001F7
:1025C000279F500D369F500D11244817590724F4AA
:1025D0001092A5021092A40208958F929F92AF923A
:1025E000BF92CF92DF92EF92FF920F931F93CF9300
:1025F000DF9300D000D0CDB7DEB7FC0185818130FC
:1026000091F080E00F900F900F900F90DF91CF919D
:102610001F910F91FF90EF90DF90CF90BF90AF9000
:102620009F908F900895848181FFEBCF8389948957
:10263000A589B689892B8A2B8B2B09F45FC07F0172
:1026400040E050E0BA01CF010E94E3088823C9F2BC
:10265000F701C38CD48C8788908CA18CB28C82E0DB
:1026600090E0A0E0B0E0F60180839183A283B38381
:102670009E012F5F3F4FB501A401C6010E94A30731
:10268000882309F4BECF00E010E09801B501A40151
:10269000C6010E940107882309F4B3CF89809A807C
:1026A000AB80BC80F6018789803119F188EF9FEFFC
:1026B000AFEFBFE088169906AA06BB06C8F2F7017D
:1026C000178A108E118E128E138A148A158A168A12
:1026D00084818068848361E0C7010E94770A88232F
:1026E00009F48FCF40E050E0BA01C7010E94E3082F
:1026F00089CF88EF9FEFA0E0B0E0DCCF81E082CF10
:10270000CF92DF92EF92FF921F93CF93DF93EC0172
:1027100080E2689FF0011124E652FD4F938591718C
:1027200061F0842F827449F080E0DF91CF911F9196
:10273000FF90EF90DF90CF900895142F6A8B8091D7
:10274000000190910101A0910201B09103018E87D7
:102750009F87A88BB98BC488D588F12CE12C760192
:10276000DD24CC24CF8AD88EE98EFA8E828D938D8B
:10277000B0E0A0E0AC01BD014C295D296E297F29A4
:102780004F8B588F698F7A8F8385887111F5848D6F
:10279000958DA68DB78D8B8B9C8BAD8BBE8B81E081
:1027A0008D83812F8F708C831E821F8218861986DD
:1027B0001A861B861C861D8681E016FFB6CFCE01C9
:1027C000DF91CF911F91FF90EF90DF90CF900C940D
:1027D000ED12803109F0A8CF9E012D5E3F4F8B8D09
:1027E0009C8D0E942408882309F49ECF84E0D8CFD2
:1027F000FB0101900020E9F73197AF01461B570B11
:10280000DC01ED91FC910280F381E02D09948F921F
:102810009F92AF92BF92EF92FF920F931F93CF932D
:10282000DF93CDB7DEB7A1970FB6F894DEBF0FBE2A
:10283000CDBF7C01FA01CB0119A2223008F42AE0B5
:102840008E010F5D1F4F822E912CB12CA12CBF0148
:10285000A50194010E94A12DF901CA016A300CF56D
:10286000605DD8016E938D01232B242B252B79F7E6
:1028700090E080E0109721F0BD01C7010E94F8139D
:10288000A1960FB6F894DEBF0FBECDBFDF91CF91FA
:102890001F910F91FF90EF90BF90AF909F908F90FE
:1028A0000895695CDECFCF92DF92EF92FF920F9393
:1028B0001F93CF93DF936B01770FEE08FF084A3029
:1028C000510511F52AE0F7FE20C0EC01E881F981FD
:1028D0000190F081E02D6DE209958C014427552788
:1028E000BA014C195D096E097F092AE0CE010E94E8
:1028F0000714800F911FDF91CF911F910F91FF90CF
:10290000EF90DF90CF900895242FB701A601DF91BB
:10291000CF911F910F91FF90EF90DF90CF900C948B
:10292000071466E671E00C94F8138091DB05909132
:10293000DC05009761F00E940F0B8091DB05909100
:10294000DC050E94792E1092DC051092DB050895BB
:10295000FC0180819181009711F00C94792E0895EB
:102960000F931F93CF93DF93EC0188819981009798
:1029700059F02A813B812617370730F081E0DF913B
:10298000CF911F910F9108958B016F5F7F4F0E9430
:10299000022F009759F0998388831B830A832C8127
:1029A0003D81232B59F7FC011082E8CF80E0E7CF6F
:1029B000CF93DF93EC01198218821B821A821D8249
:1029C0001C8270E060E00E94B0142881398181117E
:1029D0000FC02115310519F0C9010E94792E198205
:1029E00018821D821C821B821A82DF91CF9108956A
:1029F0001D821C8268E671E0C901DF91CF910C94C1
:102A0000E02F9F92AF92BF92CF92DF92EF92FF9210
:102A10000F931F93CF93DF93CDB7DEB72B970FB6EE
:102A2000F894DEBF0FBECDBF7C01FC018581811112
:102A300015C0FE013196CE010C966F0130E2319344
:102A40008E179F07E1F7DA0130E087E09D91B92EFC
:102A5000992329F19E3239F48A3011F480E0D3C0F1
:102A600038E08AE0F3CFECE7F0E04491442321F032
:102A700031969413FACFF2CF831780F34FED490FBD
:102A80004E3560F74FE9490F4A3118F440EEB42E45
:102A9000B90EF601E30FF11DB0823F5FD7CF8981F8
:102AA0008032E1F2A22E8B01FB01838D948DF70120
:102AB000948F838FFB0116821782108611861286EF
:102AC000138614861586F80182859385A485B585BD
:102AD000438954896589768984179507A607B707BE
:102AE00008F04CC025E0B695A795979587952A954F
:102AF000D1F7F82FFF709F2EF8018581823008F4FE
:102B0000ADCFC8010E94160F97FDA8CFF8018285AE
:102B10009385A485B5854F96A11DB11D82879387A6
:102B2000A487B587F0E29F9EB001112466527D4FC5
:102B30006115710509F492CFFB018081882341F072
:102B4000853E09F04EC0BB2029F0BB24B394BBCF17
:102B5000B1100EC0F701928A80910001909101019D
:102B6000A0910201B091030186879787A08BB18B5A
:102B7000FB0180818111E9CFBB24B3948A2D82713E
:102B8000823109F06BCFBB2009F44FC0C7010E940E
:102B9000BF05009709F462CF20E2FC0111922A954B
:102BA000E9F72BE0F601DC0101900D922A95E1F79F
:102BB00021E238E2FC01318B208B40E058E057875E
:102BC0004687338B228B318F208F578B468B81E04A
:102BD0000E944A05882309F441CF4A2DF7016289F2
:102BE0000FC04BE050E0C6010E94BF2F892B09F0B7
:102BF0006ACF8A2D80734A2D692D803309F42ECF38
:102C0000C7010E9480132B960FB6F894DEBF0FBE4B
:102C1000CDBFDF91CF911F910F91FF90EF90DF908B
:102C2000CF90BF90AF909F900895F801858182303A
:102C300009F414CFC8010E94300C882309F40ECF88
:102C4000F701128A8AED92E0A7CF5F926F927F928E
:102C50008F929F92AF92BF92CF92DF92EF92FF92AC
:102C60000F931F93CF93DF93CDB7DEB7C754D1092E
:102C70000FB6F894DEBF0FBECDBF5C013B0119A2B9
:102C800018A28AE391E09F8F8E8F1BA21C821B8269
:102C90009A8389831E8210E000E06E018EE1C80EE7
:102CA000D11C83EAE82E85E0F82EF501E00FF11F34
:102CB00080818F3211F40F5F1F4FD501A00FB11F1C
:102CC000FE01FB9690E080E04F012D912F3249F0FC
:102CD000222339F00F5F1F4F019621938C3091050D
:102CE000A1F7880D991DFC011082F501E00FF11F7D
:102CF00080818F3211F40F5F1F4FF501E00FF11F3C
:102D0000508041E0511040E030E020E0B401C701C4
:102D1000F3010995811121C0F3EAEF16F5E0FF06F2
:102D2000C1F480E0C95BDF4F0FB6F894DEBF0FBE81
:102D3000CDBFDF91CF911F910F91FF90EF90DF906A
:102D4000CF90BF90AF909F908F907F906F905F904B
:102D50000895C7010E940F0BE4CF552091F021E0A8
:102D6000A401B701C6010E940115982E83EAE81656
:102D700085E0F80681F0C7010E940F0B911010C08A
:102D8000D0CF93EAE91695E0F90619F0C7010E9441
:102D90000F0B81E0C7CF992021F2FE0131967F0110
:102DA0009E2D8F2D7601C92ED82E7FCF1F93CF93C6
:102DB000DF93CDB7DEB76D970FB6F894DEBF0FBEC9
:102DC000CDBFAB011C821B822AE331E03A83298309
:102DD0001E8221E0BC01CE0101960E94011511E086
:102DE00081110CC010E0812F6D960FB6F894DEBFF4
:102DF0000FBECDBFDF91CF911F910895CE010196F7
:102E00000E940F0BF0CFCF93DF93CDB7DEB76D9756
:102E10000FB6F894DEBF0FBECDBF442399F1AB01CE
:102E2000BC011C821B828AE391E09A8389831E8203
:102E300022E0CE0101960E94011581110EC090E0A2
:102E400081E0911101C080E06D960FB6F894DEBF6D
:102E50000FBECDBFDF91CF910895CE0101960E94A4
:102E6000ED12882361F3CE0101960E94BF05009701
:102E700031F325EEFC0120831E8281E00E944A0589
:102E8000982FDECF81E0E0CF8F929F92AF92BF92DA
:102E9000EF92FF920F931F93CF93DF93CDB7DEB7DF
:102EA000ED970FB6F894DEBF0FBECDBF8C017B014E
:102EB0001CA21BA28AE391E09AA389A31EA2C801C7
:102EC0000E94D6168111A0C023E3A701B801CE014C
:102ED00081960E940115811116C090E081E0911148
:102EE00001C080E0ED960FB6F894DEBF0FBECDBFF7
:102EF000DF91CF911F910F91FF90EF90BF90AF9016
:102F00009F908F90089581E08DA384E08EA3CE01E1
:102F100081960E94300C882301F361E0CE018196F6
:102F20000E94770A8823C9F2CE0181960E94BF05CC
:102F3000FC01892B91F280E1838780E2DE0111960A
:102F400001900D928A95E1F7FE013296CE010C9622
:102F500020E22193E817F907E1F78EE2F82EF982D3
:102F6000ECADFDAD68AD79AD8AAD9BAD6250710938
:102F700081099109258504C0660F771F881F991F55
:102F80002A95D2F786849784A088B188680D791D28
:102F90008A1D9B1D41E00E947505882309F49DCF81
:102FA00080E2FE013196AAEDB2E001900D928A9581
:102FB000E1F7FA82F80185818250823000F1478979
:102FC000508D618D728DCA019B013E8B2D8B9C8F24
:102FD0008B8F80E2FE013196AAEFB2E001900D9254
:102FE0008A95E1F780E490E0A0E0B0E08BA79CA791
:102FF000ADA7BEA781E00E944A05982F6FCF90E051
:1030000080E030E020E0E1CF81E06CCFEF92FF92F2
:103010000F931F93CF93DF93EC017B018A011B82F7
:103020001A8288EE93E0A0E0B0E08C839D83AE83AB
:10303000BF8386E491E0998388838DE190E00E94CC
:10304000DD2D9A8F898F009779F02DE1F701DC0152
:1030500001900D922A95E1F74CE050E0B801CE01C5
:103060000C960E94E72F188EDF91CF911F910F9140
:10307000FF90EF9008953F924F925F926F927F92F0
:103080008F929F92AF92BF92CF92DF92EF92FF9278
:103090000F931F93CF93DF93CDB7DEB7C656D109F9
:1030A0000FB6F894DEBF0FBECDBF5C01362E19A25D
:1030B00018A28AE391E09F8F8E8F1BA21C821B8235
:1030C0009A8389831E823E018EE1680E711CC301C2
:1030D0000E948F088E010F5F1F4F430187EBC82EA0
:1030E00082E0D82E28016FE270E0C6010E94D52F41
:1030F000009709F459C0F60120812F3271F4FFEFD7
:10310000CF1ADF0A902F812F8401892E982E982DB7
:10311000892D4801092F182FE6CF8C198D3008F022
:103120008CE0E82EF12CA701B601CE01885A9F4F02
:103130000E94E72FE8E5F0E0EC0FFD1FEE0DFF1D0C
:103140001082C8010E940F0B21E0AE01485A5F4F68
:10315000B401C8010E940115811120C01EAE1DAE30
:103160008AE391E09CAF8BAF21961FAE2197A79683
:103170000EAD1FADA79709541D4FF8018081811135
:1031800020C0BE01655C7F4FC2010E94590E49E616
:1031900051E0B201C5010E94061831C0CE0CDF1CFF
:1031A000C4010E940F0BB3CFC601875B9240A79664
:1031B0009FAF8EAFA797B401CE01CB960E94590E58
:1031C000D6CF19A218A28AE391E09F8F8E8F1BA2FF
:1031D00021968FAD219781112CC0F50113821282A7
:1031E00088EE93E0A0E0B0E084839583A683B78364
:1031F00086E491E091838083128E118E1486C5013E
:10320000CA59DF4F0FB6F894DEBF0FBECDBFDF91B6
:10321000CF911F910F91FF90EF90DF90CF90BF90D3
:10322000AF909F908F907F906F905F904F903F9066
:103230000895232DA801BE01655C7F4FC3010E9444
:103240000115882351F2CE01CB960E940F0B832DDE
:103250008670863039F449A95AA96BA97CA9C301A3
:103260000E94E308B301C2010E94590EA80191CF48
:103270001F93CF93DF93EC01162F0E94262D181772
:1032800039F0612FCE01DF91CF911F910C942E2D3B
:10329000DF91CF911F9108950C94262DCF93DF934A
:1032A00061E080E10E94910160E080E10E946301A1
:1032B000D0E0C0E06FEFCE010E9438192196CF3FD9
:1032C00081E0D807B9F76091640280E092E00E9443
:1032D0003819CCE0D0E062E080E10E94910160E129
:1032E00070E080E090E00E94FA0161E080E10E94DD
:1032F000910160E080E10E94630160E170E080E0A4
:1033000090E00E94FA01219731F762E080E10E948B
:10331000910181E090E09093AD028093AC02109215
:10332000630210926202C2E0D0E08091AC02909100
:10333000AD02019709F082C08EE00E943A0190939D
:103340006302809362028091620290916302892BF2
:1033500099F38EE00E943A01909363028093620297
:103360008091620290916302019759F580917F02EA
:10337000882379F310927F0261E083E10E9491013A
:1033800060E083E10E94630160917C02862F90E0FF
:1033900090939B0280939A028FEF91E00E943819DC
:1033A00060917D02862F90E090939D0280939C0215
:1033B0008EEF91E00E94381962E083E10E94910152
:1033C000C8CF8EE00E943A0190936302809362021C
:1033D0008091620290916302892B99F361E080E110
:1033E0000E94910160E080E10E94630160E270E070
:1033F00080E090E00E94FA0162E080E10E94910189
:10340000D093AD02C093AC0290CF8EE00E943A01FF
:1034100090936302809362028091620290916302B2
:10342000892B99F361E080E10E94910160E080E1E5
:103430000E9463011092AD021092AC028091AC0226
:103440009091AD020297C1F58EE00E943A019093EF
:1034500063028093620280916202909163020197FD
:10346000A1F680917F02882379F310927F0261E0B8
:1034700083E10E94910160E083E10E946301609119
:103480007C02862F90E090939B0280939A028DEFAE
:1034900091E00E94381960917D02862F90E0909310
:1034A0009D0280939C028CEF91E00E94381962E0AB
:1034B00083E10E949101C8CF8FEF91E00E944C19E7
:1034C00090E090931702809316028EEF91E00E9495
:1034D0004C1990E090931502809314028DEF91E0C7
:1034E0000E944C1990E090931302809312028CEF8B
:1034F00091E00E944C1990E0909311028093100289
:103500001092AD021092AC02DF91CF9108954F92CC
:103510005F926F927F928F929F92AF92BF92CF9263
:10352000DF92EF92FF920F931F93CF93C82F6B01FF
:103530000E94D5012B015C014B01F12CE12C87E0AD
:10354000C81AD108E108F108F89461E08C2F0E94B4
:10355000630188E090E00E94CD0160E08C2F0E9422
:10356000630178948AE1880E911CA11CB11C0E9411
:10357000D5019B0124193509890130E020E00C15A3
:103580001D052E053F0534F4681579058A059B0550
:1035900070F3DACFCF911F910F91FF90EF90DF90F2
:1035A000CF90BF90AF909F908F907F906F905F90E3
:1035B0004F9008958091A2029091A302019709F083
:1035C00066C08091A0029091A102892BB1F48091F4
:1035D000A5028F938091A4028F938BE691E09F9335
:1035E0008F9389EF91E09F938F930E94F62F0F9016
:1035F0000F900F900F900F900F908091A0029091DC
:10360000A1020197B1F48091A5028F938091A40249
:103610008F9389E791E09F938F9389EF91E09F9338
:103620008F930E94F62F0F900F900F900F900F9096
:103630000F90809193028F93809192028F9386E8EE
:1036400091E09F938F938CE692E09F938F930E94DB
:10365000F62F40E250E06CE672E087EB92E00E94C9
:10366000942A40E250E069E671E087EB92E00E9424
:10367000752A0F900F900F900F900F900F9040E2CF
:1036800050E069EF71E087EB92E00C94752A20918D
:10369000A4023091A5022F5F3F4F8091920290913A
:1036A0009302A901480F591F509399024093980221
:1036B00086509F4F820F931F90939702809396029C
:1036C000493F510534F028EF30E0309399022093C0
:1036D0009802833F914034F082EF91E090939702FB
:1036E000809396020895EF92FF920F931F93CF93CA
:1036F000DF930E94DA1A80917F02882309F48EC139
:10370000C091AC02D091AD02209709F087C1109210
:103710007F0261E083E10E94910160E083E10E9409
:10372000630162E083E10E94910120917C0280911B
:103730001602909117022817190649F420917D026C
:1037400080911402909115022817190641F080917A
:103750007C028034D9F580917D028B30B9F580915F
:103760007E02813099F10E942D026093F5017093E1
:10377000F6018093F7019093F8018091F301909105
:10378000F401892B19F581E090E09093F401809386
:10379000F3019093950280939402209192023091CC
:1037A00093022F5F3F4F30939302209392029093A6
:1037B000670280936602409164025091650242174D
:1037C000530724F4909393028093920220917C02F9
:1037D00080911202909113022817190649F4209142
:1037E0007D0280911002909111022817190641F074
:1037F00080917C028034D1F580917D028E30B1F5CC
:1038000080917E02813091F10E942D026093F5013A
:103810007093F6018093F7019093F8018091F30182
:103820009091F401892B11F521E030E03093F401FF
:103830002093F30130939502209394028091920299
:103840009091930201979093930280939202309308
:103850006702209366021816190644F080916402EC
:1038600090916502909393028093920280917C02E2
:10387000803461F580917D028A3141F580917E022C
:10388000813021F10E942D026093F5017093F601C1
:103890008093F7019093F8018091F3019091F401E6
:1038A000892BA1F481E090E09093F4018093F301DF
:1038B00089EE95E00E94911461E971E089EE95E04E
:1038C0000E94F81389EE95E00E94911480917C0289
:1038D000803461F580917D02853441F580917E02CE
:1038E000813021F10E942D026093F5017093F60161
:1038F0008093F7019093F8018091F3019091F40186
:10390000892BA1F481E090E09093F4018093F3017E
:1039100089EE95E00E9491146BE971E089EE95E0E3
:103920000E94F81389EE95E00E94911480917C0228
:10393000803461F580917D02823441F580917E0270
:10394000813021F10E942D026093F5017093F60100
:103950008093F7019093F8018091F3019091F40125
:10396000892BA1F481E090E09093F4018093F3011E
:1039700089EE95E00E9491146FE971E089EE95E07F
:103980000E94F81389EE95E00E949114EE24E394CE
:10399000F12C80917C028034E1F520917D02FE01C2
:1039A000EE0FFF1FE05FFE4F8081918128171906FF
:1039B00081F50091EB011091EC010E942D026093C2
:1039C000F5017093F6018093F7019093F8010E943E
:1039D0002D026093EF017093F0018093F1019093B9
:1039E000F2018091F3019091F401892B91F4F0920E
:1039F000F401E092F301D093EE01C093ED010F5F6B
:103A00001F4F1093EC010093EB01F092EA01E0925A
:103A1000E9012196CA30D10509F0BBCF0E942D02E1
:103A20000091F5011091F6012091F7013091F80114
:103A3000601B710B820B930B6E377105810591052D
:103A400020F01092F4011092F3018091EB0190911B
:103A5000EC018130910509F07EC08091E9019091DF
:103A6000EA01019761F48091ED019091EE0190934C
:103A7000E8018093E7011092EA011092E9010E94A7
:103A80002D020091EF011091F0012091F101309190
:103A9000F201601B710B820B930B61327340810545
:103AA000910508F451C08091EB019091EC0118163A
:103AB00019060CF049C01092EC011092EB01209114
:103AC000E3013091E40144E6429FC001439F900D21
:103AD00011244091E5015091E6016AE0649F900154
:103AE000659F300D1124820F931F2091E7013091C3
:103AF000E801820F931F9093EE018093ED011092E5
:103B0000E8011092E7011092E6011092E50110928F
:103B1000E4011092E30121E030E03093950220931C
:103B200094029093930280939202309367022093C1
:103B3000660220916402309165022817390724F447
:103B40003093930220939202DF91CF911F910F91B6
:103B5000FF90EF9008958230910581F48091E90102
:103B60009091EA01019709F08ACF8091E701909145
:103B7000E8019093E6018093E50175CF83309105CC
:103B800081F48091E9019091EA01019709F077CFE2
:103B90008091E5019091E6019093E4018093E30127
:103BA000E4CF04970CF46BCF8091E9019091EA0186
:103BB0008130910509F063CF2091ED013091EE0144
:103BC0003093E8012093E7011092E6011092E5019D
:103BD0001092E4011092E3019093EC018093EB01C9
:103BE0004ACF2F923F924F925F926F927F928F9225
:103BF0009F92AF92BF92CF92DF92EF92FF920F937C
:103C00001F93CF93DF93CDB7DEB72E970FB6F894FF
:103C1000DEBF0FBECDBF8091A0029091A102892B83
:103C200009F094C06CE670E08AED94E00E943902DD
:103C300080919C0290919D02409734F46AE670E076
:103C40008AED94E00E94390260919C0270919D027D
:103C500040E150E08AED94E00E94531480919A0272
:103C600090919B02409734F468E670E08AED94E00E
:103C70000E94390260919A0270919B0240E150E0EB
:103C80008AED94E00E9453148AED94E00E9491140E
:103C90000E942D02609318027093190280931A02F9
:103CA00090931B0230909C0290919D02032D192F3E
:103CB00020919A022B8380919B022D878E873B9ABD
:103CC00034E03983432D40954F833886998720957A
:103CD0002A875D855B878C879EE6892E912CA12C97
:103CE000B12C0E942D022B013C0160E073E281E1C6
:103CF0000E94871A8981843009F442C080EC98E0E0
:103D00000E94CD0160E372E081E10E94871A49813F
:103D1000415049834423C1F00E942D02DC01CB01B4
:103D200084199509A609B7098E369105A105B10533
:103D3000C0F6A5019401281B390B4A0B5B0BCA0185
:103D4000B9010E94FA01CDCF0E94731B2E960FB6C7
:103D5000F894DEBF0FBECDBFDF91CF911F910F91C1
:103D6000FF90EF90DF90CF90BF90AF909F908F909B
:103D70007F906F905F904F903F902F900C94BF1268
:103D800080E891E10E94CD012D853E852F3F3105D0
:103D900069F160F12B843C853C830F3F110551F1A3
:103DA00048F158855D8389858E8320E22A8360E30C
:103DB00072E081E10E94871AC22CDC80ED80FE80D7
:103DC00080E996E020FC02C080E392E00E94CD01F1
:103DD000F694E794D794C7942C2CDC82ED82FE8273
:103DE0003A8131503A833111E2CF8CCF2B804A8512
:103DF0004C83D3CF3D829F819E83D7CF1F920F925A
:103E00000FB60F9211242F933F938F939F93AF93ED
:103E1000BF938091AF029091B002A091B102B09196
:103E2000B2023091AE0223E0230F2D3768F126E86D
:103E3000230F0296A11DB11D2093AE028093AF0205
:103E40009093B002A093B102B093B2028091B302FA
:103E50009091B402A091B502B091B6020196A11D55
:103E6000B11D8093B3029093B402A093B502B093B6
:103E7000B602BF91AF919F918F913F912F910F907B
:103E80000FBE0F901F9018950196A11DB11DD4CFA4
:103E90001F920F920FB60F9211242F933F934F93BF
:103EA0005F936F937F938F939F93AF93BF93EF93A2
:103EB000FF938AED94E00E94DB02FF91EF91BF91A6
:103EC000AF919F918F917F916F915F914F913F91B2
:103ED0002F910F900FBE0F901F9018951F920F9269
:103EE0000FB60F9211242F938F939F93EF93FF930D
:103EF000E091EA04F091EB048081E091F004F0910C
:103F0000F10482FD1BC090818091F3048F5F8F7359
:103F10002091F404821741F0E091F304F0E0E652BE
:103F2000FB4F958F8093F304FF91EF919F918F91B9
:103F30002F910F900FBE0F901F9018958081F4CF96
:103F40001F920F920FB60F9211240F931F932F936E
:103F50003F934F935F936F937F938F939F93AF9311
:103F6000BF93CF93EF93FF93C3B10E94D5018B0111
:103F70009C018091D4019091D501A091D601B0917E
:103F8000D701B901A801481B590B6A0B7B0BCA0169
:103F90000093D4011093D5012093D6013093D7011B
:103FA0002091D801C1FD88C0413066E4560710F465
:103FB000211119C01092E20181E08093D801FF9194
:103FC000EF91CF91BF91AF919F918F917F916F9121
:103FD0005F914F913F912F911F910F910F900FBEC5
:103FE0000F901F901895223069F59C0120523D409A
:103FF000213C3840C0F41092D9011092DE01109299
:10400000DF011092E0011092E10181E090E0A0E078
:10401000B0E08093DA019093DB01A093DC01B093D0
:10402000DD0183E0CACF805996408136944008F084
:104030007FC08091D901803208F47AC081E08093FA
:10404000E201EFCF243009F073C088519140813CE8
:10405000984008F06DC08091DA019091DB01A09149
:10406000DC01B091DD0140365440A0F04091DE010A
:104070005091DF016091E0017091E101482B592BD3
:104080006A2B7B2B4093DE015093DF016093E001AC
:104090007093E101880F991FAA1FBB1F8093DA015B
:1040A0009093DB01A093DC01B093DD018091D901F5
:1040B0008F5F8093D901B5CF213039F480549A4174
:1040C00081389141A8F582E078CF233089F5885175
:1040D00091408133924060F58091D901803220F483
:1040E0008091E20180FF26C08091DF018095909150
:1040F000DE01981719F084E08093E2018091E101DC
:1041000080959091E001981719F084E08093E20186
:10411000789481E080937F028091E20180937E0217
:104120008091DE0180937C028091E00180937D028A
:1041300080E043CF84E041CFCF92DF92EF92FF92B5
:10414000CF93DF93EAEDF4E01382128288EEC82E5B
:1041500083E0D82EE12CF12CC482D582E682F7824E
:1041600088E291E09183808385EC90E09587848755
:1041700084EC90E09787868780EC90E0918B808B31
:1041800081EC90E0938B828B82EC90E0958B848B1A
:1041900086EC90E0978B868B118E128E138E148E88
:1041A000E7E7F5E080E580831182E9E7F5E0158235
:1041B00016821186138682E090E0A0E0B0E084874A
:1041C0009587A687B78713A215A614A68AE391E060
:1041D00093A782A717A6C9EED5E01B821A82CC82CC
:1041E000DD82EE82FF8288E591E0998388831B8AD5
:1041F0001A8AEDEFF5E060816D7F608366956170EE
:1042000081E0682786E00E94630161E086E00E9409
:104210009101EBE4F1E0E491EC87E4E3F1E0E49177
:10422000F0E0EE0FFF1FEC5DFE4F859194919E87AD
:104230008D8783EE95E00E94D8148DED95E00E9465
:10424000D814E2ECF5E013821282C482D582E682B1
:10425000F78286E491E091838083128E118E14861A
:10426000DF91CF91FF90EF90DF90CF900895CF93A3
:10427000DF93CDB7DEB76D970FB6F894DEBF0FBEF4
:10428000CDBF789484B5836084BD85B5836085BDDA
:1042900080916E00816080936E0082E08093810047
:1042A0008091810081608093810080918000816095
:1042B000809380008091B10084608093B1008091F0
:1042C000B00081608093B00087E880937A001092FC
:1042D000C10040EF5DE761EF7DE7A2EFBDE703EFCF
:1042E0001DE7E4EFEE2EEDE7FE2EF5EFCF2EFDE716
:1042F000DF2E86EFA82E8DE7B82E27EF3DE7FA01D7
:1043000084918335E1F7FB0184918635C1F7FD0186
:1043100084918335A1F7F8018491803281F7F70108
:104320008491823461F7F6018491813441F7F5017B
:104330008491823421F7F9018491893501F762E093
:104340008EE00E94910161E080E10E94910162E0B3
:1043500083E10E94910161E082E10E94910161E0AC
:1043600082E00E94910161E083E00E94910161E09E
:1043700084E00E94910161E087E00E94910161E088
:1043800086E00E94910161E085E00E94910160E079
:1043900088E00E94910162E08FE00E94910160E05C
:1043A00084E00E94630160E082E00E94630160E0BB
:1043B00083E00E94630160E082E10E94630161E0AA
:1043C00070E080E090E00E94FA0161E082E10E94EA
:1043D000630160E083E00E94630160E080E10E948D
:1043E000630160E085E00E94630160E087E00E9475
:1043F000630160E086E00E94630161E070E080E0BC
:1044000090E00E94FA0161E086E00E946301E09181
:10441000EA04F091EB0482E08083E091E604F091FD
:10442000E7041082E091E804F091E9048FEC8083C6
:104430001092F204E091EE04F091EF0486E08083A4
:10444000E091EC04F091ED04808188698083E09133
:10445000EC04F091ED0480818F7D80832198809120
:104460006800816080936800EEE4F1E0E491E093FD
:104470006B000E941C0B81119BC069EA71E08AED00
:1044800094E00E94F8138AED94E00E949114109237
:10449000A3021092A20283EA95E00E940F0B64E649
:1044A00070E080E090E00E94FA016CE870E08AED34
:1044B00094E00E9439022AE041E050E060E070E0C0
:1044C0008AED94E00E9407146EE28AED94E00E9467
:1044D000FD022AE041E050E060E070E08AED94E007
:1044E0000E9407142AE040E050E0BA018AED94E00F
:1044F0000E94071464E670E080E090E00E94FA01F8
:104500006AE18AED94E00E94FD028AED94E00E9447
:104510009114EE24E394F12C809164029091650251
:10452000892B09F05BC00091920210919302C8019F
:1045300001969093930280939202F0929502E092FA
:10454000940261E082E00E94630161E070E080E03B
:1045500090E00E94FA0160E082E00E94630161E065
:1045600083E00E94630161E070E080E090E00E94DF
:10457000FA018FE00E943A019093630280936202F5
:10458000019739F561E083E10E94910160E083E1E8
:104590000E9463011093650200936402093F1105B4
:1045A000ECF761E070E080E090E00E94FA01B4CFA7
:1045B0006EEB71E08AED94E00E94F8138AED94E0CE
:1045C0000E94911481E090E09093A3028093A20254
:1045D00062CF62E083E10E949101E3CF61E070E08D
:1045E00080E090E00E94FA011092930210929202F1
:1045F00081E090E0909395028093940262E083E1E1
:104600000E94910160E086E00E94630160E170E039
:1046100080E090E00E94FA0161E086E00E94630180
:1046200080E092E00E944C1990E0909363028093A6
:1046300062026091620270916302809164029091C3
:1046400065026817790709F49FC010E000E08091C7
:10465000620290916302081719070CF071C061E0C3
:1046600080E10E94910160E080E10E9463010E946C
:104670002D026B017C01C0926802D0926902E09227
:104680006A02F0926B020E942D026C197D098E095C
:104690009F096C3271408105910578F48EE00E948B
:1046A0003A01892B81F70E944E1980916402909102
:1046B00065029093630280936202209162023091BE
:1046C0006302809164029091650228173907C1F155
:1046D00062E080E10E9491010E942D026B017C0149
:1046E000C0926802D0926902E0926A02F0926B0274
:1046F0000E942D026C197D098E099F09683C710585
:104700008105910578F48EE00E943A01892B81F7AA
:104710000E944E1980916402909165029093630209
:104720008093620220916202309163028091640260
:10473000909165022817390719F00F5F1F4F87CF37
:104740000E942D026B017C01C0926802D092690226
:10475000E0926A02F0926B020E942D026C197D09B0
:104760008E099F09683E73408105910508F061CF6D
:104770008EE00E943A01892B79F70E944E198091B0
:1047800064029091650251CF80E092E00E94381956
:1047900060916402709165026F5F7F4F70930501B5
:1047A000609304018AEF90E00E948D2D61507109A1
:1047B00070930901609308018FEF91E00E944C19FA
:1047C00090E090931702809316028EEF91E00E9482
:1047D0004C1990E090931502809314028DEF91E0B4
:1047E0000E944C1990E090931302809312028CEF78
:1047F00091E00E944C1990E0909311028093100276
:104800000E942D026B017C01C0926802D092690265
:10481000E0926A02F0926B028EE00E943A01892BCC
:1048200089F462E080E10E9491010E942D026C19DE
:104830007D098E099F09613177428105910560F3F9
:104840000E944E1961E080E10E94910160E080E1E8
:104850000E9463010E942D026093680270936902B6
:1048600080936A0290936B020E942D026093A602CD
:104870007093A7028093A8029093A90281E090E030
:104880009093AB028093AA028DE991E09093FC058E
:104890008093FB0501E010E0412C512C3201439440
:1048A00060E0862E60E0962E42E6242E42E0342E12
:1048B00010930701009306010E942D02C090180278
:1048C000D0901902E0901A02F0901B026C197D0939
:1048D0008E099F09613D77408105910538F48091EB
:1048E000900290919102019709F05BC066EB70E035
:1048F0008AED94E00E943902609164027091650231
:104900004AE050E08AED94E00E9453148AED94E06E
:104910000E9491148091900290919102019709F068
:1049200074C110929102109290020E942D02609325
:1049300018027093190280931A0290931B0267EA7F
:1049400070E08AED94E00E94390289EE95E00E94C1
:10495000911460919202709193026F5F7F4F4AE0D1
:1049600050E089EE95E00E9453146091920270919C
:1049700093024AE050E08AED94E00E9453148AEDDD
:1049800094E00E94911489EE95E00E9491140E9497
:104990002D02609318027093190280931A0290936B
:1049A0001B020E94731B32E4E32E32E0F32EA2E2DC
:1049B000B2E0F70141915191619171914D935D93F5
:1049C0006D937D932E163F06A9F7809192029091E8
:1049D0009302909321028093200222E4C22E22E0CF
:1049E000D22ED6011D921D921D921D926D01EA17C5
:1049F000FB07B9F760E086E00E94630161E070E0C8
:104A000080E090E00E94FA0161E086E00E9463018C
:104A100061E085E00E94630160E170E080E090E089
:104A20000E94FA0160E085E00E94630110921F027B
:104A300010921E0210921D0210921C0290E2A92EEA
:104A4000B12C88E00E943A01909363028093620245
:104A500020911C0230911D020197B9F4F701808169
:104A60009181A281B381B301A201022E04C0440F3F
:104A7000551F661F771F0A94D2F7842B952BA62B00
:104A8000B72B80839183A283B3832F5F3F4F3093F3
:104A90001D0220931C0280911E0290911F0201961C
:104AA00090931F0280931E0260E087E00E946301E2
:104AB0008AE090E00E94CD0161E087E00E946301FE
:104AC000F1E0AF1AB10809F0BCCF10921D021092AC
:104AD0001C0224E0E20EF11CCE14DF0409F0AECF7C
:104AE0008091840290918502909383028093820248
:104AF00010928502109284028EE00E943A019093F7
:104B0000630280936202892B21F410938502009343
:104B10008402E0908402F0908502E114F10451F4E3
:104B20000E942D02609368027093690280936A026A
:104B300090936B028091AC029091AD02892B09F0A9
:104B40006BC081E0E816F10409F06AC00E942D02F2
:104B5000209168023091690240916A0250916B0283
:104B6000621B730B840B950B693B7B4081059105A0
:104B700020F0F092AD02E092AC020E942D02C090B3
:104B80006802D0906902E0906A02F0906B026C19A2
:104B90007D098E099F09613177428105910508F4ED
:104BA0003FC0E090A202F090A302E114F10409F0EA
:104BB00098C01092A5021092A402809108019091D1
:104BC00009018E159F050CF4C7C00E94DA1A61E036
:104BD00080E10E94910160E080E10E9463016FEF3B
:104BE00080919802909199020E9438196FEF8091FC
:104BF0009602909197020E9438190E94731B0E949E
:104C0000BF12FFEFEF1AFF0AD8CF64E970E08AED18
:104C100094E00E943902A9CEEA94EF2809F4ADCFBE
:104C2000E0908402F09085022091AC023091AD02B8
:104C3000E114F10409F4CBC02130310509F0F6C0CC
:104C400062E080E10E949101E114F10409F0ABC13E
:104C50008091820290918302019709F0A4C1C090D3
:104C60008002D090810264E670E080E090E00E94D3
:104C7000FA01CA94CD2809F063C1C090A202D09075
:104C8000A302C114D10409F0FCC30E94BF12809199
:104C9000A4029091A50260910401709105010E9407
:104CA0008D2D6C157D050CF44BC16AEF70E080E032
:104CB00090E00E94FA0161E080E10E94910160E0D1
:104CC00080E10E94630162E370E080E090E00E9476
:104CD000FA0162E080E10E949101AFEFCA1ADA0A9C
:104CE000D6CF0E941C0B1093A5020093A4020E9431
:104CF000DA1A8091A4029091A502892B49F163E010
:104D000077E187EB92E00E94251668EC70E08AED6F
:104D100094E00E9439028AED94E00E94911467EBBE
:104D200072E08AED94E00E94F8138091A4029091C1
:104D3000A50201969093A5028093A4020E94DA1A1C
:104D400066ED76E187EB92E00E9425168111D1CFC6
:104D500083EA95E00E940F0B8CE0E82EF12C62E0D4
:104D600080E10E94910160E170E080E090E00E94AB
:104D7000FA0161E080E10E94910160E080E10E941F
:104D8000630160E170E080E090E00E94FA0121E0C0
:104D9000E21AF10821F71092AD021092AC02809154
:104DA00092029091930201979093930280939202C2
:104DB0001092A5021092A4020E942D026093680234
:104DC0007093690280936A0290936B0229CF80915D
:104DD0008202909183028130910509F02DCF211537
:104DE000310509F029CF2091800230918102232BD7
:104DF000E9F490939502809394022091920230916D
:104E000093022F5F3F4F309393022093920290932F
:104E100067028093660240916402509165024217D6
:104E2000530724F490939302809392020E948A1174
:104E3000E0908E02F0908F02F1E0EF16F10499F508
:104E40000E942D0220918A0230918B0240918C02A7
:104E500050918D02621B730B840B950B613D774063
:104E60008105910500F10E942D0260938A027093E2
:104E70008B0280938C0290938D0210928F0210927D
:104E80008E02F0928902E0928802109293021092B0
:104E900092021092870210928602F0929502E0929E
:104EA00094020E948A118091940290919502019738
:104EB00009F08FC160E084E00E94630160E082E15C
:104EC0000E94630161E070E080E090E00E94FA01DE
:104ED00061E082E10E94630161E070E080E090E0C7
:104EE0000E94FA0160E083E00E94630161E070E0EB
:104EF00080E090E00E94FA01D12CC12CE090920257
:104F0000F0909302CE14DF040CF02EC161E082E039
:104F10000E94630161E070E080E090E00E94FA018D
:104F200060E082E00E9463018AE090E00E94CD018F
:104F300061E083E00E9463018FEFC81AD80ADECFD8
:104F40008091800290918102892B69F56AEF70E06F
:104F500080E090E00E94FA0161E080E10E9491010E
:104F600060E080E10E94630164E670E080E090E030
:104F70000E94FA0162E080E10E9491011093810297
:104F8000009380021092A5021092A4028091A202C6
:104F90009091A3028130910569F49093A5028093CA
:104FA000A4020E94DA1A80918002909181020197F6
:104FB00009F090C00E94DA1A80917F02882309F4D8
:104FC00085C010927F0261E083E10E94910160E060
:104FD00083E10E94630160917C02862F90E09093B0
:104FE0009B0280939A0280917D0290E090939D02B3
:104FF00080939C028091A2029091A302892B71F46C
:1050000080919802909199020E94381960919C02B7
:1050100080919602909197020E9438198091A20285
:105020009091A302019709F051C00E941C0B66EDFC
:1050300076E187EB92E00E942516811106C064E4B8
:1050400077E18CE692E00E94251667E5CE01019695
:105050000E943B18CE0101960E94DA0060EF70E0DA
:1050600082EC95E00E94390260919C0270919D0251
:105070004AE050E082EC95E00E94531462ED71E04A
:1050800082EC95E00E94F81367EE70E082EC95E008
:105090000E94390260919A0270919B024AE050E0AE
:1050A00082EC95E00E94531462ED71E082EC95E091
:1050B0000E94F81361ED70E082EC95E00E943902E5
:1050C0000E94951483EA95E00E940F0B62E083E151
:1050D0000E9491018091800290918102019709F0D4
:1050E000A5CE8091840290918502019709F09ECE11
:1050F0000E942D02C0906802D0906902E0906A027E
:10510000F0906B026C197D098E099F09693B7B4009
:105110008105910508F48ACE1092AD021092AC027E
:1051200010928102109280020E942D026093680208
:105130007093690280936A0290936B0261E080E150
:105140000E94910160E080E10E94630180919202DF
:105150009091930201979093930280939202109200
:10516000A5021092A40262CEE114F10471F460E091
:1051700082E10E94630161E070E080E090E00E94C3
:10518000FA0161E082E10E9463010E942D026093B6
:10519000A6027093A7028093A8029093A90210938D
:1051A000AB020093AA021E141F0424F461E084E001
:1051B0000E94630180910601909107018130910561
:1051C00021F4909391028093900210929502109294
:1051D00094028091AA029091AB02019709F010C14C
:1051E0000E942D02C090A602D090A702E090A802D3
:1051F000F090A9026C197D098E099F096D3B7240E0
:105200008105910508F4FCC00E942D026093A6025E
:105210007093A7028093A8029093A9021092AB0208
:105220001092AA021092A5021092A402E090A2028B
:10523000F090A302B1E0EB16F10409F0EDC00E947A
:105240001C0BF092A502E092A402F092A102E0925F
:10525000A0020E94DA1A66ED76E187EB92E00E94E6
:105260002516882309F483C01093A1020093A0029D
:105270000E94DA1A61E0CE0101960E943B18CE012D
:1052800001960E94DA0082EC95E00E94B30E892B11
:1052900009F468C010929F0210929E021A8219822D
:1052A0001C821B821E821D8270E060E0CE0101968E
:1052B0000E94B01429813A8181112FC02115310536
:1052C00019F0C9010E94792E1A8219821E821D824C
:1052D0001C821B820E94401097FD27C08D309105D3
:1052E00021F18C8F1D8EED80FE80EFEFEE1AFE0A0D
:1052F000B701CE0101960E94B014882359F3298189
:105300003A818D819E81BE01645E7F4F820F931F23
:105310000E94E02FFE82ED82DDCF1E821D8268E6B4
:1053200071E0C9010E94E02FD5CF0E94C810709390
:105330009F0260939E02072E000C880B990B0E941F
:10534000FA014D815E8169817A818AED94E00E9443
:105350005D028AED94E00E949114CE0101960E94B4
:10536000A81491CF0E9495140E94F11D72CF109243
:10537000A1021092A0021093A5020093A4020E9421
:10538000DA1A66ED76E187EB92E00E942516882313
:1053900099F10E94DA1A61E0CE0101960E943B1851
:1053A000CE0101960E94DA0082EC95E00E94B30ED5
:1053B000892B99F00E94C81070939D0260939C0203
:1053C0000E94C81070939B0260939A020E94C810BA
:1053D00070939F0260939E02E7CF0E9495146091A4
:1053E0009E0270919F02072E000C880B990B0E9461
:1053F000FA010E94F11DC3CF83EA95E00E940F0BD2
:105400008114910409F454CA0E94C702882309F444
:105410004FCA0E94000048CAF12CE12C809108017B
:10542000909109018E159F055CF368EC70E080E0B7
:1054300090E00E94FA010E94DA1A809198029091FD
:1054400099020E944C19C82ED12CD0929B02C09276
:105450009A0280919602909197020E944C1990E0D6
:1054600090939D0280939C028F3F910521F4FFEF62
:10547000CF16D10429F20E94F11D2FEFE21AF20A91
:10548000CDCFCA94CD2809F05BCD0E94BF120E94F7
:10549000DA1A8091A4029091A502E816F9060CF0A0
:1054A0004FCD6AEF70E080E090E00E94FA0161E089
:1054B00080E10E94910160E080E10E94630162E36B
:1054C00070E080E090E00E94FA0162E080E10E94DA
:1054D0009101BFEFEB1AFB0ADCCF8DED95E00E9446
:1054E000A81483EE95E00C94A814DC01FB01415054
:1054F000504070F00D900020D1F7119704C001903A
:105500000D92002061F041505040C8F71C92BF013D
:1055100001900020E9F7E61BF70BAE0FBF1F0894C0
:10552000A80BB90BCD010895DC01FB01415050409F
:1055300058F049F001900D920020C1F7E61BF70BDF
:105540003197CF0108951C9201900020E9F7F6CF22
:10555000ABE0B0E0EEEAFAE20C94472D7C013B01AF
:105560008A01FC0117821682838181FFC8C1CE01A6
:1055700001965C01F7019381F30193FD859193FFFF
:1055800081913F01882309F453C1853239F493FD99
:10559000859193FF81913F01853229F4B70190E015
:1055A0000E94982CE7CF912C212C312CFFE1F31590
:1055B00038F08B3211F190F4803209F1833229F105
:1055C00037FC3CC020ED280F2A3050F536FE20C0B5
:1055D0008AE0989E200D1124922E06C08D3291F003
:1055E000803371F7689430F8F30193FD859193FF50
:1055F00081913F018111DACF21C0689431F868941C
:1056000032F8F2CF689433F8EFCF689434F8ECCFE7
:10561000EAE02E9E200D1124222E689435F8E4CF66
:105620008E3229F436FC04C1689436F8DDCF8C360E
:1056300019F4689437F8D8CF8836B1F2982F9F7D47
:1056400095549330E0F08336A1F18337C1F183356F
:1056500009F063C02801F2E04F0E511CF801C08030
:10566000D180692D70E036FC02C06FEF7FEFC6017C
:105670000E94822C4C01689437F882010AC00C5FAA
:105680001F4FFFE3F98388248394912C6501E894EC
:1056900037F833FE2DC0522C8114910471F555203A
:1056A00009F468CFB70180E290E00E94982C5A94E8
:1056B000F6CFF801808189830E5F1F4FE4CF280168
:1056C000F2E04F0E511CF801C080D180692D70E0CE
:1056D00036FC02C06FEF7FEFC6010E948D2C4C019B
:1056E0008201D5CFB70180E290E00E94982C2A94E5
:1056F0002814190409F0B0F7CECFF60137FC8591D4
:1057000037FE81916F01B70190E00E94982C5110F3
:105710005A94F1E08F1A9108BFCF843619F0893678
:1057200009F077C0F80137FE6BC06081718182811A
:1057300093810C5F1F4FF32DFF763F2E97FF09C01B
:1057400090958095709561957F4F8F4F9F4F68948E
:1057500037F82AE030E0A5010E94C82CC82ECA18EC
:105760008C2C432C36FE0CC0E89440F8C91440F44D
:1057700034FE05C032FC03C0F32DFE7E4F2E892C73
:1057800044FE95C0FE01EC0DF11D8081803309F0CF
:1057900087C0242D297E422E842D8870582E43FCEC
:1057A00095C040FE8FC09C2C821418F42C0C922CB7
:1057B000981844FE91C0B70180E390E00E94982CB5
:1057C00042FE09C088E790E041FE02C088E590E013
:1057D000B7010E94982CC91408F48AC0CA94D12C2D
:1057E0009FEFC91AD90ACA0CDB1CF60182916F011E
:1057F000B70190E00E94982CAC14BD04B1F74FCFD4
:1058000060817181072E000C880B990B0E5F1F4F72
:1058100092CFD32CE894D4F82AE030E0853739F1E0
:10582000232D297FD22E8F3601F148F48835A9F037
:10583000F701868197812B96E2E10C94632D8037E6
:1058400049F08837A9F7D4FE02C06894D2F820E165
:1058500030E00DC06894D4F8F6CF34FE03C0822F38
:105860008660D82E20E132E002C028E030E0F80166
:10587000D7FE0FC060817181828193810C5F1F4FC1
:10588000A5010E94C82CC82ECA183D2CE89437F8F0
:1058900067CF6081718190E080E00E5F1F4FF0CF95
:1058A00042FC02C0839478CF8394839475CF842D77
:1058B000867809F471CFF6CFB70180E290E00E94BC
:1058C000982C83948214C0F3512C73CF522C581807
:1058D000821408F46ECFF8CF842D867809F47BCF3C
:1058E0008BE241FE80E247FC8DE2B70190E071CF90
:1058F000B70180E390E00E94982C9A946CCF8FEFD0
:105900009FEF99CFFC010590615070400110D8F7CE
:10591000809590958E0F9F1F0895FC0161507040F7
:1059200001900110D8F7809590958E0F9F1F0895D4
:105930000F931F93CF93DF93182F092FEB018B81C8
:1059400081FD09C01FEF0FEF812F902FDF91CF91C5
:105950001F910F91089582FF14C02E813F818C8189
:105960009D81281739073CF4E881F981CF01019620
:105970009983888310838E819F8101969F838E8374
:10598000E3CFE885F985812F0995892BA1F3DACF3B
:10599000FA01AA27283051F1203181F1E8946F9360
:1059A0006E7F6E5F7F4F8F4F9F4FAF4FB1E03ED006
:1059B000B4E03CD0670F781F891F9A1FA11D680FA4
:1059C000791F8A1F911DA11D6A0F711D811D911DD7
:1059D000A11D20D009F468943F912AE0269F11244C
:1059E0003019305D3193DEF6CF010895462F4770B0
:1059F000405D4193B3E00FD0C9F7F6CF462F4F700B
:105A0000405D4A3318F0495D31FD4052419302D068
:105A1000A9F7EACFB4E0A69597958795779567950E
:105A2000BA95C9F700976105710508959B01AC010E
:105A30000A2E06945795479537952795BA95C9F735
:105A4000620F731F841F951FA01D0895F999FECF43
:105A500092BD81BDF89A992780B50895262FF999AE
:105A6000FECF1FBA92BD81BD20BD0FB6F894FA9A41
:105A7000F99A0FBE019608950E947E2DA59F900D64
:105A8000B49F900DA49F800D911D112408952F9215
:105A90003F924F925F926F927F928F929F92AF92BE
:105AA000BF92CF92DF92EF92FF920F931F93CF930B
:105AB000DF93CDB7DEB7CA1BDB0B0FB6F894DEBFA2
:105AC0000FBECDBF09942A88398848885F846E84C8
:105AD0007D848C849B84AA84B984C884DF80EE8012
