:100000000C94AC000C94D4000C94D4000C94EB230E
:100010000C9492230C94D4000C94D4000C94D4002F
:100020000C94D4000C94D4000C94D4000C94D40000
:100030000C94D4000C94D4000C94D4000C94D400F0
:100040000C94F0220C94D4000C9460230C943A236A
:100050000C94D4000C94D4000C94D4000C94D400D0
:100060000C94D4000C94D40030003000535653202C
:10007000495220434F4D4D414E443D007C3C3E5E35
:100080002B3D3F2F5B5D3B2C2A225C005356535F78
:1000900046575F005356532043555252454E542005
:1000A000494E5055543D00535653204E4557204914
:1000B0004E5055543D0053565320544F54414C20FC
:1000C000494E505554533D0044656C6179286D6923
:1000D0006C6C697365636F6E6473293D30004164B5
:1000E00064726573733D00436F6D6D616E643D00B6
:1000F0000000000023002600290000000009000382
:1001000002000004050800000000000000000000DC
:100110000000000000240027002A00000000002545
:100120000028002B00040404040404040402020256
:100130000202020303030303030202030102040891
:100140001020408001020408102001020408102041
:1001500040804000E724A93011241FBECFEFD8E033
:10016000DEBFCDBF27E0A6EAB2E001C01D92A431F8
:10017000B207E1F712E0A0E0B1E0EAE7FDE602C075
:1001800005900D92A63AB107D9F710E0CBEAD0E07E
:1001900004C02197FE010E945734CA3AD107C9F71B
:1001A0000E9480250C94B0360C940000CF93DF930E
:1001B000FC01828193819093DD068093DC0684812B
:1001C0009581A681B7818093DE069093DF06A09388
:1001D000E006B093E10680859185A285B385809382
:1001E000E2069093E306A093E406B093E506DF01F0
:1001F0001C96CF014996C6EED6E02D912993A817FB
:10020000B907D9F7818D928D9093F4068093F30608
:100210008AED96E0DF91CF910895843081F028F443
:100220008230E9F08330F9F00895883071F0893038
:1002300091F08530B9F4809180008F7D03C080916A
:1002400080008F778093800008958091B0008F7731
:100250008093B00008958091B0008F7DF9CF84B570
:100260008F7784BD089584B58F7DFBCFCF93DF93C7
:10027000282F30E0F901E650FF4F8491F901E45C4A
:10028000FE4FD491F901EB5DFE4FC491CC23A1F058
:1002900081110E940D01EC2FF0E0EE0FFF1FE051E5
:1002A000FF4FA591B491EC91ED2381E090E009F42A
:1002B00080E0DF91CF91089580E090E0FACF1F9326
:1002C000CF93DF93282F30E0F901E650FF4F849160
:1002D000F901E45CFE4FD491F901EB5DFE4FC4914E
:1002E000CC23A9F0162F81110E940D01EC2FF0E014
:1002F000EE0FFF1FE55EFE4FA591B4918FB7F89406
:10030000EC91111108C0D095DE23DC938FBFDF91F3
:10031000CF911F910895DE2BF8CFCF93DF9390E01C
:10032000FC01E45CFE4F24918B5D9E4FFC018491A7
:100330008823C9F090E0880F991FFC01EF5EFE4F03
:10034000A591B491FC01E55EFE4FC591D491611178
:100350000DC09FB7F8948C91209582238C9388814F
:10036000282328839FBFDF91CF910895623051F4F5
:100370009FB7F8943C91822F809583238C93E881DA
:100380002E2BEFCF8FB7F894EC912E2B2C938FBFA1
:10039000EACF880F991F880F991F05970197F1F7EA
:1003A00008953FB7F8948091EB039091EC03A091EE
:1003B000ED03B091EE0326B5A89B05C02F3F19F0C1
:1003C0000196A11DB11D3FBFBA2FA92F982F8827D5
:1003D000BC01CD01620F711D811D911D42E0660FB0
:1003E000771F881F991F4A95D1F708958F929F9282
:1003F000AF92BF92CF92DF92EF92FF926B017C019E
:100400000E94D1014B015C01C114D104E104F1044B
:10041000B9F00E94D101681979098A099B09683EDF
:1004200073408105910580F321E0C21AD108E108EB
:10043000F10888EE880E83E0981EA11CB11CE4CF61
:10044000FF90EF90DF90CF90BF90AF909F908F90F4
:1004500008952FB7F8946091E7037091E8038091B5
:10046000E9039091EA032FBF0895089508950F932B
:100470001F93CF93DF93EC010E942902688779874D
:100480008A879B87E881F9810284F385E02DCE017C
:10049000099597FF15C00E942902088519852A85AC
:1004A0003B85601B710B820B930B0C811D812E8190
:1004B0003F81601771078207930720F38FEF9FEF4B
:1004C000DF91CF911F910F910895EF92FF920F93BB
:1004D0001F93CF93DF938C017B01D0E0C0E0F70145
:1004E000EC0FFD1F6491662361F0D801ED91FC9142
:1004F0000190F081E02DC8010995892B11F021961A
:10050000EECFCE01DF91CF911F910F91FF90EF9031
:100510000895AF92BF92CF92DF92EF92FF920F9326
:100520001F93CF93DF936C017B018B01040F151F89
:10053000EB015E01AE18BF08C017D10759F06991F1
:10054000D601ED91FC910190F081E02DC601099555
:10055000892B79F7C501DF91CF911F910F91FF9002
:10056000EF90DF90CF90BF90AF900895FC01538D36
:10057000448D252F30E0842F90E0821B930B54177D
:1005800010F0CF96089501970895FC01918D828D0A
:10059000981761F0A28DAE0FBF2FB11D5D968C91A3
:1005A000928D9F5F9F73928F90E008958FEF9FEFE2
:1005B0000895FC01918D828D981731F0828DE80F9E
:1005C000F11D858D90E008958FEF9FEF0895FC0158
:1005D000918D228D892F90E0805C9F4F821B910925
:1005E0008F739927089582EF95E00E94E70221E03A
:1005F000892B09F420E0822F089580E090E0892B78
:1006000029F00E94F30281110C9400000895FC016E
:10061000A48DA80FB92FB11DA35ABF4F2C91848D63
:1006200090E001968F739927848FA689B7892C93C0
:10063000A089B1898C91837080648C93938D848D13
:10064000981306C00288F389E02D80818F7D808316
:100650000895EF92FF920F931F93CF93DF93EC01D6
:1006600081E0888F9B8D8C8D98131AC0E889F98959
:10067000808185FF15C09FB7F894EE89FF8960835C
:10068000E889F98980818370806480839FBF81E0DD
:1006900090E0DF91CF911F910F91FF90EF9008951F
:1006A000F62E0B8D10E00F5F1F4F0F731127E02EFA
:1006B0008C8D8E110CC00FB607FCFACFE889F98932
:1006C000808185FFF5CFCE010E940703F1CFEB8D2E
:1006D000EC0FFD2FF11DE35AFF4FF0829FB7F89406
:1006E0000B8FEA89FB8980818062CFCFCF93DF9324
:1006F000EC01888D8823B9F0AA89BB89E889F9893A
:100700008C9185FD03C0808186FD0DC00FB607FC6E
:10071000F7CF8C9185FFF2CF808185FFEDCFCE01A1
:100720000E940703E9CFDF91CF9108958FB7F89426
:100730008091FA028FBF089561E0FC0184810E94DC
:100740005F018091F90281111092F90208958EBD26
:1007500000000DB407FEFDCF8EB508958FEF0C9409
:10076000A7030F931F93CF93DF93EC010E942902FD
:100770008B010E94AE038F3F69F00E942902601B2B
:10078000710B6C177D07A8F380E0DF91CF911F916B
:100790000F91089581E0F9CF8CBD9DBD0895CF9351
:1007A000DF93EC018091F902811109C081E080930F
:1007B000F90280918F06909190060E94CC0360E030
:1007C0008C81DF91CF910C945F018F929F92AF92B9
:1007D000BF92FF920F931F93CF93DF93EC01F62EFE
:1007E00049015A018E81882389F08F8198859C0167
:1007F0002F5F3F4F38872F838230924018F40E943A
:10080000AE03F3CFCE010E949C031E82CE010E9454
:10081000CF038CE291E00E94B1038F2D80640E948F
:10082000A70308E110E0D501C401002E04C0B6956D
:10083000A795979587950A94D2F70E94A703085029
:100840001109083F8FEF180771F785E9FF2021F0A4
:1008500028E087E8F2128FEF0E94A70310E00E94C1
:10086000AE038A8787FF04C01F3F11F01F5FF7CFD9
:10087000DF91CF911F910F91FF90BF90AF909F900C
:100880008F900895AF92BF92CF92DF92EF92FF9236
:100890000F931F93CF93DF93EC016901C801820F7F
:1008A000931F8130924050F58E81882379F08881A2
:1008B0009981AA81BB8184179507A607B70731F4F0
:1008C0008F819885C816D90608F042C0488359839D
:1008D0006A837B838B85833039F089E0440F551F11
:1008E000661F771F8A95D1F79A01AB0161E1CE01AE
:1008F0000E94E503882389F083E08D83CE010E9466
:100900009C0380E0DF91CF911F910F91FF90EF90BA
:10091000DF90CF90BF90AF9008950E9429025B01B5
:100920000E94AE038A878F3F69F40E9429026A19E8
:100930007B096D327140A0F38FE08D83CE010E9460
:100940009C03DCCF8E3F89F418861F8281E08E8362
:100950008F8198858C159D0550F40E94AE038F8180
:100960009885019698878F83F3CF8DE0E6CF670156
:10097000E00EF11E0E94AE03F60181936F01EE15A9
:10098000FF05C1F78F819885080F191F18870F83FE
:100990008985882319F001151240A0F08E818823E3
:1009A00089F08F8198859C012F5F3F4F38872F8377
:1009B0008230924018F40E94AE03F3CFCE010E9421
:1009C0009C031E8281E09ECFCF92DF92EF92FF9236
:1009D0000F93CF93DF93EC01690182E1411551053B
:1009E0006105710599F08B85833039F089E0440FFA
:1009F000551F661F771F8A95D1F79A01AB0168E1F1
:100A0000CE010E94E503882319F084E08D832DC078
:100A10008EEF0E94A70376018EEFD81AF70181911D
:100A20007F010E94A703EC14FD04C1F78FEF0E9421
:100A3000A7038FEF0E94A7030E94AE038A878F71DE
:100A4000853071F4011116C0CE010E949C0381E033
:100A5000DF91CF910F91FF90EF90DF90CF900895AD
:100A600081E18D83CE010E949C03CE010E949C03F4
:100A700080E0EECF88E592E00E94B103811102C0D0
:100A800085E1C4CF20E030E0A9016DE0CE010E94F5
:100A9000E503882311F084E1B9CF0E94AE038111F0
:100AA000FACFD2CF0F934091FC025091FD0260919A
:100AB000FE027091FF02411551056105710599F023
:100AC000082F22EF33E08091F0039091F1030E9410
:100AD000E404882349F01092FC021092FD02109267
:100AE000FE021092FF0281E00F9108950F93CF93C1
:100AF000C82F8091FB02811105C0C1E08C2FCF91DE
:100B00000F91089540910A0150910B0160910C01E1
:100B100070910D010C2F22EF33E08091F003909142
:100B2000F1030E94E404811102C0C0E0E7CFCC23AE
:100B300021F381E00E9452058823B9F31092FB0251
:100B4000DDCF8F929F92AF92BF92EF92FF920F9361
:100B50001F93CF934B015C01C42F80910A019091A8
:100B60000B01A0910C01B0910D0188159905AA0502
:100B7000BB0551F181E00E94760581110BC080E038
:100B8000CF911F910F91FF90EF90BF90AF909F90EA
:100B90008F90089582EFE82E83E0F82E00E012E0B7
:100BA00030E020E0B501A4018091F0039091F103C1
:100BB0000E944204882319F380920A0190920B014B
:100BC000A0920C01B0920D014091FB024C2B40937E
:100BD000FB0281E0D5CFCF93DF93EC016E857F855B
:100BE0008889998941E00E94A105882351F08A896A
:100BF00020E2829FC00111248E509C4FDF91CF9143
:100C0000089590E080E0FACF8F929F92AF92BF92CA
:100C1000CF92DF92EF92FF92CF9321E936E03093AB
:100C2000F1032093F003882309F46DC040E060E0F5
:100C300070E0CB010E94A10581110BC080E0CF9133
:100C4000FF90EF90DF90CF90BF90AF909F908F90EC
:100C500008958091B0058F7789F78091BC059091B8
:100C6000BD05A091BE05B091BF0584369105A105D3
:100C7000B10520F3C090B805D090B905E090BA0551
:100C8000F090BB05C114D104E104F104B9F240E0D5
:100C9000C701B6010E94A105882381F28091FD035E
:100CA0009091FE038115924049F6A0910204AA2377
:100CB00029F260910004709101046115710509F435
:100CC000BDCF2091FF03222309F4B8CFA093AF0634
:100CD0002093A10690E080E030E0E1E0F0E0C82F52
:100CE000AF01082E02C0440F551F0A94E2F72417E3
:100CF000350769F041E0480F01968930910579F791
:100D00004093AA069BCFC12CD12C7601C0CF8093F3
:100D1000AA06209108043091090450E040E0211512
:100D2000310541F4209116043091170440911804C4
:100D3000509119042093A2063093A3064093A40671
:100D40005093A50646015701860E971EA11CB11CA3
:100D50008092B0069092B106A092B206B092B3060D
:100D6000E0910304F0910404F093B606E093B50615
:100D7000B0E00E94BC33DC01CB01880D991DAA1D97
:100D8000BB1D8093B7069093B806A093B906B093A5
:100D9000BA0625E0EE0FFF1F2A95E1F7E150FE4F5E
:100DA000EF2FFF27E6958E0F9F1FA11DB11D80938A
:100DB000AB069093AC06A093AD06B093AE068090C0
:100DC000050490900604B12CA12C8114910441F4E7
:100DD0008090120490901304A0901404B090150415
:100DE000C81AD90AEA0AFB0AC80CD91CEA1CFB1C5F
:100DF00004C0F694E794D794C794CA95D2F7C092EA
:100E0000A606D092A706E092A806F092A90685EF62
:100E1000C8168FE0D806E104F10428F48CE0809332
:100E2000B40681E00CCF80E125EFC2162FEFD20689
:100E3000E104F104A0F380911E0490911F04A0919D
:100E40002004B09121048093B7069093B806A09334
:100E5000B906B093BA0680E2E2CF4F925F926F92EA
:100E60007F928F929F92AF92BF92CF92DF92EF923A
:100E7000FF920F931F93CF93DF93EC014230510504
:100E80006105710590F480E0DF91CF911F910F9182
:100E9000FF90EF90DF90CF90BF90AF909F908F909A
:100EA0007F906F905F904F90089589859A85AB856C
:100EB000BC850196A11DB11D84179507A607B7072C
:100EC00010F3CB88DC88ED88FE888F89803109F0AB
:100ED00042C0BB27A72F962F852F480159012A0111
:100EE0003B01C80ED91EEA1EFB1E80910A0190919B
:100EF0000B01A0910C01B0910D01C816D906EA06AC
:100F0000FB0699F58F898031C1F5B301A201552700
:100F100066277727440F551F4E505C4FFA01918288
:100F200080828091FB0281608093FB028A898230FB
:100F300080F08D819E81AF81B8858C0D9D1DAE1D89
:100F4000BF1D8093FC029093FD02A093FE02B0931C
:100F5000FF0281E099CFDB01CA01E7E0B695A795D2
:100F600097958795EA95D1F7B8CF40E0C701B601CC
:100F70000E94A1058111C6CF86CFB301A2014F7790
:100F8000552766277727440F551F440F551F4E508E
:100F90005C4FFA0180829182A282B382C2CF8F928B
:100FA0009F92AF92BF92CF92DF92EF92FF920F93F8
:100FB0001F93CF93DF93FC0181859285A385B48530
:100FC0000196A11DB11D84179507A607B70770F4F8
:100FD00080E0DF91CF911F910F91FF90EF90DF9014
:100FE000CF90BF90AF909F908F9008958388948802
:100FF000A588B6888789803189F5BB27A72F962FCA
:10100000852FE9016A017B018F01BC01CD01680DCB
:10101000791D8A1D9B1D80900A0190900B01A09064
:101020000C01B0900D0186169706A806B90601F5C9
:10103000F8018789803111F5DD24EE24FF24F601C3
:10104000EE0FFF1FEE50FC4F80819181B0E0A0E0D9
:1010500088839983AA83BB8381E0BBCFDB01CA016C
:10106000C7E0B695A79597958795CA95D1F7C9CF4B
:1010700040E00E94A1058111DBCFAACFE894C7F818
:10108000DD24EE24FF24F601EE0FFF1FEE0FFF1FFD
:10109000EE50FC4F80819181A281B381BF70D8CF87
:1010A0004F925F926F927F92AF92BF92CF92DF92F8
:1010B000EF92FF920F931F93CF93DF9300D000D056
:1010C000CDB7DEB78C0149835A836B837C8359018A
:1010D000C12CD12C7601412C82E0582E612C712C30
:1010E00049815A816B817C819E012F5F3F4FC801EE
:1010F0000E94CF07882339F1F8018585A301920169
:1011000004C0220F331F441F551F8A95D2F7DA01FE
:10111000C901C80ED91EEA1EFB1E49815A816B8186
:101120007C818789803111F188EF9FEFAFEFBFE0BD
:10113000481759076A077B0798F2F501C082D182E8
:10114000E282F38281E00F900F900F900F90DF9179
:10115000CF911F910F91FF90EF90DF90CF90BF90B4
:10116000AF907F906F905F904F90089588EF9FEFC2
:10117000A0E0B0E0DDCFCF93DF93FC0125812223F7
:1011800021F080E0DF91CF910895EC018091B406C9
:10119000803159F582E08583178A108E118E128E68
:1011A0008091B5069091B606B0E0A0E025E0880FEA
:1011B000991FAA1FBB1F2A95D1F7838B948BA58BF0
:1011C000B68B8DE996E09C8F8B8F81E08C831E829D
:1011D0001F82188619861A861B861C861D861E8607
:1011E0001F86188A198A1A8ACDCF803251F683E079
:1011F00085834091B7065091B8066091B906709109
:10120000BA06478B508F618F728F9F012D5E3F4FC3
:101210008DE996E00E9450088111D3CFB2CF8F9212
:101220009F92AF92BF92CF92DF92EF92FF920F9375
:101230001F93CF93DF93EC018D8181110EC080E06D
:10124000DF91CF911F910F91FF90EF90DF90CF90A2
:10125000BF90AF909F908F9008950B891C892D8926
:101260003E89041715072607370748F34A015B0133
:10127000823031F48A869B86AC86BD8681E0E0CFE1
:1012800081149104A104B10449F41E821F821886BE
:1012900019861A861B861C861D86F0CF0A851B853B
:1012A0002C853D85EB8DFC8D858590E00996B901F7
:1012B000A8014150510961097109082E04C07695B1
:1012C0006795579547950A94D2F775016401E1E057
:1012D000CE1AD108E108F10804C0F694E794D79437
:1012E000C7948A95D2F7C416D506E606F70620F00D
:1012F000012B022B032B11F58F89988DA98DBA8DA7
:101300008E839F83A887B9878E010A5F1F4FC11400
:10131000D104E104F10409F4ADCF4E815F81688509
:10132000798598018B8D9C8D0E94CF0791E0C91A19
:10133000D108E108F1088111EACF81CFC41AD50A9A
:10134000E60AF70AE1CF3F924F925F926F927F9247
:101350008F929F92AF92BF92CF92DF92EF92FF92C5
:101360000F931F93CF93DF93CDB7DEB72C970FB6B4
:10137000F894DEBF0FBECDBF5C01DC015B968D90A3
:101380009C905C9716964D905D906D907C9019970F
:10139000411451046104710409F468C0BFEF4B1A91
:1013A0005B0A6B0A7B0A312CF40181859285A38547
:1013B000B4859C01AD012F5F3F4F4F4F5F4F298791
:1013C0003A874B875C87730162011D821E821F82F0
:1013D0001886F40181859285A385B4852D813E818F
:1013E0004F815885281739074A075B0708F056C010
:1013F00089859A85AB85BC858C159D05AE05BF0595
:1014000050F482E0C82ED12CE12CF12C92E0492E30
:10141000512C612C712C9E012F5F3F4FB701A6010B
:10142000C4010E94CF078823C9F189819A81AB81C9
:10143000BC81892B8A2B8B2B09F1260137019FEF69
:10144000491A590A690A790A2D813E814F815885C6
:101450002F5F3F4F4F4F5F4F2D833E834F83588702
:101460003FEFC31AD30AE30AF30AB3CFF401408073
:101470005180628073803324339496CFC414D50492
:10148000E604F70409F70FEF1FEF2FEF3FE0B70176
:10149000A601C4010E942D07811119C080E02C967D
:1014A0000FB6F894DEBF0FBECDBFDF91CF911F9175
:1014B0000F91FF90EF90DF90CF90BF90AF909F90F3
:1014C0008F907F906F905F904F903F900895D501DF
:1014D00016964D915D916D917C911997411551052D
:1014E0006105710539F097018601C4010E942D073D
:1014F0008823A1F2D5011696CD92DD92ED92FC9251
:101500001997332051F0D701C6010196A11DB11DD5
:10151000F40180839183A283B383F5018789908D41
:10152000A18DB28D892B8A2B8B2B39F48481C78AAC
:10153000D08EE18EF28E80688483F5018481806292
:10154000848381E0ACCF1F93CF93DF93FC0125818F
:10155000222371F1162FEC01848187FF1EC0CF0179
:101560000E94EB05FC01892B19F18D81823040F43A
:101570008B899C89AD89BE89848F958FA68FB78F03
:101580008F89988D938F828F8F89988DA98DBA8D31
:10159000B58BA48B8C818F778C83111103C08C81C8
:1015A0008F7E8C83812FDF91CF911F910C947605D4
:1015B00080E0DF91CF911F910895FF920F931F93C9
:1015C000CF93DF93EC018D81813041F090E080E09A
:1015D000DF91CF911F910F91FF9008958C8181FF32
:1015E000F5CF82FD1BC00091F0031091F103C801FB
:1015F0000E94CF030E94AE03F82EC8010E949C03F4
:101600008FEFF812E3CF8C8185FF1BC060E0CE0125
:101610000E94A30A8C818F7D8C83D8CF4B895C89F3
:101620006D897E898A859B85AC85BD8584179507E4
:10163000A607B707C1F2CE010E940F098111D3CFCF
:10164000C5CF4091FC025091FD026091FE02709165
:10165000FF02452B462B472B21F080E00E945205CC
:10166000B5CF80618C832A853B85317080E092E024
:10167000821B930BADCFCF93DF93EC0161E00E940F
:10168000A30A882311F01D8281E0DF91CF91089594
:10169000CF92DF92EF92FF921F93CF93DF938091CF
:1016A000C006882321F08BEB96E00E943B0B109242
:1016B0009C0610929A0610929706109296068AE05F
:1016C000809395060E942902EB0161E080919506C6
:1016D0000E948D0161E0809195060E945F011FB715
:1016E000F8948091EF03811127C0EFE2F1E084913B
:1016F000E6E4F1E09491E82FF0E0EE0FFF1FEF5EDB
:10170000FE4FA591B491EC91E92321F461E08AE0C8
:101710000E945F0161E08AE00E948D018CB58061CA
:101720008CBD8CB580648CBD61E08DE00E948D0124
:1017300061E08BE00E948D018091EF038F5F8093C9
:10174000EF031FBF82E580938F0610929006809171
:101750008F06909190060E94CC031AE08FEF0E94B2
:10176000A7031150D9F781E996E00E94CF0320E04A
:1017700030E0A90160E081E996E00E94E503182FBE
:1017800080939B06813081F00E9429026C1B7D0BA7
:10179000613D774060F381E08093960681E996E0B1
:1017A0000E949C0390E078C02AEA31E040E050E0DB
:1017B00068E081E996E00E94E50382FF2AC0109369
:1017C0009C0680919C06C12CD12C7601823029F494
:1017D000C12CD12CE12C80E4F82E20E030E0A901CE
:1017E00067E381E996E00E94E503A701960169E2BB
:1017F00081E996E00E94E50380939B068823C1F06F
:101800000E9429026C1B7D0B613D774030F388E01C
:10181000C3CF14E00E94AE0380939B061150D1F712
:101820008A3A11F082E0B8CF82E080939C06C9CF5B
:1018300080919C068230D1F420E030E0A9016AE377
:1018400081E996E00E94E503882311F086E0A4CFA9
:101850000E94AE03807C803C19F483E080939C0658
:101860000E94AE030E94AE030E94AE0381E996E09F
:101870000E949C0380E580938F061092900681E081
:101880000E940406882389F08BEB96E00E94BB0837
:1018900091E0882309F486CF892FDF91CF911F91A2
:1018A000FF90EF90DF90CF90089580E00E940406B3
:1018B000882309F477CFE8CF8F929F92AF92BF929F
:1018C000CF92DF92EF92FF92CF93DF93EC010E94D1
:1018D000A30981110CC080E0DF91CF91FF90EF90C0
:1018E000DF90CF90BF90AF909F908F900895EB8D39
:1018F000FC8DCE80DF80E884F98482E0C81AD108AC
:10190000E108F108858504C0CC0CDD1CEE1CFF1C31
:101910008A95D2F786859785A089B189C80ED91E88
:10192000EA1EFB1E848146015701880E911CA11CF2
:10193000B11CC814D904EA04FB04F9F081E0881A48
:101940009108A108B10881E00E947605882319F268
:10195000E2EFF3E0119285E0E23FF807D9F78092D9
:101960000A0190920B01A0920C01B0920D0180919E
:10197000FB0281608093FB02DCCFEB8DFC8D258523
:1019800080E092E0A0E0B0E004C0880F991FAA1F99
:10199000BB1F2A95D2F74B895C896D897E89840F9C
:1019A000951FA61FB71F8B8B9C8BAD8BBE8B81E0C9
:1019B00093CF2F923F924F925F926F927F928F922E
:1019C0009F92AF92BF92CF92DF92EF92FF920F93CE
:1019D0001F93CF93DF9300D000D01F92CDB7DEB717
:1019E0007C015B01342E5D83DC0115968C9115978B
:1019F000813009F0CEC014962C9021FECAC022FC82
:101A0000B4C0C32CDD8022947FE027222094B22D25
:101A1000B1702B2ED7011A964D915D916D917C91ED
:101A20001D97C114D10409F428C15B968D919C9136
:101A30005C97FC0174807A948A019B0169E0369579
:101A40002795179507956A95D1F770228A0111702D
:101A5000711020C001151105E9F416964D915D91A4
:101A60006D917C911997411551056105710509F03A
:101A700099C057968D919D910D90BC91A02D009786
:101A8000A105B10509F0B0C0C7010E94A3098823D0
:101A900009F47FC080E092E0801B910B46018C1519
:101AA0009D0508F44C01D7015B964D915C915C97C4
:101AB00016968D919D910D90BC91A02D0297A10934
:101AC000B109FA01258504C0880F991FAA1FBB1F01
:101AD0002A95D2F74685578560897189840F951FAD
:101AE000A61FB71F9C01AD01270D311D411D511DC2
:101AF00029013A01811432E0930609F07BC08091FC
:101B00000A0190910B01A0910C01B0910D01841577
:101B10009505A605B70559F48FEF9FEFDC0180937B
:101B20000A0190930B01A0930C01B0930D01022DBB
:101B30009501B301A2018091F0039091F1030E94FD
:101B4000E404882331F19EEFB91AC818D908F701C7
:101B500082859385A485B585880D991DA11DB11D2C
:101B600082879387A487B58755CFF7014389548926
:101B70006589768982859385A485B5854817590737
:101B80006A077B0709F43DCFC7010E940F09811145
:101B900038CF81E090E0D70113969C938E931297F3
:101BA00080E007C09E012F5F3F4F0E94CF07811149
:101BB00002C090E079C089819A81AB81BC81F70134
:101BC000238D348DF901278948EF5FEF60E070E0E5
:101BD000203121F048EF5FEF6FEF7FE0841795072A
:101BE000A607B70708F050CFF70186839783A08731
:101BF000B18750CF0115110599F5D7011A964D916E
:101C00005D916D917C911D9753968D919D910D9055
:101C1000BC91A02D481759076A077B0708F181E09E
:101C20000E947605882309F4B4CF40920A015092AD
:101C30000B0160920C0170920D018091FB0281609A
:101C40008093FB02C8018E509C4FD5019C01280D4A
:101C5000391DFC012E173F0759F04D914193FACFE2
:101C600041E0C301B2010E94A1058111EBCF91CFE8
:101C7000281B390BA20EB31E68CFF7018389948904
:101C8000A589B68984179507A607B70738F4848114
:101C9000438B548B658B768B80688483F7018481BA
:101CA00083FD1AC0832D9D810F900F900F900F9090
:101CB0000F90DF91CF911F910F91FF90EF90DF90E8
:101CC000CF90BF90AF909F908F907F906F905F90DC
:101CD0004F903F902F90089561E0C7010E94A30AA2
:101CE000882309F456CFDECFCF93DF931F92CDB771
:101CF000DEB7698341E050E0BE016F5F7F4F0E9415
:101D0000D90C0F90DF91CF910895FC01DB01129661
:101D10008D919C911397938382838CE991E09183B9
:101D2000808314968C911497848315968C911597C3
:101D3000858316964D915D916D917C91199746839F
:101D40005783608771871A964D915D916D917C9153
:101D50001D9742875387648775871E964D915D91C5
:101D60006D917C91519746875787608B718B529606
:101D70008C915297828B53964D915D916D917C9190
:101D80005697438B548B658B768B57964D915D910F
:101D90006D917C915A97478B508F618F728F5B96B4
:101DA0008D919C91948F838F0895FC01818D928DEC
:101DB000009719F061E00C94A30A0895DC0159968C
:101DC000ED91FC913097B9F083899489A589B68902
:101DD0004285538564857585841B950BA60BB70BCF
:101DE000811520E89207A105B10538F08FEF9FE734
:101DF000A0E0B0E0089590E080E00895DC015996FD
:101E00008D919C91009739F0DC01ED91FC9104805B
:101E1000F581E02D099490E080E00895CF93DF9361
:101E2000EC01E98DFA8D309749F481E090E09B83D5
:101E30008A8390E080E0DF91CF910895138212822F
:101E4000898D9A8D0E94D90CE98DFA8D228133817A
:101E5000232B59F7F0CFCF93DF931F92CDB7DEB787
:101E60006983DC01ED91FC910280F381E02D41E07A
:101E700050E0BE016F5F7F4F09950F90DF91CF91CA
:101E800008952F923F924F925F926F927F928F921E
:101E90009F92AF92BF92CF92DF92EF92FF920F93F9
:101EA0001F93CF93DF9300D01F92CDB7DEB7FC0115
:101EB0008581811118C08FEF9FEF0F900F900F90C9
:101EC000DF91CF911F910F91FF90EF90DF90CF9016
:101ED000BF90AF909F908F907F906F905F904F904A
:101EE0003F902F900895848180FFE5CF43895489E6
:101EF0006589768982859385A485B585312C212CC9
:101F0000481759076A077B0719F022242394312CBC
:101F10006F012101CE0101963C01DF011696BB83C2
:101F2000AA834114510409F4C5C0F60142855385C2
:101F3000648575854A01F1E09F22D6015B968D91FB
:101F40009C915C978A019B01E9E03695279517954E
:101F50000795EA95D1F71596EC91E230E9F5FC0189
:101F6000628D738D848D958D600F711F821F931FFD
:101F7000A12C22E0B22EA818B9084A145B0408F478
:101F80005201F601248126FD04C0A114F2E0BF062F
:101F900071F400910A0110910B0120910C01309114
:101FA0000D01061717072807390709F05EC040E042
:101FB0000E94A105882309F47ECFC4018E509C4F56
:101FC000D3019C012A0D3B1DFC012E173F0709F48C
:101FD0006CC041914D93F9CFDC011496BC90BA943A
:101FE000B0228114910479F4B1100DC0452B462B19
:101FF000472B69F5F6018789908DA18DB28D868377
:102000009783A087B187D6015B96ED91FC915C9791
:1020100016966D917D918D919C91199762507109E1
:1020200081099109258504C0660F771F881F991FB4
:102030002A95D2F70685178520893189600F711F8F
:10204000821F931F6B0D711D811D911D91CFD601B4
:1020500016964D915D916D917C9119972A813B81E6
:102060000E94CF078111CFCF26CF73018501940144
:10207000AB01BC018091F0039091F1030E944204F6
:10208000882309F418CF6A0C7B1CF601828593859E
:10209000A485B5858A0D9B1DA11DB11D82879387DF
:1020A000A487B5874A185B083CCF281B390B620E02
:1020B000731EEBCF2A94232809F0FDCE898190E08E
:1020C000FCCEFC01818D928D009711F00C94410F94
:1020D0008FEF9FEF08950F931F93CF93DF93EC0142
:1020E000898D9A8D10E000E0009799F00E94410FD1
:1020F0008C010F3F100769F0898D9A8DFC01428594
:1021000053856485758541505109610971090E94A3
:102110000F09C801DF91CF911F910F9108950F937F
:102120001F930E9429026093E2067093E306809356
:10213000E4069093E5068AED96E00E946B1097FF07
:102140001DC00E9429020091E2061091E306209131
:10215000E4063091E506601B710B820B930B009136
:10216000DE061091DF062091E0063091E10660174F
:10217000710782079307F8F28FEF9FEF1F910F917E
:102180000895CF92DF92EF92FF92CF930E948F102B
:10219000FC0197FD4EC08D32910521F0C0970A9742
:1021A00008F040C0C12CD12C7601C0E0E130F1052F
:1021B000D1F0ED32F105D9F1CF01C0970A9798F42B
:1021C000AAE0B0E0A70196010E94BC336F01FF0FA7
:1021D000EE08FF08C60ED71EE81EF91E80E3C81AD7
:1021E000D108E108F1088AED96E00E9461100E9492
:1021F0008F10FC01C0970A97C8F2E130F105B1F2E7
:10220000CC2341F0F094E094D094C094C11CD11C34
:10221000E11CF11CC701B601CF91FF90EF90DF9058
:10222000CF9008958AED96E00E946110AFCFC1E093
:10223000DACFC12CD12C7601EDCF8FEF9FEF08952F
:1022400090E080E008950895EF92FF920F931F931E
:10225000CF93DF93DC015296ED90FC905397E114FD
:10226000F10479F481E090E013969C938E93129799
:1022700090E080E0DF91CF911F910F91FF90EF9060
:1022800008951D96ED91FC911E971C968C911C97BC
:10229000982F90950FB754962C915497122F127037
:1022A00021FD6095F8942081112319F1282B2083BA
:1022B000E7012197F1F728E0462F50E0308160FFD9
:1022C0001AC0382B3083E7012197F1F7BA017595D1
:1022D0006795215089F7112381F0808189238083BC
:1022E0000FBF52968D919C910197F1F781E090E09C
:1022F000C1CF2923DCCF3923E5CF9081892BEFCFC4
:1023000090E080E008950F931F93CF93DF9360E0F8
:1023100084E00E945F0160E082E10E945F0161E071
:1023200070E080E090E00E94F60161E082E10E94AE
:102330005F0161E070E080E090E00E94F60160E003
:1023400083E00E945F0161E070E080E090E00E9425
:10235000F60110E000E0C0919803D09199030C17AA
:102360001D07CCF461E082E00E945F0161E070E053
:1023700080E090E00E94F60160E082E00E945F0150
:102380008AE090E00E94C90161E083E00E945F0161
:102390000F5F1F4FE0CF209771F460E082E10E9451
:1023A0005F0161E070E080E090E00E94F60161E092
:1023B00082E10E945F010E9429026093840370936E
:1023C0008503809386039093870381E0809388033D
:1023D0001C161D0624F461E084E00E945F018091D8
:1023E0001401882319F081E0809307031092890378
:1023F0001092800310927F03DF91CF911F910F9174
:1024000008952F923F924F925F926F927F928F9298
:102410009F92AF92BF92CF92DF92EF92FF920F9373
:102420001F93CF93DF9300D000D000D01F92CDB781
:10243000DEB70E9429026093E0037093E10380936A
:10244000E2039093E303E0918C03F0918D032091DC
:102450008A0330918B033D832C83309198033F8313
:1024600070919903809192038E839091890399834F
:1024700060910E03809153039091540323E3422E05
:1024800023E0522EA9EDB2E0BB83AA838D01120195
:1024900050E040E0D1018D909D90AD90BD901D0128
:1024A00030E020E03A01BFEF6B1A7B0A750164014E
:1024B000022E04C0F694E794D794C7940A94D2F7F6
:1024C000C0FE24C0D801CD90DD90ED90FC90022E8E
:1024D00004C0F694E794D794C7940A94D2F7C0FE48
:1024E00003C0E130F10591F4D301A20FB31FBD8306
:1024F000AC838A179B0709F4ADC0CD01AF83792F58
:1025000060E0B1E0B983F0E0E0E01E822F5F3F4F72
:102510002032310559F6405E5F4F0C5F1F4F411569
:1025200021E0520709F0B6CF5093320340933103B4
:10253000AC81BD81B0938B03A0938A03BE81B0931D
:1025400092032F81209398037093990390935403DF
:1025500080935303F0938D03E0938C033981309380
:10256000890360930E03611149C0109232031092E7
:10257000310383E5C82E83E0D82E03E313E09924CA
:102580009394F12CE12CA0903103B09032038FEFA3
:10259000A81AB80AF80180819181A281B3810E2C1A
:1025A00004C0B695A795979587950A94D2F780FDB4
:1025B00015C02C813D81A216B30681F4809192034F
:1025C00081110CC0909292030E94290260938E03A5
:1025D00070938F038093900390939103B092320392
:1025E000A09231033FEFE31AF30A80E2E816F10408
:1025F00051F60C5F1F4FC016D10619F6F2018191FA
:102600009191A191B1912F01EA81FB8181939193E5
:10261000A193B193FB83EA83F3E54F16F3E05F06E2
:1026200069F727960FB6F894DEBF0FBECDBFDF91D6
:10263000CF911F910F91FF90EF90DF90CF90BF90BF
:10264000AF909F908F907F906F905F904F903F9052
:102650002F9008958F83792F58CF8091DA0390912E
:10266000DB032091DC03222331F001969093DB03FE
:102670008093DA0308952091690130916A01820FF5
:10268000931F9093DB038093DA036091150170919F
:102690001601269FA001279F500D369F500D112433
:1026A0004817590724F41092DB031092DA030895B7
:1026B000CF93DF93A0919803B0919903E3E3F3E004
:1026C000C3E1D3E080E091E02FE130E08A179B077F
:1026D000E4F4448D558D668D778D022E04C0769579
:1026E0006795579547950A94D2F740FF0EC090938F
:1026F000320380933103909399038093980381E090
:1027000080938903DF91CF9108950197215031097A
:10271000E8F63497CE17DF07B9F69093320380932B
:102720003103B0939903A093980310928903EACFE1
:10273000809198039091990390935403809353034D
:1027400081E080930E030E945813809189038111C8
:1027500006C08091310390913203892B31F0809132
:10276000980390919903892B41F480E091E0909334
:102770009903809398030E945813209198033091F5
:10278000990380910C0390910D03821793073CF4F9
:10279000109299031092980381E080938903089521
:1027A000CF92DF92EF92FF9260919803709199031C
:1027B0004091530350915403E3E3F3E090E080E051
:1027C00030E020E086179707A4F0C080D180E28037
:1027D000F380022E04C0F694E794D794C7940A9429
:1027E000D2F7C0FE06C0019684179507E1F4BA013E
:1027F000CA0101962F5F3F4F2032310519F73496F9
:1028000023E0E335F207E1F690933203809331033E
:10281000709399036093980310928903FF90EF904F
:10282000DF90CF900895909332038093310390937B
:1028300099038093980381E080938903EFCF80917F
:10284000980390919903909354038093530381E0EC
:1028500080930E030E94D01380918903811116C0CA
:1028600080913103909132038115914079F4109257
:102870009903109298030E94D013809189038111CB
:1028800005C080919703811110920E0380919803E7
:1028900090919903892B19F481E08093890308951D
:1028A0004F925F926F927F928F929F92AF92BF9260
:1028B000CF92DF92EF92FF920F931F936C010E94D1
:1028C000D1012B015C014B01F12CE12C87E0C81AEE
:1028D000D108E108F108F894439A88E090E00E945A
:1028E000C901439878948AE1880E911CA11CB11CFF
:1028F0000E94D1019B0124193509890130E020E0B3
:102900000C151D052E053F0534F4681579058A055B
:102910009B0570F3E0CF1F910F91FF90EF90DF9038
:10292000CF90BF90AF909F908F907F906F905F906F
:102930004F9008958F929F92AF92BF92CF92DF9265
:10294000EF92FF920F931F93CF93DF9300D000D0AD
:10295000CDB7DEB7FC018581813091F080E00F902A
:102960000F900F900F90DF91CF911F910F91FF90DB
:10297000EF90DF90CF90BF90AF909F908F90089591
:10298000848181FFEBCF83899489A589B689892BBE
:102990008A2B8B2B09F45FC07F0140E050E0BA0125
:1029A000CF010E940F098823C9F2F701C38CD48C90
:1029B0008788908CA18CB28C82E090E0A0E0B0E09F
:1029C000F60180839183A283B3839E012F5F3F4FE3
:1029D000B501A401C6010E94CF07882309F4BECF28
:1029E00000E010E09801B501A401C6010E942D0786
:1029F000882309F4B3CF89809A80AB80BC80F6012C
:102A00008789803119F188EF9FEFAFEFBFE088161B
:102A10009906AA06BB06C8F2F701178A108E118E16
:102A2000128E138A148A158A168A84818068848398
:102A300061E0C7010E94A30A882309F48FCF40E018
:102A400050E0BA01C7010E940F0989CF88EF9FEFBC
:102A5000A0E0B0E0DCCF81E082CFCF92DF92EF92B6
:102A6000FF921F93CF93DF93EC0180E2689FF00108
:102A70001124EE50FC4F9385917161F0842F827484
:102A800049F080E0DF91CF911F91FF90EF90DF90B0
:102A9000CF900895142F6A8B80910A0190910B01B9
:102AA000A0910C01B0910D018E879F87A88BB98BE7
:102AB000C488D588F12CE12C7601DD24CC24CF8A82
:102AC000D88EE98EFA8E828D938DB0E0A0E0AC01B5
:102AD000BD014C295D296E297F294F8B588F698F45
:102AE0007A8F8385887111F5848D958DA68DB78D2C
:102AF0008B8B9C8BAD8BBE8B81E08D83812F8F70F8
:102B00008C831E821F82188619861A861B861C8655
:102B10001D8681E016FFB6CFCE01DF91CF911F91C8
:102B2000FF90EF90DF90CF900C949A14803109F0D1
:102B3000A8CF9E012D5E3F4F8B8D9C8D0E9450082B
:102B4000882309F49ECF84E0D8CF8091F30690913A
:102B5000F406009761F00E943B0B8091F306909180
:102B6000F4060E94F9341092F4061092F3060895C8
:102B7000CF93DF93EC0188819981009711F00E9437
:102B8000F934198218821D821C821B821A82DF91FD
:102B9000CF910895FC0180819181009711F00C94F0
:102BA000F93408952091F9063091FA06DC01149663
:102BB000ED91FC9115972E173F07B0F04091F50667
:102BC0005091F6064115510579F06D917C91611592
:102BD000710551F02E1B3F0BCA01820F931F0E94FB
:102BE000603621E0892B09F020E0822F0895CF93F1
:102BF000DF93EC018091F5069091F6060097E9F0DD
:102C00006881798161157105B1F04091F7065091A5
:102C1000F8062C813D814217530768F00E946936FF
:102C20008C819D819093FA068093F9061D821C8207
:102C3000DF91CF9108950E94F93488819981909312
:102C4000F6068093F5068A819B819093F80680931F
:102C5000F7068C819D819093FA068093F90619827C
:102C600018821B821A82E2CFFB0101900020E9F753
:102C70003197AF01461B570BDC01ED91FC910280AF
:102C8000F381E02D09948F929F92AF92BF92EF92C1
:102C9000FF920F931F93CF93DF93CDB7DEB7A1972A
:102CA0000FB6F894DEBF0FBECDBF7C01FA01CB0199
:102CB00019A2223008F42AE08E010F5D1F4F822EE8
:102CC000912CB12CA12CBF01A50194010E942134AB
:102CD000F901CA016A300CF5605DD8016E938D016F
:102CE000232B242B252B79F790E080E0109721F0FF
:102CF000BD01C7010E943416A1960FB6F894DEBF3D
:102D00000FBECDBFDF91CF911F910F91FF90EF903C
:102D1000BF90AF909F908F900895695CDECFCF9267
:102D2000DF92EF92FF920F931F93CF93DF936B018C
:102D3000770FEE08FF084A30510511F52AE0F7FE3B
:102D400020C0EC01E881F9810190F081E02D6DE275
:102D500009958C0144275527BA014C195D096E0964
:102D60007F092AE0CE010E944316800F911FDF9158
:102D7000CF911F910F91FF90EF90DF90CF9008952A
:102D8000242FB701A601DF91CF911F910F91FF90E2
:102D9000EF90DF90CF900C94431668EC71E00C94A8
:102DA00034160C94341681E080936B0161E080E16D
:102DB0000E948D0160E080E10E945F018BEF96E050
:102DC0000E94CD166BEC71E08BEF96E00E94D1165D
:102DD0008BEF96E00C94CD16109299031092980305
:102DE00081E0809389030E94831162E080E10E9468
:102DF0008D018BEF96E00E94CD1660ED71E08BEFB8
:102E000096E00E94D1168BEF96E00C94CD160F93AE
:102E10001F93CF93DF93EC0188819981009759F03C
:102E20002A813B812617370730F081E0DF91CF916F
:102E30001F910F9108958B016F5F7F4F0E94823524
:102E4000009759F0998388831B830A832C813D81E5
:102E5000232B59F7FC011082E8CF80E0E7CFEF92F7
:102E6000FF920F931F93CF93DF93EC017B011982A5
:102E700018821B821A821D821C82FB010190002095
:102E8000E9F731978F01061B170BB8010E9407174E
:102E9000811109C0CE01DF91CF911F910F91FF9059
:102EA000EF900C94B8151D830C83B701888199812C
:102EB000DF91CF911F910F91FF90EF900C946936A5
:102EC000AF92BF92CF92DF92EF92FF920F931F9338
:102ED000CF93DF9300D0CDB7DEB78C015B01C42E5A
:102EE0006AEC71E00E942F17C5010E9437020C2C7A
:102EF000000CDD0897FD24C0C816D90609F18983A6
:102F00001A82F801E480F580FFEFEF1AFF0AB7019B
:102F1000C8010E940717882379F0F80120813181C8
:102F200084819581BE016F5F7F4F820F931F0E9446
:102F30006936F801F582E482C5010E943702DACFD2
:102F4000C8010F900F90DF91CF911F910F91FF90CB
:102F5000EF90DF90CF90BF90AF9008959F92AF9287
:102F6000BF92CF92DF92EF92FF920F931F93CF9376
:102F7000DF93CDB7DEB72B970FB6F894DEBF0FBE49
:102F8000CDBF7C01FC018581811115C0FE01319608
:102F9000CE010C966F0130E231938E179F07E1F757
:102FA000DA0130E087E09D91B92E992329F19E3214
:102FB00039F48A3011F480E0D3C038E08AE0F3CFEE
:102FC000ECE7F0E04491442321F031969413FACFDA
:102FD000F2CF831780F34FED490F4E3560F74FE97D
:102FE000490F4A3118F440EEB42EB90EF601E30F42
:102FF000F11DB0823F5FD7CF89818032E1F2A22EEE
:103000008B01FB01838D948DF701948F838FFB01DE
:1030100016821782108611861286138614861586EC
:10302000F80182859385A485B5854389548965898E
:10303000768984179507A607B70708F04CC025E0E6
:10304000B695A795979587952A95D1F7F82FFF7094
:103050009F2EF8018581823008F4ADCFC8010E940F
:10306000410F97FDA8CFF80182859385A485B5858A
:103070004F96A11DB11D82879387A487B587F0E283
:103080009F9EB00111246E507C4F6115710509F4AB
:1030900092CFFB018081882341F0853E09F04EC02C
:1030A000BB2029F0BB24B394BBCFB1100EC0F701F5
:1030B000928A80910A0190910B01A0910C01B0912C
:1030C0000D0186879787A08BB18BFB0180818111D1
:1030D000E9CFBB24B3948A2D8271823109F06BCF82
:1030E000BB2009F44FC0C7010E94EB05009709F40B
:1030F00062CF20E2FC0111922A95E9F72BE0F6015C
:10310000DC0101900D922A95E1F721E238E2FC0101
:10311000318B208B40E058E057874687338B228BDA
:10312000318F208F578B468B81E00E947605882354
:1031300009F441CF4A2DF70162890FC04BE050E0FE
:10314000C6010E943F36892B09F06ACF8A2D807311
:103150004A2D692D803309F42ECFC7010E942D1509
:103160002B960FB6F894DEBF0FBECDBFDF91CF9187
:103170001F910F91FF90EF90DF90CF90BF90AF9095
:103180009F900895F8018581823009F414CFC80119
:103190000E945C0C882309F40ECFF701128A82EF9B
:1031A00093E0A7CF5F926F927F928F929F92AF92A0
:1031B000BF92CF92DF92EF92FF920F931F93CF9324
:1031C000DF93CDB7DEB7C754D1090FB6F894DEBF91
:1031D0000FBECDBF5C013B0119A218A28CE991E0A2
:1031E0009F8F8E8F1BA21C821B829A8389831E82D3
:1031F00010E000E06E018EE1C80ED11C8BEBE82ED2
:1032000086E0F82EF501E00FF11F80818F3211F476
:103210000F5F1F4FD501A00FB11FFE01FB9690E07D
:1032200080E04F012D912F3249F0222339F00F5FBA
:103230001F4F019621938C309105A1F7880D991DA0
:10324000FC011082F501E00FF11F80818F3211F433
:103250000F5F1F4FF501E00FF11F508041E051104B
:1032600040E030E020E0B401C701F301099581118D
:1032700021C0FBEBEF16F6E0FF06C1F480E0C95B6E
:10328000DF4F0FB6F894DEBF0FBECDBFDF91CF91F9
:103290001F910F91FF90EF90DF90CF90BF90AF9074
:1032A0009F908F907F906F905F900895C7010E94CC
:1032B0003B0BE4CF552091F021E0A401B701C601FA
:1032C0000E94AE17982E8BEBE81686E0F80681F088
:1032D000C7010E943B0B911010C0D0CF9BEBE916A9
:1032E00096E0F90619F0C7010E943B0B81E0C7CFB9
:1032F000992021F2FE0131967F019E2D8F2D7601BE
:10330000C92ED82E7FCF1F93CF93DF93CDB7DEB7D3
:103310006D970FB6F894DEBF0FBECDBFAB011C8218
:103320001B822CE931E03A8329831E8221E0BC0113
:10333000CE0101960E94AE1711E081110CC010E081
:10334000812F6D960FB6F894DEBF0FBECDBFDF9113
:10335000CF911F910895CE0101960E943B0BF0CFB3
:10336000CF93DF93CDB7DEB76D970FB6F894DEBF7E
:103370000FBECDBF442399F1AB01BC011C821B825F
:103380008CE991E09A8389831E8222E0CE01019626
:103390000E94AE1781110EC090E081E0911101C032
:1033A00080E06D960FB6F894DEBF0FBECDBFDF9103
:1033B000CF910895CE0101960E949A14882361F35B
:1033C000CE0101960E94EB05009731F325EEFC013A
:1033D00020831E8281E00E947605982FDECF81E057
:1033E000E0CF8F929F92AF92BF92EF92FF920F9396
:1033F0001F93CF93DF93CDB7DEB7ED970FB6F89459
:10340000DEBF0FBECDBF8C017B011CA21BA28CE9CD
:1034100091E09AA389A31EA2C8010E948319811179
:10342000A0C023E3A701B801CE0181960E94AE1788
:10343000811116C090E081E0911101C080E0ED960D
:103440000FB6F894DEBF0FBECDBFDF91CF911F91B5
:103450000F91FF90EF90BF90AF909F908F90089545
:1034600081E08DA384E08EA3CE0181960E945C0C46
:10347000882301F361E0CE0181960E94A30A88238C
:10348000C9F2CE0181960E94EB05FC01892B91F2D5
:1034900080E1838780E2DE01119601900D928A958A
:1034A000E1F7FE013296CE010C9620E22193E81757
:1034B000F907E1F78EE2F82EF982ECADFDAD68ADCB
:1034C00079AD8AAD9BAD625071098109910925855D
:1034D00004C0660F771F881F991F2A95D2F786842C
:1034E0009784A088B188680D791D8A1D9B1D41E0D5
:1034F0000E94A105882309F49DCF80E2FE01319648
:10350000A2EFB3E001900D928A95E1F7FA82F801FB
:1035100085818250823000F14789508D618D728D96
:10352000CA019B013E8B2D8B9C8F8B8F80E2FE010D
:103530003196A2E1B4E001900D928A95E1F780E422
:1035400090E0A0E0B0E08BA79CA7ADA7BEA781E06C
:103550000E947605982F6FCF90E080E030E020E069
:10356000E1CF81E06CCFEF92FF920F931F93CF9347
:10357000DF93EC017B018A011B821A8288EE93E0C3
:10358000A0E0B0E08C839D83AE83BF8388EA91E0A6
:10359000998388838DE190E00E945D349A8F898FB2
:1035A000009779F02DE1F701DC0101900D922A9549
:1035B000E1F74CE050E0B801CE010C960E947E3657
:1035C000188EDF91CF911F910F91FF90EF9008958A
:1035D0002F923F924F925F926F927F928F929F9223
:1035E000AF92BF92CF92DF92EF92FF920F931F9311
:1035F000CF93DF93CDB7DEB7C756D1090FB6F89496
:10360000DEBF0FBECDBF5C013B01A6964FAFA697B4
:1036100019A218A28CE991E09F8F8E8F1BA21C82A9
:103620001B829A8389831E824E018EE1880E911C33
:10363000C4010E94BB0863018E010F5F1F4F24016C
:1036400018016FE270E0C6010E945536009709F438
:1036500059C0F60120812F3271F4FFEFCF1ADF0A33
:10366000902F812F8201492E582E942D852D2801CF
:10367000092F182FE6CF8C198D3008F08CE0E82E3A
:10368000F12CA701B601CE01885A9F4F0E947E36C9
:10369000E8E5F0E0EC0FFD1FEE0DFF1D1082C80104
:1036A0000E943B0B21E0AE01485A5F4FB201C801B6
:1036B0000E94AE17811120C01EAE1DAE8CE991E0B4
:1036C0009CAF8BAF21961FAE2197A896EEADFFADB4
:1036D000A8976E0E7F1EF3018081811120C0BE016C
:1036E000655C7F4FC1010E94850E46ED51E0B1013E
:1036F000C5010E94B31A31C0CE0CDF1CC2010E946A
:103700003B0BB3CFC60186199709A8969FAF8EAF22
:10371000A897B201CE01CB960E94850ED6CF19A2F2
:1037200018A28CE991E09F8F8E8F1BA221968FADFE
:10373000219781112DC0F5011382128288EE93E04A
:10374000A0E0B0E084839583A683B78388EA91E004
:1037500091838083128E118E1486C501C959DF4F63
:103760000FB6F894DEBF0FBECDBFDF91CF911F9192
:103770000F91FF90EF90DF90CF90BF90AF909F9010
:103780008F907F906F905F904F903F902F90089513
:10379000A6962FADA697A301BE01655C7F4FC4011D
:1037A0000E94AE17882339F2CE01CB960E943B0BC4
:1037B000A6968FADA6978670863039F449A95AA986
:1037C0006BA97CA9C4010E940F09B401C1010E9428
:1037D000850EA3018CCF1F93CF93DF93EC01162F9F
:1037E0000E94A633181739F0612FCE01DF91CF91D7
:1037F0001F910C94AE33DF91CF911F910895CF9319
:10380000DF9361E080E10E948D0160E080E10E9431
:103810005F01D0E0C0E06FEFCE010E94EB1B21966C
:10382000CF3F81E0D807B9F760910C0380E092E0C8
:103830000E94EB1BCCE0D0E062E080E10E948D01B1
:1038400060E170E080E090E00E94F60161E080E1DC
:103850000E948D0160E080E10E945F0160E170E004
:1038600080E090E00E94F601219731F762E080E16C
:103870000E948D0181E090E09093E5038093E40342
:103880001092300310922F03C2E0D0E08091E40345
:103890009091E503019709F082C08EE00E94360105
:1038A0009093300380932F0380912F0390913003E6
:1038B000892B99F38EE00E94360190933003809318
:1038C0002F0380912F0390913003019759F5809138
:1038D000D903882379F31092D90361E083E10E9430
:1038E0008D0160E083E10E945F016091D603862F25
:1038F00090E09093D5038093D4038FEF91E00E94E2
:10390000EB1B6091D703862F90E09093D3038093B5
:10391000D2038EEF91E00E94EB1B62E083E10E94F4
:103920008D01C8CF8EE00E943601909330038093C2
:103930002F0380912F0390913003892B99F361E03D
:1039400080E10E948D0160E080E10E945F0160E201
:1039500070E080E090E00E94F60162E080E10E9469
:103960008D01D093E503C093E40390CF8EE00E94D5
:1039700036019093300380932F0380912F03909111
:103980003003892B99F361E080E10E948D0160E0B2
:1039900080E10E945F011092E5031092E4038091A0
:1039A000E4039091E5030297C1F58EE00E94360191
:1039B0009093300380932F0380912F0390913003D5
:1039C0000197A1F68091D903882379F31092D90346
:1039D00061E083E10E948D0160E083E10E945F016C
:1039E0006091D603862F90E09093D5038093D40303
:1039F0008DEF91E00E94EB1B6091D703862F90E042
:103A00009093D3038093D2038CEF91E00E94EB1B41
:103A100062E083E10E948D01C8CF1092E50310920D
:103A2000E403DF91CF9108950C94A6338091DC03D9
:103A3000882309F466C08091810390918203892BC9
:103A4000B1F48091DB038F938091DA038F9388ED3B
:103A500091E09F938F9389EC92E09F938F930E94C4
:103A60008D360F900F900F900F900F900F908091C8
:103A70008103909182030197B1F48091DB038F93CE
:103A80008091DA038F9386EE91E09F938F9389EC78
:103A900092E09F938F930E948D360F900F900F901E
:103AA0000F900F900F90809199038F9380919803BE
:103AB0008F9383EF91E09F938F938EE993E09F9391
:103AC0008F930E948D3640E250E06EE973E08EEAFB
:103AD00093E00E94F33040E250E066ED71E08EEA40
:103AE00093E00E94D4300F900F900F900F900F90A2
:103AF0000F9040E250E069EC72E08EEA93E00C94A3
:103B0000D4302091DA033091DB032F5F3F4F809157
:103B1000980390919903A901480F591F5093D1031D
:103B20004093D00386509F4F820F931F9093CF03F3
:103B30008093CE03493F510534F028EF30E03093B5
:103B4000D1032093D003833F914034F082EF91E082
:103B50009093CF038093CE0308950F931F93CF9339
:103B6000DF930E94161D8091D903882309F4FDC1BB
:103B7000C091E403D091E503209709F0F6C11092BB
:103B8000D90361E083E10E948D0160E083E10E943E
:103B90005F0162E083E10E948D01809183038823AD
:103BA00031F08FEF90E09093800380937F038091BA
:103BB0006B01882309F4AAC11091D6038FEF91E01D
:103BC0000E94141D181308C01091D7038EEF91E0C6
:103BD0000E94141D181741F08091D603803489F596
:103BE0008091D7038B3069F58091D803813049F1FA
:103BF0000E9429026093C5027093C6028093C70297
:103C00009093C8028091C40281111BC021E02093CF
:103C1000C40220938903809198039091990301969F
:103C2000909399038093980320930E0320910C03A3
:103C300030910D032817390724F41092990310923C
:103C400098031091D6038DEF91E00E94141D181374
:103C500008C01091D7038CEF91E00E94141D181733
:103C600041F08091D603803481F58091D7038E3066
:103C700061F58091D803813041F10E94290260935F
:103C8000C5027093C6028093C7029093C8028091C8
:103C9000C40281111AC021E02093C4022093890339
:103CA0008091980390919903019790939903809341
:103CB000980320930E0397FF08C080910C03909106
:103CC0000D0390939903809398038091D6038034D9
:103CD000D9F48091D7038131B9F48091D803813030
:103CE00099F00E9429026093C5027093C6028093E6
:103CF000C7029093C8028091C402811105C081E07F
:103D00008093C4020E941F148091D6038034D9F49A
:103D10008091D7038031B9F48091D803813099F034
:103D20000E9429026093C5027093C6028093C70265
:103D30009093C8028091C402811105C081E08093F4
:103D4000C4020E9498138091D603803439F5809183
:103D5000D7038A3119F58091D8038130F9F00E9498
:103D600029026093C5027093C6028093C7029093A4
:103D7000C8028091C402811111C081E08093C40205
:103D80008BEF96E00E94CD166EEF71E08BEF96E020
:103D90000E94D1168BEF96E00E94CD168091D6033B
:103DA000803439F58091D703853419F58091D80393
:103DB0008130F9F00E9429026093C5027093C60217
:103DC0008093C7029093C8028091C402811111C0F0
:103DD00081E08093C4028BEF96E00E94CD1660E0F4
:103DE00072E08BEF96E00E94D1168BEF96E00E9476
:103DF000CD168091D603803439F58091D703823473
:103E000019F58091D8038130F9F00E94290260935E
:103E1000C5027093C6028093C7029093C802809136
:103E2000C402811111C081E08093C4028BEF96E03F
:103E30000E94CD1662E072E08BEF96E00E94D116F0
:103E40008BEF96E00E94CD168091D603803401F569
:103E50008091D7038334E1F48091D8038130C1F09D
:103E60000E9429026093C5027093C6028093C70224
:103E70009093C8028091C40281110AC081E08093AE
:103E8000C40290919703992309F4FFC010929703FD
:103E900011E08091D6038034A9F52091D703FE016B
:103EA000EE0FFF1FEE58FE4F8081918128171906F3
:103EB00049F50E9429026093C5027093C60280935F
:103EC000C7029093C8020E9429026093C0027093B7
:103ED000C1028093C2029093C3028091C4028111F7
:103EE00011C01093C402D093BF02C093BE02809150
:103EF000BC029091BD0201969093BD028093BC02DA
:103F00001093BB022196CA30D10519F68091D603D1
:103F1000803459F58091D7038D3439F58091D803D9
:103F2000813019F10E9429026093C5027093C60284
:103F30008093C7029093C8028091C402811115C07A
:103F400081E08093C40290916B01992309F4A0C091
:103F500010926B0180916B01811102C00E94EC16DE
:103F600080916B0181110E94D3160E942902009159
:103F7000C5021091C6022091C7023091C802601B91
:103F8000710B820B930B6E3771058105910510F053
:103F90001092C4028091BC029091BD0281309105C3
:103FA00009F079C08091BB02882351F08091BE0254
:103FB0009091BF029093BA028093B9021092BB0213
:103FC0000E9429020091C0021091C1022091C202F8
:103FD0003091C302601B710B820B930B61327340F3
:103FE0008105910508F44CC08091BC029091BD02FE
:103FF000181619060CF044C01092BD021092BC02B3
:104000002091B5023091B60244E6429FC001439F21
:10401000900D11244091B7025091B8026AE0649F5C
:104020009001659F300D1124820F931F2091B902DA
:104030003091BA02820F931F9093BF028093BE0209
:104040001092BA021092B9021092B8021092B702FE
:104050001092B6021092B50221E02093890390934A
:1040600099038093980320930E0320910C033091C1
:104070000D032817390724F43093990320939803EC
:10408000DF91CF911F910F9108958093970300CFF7
:1040900080936B015FCF8230910571F48091BB02F8
:1040A000882309F48DCF8091B9029091BA02909340
:1040B000B8028093B7027ACF8330910571F4809172
:1040C000BB02882309F47CCF8091B7029091B8029B
:1040D0009093B6028093B502E6CF04970CF470CFAC
:1040E0008091BB02882309F46BCF8091BE0290912E
:1040F000BF029093BA028093B9021092B802109254
:10410000B7021092B6021092B50281E090E090934F
:10411000BD028093BC0252CF2F923F924F925F928A
:104120006F927F928F929F92AF92BF92CF92DF92C7
:10413000EF92FF920F931F93CF93DF93CDB7DEB72C
:104140002E970FB6F894DEBF0FBECDBF80918103CE
:1041500090918203892B09F092C06CE670E082EFA7
:1041600095E00E9465028091D2039091D30340971D
:1041700034F46AE670E082EF95E00E946502609197
:10418000D2037091D30340E150E082EF95E00E94AA
:104190008F168091D4039091D503409734F468E64C
:1041A00070E082EF95E00E9465026091D403709107
:1041B000D50340E150E082EF95E00E948F1682EF38
:1041C00095E00E94CD160E94290260930803709327
:1041D000090380930A0390930B033090D2039091CC
:1041E000D303032D192F2091D4032B838091D50362
:1041F0002D878E873B9A34E03983432D40954F833A
:104200003886998720952A875D855B878C879EE60F
:10421000892E912CA12CB12C0E9429022B013C014A
:1042200080E093E20E9450148981843009F44AC0EE
:1042300080EC98E00E94C90180E392E00E94501453
:104240004981415049834423C1F00E942902DC0185
:10425000CB0184199509A609B7098E369105A105E8
:10426000B105D0F6A5019401281B390B4A0B5B0B55
:10427000CA01B9010E94F601CFCF0E94AD1D0E9474
:10428000290260939A0370939B0380939C039093FD
:104290009D032E960FB6F894DEBF0FBECDBFDF9103
:1042A000CF911F910F91FF90EF90DF90CF90BF9033
:1042B000AF909F908F907F906F905F904F903F90C6
:1042C0002F90089580E891E10E94C9012D853E85D7
:1042D0002F3F310561F158F12B843C853C830F3F22
:1042E000110549F140F158855D8389858E8320E26F
:1042F0002A8380E392E00E945014C22CDC80ED807F
:10430000FE8080E996E020FC02C080E392E00E94FB
:10431000C901F694E794D794C7942C2CDC82ED82E3
:10432000FE823A8131503A833111E3CF85CF2B8021
:104330004A854C83D4CF3D829F819E83D8CF0F93F3
:104340001F93CF93DF938091DF038093DE0310925E
:10435000DF038EE00E9436019093300380932F0399
:10436000892B19F481E08093DF0380916B01811127
:104370000AC00E94290260939A0370939B03809362
:104380009C0390939D03C091DF03C1110AC00E945A
:10439000290260939A0370939B0380939C039093EC
:1043A0009D038091E4039091E503892B09F060C09F
:1043B000CC2309F45FC00E94290200919A03109156
:1043C0009B0320919C0330919D03601B710B820B1A
:1043D000930B693B7B408105910530F081E090E0D3
:1043E0009093E5038093E4030E94290200919A03CD
:1043F00010919B0320919C0330919D03601B710BD6
:10440000820B930B613177428105910508F4B7C0A7
:104410008091DC0381114FC01092DB031092DA030C
:10442000D0E0C0E080911501909116018C179D0796
:104430000CF46EC00E94161D61E080E10E948D01A7
:1044400060E080E10E945F016FEF8091D003909166
:10445000D1030E94EB1B6FEF8091CE039091CF03AD
:104460000E94EB1B0E94AD1D0E942D132196DACFF6
:10447000C111BACF8091DE03882309F485C08091F1
:10448000E4039091E503892B09F07EC08091DD0360
:1044900081117AC080916B01811102C00E94D316F4
:1044A00080910603882309F474C0DF91CF911F9196
:1044B0000F910C941F140E94480B81E090E09093A0
:1044C000DB038093DA030E94161D8091DA0390913A
:1044D000DB03892BC9F060EB79E18EEA93E00E945F
:1044E000D2188091DA039091DB0301969093DB035D
:1044F0008093DA030E94161D63E879E18EEA93E067
:104500000E94D2188111E1CF8BEB96E00E943B0B09
:10451000CCE0D0E062E080E10E948D0160E170E0DB
:1045200080E090E00E94F60161E080E10E948D0150
:1045300060E080E10E945F0160E170E080E090E077
:104540000E94F601219731F71092E5031092E403DF
:104550008091980390919903019790939903809388
:1045600098031092DB031092DA030E9429026093F1
:104570009A0370939B0380939C0390939D03809177
:10458000DF03882309F476CFDF91CF911F910F913C
:10459000089521E0209389038091980390919903D5
:1045A0000196909399038093980320930E03209192
:1045B0000C0330910D032817390734F71092990333
:1045C00010929803E1CF80918303882341F08FEF0D
:1045D00090E09093800380937F030C949F21089533
:1045E0001F920F920FB60F9211242F933F938F9328
:1045F0009F93AF93BF938091E7039091E803A091BD
:10460000E903B091EA033091E60323E0230F2D374D
:1046100068F126E8230F0296A11DB11D2093E60341
:104620008093E7039093E803A093E903B093EA0330
:104630008091EB039091EC03A091ED03B091EE0318
:104640000196A11DB11D8093EB039093EC03A09301
:10465000ED03B093EE03BF91AF919F918F913F9186
:104660002F910F900FBE0F901F9018950196A11DCE
:10467000B11DD4CF1F920F920FB60F9211242F931A
:104680003F934F935F936F937F938F939F93AF93DA
:10469000BF93EF93FF9382EF95E00E940703FF9192
:1046A000EF91BF91AF919F918F917F916F915F91AA
:1046B0004F913F912F910F900FBE0F901F90189523
:1046C0001F920F920FB60F9211242F938F939F93E7
:1046D000EF93FF93E0910206F09103068081E09151
:1046E0000806F091090682FD1BC0908180910B069F
:1046F0008F5F8F7320910C06821741F0E0910B06BB
:10470000F0E0EE50FA4F958F80930B06FF91EF91FA
:104710009F918F912F910F900FBE0F901F90189522
:104720008081F4CF1F920F920FB60F9211242F9316
:104730003F934F935F936F937F938F939F93AF9329
:10474000BF93CF93EF93FF9386B1C09101039091F4
:104750000403C923982F9095C92380930103C0FFB8
:1047600005C0E0910E01F0910F010995C1FF05C050
:10477000E0910001F09101010995C2FF05C0E091AF
:104780000201F09103010995C3FF05C0E091040106
:10479000F09105010995C4FF05C0E0910601F09173
:1047A00007010995C5FF05C0E0910801F0910901D5
:1047B0000995FF91EF91CF91BF91AF919F918F910B
:1047C0007F916F915F914F913F912F910F900FBE0D
:1047D0000F901F9018951F920F920FB60F921124F1
:1047E0000F931F932F933F934F935F936F937F93F9
:1047F0008F939F93AF93BF93CF93EF93FF93C3B1E7
:104800000E94D1018B019C018091A6029091A70288
:10481000A091A802B091A902B901A801481B590BA7
:104820006A0B7B0BCA010093A6021093A702209388
:10483000A8023093A9022091AA02C1FD88C041308C
:1048400066E4560710F4211119C01092B40281E0F9
:104850008093AA02FF91EF91CF91BF91AF919F9169
:104860008F917F916F915F914F913F912F911F9108
:104870000F910F900FBE0F901F901895223069F581
:104880009C0120523D40213C3840C0F41092AB02C4
:104890001092B0021092B1021092B2021092B302C2
:1048A00081E090E0A0E0B0E08093AC029093AD0294
:1048B000A093AE02B093AF0283E0CACF8059964076
:1048C0008136944008F07FC08091AB02803208F4BA
:1048D0007AC081E08093B402EFCF243009F073C036
:1048E00088519140813C984008F06DC08091AC02A5
:1048F0009091AD02A091AE02B091AF02403654400B
:10490000A0F04091B0025091B1026091B20270915A
:10491000B302482B592B6A2B7B2B4093B002509348
:10492000B1026093B2027093B302880F991FAA1F5D
:10493000BB1F8093AC029093AD02A093AE02B093E4
:10494000AF028091AB028F5F8093AB02B5CF213075
:1049500039F480549A4181389141A8F582E078CFAA
:10496000233089F5885191408133924060F58091E0
:10497000AB02803220F48091B40280FF26C0809187
:10498000B10280959091B002981719F084E080935D
:10499000B4028091B30280959091B202981719F0F9
:1049A00084E08093B402789481E08093D90380916D
:1049B000B4028093D8038091B0028093D603809193
:1049C000B2028093D70380E043CF84E041CFCF92FF
:1049D000DF92EF92FF92CF93DF93E2EFF5E0138245
:1049E000128288EEC82E83E0D82EE12CF12CC482EE
:1049F000D582E682F7828AE891E09183808385EC14
:104A000090E09587848784EC90E09787868780EC98
:104A100090E0918B808B81EC90E0938B828B82EC89
:104A200090E0958B848B86EC90E0978B868B118E33
:104A3000128E138E148EEFE8F6E080E580831182EB
:104A4000E1E9F6E0158216821186138682E090E095
:104A5000A0E0B0E084879587A687B78713A215A644
:104A600014A68CE991E093A782A717A6CBEFD6E016
:104A70001B821A82CC82DD82EE82FF828AEB91E079
:104A8000998388831B8A1A8AEFE0F7E060816D7F43
:104A900060836695617081E0682786E00E945F010F
:104AA00061E086E00E948D01E2E4F1E0E491EC87B0
:104AB000EBE2F1E0E491F0E0EE0FFF1FE55EFE4F68
:104AC000859194919E878D876AEC71E085EF96E0E1
:104AD0000E942F17EAEDF6E013821282C482D5827B
:104AE000E682F78288EA91E091838083128E118EAC
:104AF0001486DF91CF91FF90EF90DF90CF900895D3
:104B0000CF93DF93CDB7DEB76B970FB6F894DEBFC8
:104B10000FBECDBF789484B5836084BD85B58360B6
:104B200085BD80916E00816080936E0082E08093ED
:104B3000810080918100816080938100809180005C
:104B40008160809380008091B10084608093B10087
:104B50008091B00081608093B00087E880937A00F4
:104B60001092C10040EF5DE761EF7DE7A2EFBDE786
:104B700003EF1DE784EFE82E8DE7F82E95EFC92EA1
:104B80009DE7D92E26EFA22E2DE7B22E27EF3DE787
:104B9000FA0184918335E1F7FB0184918635C1F7F1
:104BA000FD0184918335A1F7F8018491803281F76A
:104BB000F7018491823461F7F6018491813441F7E1
:104BC000F5018491823421F7F9018491893501F747
:104BD0000E9429026093E0037093E1038093E20353
:104BE0009093E30362E08EE00E948D0161E080E13A
:104BF0000E948D0162E083E10E948D0161E082E10B
:104C00000E948D0161E082E00E948D0161E083E0FD
:104C10000E948D0161E084E00E948D0161E087E0E7
:104C20000E948D0161E086E00E948D0161E085E0D7
:104C30000E948D0160E088E00E948D0162E08FE0BB
:104C40000E948D0160E084E00E945F0160E082E0EC
:104C50000E945F0160E083E00E945F0160E082E10A
:104C60000E945F0161E070E080E090E00E94F60148
:104C700061E082E10E945F0160E083E00E945F01E9
:104C800060E080E10E945F0160E085E00E945F01DA
:104C900060E087E00E945F0160E086E00E945F01C3
:104CA00061E070E080E090E00E94F60161E086E063
:104CB0000E945F01E0910206F091030682E080838A
:104CC000E091FE05F091FF051082E0910006F09161
:104CD00001068FEC808310920A06E0910606F0919F
:104CE000070686E08083E0910406F0910506808146
:104CF00088698083E0910406F091050680818F7DAC
:104D00008083219880916800816080936800E5E449
:104D1000F1E0E491E0936B000E94480B8111D8C050
:104D200064E072E082EF95E00E94341682EF95E035
:104D30000E94CD161092DC038BEB96E00E943B0B99
:104D400064E670E080E090E00E94F6016CE870E0BC
:104D500082EF95E00E9465022AE041E050E060E0C9
:104D600070E082EF95E00E9443166EE282EF95E0DC
:104D70000E9429032AE041E050E060E070E082EF09
:104D800095E00E9443162AE045E050E060E070E0C4
:104D900082EF95E00E94431664E670E080E090E0C8
:104DA0000E94F6016AE182EF95E00E94290382EFFA
:104DB00095E00E94CD1669E172E082EF95E00E94D5
:104DC000D116409110015091110160911201709122
:104DD00013012AE082EF95E00E94431682EF95E0EE
:104DE0000E94CD16DD24D39480910C0390910D0385
:104DF000892B09F0C1C000919803109199037801A3
:104E0000FFEFEF1AFF0AF0929903E0929803D09215
:104E1000890361E082E00E945F0161E070E080E070
:104E200090E00E94F60160E082E00E945F0161E094
:104E300083E00E945F0161E070E080E090E00E940A
:104E4000F6018FE00E9436019093300380932F0388
:104E5000019709F08CC061E083E10E948D0160E060
:104E600083E10E945F0110930D0300930C03093F3F
:104E70001105ECF761E070E080E090E00E94F6013F
:104E800029EFE216F1040CF4AFCF62E080E10E945A
:104E90008D0161E083E10E948D0160E083E10E9469
:104EA0005F0164EF71E080E090E00E94F60162E053
:104EB00083E10E948D0161E080E10E948D0160E04C
:104EC00080E10E945F0164EF71E080E090E0D6CF66
:104ED00081E08093DC0341E06FE072E0CE01019657
:104EE0000E94E81ACE0101960E94D60011E08AEDD8
:104EF00096E00E94DE0E892B09F41ECF4DE06AED8C
:104F000076E0CE0101960E946017CE0101960E94C4
:104F1000F715CE0101960E94CA1567E172E0CE0135
:104F200001960E942F17CE0101960E94D215082FDC
:104F3000CE0101960E94CA150111109306030E942A
:104F4000C11070936801609367010E94C1106115E0
:104F500071058105910541F0609310017093110175
:104F600080931201909313010E94A515C0CF62E0B7
:104F700083E10E948D017ECF61E070E080E090E0EF
:104F80000E94F601109299031092980381E0809399
:104F9000890362E083E10E948D0160E086E00E9467
:104FA0005F0160E170E080E090E00E94F60161E066
:104FB00086E00E945F0180E092E00E94141D90E074
:104FC0009093300380932F0360912F0370913003EF
:104FD00080910C0390910D036817790709F49FC025
:104FE00010E000E080912F0390913003081719071B
:104FF0000CF071C061E080E10E948D0160E080E111
:105000000E945F010E9429026B017C01C0929A03F9
:10501000D0929B03E0929C03F0929D030E94290290
:105020006C197D098E099F096C32714081059105CB
:1050300078F48EE00E943601892B81F70E94FF1BD5
:1050400080910C0390910D039093300380932F0374
:1050500020912F033091300380910C0390910D0328
:1050600028173907C1F162E080E10E948D010E949A
:1050700029026B017C01C0929A03D0929B03E092BB
:105080009C03F0929D030E9429026C197D098E09F0
:105090009F09683C71058105910578F48EE00E94B6
:1050A0003601892B81F70E94FF1B80910C039091A0
:1050B0000D039093300380932F0320912F033091A1
:1050C000300380910C0390910D032817390719F0D4
:1050D0000F5F1F4F87CF0E9429026B017C01C09296
:1050E0009A03D0929B03E0929C03F0929D030E944E
:1050F00029026C197D098E099F09683E734081055C
:10510000910508F061CF8EE00E943601892B79F776
:105110000E94FF1B80910C0390910D0351CF80E002
:1051200092E00E94EB1B60910C0370910D036F5F86
:105130007F4F70936A01609369018AEF90E00E944B
:105140000D346150710970931601609315010E942E
:1051500029026B017C01C0929A03D0929B03E092DA
:105160009C03F0929D038EE00E943601892B89F406
:1051700062E080E10E948D010E9429026C197D0984
:105180008E099F09613177428105910560F30E9484
:10519000FF1B61E080E10E948D0160E080E10E94E0
:1051A0005F010E94290260939A0370939B0380938E
:1051B0009C0390939D030E94290260938403709343
:1051C0008503809386039093870381E0809388030F
:1051D0008DE991E090930E0780930D0783EE92E2A4
:1051E00090930F0180930E0180910403816080935E
:1051F000040386B18093010380916C0081608093E9
:105200006C0080916800826080936800CC24C39415
:10521000D12C44244A94512C11E082EF95E00E9455
:10522000E702892B09F450C24AE062EF75E0CE0133
:1052300001960E946017CE0101960E94F715CE01DB
:1052400001960E94CA156090F5067090F6066114EA
:10525000710449F0E090F906F090FA065301E11468
:10526000F10409F0C6C36DE172E0CE0101960E941F
:105270002F17CE0101960E94D215082FCE0101965C
:105280000E94CA1501110E94D31662E272E0CE019B
:1052900001960E942F17CE0101960E94D215082F69
:1052A000CE0101960E94CA1501110E94EC16809150
:1052B0006B01882309F408C268E272E0CE0101960E
:1052C0000E942F17CE0101960E94D215082FCE0101
:1052D00001960E94CA150023C1F0109389038091A2
:1052E0009803909199030196909399038093980362
:1052F00010930E0320910C0330910D0328173907EA
:1053000024F410929903109298036DE272E0CE019A
:1053100001960E942F17CE0101960E94D215082FE8
:10532000CE0101960E94CA150023B9F0109389039B
:10533000809198039091990301979093990380939A
:10534000980310930E0397FF08C080910C0390916F
:105350000D03909399038093980364E372E0CE0168
:1053600001960E942F17CE0101960E94D215082F98
:10537000CE0101960E94CA1501110E941F1469E313
:1053800072E0CE0101960E942F17CE0101960E9475
:10539000D215082FCE0101960E94CA1501110E9454
:1053A000981360E472E0CE0101960E942F174D81A0
:1053B0005E818091F9069091FA068417950780F036
:1053C0008091F5069091F606009751F069817A81F7
:1053D0006115710529F00E94703601E0892B09F0F2
:1053E00000E0CE0101960E94CA15002309F46AC0AC
:1053F000A090F906B090FA06F1E18F2E912C81E190
:10540000A816B10420F04501A1E1AA2EB12C6AEC46
:1054100071E0CE0101960E942F17E090F906F090FE
:10542000FA06AE14BF0480F58E149F0408F47401CC
:10543000E091F506F091F606EE0DFF1D70801082EA
:105440008091F5069091F606A80EB91EA114B1043C
:1054500079F0F50101900020E9F731974F018A18A2
:105460009B08B401CE0101960E940717811100C369
:10547000CE0101960E94B8158091F5069091F6062E
:10548000E80EF91EF701708289819A81009709F46C
:10549000F7C20E94AD307093990360939803109304
:1054A000890310930E0320910C0330910D032617EE
:1054B000370724F43093990320939803CE01019683
:1054C0000E94CA1567E472E0CE0101960E942F1770
:1054D000CE0101960E94D215082FCE0101960E949E
:1054E000CA15002371F08BEF96E00E94CD166CE494
:1054F00072E08BEF96E00E94D1168BEF96E00E944F
:10550000CD1661E572E0CE0101960E942F17CE0103
:1055100001960E94D215082FCE0101960E94CA154D
:10552000002371F08BEF96E00E94CD1667E572E0E4
:105530008BEF96E00E94D1168BEF96E00E94CD167D
:105540006DE572E0CE0101960E942F17CE01019603
:105550000E94D215082FCE0101960E94CA15002381
:1055600071F08BEF96E00E94CD1662E672E08BEF51
:1055700096E00E94D1168BEF96E00E94CD1667E66A
:1055800072E0CE0101960E942F17CE0101960E9473
:10559000D215082FCE0101960E94CA15002371F082
:1055A0008BEF96E00E94CD166DE672E08BEF96E0F1
:1055B0000E94D1168BEF96E00E94CD1663E772E051
:1055C000CE0101960E942F17CE0101960E94D2159E
:1055D000082FCE0101960E94CA15002371F08BEFAF
:1055E00096E00E94CD1668E772E08BEF96E00E948D
:1055F000D1168BEF96E00E94CD166DE772E0CE01DA
:1056000001960E942F17CE0101960E94D215082FF5
:10561000CE0101960E94CA15002371F08BEF96E02F
:105620000E94CD1663E872E08BEF96E00E94D116DF
:105630008BEF96E00E94CD1669E872E0CE010196EC
:105640000E942F17CE0101960E94D215082FCE017D
:1056500001960E94CA15011110920E036FE872E0C4
:10566000CE0101960E942F17CE0101960E94D215FD
:10567000082FCE0101960E94CA15011110930E0346
:1056800064E972E0CE0101960E942F17CE010196C7
:105690000E94D215082FCE0101960E94CA15011151
:1056A0001093970369E972E0CE0101960E942F17CB
:1056B000CE0101960E94D215082FCE0101960E94BC
:1056C000CA150111109297031093140180916B0178
:1056D000882309F473C00E942902809008039090E7
:1056E0000903A0900A03B0900B03681979098A098D
:1056F0009B09613D77408105910528F4809107035E
:10570000882309F45BC066EB70E082EF95E00E94AD
:10571000650260910C0370910D034AE050E082EF46
:1057200095E00E948F1682EF95E00E94CD16809141
:105730000703882309F4A8C1109207030E942902D5
:10574000609308037093090380930A0390930B03FB
:1057500067EA70E082EF95E00E9465028BEF96E0C9
:105760000E94CD166FE972E08BEF96E00E94D11691
:1057700060919803709199034AE050E08BEF96E0B6
:105780000E948F1660919803709199034AE050E04F
:1057900082EF95E00E948F1682EF95E00E94CD1671
:1057A0008BEF96E00E94CD160E94290260930803B9
:1057B0007093090380930A0390930B030E94AD1D1D
:1057C00080916B01882309F4BBC08091980390916C
:1057D00099039093540380935303E3E36E2EE3E025
:1057E0007E2E5301F50111921192119211925F01D7
:1057F00083E593E08E179F07A9F760E086E00E949B
:105800005F0161E070E080E090E00E94F60161E0FD
:1058100086E00E945F0161E085E00E945F0160E137
:1058200070E080E090E00E94F60160E085E00E9478
:105830005F01109232031092310373E3E72E73E09D
:10584000F72E912C812C88E00E9436019093300332
:1058500080932F030197C9F4F70180819181A28180
:10586000B38141E050E060E070E0082C04C0440FD8
:10587000551F661F771F0A94D2F7842B952BA62BF2
:10588000B72B80839183A283B3838091310390915E
:1058900032030196909332038093310360E087E0F6
:1058A0000E945F018AE090E00E94C90161E087E008
:1058B0000E945F01FFEF8F1A9F0A20E28216910477
:1058C00011F684E0E80EF11CEA14FB0409F0B9CFEC
:1058D0005FE0252E53E0352E63E3A62E63E0B62E5F
:1058E0004101F40141915191619171914F01F50193
:1058F00081919191A191B1915F01481759076A0770
:105900007B0751F00E9429026093E0037093E1034A
:105910008093E2039093E303FBE28F16F3E09F068C
:1059200001F7F30181919191A191B1913F01F101B1
:1059300081939193A193B1931F016E147F0489F712
:105940000E949F2180916B01882309F40EC38091EE
:10595000E4039091E503019709F09CC162E080E1C6
:105960000E948D018091DF038111C1C08091DE030F
:10597000882309F4BCC00091DD0364E670E080E098
:1059800090E00E94F601002309F485C08091DC03B9
:105990008111B5C30E942D13F12CE12C8091DA0303
:1059A0009091DB036091690170916A010E940D344E
:1059B0006E157F050CF46FC06AEF70E080E090E038
:1059C0000E94F60161E080E10E948D0160E080E1CB
:1059D0000E945F0162E370E080E090E00E94F601C7
:1059E00062E080E10E948D01FFEFEF1AFF0AD6CF3F
:1059F000540145018FEF881A980AF5018081082E1D
:105A0000000C990B0E94F632892B91F7F1E0EF1A06
:105A1000F108E60CF71CF7018081082E000C990BA9
:105A20000E94F632892B39F0EA14FB0420F0F1E0F1
:105A3000EF1AF108F0CF2FEFE21AF20AA7014A1984
:105A40005B095093FA064093F9066A147B0420F42C
:105A5000B501C3010E944C36E091F506F091F606BF
:105A60008091F9069091FA06E80FF91F1082FBCB9E
:105A70009E828D82B50189819A810E946936FCCC13
:105A800060E070E0CB0107CD64E970E082EF95E063
:105A90000E94650277CE8091DD0381112DC06AEFEF
:105AA00070E080E090E00E94F60161E080E10E94F9
:105AB0008D0160E080E10E945F0164E670E080E0BB
:105AC00090E00E94F60162E080E10E948D01109357
:105AD000DD031092DB031092DA038091DC0388234C
