:100000000C94AC000C94D4000C94D4000C94EC230D
:100010000C9493230C94D4000C94D4000C94D4002E
:100020000C94D4000C94D4000C94D4000C94D40000
:100030000C94D4000C94D4000C94D4000C94D400F0
:100040000C94F1220C94D4000C9461230C943B2367
:100050000C94D4000C94D4000C94D4000C94D400D0
:100060000C94D4000C94D40030003000535653202C
:10007000495220434F4D4D414E443D007C3C3E5E35
:100080002B3D3F2F5B5D3B2C2A225C005356535F78
:1000900046575F005356532043555252454E542005
:1000A000494E5055543D00535653204E4557204914
:1000B0004E5055543D0053565320544F54414C20FC
:1000C000494E505554533D0044656C6179286D6923
:1000D0006C6C697365636F6E6473293D30004164B5
:1000E00064726573733D00436F6D6D616E643D00B6
:1000F0000000000023002600290000000009000382
:1001000002000004050800000000000000000000DC
:100110000000000000240027002A00000000002545
:100120000028002B00040404040404040402020256
:100130000202020303030303030202030102040891
:100140001020408001020408102001020408102041
:1001500040804000E824BF3011241FBECFEFD8E01C
:10016000DEBFCDBF27E0A6EAB2E001C01D92A631F6
:10017000B207E1F712E0A0E0B1E0E6EAFDE602C076
:1001800005900D92A63AB107D9F710E0CBEAD0E07E
:1001900004C02197FE010E946D34CA3AD107C9F705
:1001A0000E9481250C94C6360C940000CF93DF93F7
:1001B000FC01828193819093DF068093DE06848127
:1001C0009581A681B7818093E0069093E106A09384
:1001D000E206B093E30680859185A285B38580937E
:1001E000E4069093E506A093E606B093E706DF01E8
:1001F0001C96CF014996C8EED6E02D912993A817F9
:10020000B907D9F7818D928D9093F6068093F50604
:100210008CED96E0DF91CF910895843081F028F441
:100220008230E9F08330F9F00895883071F0893038
:1002300091F08530B9F4809180008F7D03C080916A
:1002400080008F778093800008958091B0008F7731
:100250008093B00008958091B0008F7DF9CF84B570
:100260008F7784BD089584B58F7DFBCFCF93DF93C7
:10027000282F30E0F901E650FF4F8491F901E45C4A
:10028000FE4FD491F901EB5DFE4FC491CC23A1F058
:1002900081110E940D01EC2FF0E0EE0FFF1FE051E5
:1002A000FF4FA591B491EC91ED2381E090E009F42A
:1002B00080E0DF91CF91089580E090E0FACF1F9326
:1002C000CF93DF93282F30E0F901E650FF4F849160
:1002D000F901E45CFE4FD491F901EB5DFE4FC4914E
:1002E000CC23A9F0162F81110E940D01EC2FF0E014
:1002F000EE0FFF1FE55EFE4FA591B4918FB7F89406
:10030000EC91111108C0D095DE23DC938FBFDF91F3
:10031000CF911F910895DE2BF8CFCF93DF9390E01C
:10032000FC01E45CFE4F24918B5D9E4FFC018491A7
:100330008823C9F090E0880F991FFC01EF5EFE4F03
:10034000A591B491FC01E55EFE4FC591D491611178
:100350000DC09FB7F8948C91209582238C9388814F
:10036000282328839FBFDF91CF910895623051F4F5
:100370009FB7F8943C91822F809583238C93E881DA
:100380002E2BEFCF8FB7F894EC912E2B2C938FBFA1
:10039000EACF880F991F880F991F05970197F1F7EA
:1003A00008953FB7F8948091ED039091EE03A091EA
:1003B000EF03B091F00326B5A89B05C02F3F19F0BD
:1003C0000196A11DB11D3FBFBA2FA92F982F8827D5
:1003D000BC01CD01620F711D811D911D42E0660FB0
:1003E000771F881F991F4A95D1F708958F929F9282
:1003F000AF92BF92CF92DF92EF92FF926B017C019E
:100400000E94D1014B015C01C114D104E104F1044B
:10041000B9F00E94D101681979098A099B09683EDF
:1004200073408105910580F321E0C21AD108E108EB
:10043000F10888EE880E83E0981EA11CB11CE4CF61
:10044000FF90EF90DF90CF90BF90AF909F908F90F4
:1004500008952FB7F8946091E9037091EA038091B1
:10046000EB039091EC032FBF0895089508950F9327
:100470001F93CF93DF93EC010E942902688779874D
:100480008A879B87E881F9810284F385E02DCE017C
:10049000099597FF15C00E942902088519852A85AC
:1004A0003B85601B710B820B930B0C811D812E8190
:1004B0003F81601771078207930720F38FEF9FEF4B
:1004C000DF91CF911F910F910895EF92FF920F93BB
:1004D0001F93CF93DF938C017B01D0E0C0E0F70145
:1004E000EC0FFD1F6491662361F0D801ED91FC9142
:1004F0000190F081E02DC8010995892B11F021961A
:10050000EECFCE01DF91CF911F910F91FF90EF9031
:100510000895AF92BF92CF92DF92EF92FF920F9326
:100520001F93CF93DF936C017B018B01040F151F89
:10053000EB015E01AE18BF08C017D10759F06991F1
:10054000D601ED91FC910190F081E02DC601099555
:10055000892B79F7C501DF91CF911F910F91FF9002
:10056000EF90DF90CF90BF90AF900895FC01538D36
:10057000448D252F30E0842F90E0821B930B54177D
:1005800010F0CF96089501970895FC01918D828D0A
:10059000981761F0A28DAE0FBF2FB11D5D968C91A3
:1005A000928D9F5F9F73928F90E008958FEF9FEFE2
:1005B0000895FC01918D828D981731F0828DE80F9E
:1005C000F11D858D90E008958FEF9FEF0895FC0158
:1005D000918D228D892F90E0805C9F4F821B910925
:1005E0008F739927089584EF95E00E94E70221E038
:1005F000892B09F420E0822F089580E090E0892B78
:1006000029F00E94F30281110C9400000895FC016E
:10061000A48DA80FB92FB11DA35ABF4F2C91848D63
:1006200090E001968F739927848FA689B7892C93C0
:10063000A089B1898C91837080648C93938D848D13
:10064000981306C00288F389E02D80818F7D808316
:100650000895EF92FF920F931F93CF93DF93EC01D6
:1006600081E0888F9B8D8C8D98131AC0E889F98959
:10067000808185FF15C09FB7F894EE89FF8960835C
:10068000E889F98980818370806480839FBF81E0DD
:1006900090E0DF91CF911F910F91FF90EF9008951F
:1006A000F62E0B8D10E00F5F1F4F0F731127E02EFA
:1006B0008C8D8E110CC00FB607FCFACFE889F98932
:1006C000808185FFF5CFCE010E940703F1CFEB8D2E
:1006D000EC0FFD2FF11DE35AFF4FF0829FB7F89406
:1006E0000B8FEA89FB8980818062CFCFCF93DF9324
:1006F000EC01888D8823B9F0AA89BB89E889F9893A
:100700008C9185FD03C0808186FD0DC00FB607FC6E
:10071000F7CF8C9185FFF2CF808185FFEDCFCE01A1
:100720000E940703E9CFDF91CF9108958FB7F89426
:100730008091FA028FBF089561E0FC0184810E94DC
:100740005F018091F90281111092F90208958EBD26
:1007500000000DB407FEFDCF8EB508958FEF0C9409
:10076000A7030F931F93CF93DF93EC010E942902FD
:100770008B010E94AE038F3F69F00E942902601B2B
:10078000710B6C177D07A8F380E0DF91CF911F916B
:100790000F91089581E0F9CF8CBD9DBD0895CF9351
:1007A000DF93EC018091F902811109C081E080930F
:1007B000F90280919106909192060E94CC0360E02C
:1007C0008C81DF91CF910C945F018F929F92AF92B9
:1007D000BF92FF920F931F93CF93DF93EC01F62EFE
:1007E00049015A018E81882389F08F8198859C0167
:1007F0002F5F3F4F38872F838230924018F40E943A
:10080000AE03F3CFCE010E949C031E82CE010E9454
:10081000CF038CE291E00E94B1038F2D80640E948F
:10082000A70308E110E0D501C401002E04C0B6956D
:10083000A795979587950A94D2F70E94A703085029
:100840001109083F8FEF180771F785E9FF2021F0A4
:1008500028E087E8F2128FEF0E94A70310E00E94C1
:10086000AE038A8787FF04C01F3F11F01F5FF7CFD9
:10087000DF91CF911F910F91FF90BF90AF909F900C
:100880008F900895AF92BF92CF92DF92EF92FF9236
:100890000F931F93CF93DF93EC016901C801820F7F
:1008A000931F8130924050F58E81882379F08881A2
:1008B0009981AA81BB8184179507A607B70731F4F0
:1008C0008F819885C816D90608F042C0488359839D
:1008D0006A837B838B85833039F089E0440F551F11
:1008E000661F771F8A95D1F79A01AB0161E1CE01AE
:1008F0000E94E503882389F083E08D83CE010E9466
:100900009C0380E0DF91CF911F910F91FF90EF90BA
:10091000DF90CF90BF90AF9008950E9429025B01B5
:100920000E94AE038A878F3F69F40E9429026A19E8
:100930007B096D327140A0F38FE08D83CE010E9460
:100940009C03DCCF8E3F89F418861F8281E08E8362
:100950008F8198858C159D0550F40E94AE038F8180
:100960009885019698878F83F3CF8DE0E6CF670156
:10097000E00EF11E0E94AE03F60181936F01EE15A9
:10098000FF05C1F78F819885080F191F18870F83FE
:100990008985882319F001151240A0F08E818823E3
:1009A00089F08F8198859C012F5F3F4F38872F8377
:1009B0008230924018F40E94AE03F3CFCE010E9421
:1009C0009C031E8281E09ECFCF92DF92EF92FF9236
:1009D0000F93CF93DF93EC01690182E1411551053B
:1009E0006105710599F08B85833039F089E0440FFA
:1009F000551F661F771F8A95D1F79A01AB0168E1F1
:100A0000CE010E94E503882319F084E08D832DC078
:100A10008EEF0E94A70376018EEFD81AF70181911D
:100A20007F010E94A703EC14FD04C1F78FEF0E9421
:100A3000A7038FEF0E94A7030E94AE038A878F71DE
:100A4000853071F4011116C0CE010E949C0381E033
:100A5000DF91CF910F91FF90EF90DF90CF900895AD
:100A600081E18D83CE010E949C03CE010E949C03F4
:100A700080E0EECF88E592E00E94B103811102C0D0
:100A800085E1C4CF20E030E0A9016DE0CE010E94F5
:100A9000E503882311F084E1B9CF0E94AE038111F0
:100AA000FACFD2CF0F934091FC025091FD0260919A
:100AB000FE027091FF02411551056105710599F023
:100AC000082F24EF33E08091F2039091F3030E940A
:100AD000E404882349F01092FC021092FD02109267
:100AE000FE021092FF0281E00F9108950F93CF93C1
:100AF000C82F8091FB02811105C0C1E08C2FCF91DE
:100B00000F91089540910A0150910B0160910C01E1
:100B100070910D010C2F24EF33E08091F20390913E
:100B2000F3030E94E404811102C0C0E0E7CFCC23AC
:100B300021F381E00E9452058823B9F31092FB0251
:100B4000DDCF8F929F92AF92BF92EF92FF920F9361
:100B50001F93CF934B015C01C42F80910A019091A8
:100B60000B01A0910C01B0910D0188159905AA0502
:100B7000BB0551F181E00E94760581110BC080E038
:100B8000CF911F910F91FF90EF90BF90AF909F90EA
:100B90008F90089584EFE82E83E0F82E00E012E0B5
:100BA00030E020E0B501A4018091F2039091F303BD
:100BB0000E944204882319F380920A0190920B014B
:100BC000A0920C01B0920D014091FB024C2B40937E
:100BD000FB0281E0D5CFCF93DF93EC016E857F855B
:100BE0008889998941E00E94A105882351F08A896A
:100BF00020E2829FC00111248C509C4FDF91CF9145
:100C0000089590E080E0FACF8F929F92AF92BF92CA
:100C1000CF92DF92EF92FF92CF9323E936E03093A9
:100C2000F3032093F203882309F46DC040E060E0F1
:100C300070E0CB010E94A10581110BC080E0CF9133
:100C4000FF90EF90DF90CF90BF90AF909F908F90EC
:100C500008958091B2058F7789F78091BE059091B4
:100C6000BF05A091C005B091C10584369105A105CD
:100C7000B10520F3C090BA05D090BB05E090BC054B
:100C8000F090BD05C114D104E104F104B9F240E0D3
:100C9000C701B6010E94A105882381F28091FF035C
:100CA000909100048115924049F6A0910404AA2372
:100CB00029F260910204709103046115710509F431
:100CC000BDCF20910104222309F4B8CFA093B1062F
:100CD0002093A30690E080E030E0E1E0F0E0C82F50
:100CE000AF01082E02C0440F551F0A94E2F72417E3
:100CF000350769F041E0480F01968930910579F791
:100D00004093AC069BCFC12CD12C7601C0CF8093F1
:100D1000AC0620910A0430910B0450E040E021150C
:100D2000310541F4209118043091190440911A04BE
:100D300050911B042093A4063093A5064093A60669
:100D40005093A70646015701860E971EA11CB11CA1
:100D50008092B2069092B306A092B406B092B50605
:100D6000E0910504F0910604F093B806E093B7060D
:100D7000B0E00E94D233DC01CB01880D991DAA1D81
:100D8000BB1D8093B9069093BA06A093BB06B0939F
:100D9000BC0625E0EE0FFF1F2A95E1F7E150FE4F5C
:100DA000EF2FFF27E6958E0F9F1FA11DB11D80938A
:100DB000AD069093AE06A093AF06B093B0068090B8
:100DC000070490900804B12CA12C8114910441F4E3
:100DD0008090140490901504A0901604B09017040D
:100DE000C81AD90AEA0AFB0AC80CD91CEA1CFB1C5F
:100DF00004C0F694E794D794C794CA95D2F7C092EA
:100E0000A806D092A906E092AA06F092AB0685EF5A
:100E1000C8168FE0D806E104F10428F48CE0809332
:100E2000B60681E00CCF80E125EFC2162FEFD20687
:100E3000E104F104A0F38091200490912104A09199
:100E40002204B09123048093B9069093BA06A0932C
:100E5000BB06B093BC0680E2E2CF4F925F926F92E6
:100E60007F928F929F92AF92BF92CF92DF92EF923A
:100E7000FF920F931F93CF93DF93EC014230510504
:100E80006105710590F480E0DF91CF911F910F9182
:100E9000FF90EF90DF90CF90BF90AF909F908F909A
:100EA0007F906F905F904F90089589859A85AB856C
:100EB000BC850196A11DB11D84179507A607B7072C
:100EC00010F3CB88DC88ED88FE888F89803109F0AB
:100ED00042C0BB27A72F962F852F480159012A0111
:100EE0003B01C80ED91EEA1EFB1E80910A0190919B
:100EF0000B01A0910C01B0910D01C816D906EA06AC
:100F0000FB0699F58F898031C1F5B301A201552700
:100F100066277727440F551F4C505C4FFA0191828A
:100F200080828091FB0281608093FB028A898230FB
:100F300080F08D819E81AF81B8858C0D9D1DAE1D89
:100F4000BF1D8093FC029093FD02A093FE02B0931C
:100F5000FF0281E099CFDB01CA01E7E0B695A795D2
:100F600097958795EA95D1F7B8CF40E0C701B601CC
:100F70000E94A1058111C6CF86CFB301A2014F7790
:100F8000552766277727440F551F440F551F4C5090
:100F90005C4FFA0180829182A282B382C2CF8F928B
:100FA0009F92AF92BF92CF92DF92EF92FF920F93F8
:100FB0001F93CF93DF93FC0181859285A385B48530
:100FC0000196A11DB11D84179507A607B70770F4F8
:100FD00080E0DF91CF911F910F91FF90EF90DF9014
:100FE000CF90BF90AF909F908F9008958388948802
:100FF000A588B6888789803189F5BB27A72F962FCA
:10100000852FE9016A017B018F01BC01CD01680DCB
:10101000791D8A1D9B1D80900A0190900B01A09064
:101020000C01B0900D0186169706A806B90601F5C9
:10103000F8018789803111F5DD24EE24FF24F601C3
:10104000EE0FFF1FEC50FC4F80819181B0E0A0E0DB
:1010500088839983AA83BB8381E0BBCFDB01CA016C
:10106000C7E0B695A79597958795CA95D1F7C9CF4B
:1010700040E00E94A1058111DBCFAACFE894C7F818
:10108000DD24EE24FF24F601EE0FFF1FEE0FFF1FFD
:10109000EC50FC4F80819181A281B381BF70D8CF89
:1010A0004F925F926F927F92AF92BF92CF92DF92F8
:1010B000EF92FF920F931F93CF93DF9300D000D056
:1010C000CDB7DEB78C0149835A836B837C8359018A
:1010D000C12CD12C7601412C82E0582E612C712C30
:1010E00049815A816B817C819E012F5F3F4FC801EE
:1010F0000E94CF07882339F1F8018585A301920169
:1011000004C0220F331F441F551F8A95D2F7DA01FE
:10111000C901C80ED91EEA1EFB1E49815A816B8186
:101120007C818789803111F188EF9FEFAFEFBFE0BD
:10113000481759076A077B0798F2F501C082D182E8
:10114000E282F38281E00F900F900F900F90DF9179
:10115000CF911F910F91FF90EF90DF90CF90BF90B4
:10116000AF907F906F905F904F90089588EF9FEFC2
:10117000A0E0B0E0DDCFCF93DF93FC0125812223F7
:1011800021F080E0DF91CF910895EC018091B606C7
:10119000803159F582E08583178A108E118E128E68
:1011A0008091B7069091B806B0E0A0E025E0880FE6
:1011B000991FAA1FBB1F2A95D1F7838B948BA58BF0
:1011C000B68B8FE996E09C8F8B8F81E08C831E829B
:1011D0001F82188619861A861B861C861D861E8607
:1011E0001F86188A198A1A8ACDCF803251F683E079
:1011F00085834091B9065091BA066091BB06709103
:10120000BC06478B508F618F728F9F012D5E3F4FC1
:101210008FE996E00E9450088111D3CFB2CF8F9210
:101220009F92AF92BF92CF92DF92EF92FF920F9375
:101230001F93CF93DF93EC018D8181110EC080E06D
:10124000DF91CF911F910F91FF90EF90DF90CF90A2
:10125000BF90AF909F908F9008950B891C892D8926
:101260003E89041715072607370748F34A015B0133
:10127000823031F48A869B86AC86BD8681E0E0CFE1
:1012800081149104A104B10449F41E821F821886BE
:1012900019861A861B861C861D86F0CF0A851B853B
:1012A0002C853D85EB8DFC8D858590E00996B901F7
:1012B000A8014150510961097109082E04C07695B1
:1012C0006795579547950A94D2F775016401E1E057
:1012D000CE1AD108E108F10804C0F694E794D79437
:1012E000C7948A95D2F7C416D506E606F70620F00D
:1012F000012B022B032B11F58F89988DA98DBA8DA7
:101300008E839F83A887B9878E010A5F1F4FC11400
:10131000D104E104F10409F4ADCF4E815F81688509
:10132000798598018B8D9C8D0E94CF0791E0C91A19
:10133000D108E108F1088111EACF81CFC41AD50A9A
:10134000E60AF70AE1CF3F924F925F926F927F9247
:101350008F929F92AF92BF92CF92DF92EF92FF92C5
:101360000F931F93CF93DF93CDB7DEB72C970FB6B4
:10137000F894DEBF0FBECDBF5C01DC015B968D90A3
:101380009C905C9716964D905D906D907C9019970F
:10139000411451046104710409F468C0BFEF4B1A91
:1013A0005B0A6B0A7B0A312CF40181859285A38547
:1013B000B4859C01AD012F5F3F4F4F4F5F4F298791
:1013C0003A874B875C87730162011D821E821F82F0
:1013D0001886F40181859285A385B4852D813E818F
:1013E0004F815885281739074A075B0708F056C010
:1013F00089859A85AB85BC858C159D05AE05BF0595
:1014000050F482E0C82ED12CE12CF12C92E0492E30
:10141000512C612C712C9E012F5F3F4FB701A6010B
:10142000C4010E94CF078823C9F189819A81AB81C9
:10143000BC81892B8A2B8B2B09F1260137019FEF69
:10144000491A590A690A790A2D813E814F815885C6
:101450002F5F3F4F4F4F5F4F2D833E834F83588702
:101460003FEFC31AD30AE30AF30AB3CFF401408073
:101470005180628073803324339496CFC414D50492
:10148000E604F70409F70FEF1FEF2FEF3FE0B70176
:10149000A601C4010E942D07811119C080E02C967D
:1014A0000FB6F894DEBF0FBECDBFDF91CF911F9175
:1014B0000F91FF90EF90DF90CF90BF90AF909F90F3
:1014C0008F907F906F905F904F903F900895D501DF
:1014D00016964D915D916D917C911997411551052D
:1014E0006105710539F097018601C4010E942D073D
:1014F0008823A1F2D5011696CD92DD92ED92FC9251
:101500001997332051F0D701C6010196A11DB11DD5
:10151000F40180839183A283B383F5018789908D41
:10152000A18DB28D892B8A2B8B2B39F48481C78AAC
:10153000D08EE18EF28E80688483F5018481806292
:10154000848381E0ACCF1F93CF93DF93FC0125818F
:10155000222371F1162FEC01848187FF1EC0CF0179
:101560000E94EB05FC01892B19F18D81823040F43A
:101570008B899C89AD89BE89848F958FA68FB78F03
:101580008F89988D938F828F8F89988DA98DBA8D31
:10159000B58BA48B8C818F778C83111103C08C81C8
:1015A0008F7E8C83812FDF91CF911F910C947605D4
:1015B00080E0DF91CF911F910895FF920F931F93C9
:1015C000CF93DF93EC018D81813041F090E080E09A
:1015D000DF91CF911F910F91FF9008958C8181FF32
:1015E000F5CF82FD1BC00091F2031091F303C801F7
:1015F0000E94CF030E94AE03F82EC8010E949C03F4
:101600008FEFF812E3CF8C8185FF1BC060E0CE0125
:101610000E94A30A8C818F7D8C83D8CF4B895C89F3
:101620006D897E898A859B85AC85BD8584179507E4
:10163000A607B707C1F2CE010E940F098111D3CFCF
:10164000C5CF4091FC025091FD026091FE02709165
:10165000FF02452B462B472B21F080E00E945205CC
:10166000B5CF80618C832A853B85317080E092E024
:10167000821B930BADCFCF93DF93EC0161E00E940F
:10168000A30A882311F01D8281E0DF91CF91089594
:10169000CF92DF92EF92FF921F93CF93DF938091CF
:1016A000C206882321F08DEB96E00E943B0B10923E
:1016B0009E0610929C0610929906109298068AE057
:1016C000809397060E942902EB0161E080919706C2
:1016D0000E948D0161E0809197060E945F011FB713
:1016E000F8948091F103811127C0EFE2F1E0849139
:1016F000E6E4F1E09491E82FF0E0EE0FFF1FEF5EDB
:10170000FE4FA591B491EC91E92321F461E08AE0C8
:101710000E945F0161E08AE00E948D018CB58061CA
:101720008CBD8CB580648CBD61E08DE00E948D0124
:1017300061E08BE00E948D018091F1038F5F8093C7
:10174000F1031FBF82E5809391061092920680916B
:101750009106909192060E94CC031AE08FEF0E94AE
:10176000A7031150D9F783E996E00E94CF0320E048
:1017700030E0A90160E083E996E00E94E503182FBC
:1017800080939D06813081F00E9429026C1B7D0BA5
:10179000613D774060F381E08093980683E996E0AD
:1017A0000E949C0390E078C02AEA31E040E050E0DB
:1017B00068E083E996E00E94E50382FF2AC0109367
:1017C0009E0680919E06C12CD12C7601823029F490
:1017D000C12CD12CE12C80E4F82E20E030E0A901CE
:1017E00067E383E996E00E94E503A701960169E2B9
:1017F00083E996E00E94E50380939D068823C1F06B
:101800000E9429026C1B7D0B613D774030F388E01C
:10181000C3CF14E00E94AE0380939D061150D1F710
:101820008A3A11F082E0B8CF82E080939E06C9CF59
:1018300080919E068230D1F420E030E0A9016AE375
:1018400083E996E00E94E503882311F086E0A4CFA7
:101850000E94AE03807C803C19F483E080939E0656
:101860000E94AE030E94AE030E94AE0383E996E09D
:101870000E949C0380E5809391061092920681E07D
:101880000E940406882389F08DEB96E00E94BB0835
:1018900091E0882309F486CF892FDF91CF911F91A2
:1018A000FF90EF90DF90CF90089580E00E940406B3
:1018B000882309F477CFE8CF8F929F92AF92BF929F
:1018C000CF92DF92EF92FF92CF93DF93EC010E94D1
:1018D000A30981110CC080E0DF91CF91FF90EF90C0
:1018E000DF90CF90BF90AF909F908F900895EB8D39
:1018F000FC8DCE80DF80E884F98482E0C81AD108AC
:10190000E108F108858504C0CC0CDD1CEE1CFF1C31
:101910008A95D2F786859785A089B189C80ED91E88
:10192000EA1EFB1E848146015701880E911CA11CF2
:10193000B11CC814D904EA04FB04F9F081E0881A48
:101940009108A108B10881E00E947605882319F268
:10195000E4EFF3E0119285E0E43FF807D9F78092D5
:101960000A0190920B01A0920C01B0920D0180919E
:10197000FB0281608093FB02DCCFEB8DFC8D258523
:1019800080E092E0A0E0B0E004C0880F991FAA1F99
:10199000BB1F2A95D2F74B895C896D897E89840F9C
:1019A000951FA61FB71F8B8B9C8BAD8BBE8B81E0C9
:1019B00093CF2F923F924F925F926F927F928F922E
:1019C0009F92AF92BF92CF92DF92EF92FF920F93CE
:1019D0001F93CF93DF9300D000D01F92CDB7DEB717
:1019E0007C015B01342E5D83DC0115968C9115978B
:1019F000813009F0CEC014962C9021FECAC022FC82
:101A0000B4C0C32CDD8022947FE027222094B22D25
:101A1000B1702B2ED7011A964D915D916D917C91ED
:101A20001D97C114D10409F428C15B968D919C9136
:101A30005C97FC0174807A948A019B0169E0369579
:101A40002795179507956A95D1F770228A0111702D
:101A5000711020C001151105E9F416964D915D91A4
:101A60006D917C911997411551056105710509F03A
:101A700099C057968D919D910D90BC91A02D009786
:101A8000A105B10509F0B0C0C7010E94A3098823D0
:101A900009F47FC080E092E0801B910B46018C1519
:101AA0009D0508F44C01D7015B964D915C915C97C4
:101AB00016968D919D910D90BC91A02D0297A10934
:101AC000B109FA01258504C0880F991FAA1FBB1F01
:101AD0002A95D2F74685578560897189840F951FAD
:101AE000A61FB71F9C01AD01270D311D411D511DC2
:101AF00029013A01811432E0930609F07BC08091FC
:101B00000A0190910B01A0910C01B0910D01841577
:101B10009505A605B70559F48FEF9FEFDC0180937B
:101B20000A0190930B01A0930C01B0930D01022DBB
:101B30009501B301A2018091F2039091F3030E94F9
:101B4000E404882331F19EEFB91AC818D908F701C7
:101B500082859385A485B585880D991DA11DB11D2C
:101B600082879387A487B58755CFF7014389548926
:101B70006589768982859385A485B5854817590737
:101B80006A077B0709F43DCFC7010E940F09811145
:101B900038CF81E090E0D70113969C938E931297F3
:101BA00080E007C09E012F5F3F4F0E94CF07811149
:101BB00002C090E079C089819A81AB81BC81F70134
:101BC000238D348DF901278948EF5FEF60E070E0E5
:101BD000203121F048EF5FEF6FEF7FE0841795072A
:101BE000A607B70708F050CFF70186839783A08731
:101BF000B18750CF0115110599F5D7011A964D916E
:101C00005D916D917C911D9753968D919D910D9055
:101C1000BC91A02D481759076A077B0708F181E09E
:101C20000E947605882309F4B4CF40920A015092AD
:101C30000B0160920C0170920D018091FB0281609A
:101C40008093FB02C8018C509C4FD5019C01280D4C
:101C5000391DFC012E173F0759F04D914193FACFE2
:101C600041E0C301B2010E94A1058111EBCF91CFE8
:101C7000281B390BA20EB31E68CFF7018389948904
:101C8000A589B68984179507A607B70738F4848114
:101C9000438B548B658B768B80688483F7018481BA
:101CA00083FD1AC0832D9D810F900F900F900F9090
:101CB0000F90DF91CF911F910F91FF90EF90DF90E8
:101CC000CF90BF90AF909F908F907F906F905F90DC
:101CD0004F903F902F90089561E0C7010E94A30AA2
:101CE000882309F456CFDECFCF93DF931F92CDB771
:101CF000DEB7698341E050E0BE016F5F7F4F0E9415
:101D0000D90C0F90DF91CF910895FC01DB01129661
:101D10008D919C911397938382838CE991E09183B9
:101D2000808314968C911497848315968C911597C3
:101D3000858316964D915D916D917C91199746839F
:101D40005783608771871A964D915D916D917C9153
:101D50001D9742875387648775871E964D915D91C5
:101D60006D917C91519746875787608B718B529606
:101D70008C915297828B53964D915D916D917C9190
:101D80005697438B548B658B768B57964D915D910F
:101D90006D917C915A97478B508F618F728F5B96B4
:101DA0008D919C91948F838F0895FC01818D928DEC
:101DB000009719F061E00C94A30A0895DC0159968C
:101DC000ED91FC913097B9F083899489A589B68902
:101DD0004285538564857585841B950BA60BB70BCF
:101DE000811520E89207A105B10538F08FEF9FE734
:101DF000A0E0B0E0089590E080E00895DC015996FD
:101E00008D919C91009739F0DC01ED91FC9104805B
:101E1000F581E02D099490E080E00895CF93DF9361
:101E2000EC01E98DFA8D309749F481E090E09B83D5
:101E30008A8390E080E0DF91CF910895138212822F
:101E4000898D9A8D0E94D90CE98DFA8D228133817A
:101E5000232B59F7F0CFCF93DF931F92CDB7DEB787
:101E60006983DC01ED91FC910280F381E02D41E07A
:101E700050E0BE016F5F7F4F09950F90DF91CF91CA
:101E800008952F923F924F925F926F927F928F921E
:101E90009F92AF92BF92CF92DF92EF92FF920F93F9
:101EA0001F93CF93DF9300D01F92CDB7DEB7FC0115
:101EB0008581811118C08FEF9FEF0F900F900F90C9
:101EC000DF91CF911F910F91FF90EF90DF90CF9016
:101ED000BF90AF909F908F907F906F905F904F904A
:101EE0003F902F900895848180FFE5CF43895489E6
:101EF0006589768982859385A485B585312C212CC9
:101F0000481759076A077B0719F022242394312CBC
:101F10006F012101CE0101963C01DF011696BB83C2
:101F2000AA834114510409F4C5C0F60142855385C2
:101F3000648575854A01F1E09F22D6015B968D91FB
:101F40009C915C978A019B01E9E03695279517954E
:101F50000795EA95D1F71596EC91E230E9F5FC0189
:101F6000628D738D848D958D600F711F821F931FFD
:101F7000A12C22E0B22EA818B9084A145B0408F478
:101F80005201F601248126FD04C0A114F2E0BF062F
:101F900071F400910A0110910B0120910C01309114
:101FA0000D01061717072807390709F05EC040E042
:101FB0000E94A105882309F47ECFC4018C509C4F58
:101FC000D3019C012A0D3B1DFC012E173F0709F48C
:101FD0006CC041914D93F9CFDC011496BC90BA943A
:101FE000B0228114910479F4B1100DC0452B462B19
:101FF000472B69F5F6018789908DA18DB28D868377
:102000009783A087B187D6015B96ED91FC915C9791
:1020100016966D917D918D919C91199762507109E1
:1020200081099109258504C0660F771F881F991FB4
:102030002A95D2F70685178520893189600F711F8F
:10204000821F931F6B0D711D811D911D91CFD601B4
:1020500016964D915D916D917C9119972A813B81E6
:102060000E94CF078111CFCF26CF73018501940144
:10207000AB01BC018091F2039091F3030E944204F2
:10208000882309F418CF6A0C7B1CF601828593859E
:10209000A485B5858A0D9B1DA11DB11D82879387DF
:1020A000A487B5874A185B083CCF281B390B620E02
:1020B000731EEBCF2A94232809F0FDCE898190E08E
:1020C000FCCEFC01818D928D009711F00C94410F94
:1020D0008FEF9FEF08950F931F93CF93DF93EC0142
:1020E000898D9A8D10E000E0009799F00E94410FD1
:1020F0008C010F3F100769F0898D9A8DFC01428594
:1021000053856485758541505109610971090E94A3
:102110000F09C801DF91CF911F910F9108950F937F
:102120001F930E9429026093E4067093E506809352
:10213000E6069093E7068CED96E00E946B1097FF01
:102140001DC00E9429020091E4061091E50620912D
:10215000E6063091E706601B710B820B930B009132
:10216000E0061091E1062091E2063091E306601747
:10217000710782079307F8F28FEF9FEF1F910F917E
:102180000895CF92DF92EF92FF92CF930E948F102B
:10219000FC0197FD4EC08D32910521F0C0970A9742
:1021A00008F040C0C12CD12C7601C0E0E130F1052F
:1021B000D1F0ED32F105D9F1CF01C0970A9798F42B
:1021C000AAE0B0E0A70196010E94D2336F01FF0F91
:1021D000EE08FF08C60ED71EE81EF91E80E3C81AD7
:1021E000D108E108F1088CED96E00E9461100E9490
:1021F0008F10FC01C0970A97C8F2E130F105B1F2E7
:10220000CC2341F0F094E094D094C094C11CD11C34
:10221000E11CF11CC701B601CF91FF90EF90DF9058
:10222000CF9008958CED96E00E946110AFCFC1E091
:10223000DACFC12CD12C7601EDCF8FEF9FEF08952F
:1022400090E080E008950895EF92FF920F931F931E
:10225000CF93DF93DC015296ED90FC905397E114FD
:10226000F10479F481E090E013969C938E93129799
:1022700090E080E0DF91CF911F910F91FF90EF9060
:1022800008951D96ED91FC911E971C968C911C97BC
:10229000982F90950FB754962C915497122F127037
:1022A00021FD6095F8942081112319F1282B2083BA
:1022B000E7012197F1F728E0462F50E0308160FFD9
:1022C0001AC0382B3083E7012197F1F7BA017595D1
:1022D0006795215089F7112381F0808189238083BC
:1022E0000FBF52968D919C910197F1F781E090E09C
:1022F000C1CF2923DCCF3923E5CF9081892BEFCFC4
:1023000090E080E008950F931F93CF93DF9360E0F8
:1023100084E00E945F0160E082E10E945F0161E071
:1023200070E080E090E00E94F60161E082E10E94AE
:102330005F0161E070E080E090E00E94F60160E003
:1023400083E00E945F0161E070E080E090E00E9425
:10235000F60110E000E0C0919A03D0919B030C17A6
:102360001D07CCF461E082E00E945F0161E070E053
:1023700080E090E00E94F60160E082E00E945F0150
:102380008AE090E00E94C90161E083E00E945F0161
:102390000F5F1F4FE0CF209771F460E082E10E9451
:1023A0005F0161E070E080E090E00E94F60161E092
:1023B00082E10E945F010E9429026093860370936C
:1023C0008703809388039093890381E080938A0335
:1023D0001C161D0624F461E084E00E945F018091D8
:1023E0001401882319F081E08093070310928B0376
:1023F0001092820310928103DF91CF911F910F9170
:1024000008952F923F924F925F926F927F928F9298
:102410009F92AF92BF92CF92DF92EF92FF920F9373
:102420001F93CF93DF93CDB7DEB729970FB6F894FC
:10243000DEBF0FBECDBF0E9429026093E2037093FE
:10244000E3038093E4039093E503E0918E03F0911E
:102450008F0320918C0330918D033F832E83309125
:102460009A03398770919B03409194034887809128
:102470008B038D8360910E038091550390915603D9
:1024800025E3222E23E0322EA9EDB2E0BA83A98300
:102490008D013C822B8230E020E0AB81BC818D90AD
:1024A0009D90AD90BD90BC83AB8350E040E069014E
:1024B000BFEFCB1ADB0A7901E40EF51E24013501CA
:1024C0000E2C04C076946794579447940A94D2F7DC
:1024D00040FE23C0D8014D905D906D907C9004C06B
:1024E0007694679457944794EA94D2F740FE03C0D9
:1024F000E130F10591F4D601A40FB51FBF83AE837F
:102500008A179B0709F4C0C0CD01A987792F60E025
:10251000B1E0BD83F0E0E0E018864F5F5F4F4032EE
:10252000510549F6205E3F4F0C5F1F4F211541E0DA
:10253000340709F0B2CF3093340320933303AE81D4
:10254000BF81B0938D03A0938C03B885B09394039F
:10255000298520939A0370939B039093560380934D
:102560005503F0938F03E0938E033D8130938B03EB
:1025700060930E031092320310923103611158C020
:10258000109234031092330395E5A92E93E0B92EEF
:1025900005E313E07724739480E2882E912CC09099
:1025A0003103D0903203E0903303F09034034FEFC7
:1025B000E41AF40AF80180819181A281B3810C2C84
:1025C00004C0B695A795979587950A94D2F780FD94
:1025D00015C02E813F812E153F0581F48091940313
:1025E00081110CC0709294030E94290260939003A1
:1025F0007093910380939203909393033FEFC31AD8
:10260000D30AD0923203C0923103F0923403E092A5
:10261000330341E0841A910809F0C1CF10923203CC
:10262000109231030C5F1F4FA016B10609F0B4CF12
:10263000F10181919191A191B1911F01E981FA81FB
:1026400081939193A193B193FA83E983F5E52F16D2
:10265000F3E03F0669F729960FB6F894DEBF0FBE88
:10266000CDBFDF91CF911F910F91FF90EF90DF9041
:10267000CF90BF90AF909F908F907F906F905F9022
:102680004F903F902F9008958987792F45CF809163
:10269000DC039091DD032091DE03222331F00196CB
:1026A0009093DD038093DC030895209169013091BC
:1026B0006A01820F931F9093DD038093DC03609186
:1026C000150170911601269FA001279F500D369F7E
:1026D000500D11244817590724F41092DD0310926D
:1026E000DC030895CF92DF92EF92FF9260919A03FC
:1026F00070919B03E5E3F3E080E091E040E250E07D
:102700009C012150310968177907F4F00297C48CB5
:10271000D58CE68CF78C04C0F694E794D794C794D4
:102720008A95D2F7C0FE10C0309332032093310354
:1027300030939B0320939A0381E080938B03FF9057
:10274000EF90DF90CF900895C90141505109C1F633
:10275000349743E0E531F40789F630933203209350
:10276000310370939B0360939A0310928B03E7CF1E
:1027700080919A0390919B03909356038093550305
:1027800081E080930E030E94721380918B0381116C
:102790000EC08091310390913203892B41F480E087
:1027A00091E090939B0380939A030C947213089585
:1027B000CF92DF92EF92FF9240919A0350919B0348
:1027C0002091550330915603E5E3F3E090E080E07B
:1027D00060E270E084179507A4F0C080D180E280A9
:1027E000F380082E04C0F694E794D794C7940A9413
:1027F000D2F7C0FE06C0019682179307D1F4A90153
:10280000C90101966150710929F7349663E0E535F5
:10281000F607F1F6909332038093310350939B03B4
:1028200040939A0310928B03FF90EF90DF90CF902C
:102830000895909332038093310390939B03809388
:102840009A0381E080938B03EFCF80919A0390915C
:102850009B03909356038093550381E080930E036E
:102860000E94D81380918B0381111AC0809131038B
:10287000909132038115914099F410929B0310922C
:102880009A0310923203109231030E94D813809160
:102890008B03811105C080919903811110920E0361
:1028A00008954F925F926F927F928F929F92AF9214
:1028B000BF92CF92DF92EF92FF920F931F936C0122
:1028C0000E94D1012B015C014B01F12CE12C87E02E
:1028D000C81AD108E108F108F894439A88E090E01A
:1028E0000E94C901439878948AE1880E911CA11C2A
:1028F000B11C0E94D1019B0124193509890130E0E6
:1029000020E00C151D052E053F0534F468157905EA
:102910008A059B0570F3E0CF1F910F91FF90EF9018
:10292000DF90CF90BF90AF909F908F907F906F90EF
:102930005F904F9008958F929F92AF92BF92CF92E7
:10294000DF92EF92FF920F931F93CF93DF9300D00C
:1029500000D0CDB7DEB7FC018581813091F080E0F9
:102960000F900F900F900F90DF91CF911F910F91CB
:10297000FF90EF90DF90CF90BF90AF909F908F909F
:102980000895848181FFEBCF83899489A589B689D5
:10299000892B8A2B8B2B09F45FC07F0140E050E02C
:1029A000BA01CF010E940F098823C9F2F701C38C35
:1029B000D48C8788908CA18CB28C82E090E0A0E0CF
:1029C000B0E0F60180839183A283B3839E012F5FE1
:1029D0003F4FB501A401C6010E94CF07882309F427
:1029E000BECF00E010E09801B501A401C6010E942D
:1029F0002D07882309F4B3CF89809A80AB80BC80EF
:102A0000F6018789803119F188EF9FEFAFEFBFE0C2
:102A100088169906AA06BB06C8F2F701178A108E17
:102A2000118E128E138A148A158A168A8481806800
:102A3000848361E0C7010E94A30A882309F48FCF31
:102A400040E050E0BA01C7010E940F0989CF88EF2A
:102A50009FEFA0E0B0E0DCCF81E082CFCF92DF92A9
:102A6000EF92FF921F93CF93DF93EC0180E2689F78
:102A7000F0011124EC50FC4F9385917161F0842F8B
:102A8000827449F080E0DF91CF911F91FF90EF9029
:102A9000DF90CF900895142F6A8B80910A01909156
:102AA0000B01A0910C01B0910D018E879F87A88B1F
:102AB000B98BC488D588F12CE12C7601DD24CC2497
:102AC000CF8AD88EE98EFA8E828D938DB0E0A0E009
:102AD000AC01BD014C295D296E297F294F8B588F90
:102AE000698F7A8F8385887111F5848D958DA68D78
:102AF000B78D8B8B9C8BAD8BBE8B81E08D83812FB3
:102B00008F708C831E821F82188619861A861B86F8
:102B10001C861D8681E016FFB6CFCE01DF91CF91D6
:102B20001F91FF90EF90DF90CF900C949B14803119
:102B300009F0A8CF9E012D5E3F4F8B8D9C8D0E948A
:102B40005008882309F49ECF84E0D8CF8091F50601
:102B50009091F606009761F00E943B0B8091F5067C
:102B60009091F6060E940F351092F6061092F50627
:102B70000895CF93DF93EC0188819981009711F03C
:102B80000E940F35198218821D821C821B821A82B4
:102B9000DF91CF910895FC0180819181009711F020
:102BA0000C940F3508952091FB063091FC06DC0152
:102BB0001496ED91FC9115972E173F07B0F04091B8
:102BC000F7065091F8064115510579F06D917C9109
:102BD0006115710551F02E1B3F0BCA01820F931F27
:102BE0000E94763621E0892B09F020E0822F08959B
:102BF000CF93DF93EC018091F7069091F806009750
:102C0000E9F06881798161157105B1F04091F906AB
:102C10005091FA062C813D814217530768F00E94BB
:102C20007F368C819D819093FC068093FB061D82EC
:102C30001C82DF91CF9108950E940F358881998180
:102C40009093F8068093F7068A819B819093FA0609
:102C50008093F9068C819D819093FC068093FB06FE
:102C6000198218821B821A82E2CFFB010190002098
:102C7000E9F73197AF01461B570BDC01ED91FC9151
:102C80000280F381E02D09948F929F92AF92BF92C0
:102C9000EF92FF920F931F93CF93DF93CDB7DEB7E1
:102CA000A1970FB6F894DEBF0FBECDBF7C01FA012D
:102CB000CB0119A2223008F42AE08E010F5D1F4FCC
:102CC000822E912CB12CA12CBF01A50194010E9450
:102CD0003734F901CA016A300CF5605DD8016E9392
:102CE0008D01232B242B252B79F790E080E0109782
:102CF00021F0BD01C7010E943516A1960FB6F894C8
:102D0000DEBF0FBECDBFDF91CF911F910F91FF901E
:102D1000EF90BF90AF909F908F900895695CDECF49
:102D2000CF92DF92EF92FF920F931F93CF93DF9397
:102D30006B01770FEE08FF084A30510511F52AE0C4
:102D4000F7FE20C0EC01E881F9810190F081E02DCF
:102D50006DE209958C0144275527BA014C195D098C
:102D60006E097F092AE0CE010E944416800F911F50
:102D7000DF91CF911F910F91FF90EF90DF90CF9057
:102D80000895242FB701A601DF91CF911F910F91D4
:102D9000FF90EF90DF90CF900C94441668EC71E0B8
:102DA0000C9435160C94351681E080936B0161E02C
:102DB00080E10E948D0160E080E10E945F018DEF63
:102DC00096E00E94CE166BEC71E08DEF96E00E94CB
:102DD000D2168DEF96E00C94CE1610929B031092B3
:102DE0009A0381E080938B030E94831162E080E16B
:102DF0000E948D018DEF96E00E94CE1660ED71E08D
:102E00008DEF96E00E94D2168DEF96E00C94CE16D0
:102E10000F931F93CF93DF93EC01888199810097E3
:102E200059F02A813B812617370730F081E0DF9186
:102E3000CF911F910F9108958B016F5F7F4F0E947B
:102E40009835009759F0998388831B830A832C81D6
:102E50003D81232B59F7FC011082E8CF80E0E7CFBA
:102E6000EF92FF920F931F93CF93DF93EC017B01BF
:102E7000198218821B821A821D821C82FB0101901A
:102E80000020E9F731978F01061B170BB8010E944C
:102E90000817811109C0CE01DF91CF911F910F91C9
:102EA000FF90EF900C94B9151D830C83B7018881B6
:102EB0009981DF91CF911F910F91FF90EF900C942A
:102EC0007F36AF92BF92CF92DF92EF92FF920F9335
:102ED0001F93CF93DF9300D0CDB7DEB78C015B019A
:102EE000C42E6AEC71E00E943017C5010E943702BF
:102EF0000C2C000CDD0897FD24C0C816D90609F17A
:102F000089831A82F801E480F580FFEFEF1AFF0A47
:102F1000B701C8010E940817882379F0F8012081C1
:102F2000318184819581BE016F5F7F4F820F931F36
:102F30000E947F36F801F582E482C5010E943702C3
:102F4000DACFC8010F900F90DF91CF911F910F91B1
:102F5000FF90EF90DF90CF90BF90AF9008959F9239
:102F6000AF92BF92CF92DF92EF92FF920F931F9397
:102F7000CF93DF93CDB7DEB72B970FB6F894DEBFB4
:102F80000FBECDBF7C01FC018581811115C0FE0102
:102F90003196CE010C966F0130E231938E179F0768
:102FA000E1F7DA0130E087E09D91B92E992329F10C
:102FB0009E3239F48A3011F480E0D3C038E08AE0E0
:102FC000F3CFECE7F0E04491442321F031969413E1
:102FD000FACFF2CF831780F34FED490F4E3560F7EC
:102FE0004FE9490F4A3118F440EEB42EB90EF601FC
:102FF000E30FF11DB0823F5FD7CF89818032E1F2CC
:10300000A22E8B01FB01838D948DF701948F838F0A
:10301000FB0116821782108611861286138614868B
:103020001586F80182859385A485B58543895489E1
:103030006589768984179507A607B70708F04CC0FD
:1030400025E0B695A795979587952A95D1F7F82FFE
:10305000FF709F2EF8018581823008F4ADCFC80142
:103060000E94410F97FDA8CFF80182859385A48522
:10307000B5854F96A11DB11D82879387A487B5871B
:10308000F0E29F9EB00111246C507C4F61157105D8
:1030900009F492CFFB018081882341F0853E09F03D
:1030A0004EC0BB2029F0BB24B394BBCFB1100EC0DF
:1030B000F701928A80910A0190910B01A0910C0175
:1030C000B0910D0186879787A08BB18BFB01808122
:1030D0008111E9CFBB24B3948A2D8271823109F02A
:1030E0006BCFBB2009F44FC0C7010E94EB050097CE
:1030F00009F462CF20E2FC0111922A95E9F72BE056
:10310000F601DC0101900D922A95E1F721E238E207
:10311000FC01318B208B40E058E057874687338B8A
:10312000228B318F208F578B468B81E00E94760552
:10313000882309F441CF4A2DF70162890FC04BE083
:1031400050E0C6010E945536892B09F06ACF8A2DBE
:1031500080734A2D692D803309F42ECFC7010E9458
:103160002E152B960FB6F894DEBF0FBECDBFDF91A4
:10317000CF911F910F91FF90EF90DF90CF90BF9074
:10318000AF909F900895F8018581823009F414CFA3
:10319000C8010E945C0C882309F40ECFF701128A43
:1031A00084EF93E0A7CF5F926F927F928F929F926E
:1031B000AF92BF92CF92DF92EF92FF920F931F9345
:1031C000CF93DF93CDB7DEB7C754D1090FB6F894CC
:1031D000DEBF0FBECDBF5C013B0119A218A28CE976
:1031E00091E09F8F8E8F1BA21C821B829A83898302
:1031F0001E8210E000E06E018EE1C80ED11C8DEB46
:10320000E82E86E0F82EF501E00FF11F80818F3265
:1032100011F40F5F1F4FD501A00FB11FFE01FB96E8
:1032200090E080E04F012D912F3249F0222339F0B8
:103230000F5F1F4F019621938C309105A1F7880DE8
:10324000991DFC011082F501E00FF11F80818F3282
:1032500011F40F5F1F4FF501E00FF11F508041E0A7
:10326000511040E030E020E0B401C701F3010995BE
:10327000811121C0FDEBEF16F6E0FF06C1F480E0FE
:10328000C95BDF4F0FB6F894DEBF0FBECDBFDF9135
:10329000CF911F910F91FF90EF90DF90CF90BF9053
:1032A000AF909F908F907F906F905F900895C7012F
:1032B0000E943B0BE4CF552091F021E0A401B7011F
:1032C000C6010E94AF17982E8DEBE81686E0F8062F
:1032D00081F0C7010E943B0B911010C0D0CF9DEB35
:1032E000E91696E0F90619F0C7010E943B0B81E050
:1032F000C7CF992021F2FE0131967F019E2D8F2D9F
:103300007601C92ED82E7FCF1F93CF93DF93CDB7F1
:10331000DEB76D970FB6F894DEBF0FBECDBFAB0121
:103320001C821B822CE931E03A8329831E8221E032
:10333000BC01CE0101960E94AF1711E081110CC0B3
:1033400010E0812F6D960FB6F894DEBF0FBECDBF93
:10335000DF91CF911F910895CE0101960E943B0B02
:10336000F0CFCF93DF93CDB7DEB76D970FB6F8945C
:10337000DEBF0FBECDBF442399F1AB01BC011C825F
:103380001B828CE991E09A8389831E8222E0CE0120
:1033900001960E94AF1781110EC090E081E091115B
:1033A00001C080E06D960FB6F894DEBF0FBECDBFB2
:1033B000DF91CF910895CE0101960E949B1488233E
:1033C00061F3CE0101960E94EB05009731F325EEE3
:1033D000FC0120831E8281E00E947605982FDECFBB
:1033E00081E0E0CF8F929F92AF92BF92EF92FF92D7
:1033F0000F931F93CF93DF93CDB7DEB7ED970FB643
:10340000F894DEBF0FBECDBF8C017B011CA21BA2B6
:103410008CE991E09AA389A31EA2C8010E94841995
:103420008111A0C023E3A701B801CE0181960E94BB
:10343000AF17811116C090E081E0911101C080E0CA
:10344000ED960FB6F894DEBF0FBECDBFDF91CF91E2
:103450001F910F91FF90EF90BF90AF909F908F9032
:10346000089581E08DA384E08EA3CE0181960E9411
:103470005C0C882301F361E0CE0181960E94A30ACF
:103480008823C9F2CE0181960E94EB05FC01892BAD
:1034900091F280E1838780E2DE01119601900D9226
:1034A0008A95E1F7FE013296CE010C9620E2219337
:1034B000E817F907E1F78EE2F82EF982ECADFDADE1
:1034C00068AD79AD8AAD9BAD6250710981099109F2
:1034D000258504C0660F771F881F991F2A95D2F78C
:1034E00086849784A088B188680D791D8A1D9B1DEC
:1034F00041E00E94A105882309F49DCF80E2FE01EE
:103500003196A4EFB3E001900D928A95E1F7FA822B
:10351000F80185818250823000F14789508D618D9C
:10352000728DCA019B013E8B2D8B9C8F8B8F80E20D
:10353000FE013196A4E1B4E001900D928A95E1F785
:1035400080E490E0A0E0B0E08BA79CA7ADA7BEA769
:1035500081E00E947605982F6FCF90E080E030E008
:1035600020E0E1CF81E06CCFEF92FF920F931F93A9
:10357000CF93DF93EC017B018A011B821A8288EED4
:1035800093E0A0E0B0E08C839D83AE83BF8388EAA4
:1035900091E0998388838DE190E00E9473349A8F43
:1035A000898F009779F02DE1F701DC0101900D92F0
:1035B0002A95E1F74CE050E0B801CE010C960E944C
:1035C0009436188EDF91CF911F910F91FF90EF905D
:1035D00008952F923F924F925F926F927F928F92B7
:1035E0009F92AF92BF92CF92DF92EF92FF920F9392
:1035F0001F93CF93DF93CDB7DEB7C756D1090FB670
:10360000F894DEBF0FBECDBF5C013B01A6964FAF65
:10361000A69719A218A28CE991E09F8F8E8F1BA20A
:103620001C821B829A8389831E824E018EE1880E42
:10363000911CC4010E94BB0863018E010F5F1F4FE4
:10364000240118016FE270E0C6010E946B360097FA
:1036500009F459C0F60120812F3271F4FFEFCF1A1F
:10366000DF0A902F812F8201492E582E942D852D0F
:103670002801092F182FE6CF8C198D3008F08CE027
:10368000E82EF12CA701B601CE01885A9F4F0E9467
:103690009436E8E5F0E0EC0FFD1FEE0DFF1D108203
:1036A000C8010E943B0B21E0AE01485A5F4FB201B6
:1036B000C8010E94AF17811120C01EAE1DAE8CE95B
:1036C00091E09CAF8BAF21961FAE2197A896EEADEF
:1036D000FFADA8976E0E7F1EF3018081811120C07F
:1036E000BE01655C7F4FC1010E94850E46ED51E031
:1036F000B101C5010E94B41A31C0CE0CDF1CC20159
:103700000E943B0BB3CFC60186199709A8969FAFBD
:103710008EAFA897B201CE01CB960E94850ED6CF70
:1037200019A218A28CE991E09F8F8E8F1BA221967F
:103730008FAD219781112DC0F5011382128288EE81
:1037400093E0A0E0B0E084839583A683B78388EA02
:1037500091E091838083128E118E1486C501C95920
:10376000DF4F0FB6F894DEBF0FBECDBFDF91CF9114
:103770001F910F91FF90EF90DF90CF90BF90AF908F
:103780009F908F907F906F905F904F903F902F9081
:103790000895A6962FADA697A301BE01655C7F4F45
:1037A000C4010E94AF17882339F2CE01CB960E9444
:1037B0003B0BA6968FADA6978670863039F449A943
:1037C0005AA96BA97CA9C4010E940F09B401C101C7
:1037D0000E94850EA3018CCF1F93CF93DF93EC0142
:1037E000162F0E94BC33181739F0612FCE01DF91DC
:1037F000CF911F910C94C433DF91CF911F91089505
:10380000CF93DF9361E080E10E948D0160E080E171
:103810000E945F01D0E0C0E06FEFCE010E94EC1B80
:103820002196CF3F81E0D807B9F760910C0380E083
:1038300092E00E94EC1BCCE0D0E062E080E10E94CC
:103840008D0160E170E080E090E00E94F60161E0AF
:1038500080E10E948D0160E080E10E945F0160E1F3
:1038600070E080E090E00E94F601219731F762E07D
:1038700080E10E948D0181E090E09093E7038093C6
:10388000E6031092300310922F03C2E0D0E0809143
:10389000E6039091E703019709F082C08EE00E9451
:1038A00036019093300380932F0380912F039091E2
:1038B0003003892B99F38EE00E94360190933003F8
:1038C00080932F0380912F0390913003019759F536
:1038D0008091DB03882379F31092DB0361E083E1BD
:1038E0000E948D0160E083E10E945F016091D80336
:1038F000862F90E09093D7038093D6038FEF91E0CB
:103900000E94EC1B6091D903862F90E09093D50321
:103910008093D4038EEF91E00E94EC1B62E083E180
:103920000E948D01C8CF8EE00E9436019093300333
:1039300080932F0380912F0390913003892B99F36B
:1039400061E080E10E948D0160E080E10E945F0102
:1039500060E270E080E090E00E94F60162E080E1C9
:103960000E948D01D093E703C093E60390CF8EE0D1
:103970000E9436019093300380932F0380912F0390
:1039800090913003892B99F361E080E10E948D01D1
:1039900060E080E10E945F011092E7031092E6036D
:1039A0008091E6039091E7030297C1F58EE00E94B3
:1039B00036019093300380932F0380912F039091D1
:1039C00030030197A1F68091DB03882379F31092ED
:1039D000DB0361E083E10E948D0160E083E10E94EE
:1039E0005F016091D803862F90E09093D703809376
:1039F000D6038DEF91E00E94EC1B6091D903862FD6
:103A000090E09093D5038093D4038CEF91E00E94D3
:103A1000EC1B62E083E10E948D01C8CF1092E703A6
:103A20001092E603DF91CF9108950C94BC338091FE
:103A3000DE03882309F466C0809183039091840398
:103A4000892BB1F48091DD038F938091DC038F93F8
:103A500088ED91E09F938F9389EC92E09F938F93F1
:103A60000E94A3360F900F900F900F900F900F9021
:103A700080918303909184030197B1F48091DD03D9
:103A80008F938091DC038F9386EE91E09F938F93C9
:103A900089EC92E09F938F930E94A3360F900F9032
:103AA0000F900F900F900F9080919B038F938091B8
:103AB0009A038F9383EF91E09F938F9380EA93E033
:103AC0009F938F930E94A33640E250E060EA73E038
:103AD00080EB93E00E94093140E250E066ED71E036
:103AE00080EB93E00E94EA300F900F900F900F90C0
:103AF0000F900F9040E250E069EC72E080EB93E0B1
:103B00000C94EA302091DC033091DD032F5F3F4FAE
:103B100080919A0390919B03A901480F591F5093DC
:103B2000D3034093D20386509F4F820F931F9093ED
:103B3000D1038093D003493F510534F028EF30E0A2
:103B40003093D3032093D203833F914034F082EF2C
:103B500091E09093D1038093D00308950F931F9326
:103B6000CF93DF930E94171D8091DB03882309F414
:103B7000FDC1C091E603D091E703209709F0F6C19B
:103B80001092DB0361E083E10E948D0160E083E13C
:103B90000E945F0162E083E10E948D0180918503B4
:103BA000882331F08FEF90E090938203809381031C
:103BB00080916B01882309F4AAC11091D8038FEF7B
:103BC00091E00E94151D181308C01091D9038EEFC3
:103BD00091E00E94151D181741F08091D8038034A0
:103BE00089F58091D9038B3069F58091DA038130B2
:103BF00049F10E9429026093C5027093C602809326
:103C0000C7029093C8028091C40281111BC021E0B9
:103C10002093C40220938B0380919A0390919B037D
:103C2000019690939B0380939A0320930E03209117
:103C30000C0330910D032817390724F410929B03CD
:103C400010929A031091D8038DEF91E00E94151DF8
:103C5000181308C01091D9038CEF91E00E94151D34
:103C6000181741F08091D803803481F58091D903F1
:103C70008E3061F58091DA03813041F10E94290292
:103C80006093C5027093C6028093C7029093C802E6
:103C90008091C40281111AC021E02093C4022093B4
:103CA0008B0380919A0390919B03019790939B03C0
:103CB00080939A0320930E0397FF08C080910C0312
:103CC00090910D0390939B0380939A038091D80366
:103CD0008034D9F48091D9038131B9F48091DA0329
:103CE000813099F00E9429026093C5027093C60248
:103CF0008093C7029093C8028091C402811105C0CD
:103D000081E08093C4020E9425148091D8038034FE
:103D1000D9F48091D9038031B9F48091DA038130EC
:103D200099F00E9429026093C5027093C6028093A5
:103D3000C7029093C8028091C402811105C081E03E
:103D40008093C4020E94B8138091D803803439F55F
:103D50008091D9038A3119F58091DA038130F9F025
:103D60000E9429026093C5027093C6028093C70225
:103D70009093C8028091C402811111C081E08093A8
:103D8000C4028DEF96E00E94CE166EEF71E08DEFCB
:103D900096E00E94D2168DEF96E00E94CE1680919A
:103DA000D803803439F58091D903853419F5809191
:103DB000DA038130F9F00E9429026093C502709302
:103DC000C6028093C7029093C8028091C4028111F9
:103DD00011C081E08093C4028DEF96E00E94CE1660
:103DE00060E072E08DEF96E00E94D2168DEF96E0D3
:103DF0000E94CE168091D803803439F58091D90382
:103E0000823419F58091DA038130F9F00E94290299
:103E10006093C5027093C6028093C7029093C80254
:103E20008091C402811111C081E08093C4028DEFA2
:103E300096E00E94CE1662E072E08DEF96E00E945E
:103E4000D2168DEF96E00E94CE168091D803803472
:103E500001F58091D9038334E1F48091DA03813054
:103E6000C1F00E9429026093C5027093C60280933C
:103E7000C7029093C8028091C40281110AC081E0F8
:103E80008093C40290919903992309F4FFC0109282
:103E9000990311E08091D8038034A9F52091D903CA
:103EA000FE01EE0FFF1FEE58FE4F80819181281713
:103EB000190649F50E9429026093C5027093C60253
:103EC0008093C7029093C8020E9429026093C002A7
:103ED0007093C1028093C2029093C3028091C40286
:103EE000811111C01093C402D093BF02C093BE02CF
:103EF0008091BC029091BD0201969093BD02809387
:103F0000BC021093BB022196CA30D10519F68091EC
:103F1000D803803459F58091D9038D3439F58091D7
:103F2000DA03813019F10E9429026093C50270936F
:103F3000C6028093C7029093C8028091C402811187
:103F400015C081E08093C40290916B01992309F41C
:103F5000A0C010926B0180916B01811102C00E9480
:103F6000ED1680916B0181110E94D4160E942902E6
:103F70000091C5021091C6022091C7023091C8027B
:103F8000601B710B820B930B6E37710581059105D8
:103F900010F01092C4028091BC029091BD02813059
:103FA000910509F079C08091BB02882351F080917E
:103FB000BE029091BF029093BA028093B902109210
:103FC000BB020E9429020091C0021091C1022091FF
:103FD000C2023091C302601B710B820B930B6132E2
:103FE00073408105910508F44CC08091BC0290910A
:103FF000BD02181619060CF044C01092BD021092B2
:10400000BC022091B5023091B60244E6429FC00145
:10401000439F900D11244091B7025091B8026AE07D
:10402000649F9001659F300D1124820F931F209192
:10403000B9023091BA02820F931F9093BF0280930E
:10404000BE021092BA021092B9021092B8021092F7
:10405000B7021092B6021092B50221E020938B03B2
:1040600090939B0380939A0320930E0320910C035B
:1040700030910D032817390724F430939B032093C4
:104080009A03DF91CF911F910F9108958093990327
:1040900000CF80936B015FCF8230910571F48091E6
:1040A000BB02882309F48DCF8091B9029091BA02A6
:1040B0009093B8028093B7027ACF8330910571F460
:1040C0008091BB02882309F47CCF8091B702909144
:1040D000B8029093B6028093B502E6CF04970CF431
:1040E00070CF8091BB02882309F46BCF8091BE0210
:1040F0009091BF029093BA028093B9021092B802D5
:104100001092B7021092B6021092B50281E090E0D0
:104110009093BD028093BC0252CF2F923F924F9258
:104120005F926F927F928F929F92AF92BF92CF9247
:10413000DF92EF92FF920F931F93CF93DF93CDB750
:10414000DEB72E970FB6F894DEBF0FBECDBF8091BD
:10415000830390918403892B09F092C06CE670E090
:1041600084EF95E00E9465028091D4039091D5037D
:10417000409734F46AE670E084EF95E00E946502AF
:104180006091D4037091D50340E150E084EF95E055
:104190000E9490168091D6039091D703409734F4F3
:1041A00068E670E084EF95E00E9465026091D603B6
:1041B0007091D70340E150E084EF95E00E949016A3
:1041C00084EF95E00E94CE160E94290260930803B6
:1041D0007093090380930A0390930B033090D403E8
:1041E0009091D503032D192F2091D6032B83809115
:1041F000D7032D878E873B9A34E03983432D409532
:104200004F833886998720952A875D855B878C87C1
:104210009EE6892E912CA12CB12C0E9429022B0103
:104220003C0180E093E20E9451148981843009F4BA
:104230004AC080EC98E00E94C90180E392E00E94AD
:1042400051144981415049834423C1F00E942902FD
:10425000DC01CB0184199509A609B7098E369105B1
:10426000A105B105D0F6A5019401281B390B4A0B15
:104270005B0BCA01B9010E94F601CFCF0E94AE1DAF
:104280000E94290260939C0370939D0380939E0378
:1042900090939F032E960FB6F894DEBF0FBECDBF4E
:1042A000DF91CF911F910F91FF90EF90DF90CF9012
:1042B000BF90AF909F908F907F906F905F904F9046
:1042C0003F902F90089580E891E10E94C9012D85CB
:1042D0003E852F3F310561F158F12B843C853C83AD
:1042E0000F3F110549F140F158855D8389858E8323
:1042F00020E22A8380E392E00E945114C22CDC80E9
:10430000ED80FE8080E996E020FC02C080E392E030
:104310000E94C901F694E794D794C7942C2CDC82B0
:10432000ED82FE823A8131503A833111E3CF85CF5D
:104330002B804A854C83D4CF3D829F819E83D8CFEA
:104340000F931F93CF93DF938091E1038093E0035A
:104350001092E1038EE00E94360190933003809327
:104360002F03892B19F481E08093E10380916B0185
:1043700081110AC00E94290260939C0370939D03DF
:1043800080939E0390939F03C091E103C1110AC0E3
:104390000E94290260939C0370939D0380939E0367
:1043A00090939F038091E6039091E703892B09F096
:1043B00060C0CC2309F45FC00E94290200919C03D5
:1043C00010919D0320919E0330919F03601B710B00
:1043D000820B930B693B7B408105910530F081E0B6
:1043E00090E09093E7038093E6030E9429020091F6
:1043F0009C0310919D0320919E0330919F03601BAD
:10440000710B820B930B613177428105910508F4A2
:10441000B7C08091DE0381114FC01092DD0310926E
:10442000DC03D0E0C0E080911501909116018C175B
:104430009D070CF46EC00E94171D61E080E10E9490
:104440008D0160E080E10E945F016FEF8091D203F7
:104450009091D3030E94EC1B6FEF8091D003909159
:10446000D1030E94EC1B0E94AE1D0E9447132196AF
:10447000DACFC111BACF8091E003882309F485C057
:104480008091E6039091E703892B09F07EC080912B
:10449000DF0381117AC080916B01811102C00E94FB
:1044A000D41680910603882309F474C0DF91CF915C
:1044B0001F910F910C9425140E94480B81E090E00D
:1044C0009093DD038093DC030E94171D8091DC0331
:1044D0009091DD03892BC9F061EB79E180EB93E0EA
:1044E0000E94D3188091DC039091DD030196909394
:1044F000DD038093DC030E94171D64E879E180EB03
:1045000093E00E94D3188111E1CF8DEB96E00E94D9
:104510003B0BCCE0D0E062E080E10E948D0160E1E5
:1045200070E080E090E00E94F60161E080E10E948E
:104530008D0160E080E10E945F0160E170E080E059
:1045400090E00E94F601219731F71092E703109254
:10455000E60380919A0390919B03019790939B03AC
:1045600080939A031092DD031092DC030E942902CB
:1045700060939C0370939D0380939E0390939F038D
:104580008091E103882309F476CFDF91CF911F91C9
:104590000F91089521E020938B0380919A039091CD
:1045A0009B03019690939B0380939A0320930E03A1
:1045B00020910C0330910D032817390734F710921E
:1045C0009B0310929A03E1CF80918503882341F0E9
:1045D0008FEF90E090938203809381030C94A0214D
:1045E00008951F920F920FB60F9211242F933F93AD
:1045F0008F939F93AF93BF938091E9039091EA03C8
:10460000A091EB03B091EC033091E80323E0230F7A
:104610002D3768F126E8230F0296A11DB11D2093C6
:10462000E8038093E9039093EA03A093EB03B0932C
:10463000EC038091ED039091EE03A091EF03B09114
:10464000F0030196A11DB11D8093ED039093EE033D
:10465000A093EF03B093F003BF91AF919F918F911F
:104660003F912F910F900FBE0F901F9018950196BC
:10467000A11DB11DD4CF1F920F920FB60F9211241E
:104680002F933F934F935F936F937F938F939F935A
:10469000AF93BF93EF93FF9384EF95E00E940703DE
:1046A000FF91EF91BF91AF919F918F917F916F910A
:1046B0005F914F913F912F910F900FBE0F901F90E0
:1046C00018951F920F920FB60F9211242F938F936C
:1046D0009F93EF93FF93E0910406F091050680818C
:1046E000E0910A06F0910B0682FD1BC0908180913B
:1046F0000D068F5F8F7320910E06821741F0E091B7
:104700000D06F0E0EC50FA4F958F80930D06FF9167
:10471000EF919F918F912F910F900FBE0F901F904F
:1047200018958081F4CF1F920F920FB60F9211242B
:104730002F933F934F935F936F937F938F939F93A9
:10474000AF93BF93CF93EF93FF9386B1C0910103D3
:1047500090910403C923982F9095C9238093010356
:10476000C0FF05C0E0910E01F0910F010995C1FF56
:1047700005C0E0910001F09101010995C2FF05C05B
:10478000E0910201F09103010995C3FF05C0E0919A
:104790000401F09105010995C4FF05C0E0910601EF
:1047A000F09107010995C5FF05C0E0910801F0915E
:1047B00009010995FF91EF91CF91BF91AF919F9121
:1047C0008F917F916F915F914F913F912F910F90BA
:1047D0000FBE0F901F9018951F920F920FB60F9259
:1047E00011240F931F932F933F934F935F936F93D6
:1047F0007F938F939F93AF93BF93CF93EF93FF9349
:10480000C3B10E94D1018B019C018091A6029091BD
:10481000A702A091A802B091A902B901A801481B62
:10482000590B6A0B7B0BCA010093A6021093A702D7
:104830002093A8023093A9022091AA02C1FD88C04A
:10484000413066E4560710F4211119C01092B402E9
:1048500081E08093AA02FF91EF91CF91BF91AF9138
:104860009F918F917F916F915F914F913F912F9188
:104870001F910F910F900FBE0F901F90189522302F
:1048800069F59C0120523D40213C3840C0F4109213
:10489000AB021092B0021092B1021092B2021092CA
:1048A000B30281E090E0A0E0B0E08093AC0290938E
:1048B000AD02A093AE02B093AF0283E0CACF80599D
:1048C00096408136944008F07FC08091AB028032E0
:1048D00008F47AC081E08093B402EFCF243009F06D
:1048E00073C088519140813C984008F06DC0809120
:1048F000AC029091AD02A091AE02B091AF024036F1
:104900005440A0F04091B0025091B1026091B202C7
:104910007091B302482B592B6A2B7B2B4093B0022A
:104920005093B1026093B2027093B302880F991F43
:10493000AA1FBB1F8093AC029093AD02A093AE025E
:10494000B093AF028091AB028F5F8093AB02B5CF83
:10495000213039F480549A4181389141A8F582E0A0
:1049600078CF233089F5885191408133924060F5AA
:104970008091AB02803220F48091B40280FF26C087
:104980008091B10280959091B002981719F084E05F
:104990008093B4028091B30280959091B2029817EF
:1049A00019F084E08093B402789481E08093DB0373
:1049B0008091B4028093DA038091B0028093D8038F
:1049C0008091B2028093D90380E043CF84E041CF4D
:1049D000CF92DF92EF92FF92CF93DF93E4EFF5E077
:1049E0001382128288EEC82E83E0D82EE12CF12C9F
:1049F000C482D582E682F7828AE891E0918380833F
:104A000085EC90E09587848784EC90E09787868793
:104A100080EC90E0918B808B81EC90E0938B828B8B
:104A200082EC90E0958B848B86EC90E0978B868B64
:104A3000118E128E138E148EE1E9F6E080E58083EC
:104A40001182E3E9F6E0158216821186138682E070
:104A500090E0A0E0B0E084879587A687B78713A28F
:104A600015A614A68CE991E093A782A717A6CDEF0F
:104A7000D6E01B821A82CC82DD82EE82FF828AEB34
:104A800091E0998388831B8A1A8AE1E1F7E06081CB
:104A90006D7F60836695617081E0682786E00E9483
:104AA0005F0161E086E00E948D01E2E4F1E0E491C3
:104AB000EC87EBE2F1E0E491F0E0EE0FFF1FE55E42
:104AC000FE4F859194919E878D876AEC71E087EF08
:104AD00096E00E943017ECEDF6E013821282C48259
:104AE000D582E682F78288EA91E091838083128EF4
:104AF000118E1486DF91CF91FF90EF90DF90CF90D1
:104B00000895CF93DF93CDB7DEB76B970FB6F894C8
:104B1000DEBF0FBECDBF789484B5836084BD85B5FC
:104B2000836085BD80916E00816080936E0082E01D
:104B300080938100809181008160809381008091C9
:104B400080008160809380008091B10084608093B8
:104B5000B1008091B00081608093B00087E88093BD
:104B60007A001092C10040EF5DE761EF7DE7A2EFB0
:104B7000BDE703EF1DE784EFE82E8DE7F82E95EFF4
:104B8000C92E9DE7D92E26EFA22E2DE7B22E27EFB4
:104B90003DE7FA0184918335E1F7FB018491863585
:104BA000C1F7FD0184918335A1F7F801849180322A
:104BB00081F7F7018491823461F7F60184918134A1
:104BC00041F7F5018491823421F7F9018491893507
:104BD00001F70E9429026093E2037093E30380933C
:104BE000E4039093E50362E08EE00E948D0161E0B2
:104BF00080E10E948D0162E083E10E948D0161E00D
:104C000082E10E948D0161E082E00E948D0161E0FD
:104C100083E00E948D0161E084E00E948D0161E0EB
:104C200087E00E948D0161E086E00E948D0161E0D5
:104C300085E00E948D0160E088E00E948D0162E0C5
:104C40008FE00E948D0160E084E00E945F0160E0DF
:104C500082E00E945F0160E083E00E945F0160E00B
:104C600082E10E945F0161E070E080E090E00E94DC
:104C7000F60161E082E10E945F0160E083E00E9452
:104C80005F0160E080E10E945F0160E085E00E94DA
:104C90005F0160E087E00E945F0160E086E00E94C3
:104CA0005F0161E070E080E090E00E94F60161E069
:104CB00086E00E945F01E0910406F091050682E023
:104CC0008083E0910006F09101061082E0910206D7
:104CD000F09103068FEC808310920C06E091080699
:104CE000F091090686E08083E0910606F0910706C0
:104CF000808188698083E0910606F09107068081B3
:104D00008F7D808321988091680081608093680006
:104D1000E5E4F1E0E491E0936B000E94480B81111F
:104D2000D8C064E072E084EF95E00E94351684EF0D
:104D300095E00E94CE161092DE038DEB96E00E9465
:104D40003B0B64E670E080E090E00E94F6016CE8C6
:104D500070E084EF95E00E9465022AE041E050E0B7
:104D600060E070E084EF95E00E9444166EE284EF0C
:104D700095E00E9429032AE041E050E060E070E005
:104D800084EF95E00E9444162AE044E050E060E0A1
:104D900070E084EF95E00E94441664E670E080E0E5
:104DA00090E00E94F6016AE184EF95E00E942903F9
:104DB00084EF95E00E94CE1669E172E084EF95E001
:104DC0000E94D21640911001509111016091120180
:104DD000709113012AE084EF95E00E94441684EF5D
:104DE00095E00E94CE16DD24D39480910C0390911F
:104DF0000D03892B09F0C1C000919A0310919B0308
:104E00007801FFEFEF1AFF0AF0929B03E0929A03FA
:104E1000D0928B0361E082E00E945F0161E070E06C
:104E200080E090E00E94F60160E082E00E945F0175
:104E300061E083E00E945F0161E070E080E090E06B
:104E40000E94F6018FE00E94360190933003809318
:104E50002F03019709F08CC061E083E10E948D016E
:104E600060E083E10E945F0110930D0300930C0347
:104E7000093F1105ECF761E070E080E090E00E94EE
:104E8000F60129EFE216F1040CF4AFCF62E080E105
:104E90000E948D0161E083E10E948D0160E083E169
:104EA0000E945F0164EF71E080E090E00E94F601F3
:104EB00062E083E10E948D0161E080E10E948D014A
:104EC00060E080E10E945F0164EF71E080E090E0CB
:104ED000D6CF81E08093DE0341E06FE072E0CE0147
:104EE00001960E94E91ACE0101960E94D60011E0B7
:104EF0008CED96E00E94DE0E892B09F41ECF4DE06A
:104F00006CED76E0CE0101960E946117CE0101960C
:104F10000E94F815CE0101960E94CB1567E172E060
:104F2000CE0101960E943017CE0101960E94D31542
:104F3000082FCE0101960E94CB1501111093060394
:104F40000E94C11070936801609367010E94C110B4
:104F5000611571058105910541F060931001709311
:104F6000110180931201909313010E94A615C0CFE6
:104F700062E083E10E948D017ECF61E070E080E01D
:104F800090E00E94F60110929B0310929A0381E038
:104F900080938B0362E083E10E948D0160E086E0F4
:104FA0000E945F0160E170E080E090E00E94F60105
:104FB00061E086E00E945F0180E092E00E94151DA2
:104FC00090E09093300380932F0360912F037091B2
:104FD000300380910C0390910D036817790709F451
:104FE0009FC010E000E080912F03909130030817DC
:104FF00019070CF071C061E080E10E948D0160E052
:1050000080E10E945F010E9429026B017C01C09235
:105010009C03D0929D03E0929E03F0929F030E9416
:1050200029026C197D098E099F096C327140810536
:10503000910578F48EE00E943601892B81F70E9459
:10504000001C80910C0390910D039093300380938A
:105050002F0320912F033091300380910C03909106
:105060000D0328173907C1F162E080E10E948D012C
:105070000E9429026B017C01C0929C03D0929D0387
:10508000E0929E03F0929F030E9429026C197D0911
:105090008E099F09683C71058105910578F48EE0C1
:1050A0000E943601892B81F70E94001C80910C031D
:1050B00090910D039093300380932F0320912F0341
:1050C0003091300380910C0390910D03281739071C
:1050D00019F00F5F1F4F87CF0E9429026B017C01DF
:1050E000C0929C03D0929D03E0929E03F0929F0396
:1050F0000E9429026C197D098E099F09683E734040
:105100008105910508F061CF8EE00E943601892B60
:1051100079F70E94001C80910C0390910D0351CFF0
:1051200080E092E00E94EC1B60910C0370910D03F3
:105130006F5F7F4F70936A01609369018AEF90E01F
:105140000E94233461507109709316016093150118
:105150000E9429026B017C01C0929C03D0929D03A6
:10516000E0929E03F0929F038EE00E943601892B0D
:1051700089F462E080E10E948D010E9429026C198D
:105180007D098E099F09613177428105910560F3A0
:105190000E94001C61E080E10E948D0160E080E1DE
:1051A0000E945F010E94290260939C0370939D03FB
:1051B00080939E0390939F030E942902609386032D
:1051C00070938703809388039093890381E0809391
:1051D0008A038DE991E09093100780930F0784EE86
:1051E00092E290930F0180930E01809104038160FD
:1051F0008093040386B18093010380916C008160E9
:1052000080936C0080916800826080936800CC2459
:10521000C394D12C44244A94512C11E084EF95E09E
:105220000E94E702892B09F450C24AE064EF75E05E
:10523000CE0101960E946117CE0101960E94F815D9
:10524000CE0101960E94CB156090F7067090F8068B
:105250006114710449F0E090FB06F090FC065301E4
:10526000E114F10409F0D7C36DE172E0CE010196BB
:105270000E943017CE0101960E94D315082FCE014F
:1052800001960E94CB1501110E94D41662E272E0D1
:10529000CE0101960E943017CE0101960E94D315CF
:1052A000082FCE0101960E94CB1501110E94ED1628
:1052B00080916B01882309F408C268E272E0CE0194
:1052C00001960E943017CE0101960E94D315082F37
:1052D000CE0101960E94CB150023C1F010938B03E1
:1052E00080919A0390919B03019690939B038093E6
:1052F0009A0310930E0320910C0330910D0328178D
:10530000390724F410929B0310929A036DE272E025
:10531000CE0101960E943017CE0101960E94D3154E
:10532000082FCE0101960E94CB150023B9F01093EF
:105330008B0380919A0390919B03019790939B0319
:1053400080939A0310930E0397FF08C080910C037B
:1053500090910D0390939B0380939A0364E372E012
:10536000CE0101960E943017CE0101960E94D315FE
:10537000082FCE0101960E94CB1501110E94251421
:1053800069E372E0CE0101960E943017CE010196CA
:105390000E94D315082FCE0101960E94CB15011152
:1053A0000E94B81360E472E0CE0101960E943017AB
:1053B0004D815E818091FB069091FC0684179507D4
:1053C00080F08091F7069091F806009751F069817E
:1053D0007A816115710529F00E94863601E0892BDA
:1053E00009F000E0CE0101960E94CB15002309F4DC
:1053F0006AC0A090FB06B090FC06A1E18A2E912C19
:1054000081E1A816B10420F04501B1E1AB2EB12C29
:105410006AEC71E0CE0101960E943017E090FB0625
:10542000F090FC06AE14BF0480F58E149F0408F4BF
:105430007401E091F706F091F806EE0DFF1D708003
:1054400010828091F7069091F806A80EB91EA1145B
:10545000B10479F0F50101900020E9F731974F018F
:105460008A189B08B401CE0101960E940817811189
:1054700011C3CE0101960E94B9158091F706909153
:10548000F806E80EF91EF701708289819A8100976B
:1054900009F408C30E94C33070939B0360939A037E
:1054A00010938B0310930E0320910C0330910D0386
:1054B0002617370724F430939B0320939A03CE01D9
:1054C00001960E94CB1567E472E0CE0101960E941E
:1054D0003017CE0101960E94D315082FCE010196F8
:1054E0000E94CB15002371F08DEF96E00E94CE163E
:1054F0006CE472E08DEF96E00E94D2168DEF96E09C
:105500000E94CE1661E572E0CE0101960E9430172E
:10551000CE0101960E94D315082FCE0101960E945C
:10552000CB15002371F08DEF96E00E94CE1667E553
:1055300072E08DEF96E00E94D2168DEF96E00E9409
:10554000CE166DE572E0CE0101960E943017CE01B5
:1055500001960E94D315082FCE0101960E94CB150B
:10556000002371F08DEF96E00E94CE1662E672E0A5
:105570008DEF96E00E94D2168DEF96E00E94CE1637
:1055800067E672E0CE0101960E943017CE010196C7
:105590000E94D315082FCE0101960E94CB1500233F
:1055A00071F08DEF96E00E94CE166DE672E08DEF01
:1055B00096E00E94D2168DEF96E00E94CE1663E729
:1055C00072E0CE0101960E943017CE0101960E9432
:1055D000D315082FCE0101960E94CB15002371F040
:1055E0008DEF96E00E94CE1668E772E08DEF96E0B0
:1055F0000E94D2168DEF96E00E94CE166DE772E003
:10560000CE0101960E943017CE0101960E94D3155B
:10561000082FCE0101960E94CB15002371F08DEF6B
:1056200096E00E94CE1663E872E08DEF96E00E944D
:10563000D2168DEF96E00E94CE1669E872E0CE0198
:1056400001960E943017CE0101960E94D315082FB3
:10565000CE0101960E94CB15011110920E036FE846
:1056600072E0CE0101960E943017CE0101960E9491
:10567000D315082FCE0101960E94CB15011110936E
:105680000E0364E972E0CE0101960E943017CE014C
:1056900001960E94D315082FCE0101960E94CB15CA
:1056A00001111093990369E972E0CE0101960E94FD
:1056B0003017CE0101960E94D315082FCE01019616
:1056C0000E94CB150111109299031093140180913F
:1056D0006B01882309F473C00E942902809008039B
:1056E00090900903A0900A03B0900B036819790900
:1056F0008A099B09613D77408105910528F48091D5
:105700000703882309F45BC066EB70E084EF95E043
:105710000E94650260910C0370910D034AE050E015
:1057200084EF95E00E94901684EF95E00E94CE16DB
:1057300080910703882309F4B9C1109207030E94DE
:105740002902609308037093090380930A039093DE
:105750000B0367EA70E084EF95E00E9465028DEF2D
:1057600096E00E94CE166FE972E08DEF96E00E94FF
:10577000D21660919A0370919B034AE050E08DEF3E
:1057800096E00E94901660919A0370919B034AE004
:1057900050E084EF95E00E94901684EF95E00E941F
:1057A000CE168DEF96E00E94CE160E9429026093DD
:1057B00008037093090380930A0390930B030E94DC
:1057C000AE1D80916B01882309F4CCC080919A03AF
:1057D00090919B039093560380935503F5E32F2EEE
:1057E000F3E03F2E5101F5011192119211921192A5
:1057F0005F0185E593E08E179F07A9F760E086E0DB
:105800000E945F0161E070E080E090E00E94F6019C
:1058100061E086E00E945F0161E085E00E945F0137
:1058200060E170E080E090E00E94F60160E085E0D9
:105830000E945F01109234031092330310923203DE
:1058400010923103E5E3EE2EE3E0FE2E70E2872EA8
:10585000912C88E00E9436019093300380932F03AF
:1058600020913103309132030197C9F4F70180810F
:105870009181A281B38141E050E060E070E0022EAE
:1058800004C0440F551F661F771F0A94D2F7842B5C
:10589000952BA62BB72B80839183A283B3832F5F95
:1058A0003F4F309332032093310380913303909123
:1058B00034030196909334038093330360E087E0D0
:1058C0000E945F018AE090E00E94C90161E087E0E8
:1058D0000E945F01F1E08F1A910809F0BACF10928F
:1058E00032031092310324E0E20EF11CAE14BF0427
:1058F00009F0ACCF5FE0652E53E0752E65E3A62E70
:1059000063E0B62E4301F40141915191619171918F
:105910004F01F50181919191A191B1915F014817DA
:1059200059076A077B0751F00E9429026093E2033E
:105930007093E3038093E4039093E503FBE28F16F7
:10594000F3E09F0601F7F10181919191A191B1914D
:105950001F01F30181939193A193B1933F012E1401
:105960003F0489F70E94A02180916B01882309F4EC
:105970000EC38091E6039091E703019709F09CC163
:1059800062E080E10E948D018091E1038111C1C03C
:105990008091E003882309F4BCC00091DF0364E632
:1059A00070E080E090E00E94F601002309F485C0D9
:1059B0008091DE038111B9C30E944713F12CE12CC1
:1059C0008091DC039091DD036091690170916A011F
:1059D0000E9423346E157F050CF46FC06AEF70E0EF
:1059E00080E090E00E94F60161E080E10E948D017C
:1059F00060E080E10E945F0162E370E080E090E09F
:105A00000E94F60162E080E10E948D01FFEFEF1A33
:105A1000FF0AD6CF540145018FEF881A980AF50185
:105A20008081082E000C990B0E940C33892B91F772
:105A3000F1E0EF1AF108E60CF71CF7018081082E5F
:105A4000000C990B0E940C33892B39F0EA14FB04EB
:105A500020F0F1E0EF1AF108F0CF2FEFE21AF20A8E
:105A6000A7014A195B095093FC064093FB066A1490
:105A70007B0420F4B501C3010E946236E091F70671
:105A8000F091F8068091FB069091FC06E80FF91F53
:105A90001082EACB9E828D82B50189819A810E9413
:105AA0007F36EBCC60E070E0CB01F6CC64E970E0CF
:105AB00084EF95E00E94650266CE8091DF0381113C
:105AC0002DC06AEF70E080E090E00E94F60161E096
:105AD00080E10E948D0160E080E10E945F0164E648
