:100000000C94B0000C94D8000C94D8000C941620DA
:100010000C94D8000C94D8000C94D8000C94D80000
:100020000C94D8000C94D8000C94D8000C94D800F0
:100030000C94D8000C94D8000C94D8000C94D800E0
:100040000C94741F0C94D8000C94E41F0C94BE1FE5
:100050000C94D8000C94D8000C94D8000C94D800C0
:100060000C94D8000C94D800300030005356532024
:10007000495220434F4D4D414E443D007C3C3E5E35
:100080002B3D3F2F5B5D3B2C2A225C005356535F78
:1000900046575F005356532043555252454E542005
:1000A000494E5055543D00535653204E4557204914
:1000B0004E5055543D0053565320544F54414C20FC
:1000C000494E505554533D0044656C657465642039
:1000D0000044656C6179286D696C6C697365636F48
:1000E0006E6473293D3000416464726573733D0032
:1000F000436F6D6D616E643D0000000000230026BB
:1001000000290000000009000302000004050800A7
:1001100000000000000000000000000000002400BB
:1001200027002A0000000000250028002B000404FE
:10013000040404040404020202020202030303038F
:10014000030302020301020408102040800102049C
:100150000810200102040810204080401221452C84
:1001600011241FBECFEFD8E0DEBFCDBF26E0AAE04E
:10017000B2E001C01D92AC35B207E1F712E0A0E099
:10018000B1E0E8EAF4E602C005900D92AA30B107AA
:10019000D9F710E0CFEAD0E004C02197FE010E9419
:1001A000F72FCE3AD107C9F70E94B1210C944732FC
:1001B0000C940000CF93DF93FC0182819381909394
:1001C0001F0680931E0684819581A681B781809346
:1001D000200690932106A0932206B09323068085E3
:1001E0009185A285B3858093240690932506A093DC
:1001F0002606B0932706DF011C96CF014996C8E278
:10020000D6E02D912993A817B907D9F7818D928D42
:1002100090933606809335068CE196E0DF91CF917E
:100220000895843081F028F48230E9F08330F9F0C9
:100230000895883071F0893091F08530B9F480915B
:1002400080008F7D03C0809180008F778093800035
:1002500008958091B0008F778093B00008958091C9
:10026000B0008F7DF9CF84B58F7784BD089584B5B4
:100270008F7DFBCFCF93DF93282F30E0F901ED5F27
:10028000FE4F8491F901EB5BFE4FD491F901E25DE1
:10029000FE4FC491CC23A1F081110E941101EC2FDB
:1002A000F0E0EE0FFF1FE750FF4FA591B491EC91E6
:1002B000ED2381E090E009F480E0DF91CF91089593
:1002C00080E090E0FACF1F93CF93DF93282F30E0A8
:1002D000F901ED5FFE4F8491F901EB5BFE4FD49184
:1002E000F901E25DFE4FC491CC23A9F0162F8111D4
:1002F0000E941101EC2FF0E0EE0FFF1FEC5DFE4FAE
:10030000A591B4918FB7F894EC91111108C0D095D4
:10031000DE23DC938FBFDF91CF911F910895DE2BF9
:10032000F8CFCF93DF9390E0FC01EB5BFE4F24917D
:10033000825D9E4FFC0184918823C9F090E0880F74
:10034000991FFC01E65EFE4FA591B491FC01EC5DA6
:10035000FE4FC591D49161110DC09FB7F8948C9157
:10036000209582238C938881282328839FBFDF9147
:10037000CF910895623051F49FB7F8943C91822F49
:10038000809583238C93E8812E2BEFCF8FB7F89441
:10039000EC912E2B2C938FBFEACF880F991F880FDB
:1003A000991F05970197F1F708953FB7F894809149
:1003B0000D0390910E03A0910F03B091100326B589
:1003C000A89B05C02F3F19F00196A11DB11D3FBF8D
:1003D000BA2FA92F982F8827BC01CD01620F711D5C
:1003E000811D911D42E0660F771F881F991F4A9556
:1003F000D1F708958F929F92AF92BF92CF92DF92E2
:10040000EF92FF926B017C010E94D5014B015C01D0
:10041000C114D104E104F104B9F00E94D5016819B6
:1004200079098A099B09683E73408105910580F32B
:1004300021E0C21AD108E108F10888EE880E83E0B5
:10044000981EA11CB11CE4CFFF90EF90DF90CF90DD
:10045000BF90AF909F908F9008952FB7F8946091C0
:10046000090370910A0380910B0390910C032FBF35
:1004700008950F931F93CF93DF93EC010E942D02F9
:10048000688779878A879B87E881F9810284F38569
:10049000E02DCE01099597FF15C00E942D02088519
:1004A00019852A853B85601B710B820B930B0C8190
:1004B0001D812E813F81601771078207930720F30A
:1004C0008FEF9FEFDF91CF911F910F910895EF92E2
:1004D000FF920F931F93CF93DF938C017B01D0E0AA
:1004E000C0E0F701EC0FFD1F6491662361F0D801B5
:1004F000ED91FC910190F081E02DC8010995892BC7
:1005000011F02196EECFCE01DF91CF911F910F9187
:10051000FF90EF900895AF92BF92CF92DF92EF924B
:10052000FF920F931F93CF93DF936C017B018B019D
:10053000040F151FEB015E01AE18BF08C017D107ED
:1005400059F06991D601ED91FC910190F081E02D77
:10055000C6010995892B79F7C501DF91CF911F91CC
:100560000F91FF90EF90DF90CF90BF90AF900895E4
:10057000FC01538D448D252F30E0842F90E0821BA9
:10058000930B541710F0CF96089501970895FC012E
:10059000918D828D981761F0A28DAE0FBF2FB11D86
:1005A0005D968C91928D9F5F9F73928F90E00895DE
:1005B0008FEF9FEF0895FC01918D828D981731F098
:1005C000828DE80FF11D858D90E008958FEF9FEFEC
:1005D0000895FC01918D228D892F90E0805C9F4FC2
:1005E000821B91098F739927089584E395E00E94F7
:1005F000E90221E0892B09F420E0822F089580E0B0
:1006000090E0892B29F00E94F50281110C940000E2
:100610000895FC01A48DA80FB92FB11DA35ABF4F97
:100620002C91848D90E001968F739927848FA689F1
:10063000B7892C93A089B1898C91837080648C9345
:10064000938D848D981306C00288F389E02D8081F4
:100650008F7D80830895EF92FF920F931F93CF9326
:10066000DF93EC0181E0888F9B8D8C8D98131AC0ED
:10067000E889F989808185FF15C09FB7F894EE89D4
:10068000FF896083E889F989808183708064808331
:100690009FBF81E090E0DF91CF911F910F91FF907C
:1006A000EF900895F62E0B8D10E00F5F1F4F0F7324
:1006B0001127E02E8C8D8E110CC00FB607FCFACFDF
:1006C000E889F989808185FFF5CFCE010E94090371
:1006D000F1CFEB8DEC0FFD2FF11DE35AFF4FF082B0
:1006E0009FB7F8940B8FEA89FB8980818062CFCF16
:1006F000CF93DF93EC01888D8823B9F0AA89BB8959
:10070000E889F9898C9185FD03C0808186FD0DC043
:100710000FB607FCF7CF8C9185FFF2CF808185FF64
:10072000EDCFCE010E940903E9CFDF91CF9108956B
:100730008FB7F894809160028FBF089561E0FC014B
:1007400084810E94630180915F02811110925F0297
:1007500008958EBD00000DB407FEFDCF8EB508953F
:100760008FEF0C94A9030F931F93CF93DF93EC01AA
:100770000E942D028B010E94B0038F3F69F00E94FE
:100780002D02601B710B6C177D07A8F380E0DF91D1
:10079000CF911F910F91089581E0F9CF8CBD9DBD40
:1007A0000895CF93DF93EC0180915F02811109C01E
:1007B00081E080935F028091D1059091D2050E94E3
:1007C000CE0360E08C81DF91CF910C9463018F9216
:1007D0009F92AF92BF92FF920F931F93CF93DF939D
:1007E000EC01F62E49015A018E81882389F08F8110
:1007F00098859C012F5F3F4F38872F83823092402E
:1008000018F40E94B003F3CFCE010E949E031E8213
:10081000CE010E94D1038CE291E00E94B3038F2DA0
:1008200080640E94A90308E110E0D501C401002EF4
:1008300004C0B695A795979587950A94D2F70E941C
:10084000A90308501109083F8FEF180771F785E9D0
:10085000FF2021F028E087E8F2128FEF0E94A90321
:1008600010E00E94B0038A8787FF04C01F3F11F089
:100870001F5FF7CFDF91CF911F910F91FF90BF9036
:10088000AF909F908F900895AF92BF92CF92DF92DA
:10089000EF92FF920F931F93CF93DF93EC016901C7
:1008A000C801820F931F8130924050F58E818823BA
:1008B00079F088819981AA81BB8184179507A60761
:1008C000B70731F48F819885C816D90608F042C061
:1008D000488359836A837B838B85833039F089E031
:1008E000440F551F661F771F8A95D1F79A01AB01F8
:1008F00061E1CE010E94E703882389F083E08D83C4
:10090000CE010E949E0380E0DF91CF911F910F9155
:10091000FF90EF90DF90CF90BF90AF9008950E942E
:100920002D025B010E94B0038A878F3F69F40E9409
:100930002D026A197B096D327140A0F38FE08D831F
:10094000CE010E949E03DCCF8E3F89F418861F8261
:1009500081E08E838F8198858C159D0550F40E94CF
:10096000B0038F819885019698878F83F3CF8DE0B0
:10097000E6CF6701E00EF11E0E94B003F6018193FD
:100980006F01EE15FF05C1F78F819885080F191FBC
:1009900018870F838985882319F001151240A0F06C
:1009A0008E81882389F08F8198859C012F5F3F4F2E
:1009B00038872F838230924018F40E94B003F3CF1F
:1009C000CE010E949E031E8281E09ECFCF92DF92D5
:1009D000EF92FF920F93CF93DF93EC01690182E1D5
:1009E000411551056105710599F08B85833039F00A
:1009F00089E0440F551F661F771F8A95D1F79A012A
:100A0000AB0168E1CE010E94E703882319F084E07E
:100A10008D832DC08EEF0E94A90376018EEFD81A28
:100A2000F70181917F010E94A903EC14FD04C1F735
:100A30008FEF0E94A9038FEF0E94A9030E94B003C9
:100A40008A878F71853071F4011116C0CE010E9422
:100A50009E0381E0DF91CF910F91FF90EF90DF90A7
:100A6000CF90089581E18D83CE010E949E03CE0137
:100A70000E949E0380E0EECF88E592E00E94B303DF
:100A8000811102C085E1C4CF20E030E0A9016DE012
:100A9000CE010E94E703882311F084E1B9CF0E94C0
:100AA000B0038111FACFD2CF0F93409162025091DF
:100AB0006302609164027091650241155105610500
:100AC000710599F0082F24E333E08091320390916F
:100AD00033030E94E604882349F0109262021092C8
:100AE0006302109264021092650281E00F910895F2
:100AF0000F93CF93C82F80916102811105C0C1E08F
:100B00008C2FCF910F9108954091000150910101D8
:100B100060910201709103010C2F24E333E0809176
:100B20003203909133030E94E604811102C0C0E0B9
:100B3000E7CFCC2321F381E00E9454058823B9F349
:100B400010926102DDCF8F929F92AF92BF92EF928F
:100B5000FF920F931F93CF934B015C01C42F8091A1
:100B6000000190910101A0910201B091030188154B
:100B70009905AA05BB0551F181E00E947805811114
:100B80000BC080E0CF911F910F91FF90EF90BF902D
:100B9000AF909F908F90089584E3E82E83E0F82E25
:100BA00000E012E030E020E0B501A40180913203C2
:100BB000909133030E944404882319F3809200012A
:100BC00090920101A0920201B09203014091610252
:100BD0004C2B4093610281E0D5CFCF93DF93EC01A2
:100BE0006E857F858889998941E00E94A3058823C5
:100BF00051F08A8920E2829FC00111248C5C9C4FB5
:100C0000DF91CF91089590E080E0FACF8F929F928C
:100C1000AF92BF92CF92DF92EF92FF92CF9323EDEC
:100C200035E03093330320933203882309F46DC0F9
:100C300040E060E070E0CB010E94A30581110BC091
:100C400080E0CF91FF90EF90DF90CF90BF90AF907A
:100C50009F908F9008958091F2048F7789F780910B
:100C6000FE049091FF04A0910005B0910105843627
:100C70009105A105B10520F3C090FA04D090FB04C2
:100C8000E090FC04F090FD04C114D104E104F104EF
:100C9000B9F240E0C701B6010E94A305882381F2A2
:100CA00080913F03909140038115924049F6A091B5
:100CB0004403AA2329F26091420370914303611512
:100CC000710509F4BDCF20914103222309F4B8CF67
:100CD000A093F1052093E30590E080E030E0E1E0AF
:100CE000F0E0C82FAF01082E02C0440F551F0A9430
:100CF000E2F72417350769F041E0480F0196893083
:100D0000910579F74093EC059BCFC12CD12C76014E
:100D1000C0CF8093EC0520914A0330914B0350E003
:100D200040E02115310541F42091580330915903D9
:100D300040915A0350915B032093E4053093E505FD
:100D40004093E6055093E70546015701860E971E2E
:100D5000A11CB11C8092F2059092F305A092F405BB
:100D6000B092F505E0914503F0914603F093F80544
:100D7000E093F705B0E00E945C2FDC01CB01880D09
:100D8000991DAA1DBB1D8093F9059093FA05A093A8
:100D9000FB05B093FC0525E0EE0FFF1F2A95E1F758
:100DA000E150FE4FEF2FFF27E6958E0F9F1FA11DED
:100DB000B11D8093ED059093EE05A093EF05B093E0
:100DC000F0058090470390904803B12CA12C81142A
:100DD000910441F48090540390905503A0905603E1
:100DE000B0905703C81AD90AEA0AFB0AC80CD91CE2
:100DF000EA1CFB1C04C0F694E794D794C794CA95E8
:100E0000D2F7C092E805D092E905E092EA05F092A7
:100E1000EB0585EFC8168FE0D806E104F10428F44D
:100E20008CE08093F60581E00CCF80E125EFC216BF
:100E30002FEFD206E104F104A0F3809160039091BA
:100E40006103A0916203B09163038093F9059093CD
:100E5000FA05A093FB05B093FC0580E2E2CF4F9228
:100E60005F926F927F928F929F92AF92BF92CF923A
:100E7000DF92EF92FF920F931F93CF93DF93EC01DA
:100E8000423051056105710590F480E0DF91CF910A
:100E90001F910F91FF90EF90DF90CF90BF90AF9098
:100EA0009F908F907F906F905F904F90089589856D
:100EB0009A85AB85BC850196A11DB11D8417950748
:100EC000A607B70710F3CB88DC88ED88FE888F89EA
:100ED000803109F042C0BB27A72F962F852F4801EC
:100EE00059012A013B01C80ED91EEA1EFB1E809142
:100EF000000190910101A0910201B0910301C81677
:100F0000D906EA06FB0699F58F898031C1F5B30150
:100F1000A201552766277727440F551F4C5C5C4F6D
:100F2000FA019182808280916102816080936102E6
:100F30008A89823080F08D819E81AF81B8858C0D49
:100F40009D1DAE1DBF1D8093620290936302A0930E
:100F50006402B093650281E099CFDB01CA01E7E04A
:100F6000B695A79597958795EA95D1F7B8CF40E0C4
:100F7000C701B6010E94A3058111C6CF86CFB30178
:100F8000A2014F77552766277727440F551F440F37
:100F9000551F4C5C5C4FFA0180829182A282B38221
:100FA000C2CF8F929F92AF92BF92CF92DF92EF9279
:100FB000FF920F931F93CF93DF93FC01818592855E
:100FC000A385B4850196A11DB11D84179507A607B9
:100FD000B70770F480E0DF91CF911F910F91FF90E0
:100FE000EF90DF90CF90BF90AF909F908F9008953B
:100FF00083889488A588B6888789803189F5BB273E
:10100000A72F962F852FE9016A017B018F01BC0173
:10101000CD01680D791D8A1D9B1D80900001909067
:101020000101A0900201B090030186169706A80660
:10103000B90601F5F8018789803111F5DD24EE2428
:10104000FF24F601EE0FFF1FEC5CFC4F80819181C5
:10105000B0E0A0E088839983AA83BB8381E0BBCF03
:10106000DB01CA01C7E0B695A79597958795CA9504
:10107000D1F7C9CF40E00E94A3058111DBCFAACFF1
:10108000E894C7F8DD24EE24FF24F601EE0FFF1FDD
:10109000EE0FFF1FEC5CFC4F80819181A281B38138
:1010A000BF70D8CF4F925F926F927F92AF92BF92F4
:1010B000CF92DF92EF92FF920F931F93CF93DF9324
:1010C00000D000D0CDB7DEB78C0149835A836B8343
:1010D0007C835901C12CD12C7601412C82E0582E01
:1010E000612C712C49815A816B817C819E012F5F1B
:1010F0003F4FC8010E94D107882339F1F801858547
:10110000A301920104C0220F331F441F551F8A956B
:10111000D2F7DA01C901C80ED91EEA1EFB1E4981A9
:101120005A816B817C818789803111F188EF9FEF33
:10113000AFEFBFE0481759076A077B0798F2F50140
:10114000C082D182E282F38281E00F900F900F90F3
:101150000F90DF91CF911F910F91FF90EF90DF9053
:10116000CF90BF90AF907F906F905F904F90089519
:1011700088EF9FEFA0E0B0E0DDCFCF93DF93FC01DD
:101180002581222321F080E0DF91CF910895EC01A9
:101190008091F605803159F582E08583178A108E9B
:1011A000118E128E8091F7059091F805B0E0A0E0C5
:1011B00025E0880F991FAA1FBB1F2A95D1F7838BA3
:1011C000948BA58BB68B8FED95E09C8F8B8F81E0F8
:1011D0008C831E821F82188619861A861B861C869F
:1011E0001D861E861F86188A198A1A8ACDCF8032DC
:1011F00051F683E085834091F9055091FA0560919D
:10120000FB057091FC05478B508F618F728F9F019A
:101210002D5E3F4F8FED95E00E9452088111D3CF94
:10122000B2CF8F929F92AF92BF92CF92DF92EF9206
:10123000FF920F931F93CF93DF93EC018D81811168
:101240000EC080E0DF91CF911F910F91FF90EF9042
:10125000DF90CF90BF90AF909F908F9008950B89B3
:101260001C892D893E89041715072607370748F37F
:101270004A015B01823031F48A869B86AC86BD864A
:1012800081E0E0CF81149104A104B10449F41E82ED
:101290001F82188619861A861B861C861D86F0CF2B
:1012A0000A851B852C853D85EB8DFC8D858590E021
:1012B0000996B901A8014150510961097109082E27
:1012C00004C076956795579547950A94D2F77501AE
:1012D0006401E1E0CE1AD108E108F10804C0F694F7
:1012E000E794D794C7948A95D2F7C416D506E60634
:1012F000F70620F0012B022B032B11F58F89988D17
:10130000A98DBA8D8E839F83A887B9878E010A5FC6
:101310001F4FC114D104E104F10409F4ADCF4E8193
:101320005F816885798598018B8D9C8D0E94D1079E
:1013300091E0C91AD108E108F1088111EACF81CF03
:10134000C41AD50AE60AF70AE1CF3F924F925F929C
:101350006F927F928F929F92AF92BF92CF92DF92C5
:10136000EF92FF920F931F93CF93DF93CDB7DEB72A
:101370002C970FB6F894DEBF0FBECDBF5C01DC0129
:101380005B968D909C905C9716964D905D906D90BD
:101390007C901997411451046104710409F468C0E8
:1013A000BFEF4B1A5B0A6B0A7B0A312CF401818573
:1013B0009285A385B4859C01AD012F5F3F4F4F4FB0
:1013C0005F4F29873A874B875C87730162011D82D3
:1013D0001E821F821886F40181859285A385B485BB
:1013E0002D813E814F815885281739074A075B07B1
:1013F00008F056C089859A85AB85BC858C159D05FE
:10140000AE05BF0550F482E0C82ED12CE12CF12CA2
:1014100092E0492E512C612C712C9E012F5F3F4F81
:10142000B701A601C4010E94D1078823C9F18981AF
:101430009A81AB81BC81892B8A2B8B2B09F12601E8
:1014400037019FEF491A590A690A790A2D813E81AD
:101450004F8158852F5F3F4F4F4F5F4F2D833E8306
:101460004F8358873FEFC31AD30AE30AF30AB3CF77
:10147000F40140805180628073803324339496CF8E
:10148000C414D504E604F70409F70FEF1FEF2FEF9C
:101490003FE0B701A601C4010E942F07811119C0C6
:1014A00080E02C960FB6F894DEBF0FBECDBFDF9163
:1014B000CF911F910F91FF90EF90DF90CF90BF9051
:1014C000AF909F908F907F906F905F904F903F90E4
:1014D0000895D50116964D915D916D917C91199766
:1014E000411551056105710539F097018601C40167
:1014F0000E942F078823A1F2D5011696CD92DD9286
:10150000ED92FC921997332051F0D701C601019654
:10151000A11DB11DF40180839183A283B383F501E2
:101520008789908DA18DB28D892B8A2B8B2B39F4D5
:101530008481C78AD08EE18EF28E80688483F50123
:1015400084818062848381E0ACCF1F93CF93DF934B
:10155000FC012581222371F1162FEC01848187FF84
:101560001EC0CF010E94ED05FC01892B19F18D8170
:10157000823040F48B899C89AD89BE89848F958F98
:10158000A68FB78F8F89988D938F828F8F89988D33
:10159000A98DBA8DB58BA48B8C818F778C8311111B
:1015A00003C08C818F7E8C83812FDF91CF911F911F
:1015B0000C94780580E0DF91CF911F910895FF9200
:1015C0000F931F93CF93DF93EC018D81813041F016
:1015D00090E080E0DF91CF911F910F91FF900895EF
:1015E0008C8181FFF5CF82FD1BC0009132031091E9
:1015F0003303C8010E94D1030E94B003F82EC80132
:101600000E949E038FEFF812E3CF8C8185FF1BC0F1
:1016100060E0CE010E94A50A8C818F7D8C83D8CF9B
:101620004B895C896D897E898A859B85AC85BD8562
:1016300084179507A607B707C1F2CE010E941109CA
:101640008111D3CFC5CF4091620250916302609166
:10165000640270916502452B462B472B21F080E0F8
:101660000E945405B5CF80618C832A853B853170FB
:1016700080E092E0821B930BADCFCF93DF93EC0120
:1016800061E00E94A50A882311F01D8281E0DF91AC
:10169000CF910895CF92DF92EF92FF921F93CF9355
:1016A000DF9380910206882321F08DEF95E00E9460
:1016B0003D0B1092DE051092DC051092D9051092B8
:1016C000D8058AE08093D7050E942D02EB0161E0E6
:1016D0008091D7050E94910161E08091D7050E9419
:1016E00063011FB7F89480913103811127C0E8E3AB
:1016F000F1E08491EFE4F1E09491E82FF0E0EE0F57
:10170000FF1FE65EFE4FA591B491EC91E92321F411
:1017100061E08AE00E94630161E08AE00E94910139
:101720008CB580618CBD8CB580648CBD61E08DE032
:101730000E94910161E08BE00E9491018091310350
:101740008F5F809331031FBF82E58093D105109294
:10175000D2058091D1059091D2050E94CE031AE066
:101760008FEF0E94A9031150D9F783ED95E00E94F5
:10177000D10320E030E0A90160E083ED95E00E9414
:10178000E703182F8093DD05813081F00E942D0240
:101790006C1B7D0B613D774060F381E08093D80541
:1017A00083ED95E00E949E0390E078C02AEA31E044
:1017B00040E050E068E083ED95E00E94E70382FF9F
:1017C0002AC01093DE058091DE05C12CD12C760154
:1017D000823029F4C12CD12CE12C80E4F82E20E0B9
:1017E00030E0A90167E383ED95E00E94E703A701DC
:1017F000960169E283ED95E00E94E7038093DD05A1
:101800008823C1F00E942D026C1B7D0B613D774047
:1018100030F388E0C3CF14E00E94B0038093DD056D
:101820001150D1F78A3A11F082E0B8CF82E080936C
:10183000DE05C9CF8091DE058230D1F420E030E0B2
:10184000A9016AE383ED95E00E94E703882311F084
:1018500086E0A4CF0E94B003807C803C19F483E032
:101860008093DE050E94B0030E94B0030E94B00383
:1018700083ED95E00E949E0380E58093D105109250
:10188000D20581E00E940606882389F08DEF95E05D
:101890000E94BD0891E0882309F486CF892FDF914B
:1018A000CF911F91FF90EF90DF90CF90089580E04F
:1018B0000E940606882309F477CFE8CF8F929F9283
:1018C000AF92BF92CF92DF92EF92FF92CF93DF93CE
:1018D000EC010E94A50981110CC080E0DF91CF913D
:1018E000FF90EF90DF90CF90BF90AF909F908F9040
:1018F0000895EB8DFC8DCE80DF80E884F98482E052
:10190000C81AD108E108F108858504C0CC0CDD1C9B
:10191000EE1CFF1C8A95D2F786859785A089B18930
:10192000C80ED91EEA1EFB1E848146015701880E8F
:10193000911CA11CB11CC814D904EA04FB04F9F0E1
:1019400081E0881A9108A108B10881E00E94780519
:10195000882319F2E4E3F3E0119285E0E433F80719
:10196000D9F78092000190920101A0920201B092F9
:10197000030180916102816080936102DCCFEB8D75
:10198000FC8D258580E092E0A0E0B0E004C0880FE7
:10199000991FAA1FBB1F2A95D2F74B895C896D89B5
:1019A0007E89840F951FA61FB71F8B8B9C8BAD8BD9
:1019B000BE8B81E093CF2F923F924F925F926F92B6
:1019C0007F928F929F92AF92BF92CF92DF92EF92CF
:1019D000FF920F931F93CF93DF9300D000D01F92FD
:1019E000CDB7DEB77C015B01342E5D83DC0115963B
:1019F0008C911597813009F0CEC014962C9021FE61
:101A0000CAC022FCB4C0C32CDD8022947FE0272210
:101A10002094B22DB1702B2ED7011A964D915D9165
:101A20006D917C911D97C114D10409F428C15B9676
:101A30008D919C915C97FC0174807A948A019B0142
:101A400069E036952795179507956A95D1F7702225
:101A50008A011170711020C001151105E9F4169664
:101A60004D915D916D917C911997411551056105DD
:101A7000710509F099C057968D919D910D90BC917B
:101A8000A02D0097A105B10509F0B0C0C7010E94C3
:101A9000A509882309F47FC080E092E0801B910BA8
:101AA00046018C159D0508F44C01D7015B964D91BC
:101AB0005C915C9716968D919D910D90BC91A02D97
:101AC0000297A109B109FA01258504C0880F991F61
:101AD000AA1FBB1F2A95D2F7468557856089718951
:101AE000840F951FA61FB71F9C01AD01270D311D47
:101AF000411D511D29013A01811432E0930609F07C
:101B00007BC08091000190910101A0910201B091F0
:101B1000030184159505A605B70559F48FEF9FEFCE
:101B2000DC018093000190930101A0930201B09326
:101B30000301022D9501B301A2018091320390911E
:101B400033030E94E604882331F19EEFB91AC818C6
:101B5000D908F70182859385A485B585880D991DDF
:101B6000A11DB11D82879387A487B58755CFF70143
:101B7000438954896589768982859385A485B5854D
:101B8000481759076A077B0709F43DCFC7010E9430
:101B90001109811138CF81E090E0D70113969C9311
:101BA0008E93129780E007C09E012F5F3F4F0E94E7
:101BB000D107811102C090E079C089819A81AB81FF
:101BC000BC81F701238D348DF901278948EF5FEF40
:101BD00060E070E0203121F048EF5FEF6FEF7FE0D1
:101BE00084179507A607B70708F050CFF70186833B
:101BF0009783A087B18750CF0115110599F5D701BB
:101C00001A964D915D916D917C911D9753968D9192
:101C10009D910D90BC91A02D481759076A077B072D
:101C200008F181E00E947805882309F4B4CF40923E
:101C300000015092010160920201709203018091B3
:101C40006102816080936102C8018C5C9C4FD50168
:101C50009C01280D391DFC012E173F0759F04D91AD
:101C60004193FACF41E0C301B2010E94A305811163
:101C7000EBCF91CF281B390BA20EB31E68CFF70113
:101C800083899489A589B68984179507A607B7071C
:101C900038F48481438B548B658B768B8068848386
:101CA000F701848183FD1AC0832D9D810F900F90D1
:101CB0000F900F900F90DF91CF911F910F91FF9098
:101CC000EF90DF90CF90BF90AF909F908F907F90DC
:101CD0006F905F904F903F902F90089561E0C70103
:101CE0000E94A50A882309F456CFDECFCF93DF9355
:101CF0001F92CDB7DEB7698341E050E0BE016F5F50
:101D00007F4F0E94DB0C0F90DF91CF910895FC0173
:101D1000DB0112968D919C911397938382838AE3C2
:101D200091E09183808314968C9114978483159607
:101D30008C911597858316964D915D916D917C914F
:101D4000199746835783608771871A964D915D91E5
:101D50006D917C911D9742875387648775871E9686
:101D60004D915D916D917C91519746875787608B1E
:101D7000718B52968C915297828B53964D915D91B7
:101D80006D917C915697438B548B658B768B5796D0
:101D90004D915D916D917C915A97478B508F618FDA
:101DA000728F5B968D919C91948F838F0895089587
:101DB000FC01818D928D009719F061E00C94A50AC9
:101DC0000895DC015996ED91FC913097B9F0838923
:101DD0009489A589B6894285538564857585841B58
:101DE000950BA60BB70B811520E89207A105B1054D
:101DF00038F08FEF9FE7A0E0B0E0089590E080E03A
:101E00000895DC0159968D919C91009739F0DC0181
:101E1000ED91FC910480F581E02D099490E080E043
:101E20000895CF93DF93EC01E98DFA8D309749F453
:101E300081E090E09B838A8390E080E0DF91CF9106
:101E4000089513821282898D9A8D0E94DB0CE98D90
:101E5000FA8D22813381232B59F7F0CFCF93DF9373
:101E60001F92CDB7DEB76983DC01ED91FC91028052
:101E7000F381E02D41E050E0BE016F5F7F4F099597
:101E80000F90DF91CF9108952F923F924F925F92E2
:101E90006F927F928F929F92AF92BF92CF92DF927A
:101EA000EF92FF920F931F93CF93DF9300D01F9277
:101EB000CDB7DEB7FC018581811118C08FEF9FEF90
:101EC0000F900F900F90DF91CF911F910F91FF9086
:101ED000EF90DF90CF90BF90AF909F908F907F90CA
:101EE0006F905F904F903F902F900895848180FF76
:101EF000E5CF438954896589768982859385A48550
:101F0000B585312C212C481759076A077B0719F032
:101F100022242394312C6F012101CE0101963C0132
:101F2000DF011696BB83AA834114510409F4C5C08E
:101F3000F60142855385648575854A01F1E09F224B
:101F4000D6015B968D919C915C978A019B01E9E09B
:101F50003695279517950795EA95D1F71596EC9143
:101F6000E230E9F5FC01628D738D848D958D600FF3
:101F7000711F821F931FA12C22E0B22EA818B9084E
:101F80004A145B0408F45201F601248126FD04C0C2
:101F9000A114F2E0BF0671F400910001109101015B
:101FA000209102013091030106171707280739070E
:101FB00009F05EC040E00E94A305882309F47ECFAB
:101FC000C4018C5C9C4FD3019C012A0D3B1DFC017C
:101FD0002E173F0709F46CC041914D93F9CFDC01F6
:101FE0001496BC90BA94B0228114910479F4B11083
:101FF0000DC0452B462B472B69F5F6018789908D3F
:10200000A18DB28D86839783A087B187D6015B9619
:10201000ED91FC915C9716966D917D918D919C91BF
:1020200019976250710981099109258504C0660FCD
:10203000771F881F991F2A95D2F706851785208953
:102040003189600F711F821F931F6B0D711D811DE0
:10205000911D91CFD60116964D915D916D917C9118
:1020600019972A813B810E94D1078111CFCF26CFBA
:10207000730185019401AB01BC0180913203909101
:1020800033030E944404882309F418CF6A0C7B1C94
:10209000F60182859385A485B5858A0D9B1DA11DBA
:1020A000B11D82879387A487B5874A185B083CCF08
:1020B000281B390B620E731EEBCF2A94232809F0DC
:1020C000FDCE898190E0FCCEFC01818D928D009740
:1020D00011F00C94440F8FEF9FEF08950F931F930F
:1020E000CF93DF93EC01898D9A8D10E000E000978B
:1020F00099F00E94440F8C010F3F100769F0898D01
:102100009A8DFC014285538564857585415051093E
:10211000610971090E941109C801DF91CF911F91D6
:102120000F9108950F931F930E942D026093240630
:102130007093250680932606909327068CE196E0FF
:102140000E946E1097FF1DC00E942D020091240670
:10215000109125062091260630912706601B710BF1
:10216000820B930B009120061091210620912206EC
:10217000309123066017710782079307F8F28FEFFB
:102180009FEF1F910F910895CF92DF92EF92FF92F0
:10219000CF930E949210FC0197FD4EC08D329105A5
:1021A00021F0C0970A9708F040C0C12CD12C7601CD
:1021B000C0E0E130F105D1F0ED32F105D9F1CF0108
:1021C000C0970A9798F4AAE0B0E0A70196010E9490
:1021D0005C2F6F01FF0FEE08FF08C60ED71EE81E2A
:1021E000F91E80E3C81AD108E108F1088CE196E0F5
:1021F0000E9464100E949210FC01C0970A97C8F2D6
:10220000E130F105B1F2CC2341F0F094E094D094A8
:10221000C094C11CD11CE11CF11CC701B601CF91B7
:10222000FF90EF90DF90CF9008958CE196E00E94B0
:102230006410AFCFC1E0DACFC12CD12C7601EDCF45
:102240008FEF9FEF089590E080E008950895EF925A
:10225000FF920F931F93CF93DF93DC015296ED9083
:10226000FC905397E114F10479F481E090E0139627
:102270009C938E93129790E080E0DF91CF911F9115
:102280000F91FF90EF9008951D96ED91FC911E9790
:102290001C968C911C97982F90950FB754962C9163
:1022A0005497122F127021FD6095F894208111230C
:1022B00019F1282B2083E7012197F1F728E0462F19
:1022C00050E0308160FF1AC0382B3083E70121973E
:1022D000F1F7BA0175956795215089F7112381F0BF
:1022E0008081892380830FBF52968D919C910197A5
:1022F000F1F781E090E0C1CF2923DCCF3923E5CF8E
:102300009081892BEFCF90E080E008958091FA02D0
:102310009091FB022091F8023091F90221303105B1
:1023200031F401969093FB028093FA020895209174
:10233000040130910501820F931F9093FB0280935B
:10234000FA026091080170910901269FA001279F60
:10235000500D369F500D11244817590724F4109240
:10236000FB021092FA0208958F929F92AF92BF9251
:10237000CF92DF92EF92FF920F931F93CF93DF9351
:1023800000D000D0CDB7DEB7FC018581813091F05F
:1023900080E00F900F900F900F90DF91CF911F91E1
:1023A0000F91FF90EF90DF90CF90BF90AF909F90F4
:1023B0008F900895848181FFEBCF83899489A589CB
:1023C000B689892B8A2B8B2B09F45FC07F0140E0F3
:1023D00050E0BA01CF010E9411098823C9F2F70128
:1023E000C38CD48C8788908CA18CB28C82E090E0D6
:1023F000A0E0B0E0F60180839183A283B3839E01C5
:102400002F5F3F4FB501A401C6010E94D107882369
:1024100009F4BECF00E010E09801B501A401C601A7
:102420000E942F07882309F4B3CF89809A80AB805C
:10243000BC80F6018789803119F188EF9FEFAFEFFB
:10244000BFE088169906AA06BB06C8F2F701178AEC
:10245000108E118E128E138A148A158A168A848120
:102460008068848361E0C7010E94A50A882309F47B
:102470008FCF40E050E0BA01C7010E94110989CF17
:1024800088EF9FEFA0E0B0E0DCCF81E082CFCF9279
:10249000DF92EF92FF921F93CF93DF93EC0180E2E4
:1024A000689FF0011124EC5CFC4F9385917161F001
:1024B000842F827449F080E0DF91CF911F91FF90CB
:1024C000EF90DF90CF900895142F6A8B80910001D8
:1024D00090910101A0910201B09103018E879F8725
:1024E000A88BB98BC488D588F12CE12C7601DD242A
:1024F000CC24CF8AD88EE98EFA8E828D938DB0E06F
:10250000A0E0AC01BD014C295D296E297F294F8BCC
:10251000588F698F7A8F8385887111F5848D958D99
:10252000A68DB78D8B8B9C8BAD8BBE8B81E08D8305
:10253000812F8F708C831E821F82188619861A86BF
:102540001B861C861D8681E016FFB6CFCE01DF916B
:10255000CF911F91FF90EF90DF90CF900C94B4112A
:10256000803109F0A8CF9E012D5E3F4F8B8D9C8D51
:102570000E945208882309F49ECF84E0D8CF80912E
:10258000350690913606009761F00E943D0B8091D0
:102590003506909136060E949930109236061092B8
:1025A00035060895CF93DF93EC01888199810097D8
:1025B00011F00E949930198218821D821C821B82A0
:1025C0001A82DF91CF910895FC018081918100975B
:1025D00011F00C9499300895FB01DC018D919C91D0
:1025E000009761F0608171816115710539F0448156
:1025F00055810E94073221E0892B09F020E0822FCB
:102600000895FB0101900020E9F73197AF01461BC7
:10261000570BDC01ED91FC910280F381E02D0994D0
:102620008F929F92AF92BF92EF92FF920F931F9360
:10263000CF93DF93CDB7DEB7A1970FB6F894DEBF87
:102640000FBECDBF7C01FA01CB0119A2223008F4E4
:102650002AE08E010F5D1F4F822E912CB12CA12CF0
:10266000BF01A50194010E94C12FF901CA016A307E
:102670000CF5605DD8016E938D01232B242B252B47
:1026800079F790E080E0109721F0BD01C7010E942A
:102690000113A1960FB6F894DEBF0FBECDBFDF9138
:1026A000CF911F910F91FF90EF90BF90AF909F90AF
:1026B0008F900895695CDECFCF92DF92EF92FF9208
:1026C0000F931F93CF93DF936B01770FEE08FF08F3
:1026D0004A30510511F52AE0F7FE20C0EC01E881EF
:1026E000F9810190F081E02D6DE209958C0144277C
:1026F0005527BA014C195D096E097F092AE0CE0100
:102700000E941013800F911FDF91CF911F910F91A5
:10271000FF90EF90DF90CF900895242FB701A6018E
:10272000DF91CF911F910F91FF90EF90DF90CF90AD
:102730000C94101366E671E00C9401134F925F92B3
:102740006F927F928F929F92AF92BF92CF92DF92C1
:10275000EF92FF920F931F93CF93DF930E942D026E
:102760006093020370930303809304039093050323
:10277000109295021092940210929302109292027B
:102780003FE3A32E32E0B32E46E9C42E42E0D42E1E
:10279000E6018501EE24E394F12C20E2822E912CB7
:1027A0002091920288819981AA81BB81022E04C066
:1027B000B695A795979587950A94D2F780FF4AC05A
:1027C000F80180819181A281B38104C0B695A7955B
:1027D000979587952A95D2F780FF06C08091DE02F3
:1027E0009091DF020197B1F56091E8027091E902E2
:1027F0004AE050E084E395E00E945C1384E395E0B6
:102800000E949A1380919402909195020196909360
:10281000DD028093DC029093E9028093E80210923B
:10282000E5021092E4022091B6023091B7028217BD
:10283000930781F01092DF021092DE02F092EB0219
:10284000E092EA021092BD021092BC029093B7028D
:102850008093B60280919202909193020196909398
:102860009302809392028091940290919502019636
:102870009093950280939402F1E08F1A910809F0E9
:102880008FCF0C5F1F4F249682E0C63BD80709F01C
:1028900084CF10929302109292028091BC02909188
:1028A000BD02892B09F05CC010929502109294022F
:1028B00006E912E044244394512C80E2882E912CA6
:1028C0006090920270909302E0909402F0909502D2
:1028D000EFEFEE1AFE0AF80180819181A281B381A7
:1028E000062C04C0B695A795979587950A94D2F7BC
:1028F00080FD1BC08091DC029091DD028E159F054A
:10290000A1F48091E4029091E502892B71F4509238
:10291000E5024092E4020E942D026093E00270936F
:10292000E1028093E2029093E302FFEF6F1A7F0AC5
:102930007092930260929202F0929502E092940259
:1029400081E0881A910809F0BBCF1092930210928F
:1029500092020C5F1F4FE2E0063B1E0709F0ADCF6D
:10296000F60181919191A191B1916F01F50181934E
:102970009193A193B1935F01CC15DD0589F7DF91A8
:10298000CF911F910F91FF90EF90DF90CF90BF906C
:10299000AF909F908F907F906F905F904F90089531
:1029A0000F931F93CF93DF93EC0188819981009758
:1029B00059F02A813B812617370730F081E0DF91FB
:1029C000CF911F910F9108958B016F5F7F4F0E94F0
:1029D0002231009759F0998388831B830A832C81C5
:1029E0003D81232B59F7FC011082E8CF80E0E7CF2F
:1029F000EF92FF920F931F93CF93DF93EC017B0134
:102A0000198218821B821A821D821C82FB0101908E
:102A10000020E9F731978F01061B170BB8010E94C0
:102A2000D014811109C0CE01DF91CF911F910F9178
:102A3000FF90EF900C94D2121D830C83B701888114
:102A40009981DF91CF911F910F91FF90EF900C949E
:102A50000032AF92BF92CF92DF92EF92FF920F932C
:102A60001F93CF93DF9300D0CDB7DEB78C015B010E
:102A7000C42E68E671E00E94F814C5010E94390274
:102A80000C2C000CDD0897FD24C0C816D90609F1EE
:102A900089831A82F801E480F580FFEFEF1AFF0ABC
:102AA000B701C8010E94D014882379F0F801208171
:102AB000318184819581BE016F5F7F4F820F931FAB
:102AC0000E940032F801F582E482C5010E943902B9
:102AD000DACFC8010F900F90DF91CF911F910F9126
:102AE000FF90EF90DF90CF90BF90AF9008959F92AE
:102AF000AF92BF92CF92DF92EF92FF920F931F930C
:102B0000CF93DF93CDB7DEB72B970FB6F894DEBF28
:102B10000FBECDBF7C01FC018581811115C0FE0176
:102B20003196CE010C966F0130E231938E179F07DC
:102B3000E1F7DA0130E087E09D91B92E992329F180
:102B40009E3239F48A3011F480E0D3C038E08AE054
:102B5000F3CFECE7F0E04491442321F03196941355
:102B6000FACFF2CF831780F34FED490F4E3560F760
:102B70004FE9490F4A3118F440EEB42EB90EF60170
:102B8000E30FF11DB0823F5FD7CF89818032E1F240
:102B9000A22E8B01FB01838D948DF701948F838F7F
:102BA000FB01168217821086118612861386148600
:102BB0001586F80182859385A485B5854389548956
:102BC0006589768984179507A607B70708F04CC072
:102BD00025E0B695A795979587952A95D1F7F82F73
:102BE000FF709F2EF8018581823008F4ADCFC801B7
:102BF0000E94440F97FDA8CFF80182859385A48594
:102C0000B5854F96A11DB11D82879387A487B5878F
:102C1000F0E29F9EB00111246C5C7C4F6115710540
:102C200009F492CFFB018081882341F0853E09F0B1
:102C30004EC0BB2029F0BB24B394BBCFB1100EC053
:102C4000F701928A8091000190910101A091020107
:102C5000B091030186879787A08BB18BFB018081A0
:102C60008111E9CFBB24B3948A2D8271823109F09E
:102C70006BCFBB2009F44FC0C7010E94ED05009740
:102C800009F462CF20E2FC0111922A95E9F72BE0CA
:102C9000F601DC0101900D922A95E1F721E238E27C
:102CA000FC01318B208B40E058E057874687338BFF
:102CB000228B318F208F578B468B81E00E947805C5
:102CC000882309F441CF4A2DF70162890FC04BE0F8
:102CD00050E0C6010E94DF31892B09F06ACF8A2DAE
:102CE00080734A2D692D803309F42ECFC7010E94CD
:102CF00047122B960FB6F894DEBF0FBECDBFDF9103
:102D0000CF911F910F91FF90EF90DF90CF90BF90E8
:102D1000AF909F900895F8018581823009F414CF17
:102D2000C8010E945E0C882309F40ECFF701128AB5
:102D300084E393E0A7CF5F926F927F928F929F92EE
:102D4000AF92BF92CF92DF92EF92FF920F931F93B9
:102D5000CF93DF93CDB7DEB7C754D1090FB6F89440
:102D6000DEBF0FBECDBF5C013B0119A218A28AE3F2
:102D700091E09F8F8E8F1BA21C821B829A83898376
:102D80001E8210E000E06E018EE1C80ED11C8DEFB6
:102D9000E82E85E0F82EF501E00FF11F80818F32DB
:102DA00011F40F5F1F4FD501A00FB11FFE01FB965D
:102DB00090E080E04F012D912F3249F0222339F02D
:102DC0000F5F1F4F019621938C309105A1F7880D5D
:102DD000991DFC011082F501E00FF11F80818F32F7
:102DE00011F40F5F1F4FF501E00FF11F508041E01C
:102DF000511040E030E020E0B401C701F301099533
:102E0000811121C0FDEFEF16F5E0FF06C1F480E06F
:102E1000C95BDF4F0FB6F894DEBF0FBECDBFDF91A9
:102E2000CF911F910F91FF90EF90DF90CF90BF90C7
:102E3000AF909F908F907F906F905F900895C701A3
:102E40000E943D0BE4CF552091F021E0A401B70191
:102E5000C6010E947715982E8DEFE81685E0F806DA
:102E600081F0C7010E943D0B911010C0D0CF9DEFA3
:102E7000E91695E0F90619F0C7010E943D0B81E0C3
:102E8000C7CF992021F2FE0131967F019E2D8F2D13
:102E90007601C92ED82E7FCF1F93CF93DF93CDB766
:102EA000DEB76D970FB6F894DEBF0FBECDBFAB0196
:102EB0001C821B822AE331E03A8329831E8221E0AF
:102EC000BC01CE0101960E94771511E081110CC062
:102ED00010E0812F6D960FB6F894DEBF0FBECDBF08
:102EE000DF91CF911F910895CE0101960E943D0B75
:102EF000F0CFCF93DF93CDB7DEB76D970FB6F894D1
:102F0000DEBF0FBECDBF442399F1AB01BC011C82D3
:102F10001B828AE391E09A8389831E8222E0CE019C
:102F200001960E94771581110EC090E081E0911109
:102F300001C080E06D960FB6F894DEBF0FBECDBF26
:102F4000DF91CF910895CE0101960E94B41188239C
:102F500061F3CE0101960E94ED05009731F325EE55
:102F6000FC0120831E8281E00E947805982FDECF2D
:102F700081E0E0CF8F929F92AF92BF92EF92FF924B
:102F80000F931F93CF93DF93CDB7DEB7ED970FB6B7
:102F9000F894DEBF0FBECDBF8C017B011CA21BA22B
:102FA0008AE391E09AA389A31EA2C8010E944C174C
:102FB0008111A0C023E3A701B801CE0181960E9430
:102FC0007715811116C090E081E0911101C080E079
:102FD000ED960FB6F894DEBF0FBECDBFDF91CF9157
:102FE0001F910F91FF90EF90BF90AF909F908F90A7
:102FF000089581E08DA384E08EA3CE0181960E9486
:103000005E0C882301F361E0CE0181960E94A50A3F
:103010008823C9F2CE0181960E94ED05FC01892B1F
:1030200091F280E1838780E2DE01119601900D929A
:103030008A95E1F7FE013296CE010C9620E22193AB
:10304000E817F907E1F78EE2F82EF982ECADFDAD55
:1030500068AD79AD8AAD9BAD625071098109910966
:10306000258504C0660F771F881F991F2A95D2F700
:1030700086849784A088B188680D791D8A1D9B1D60
:1030800041E00E94A305882309F49DCF80E2FE0160
:103090003196A4E3B3E001900D928A95E1F7FA82AC
:1030A000F80185818250823000F14789508D618D11
:1030B000728DCA019B013E8B2D8B9C8F8B8F80E282
:1030C000FE013196A4E5B3E001900D928A95E1F7F7
:1030D00080E490E0A0E0B0E08BA79CA7ADA7BEA7DE
:1030E00081E00E947805982F6FCF90E080E030E07B
:1030F00020E0E1CF81E06CCFEF92FF920F931F931E
:10310000CF93DF93EC017B018A011B821A8288EE48
:1031100093E0A0E0B0E08C839D83AE83BF8386E420
:1031200091E0998388838DE190E00E94FD2F9A8F32
:10313000898F009779F02DE1F701DC0101900D9264
:103140002A95E1F74CE050E0B801CE010C960E94C0
:103150001532188EDF91CF911F910F91FF90EF9054
:1031600008953F924F925F926F927F928F929F92BB
:10317000AF92BF92CF92DF92EF92FF920F931F9385
:10318000CF93DF93CDB7DEB7C656D1090FB6F8940B
:10319000DEBF0FBECDBF5C01362E19A218A28AE396
:1031A00091E09F8F8E8F1BA21C821B829A83898342
:1031B0001E823E018EE1680E711CC3010E94BD0893
:1031C0008E010F5F1F4F430181E1C82E83E0D82E8F
:1031D00028016FE270E0C6010E94F531009709F402
:1031E00059C0F60120812F3271F4FFEFCF1ADF0AA8
:1031F000902F812F8401892E982E982D892D48019A
:10320000092F182FE6CF8C198D3008F08CE0E82EAE
:10321000F12CA701B601CE01885A9F4F0E941532AA
:10322000E8E5F0E0EC0FFD1FEE0DFF1D1082C80178
:103230000E943D0B21E0AE01485A5F4FB401C80126
:103240000E947715811120C01EAE1DAE8AE391E069
:103250009CAF8BAF21961FAE2197A7960EAD1FADE9
:10326000A7970F5E1C4FF8018081811120C0BE011D
:10327000655C7F4FC2010E94870E49E651E0B201B2
:10328000C5010E947C1831C0CE0CDF1CC4010E9415
:103290003D0BB3CFC60181519340A7969FAF8EAF30
:1032A000A797B401CE01CB960E94870ED6CF19A264
:1032B00018A28AE391E09F8F8E8F1BA221968FAD7B
:1032C000219781112CC0F5011382128288EE93E0C0
:1032D000A0E0B0E084839583A683B78386E491E081
:1032E00091838083128E118E1486C501CA59DF4FD7
:1032F0000FB6F894DEBF0FBECDBFDF91CF911F9107
:103300000F91FF90EF90DF90CF90BF90AF909F9084
:103310008F907F906F905F904F903F900895232DF6
:10332000A801BE01655C7F4FC3010E947715882309
:1033300051F2CE01CB960E943D0B832D86708630D4
:1033400039F449A95AA96BA97CA9C3010E941109A2
:10335000B301C2010E94870EA80191CF1F93CF93A2
:10336000DF93EC01162F0E94462F181739F0612FBA
:10337000CE01DF91CF911F910C944E2FDF91CF9111
:103380001F9108950C94462FCF93DF9361E080E165
:103390000E94910160E080E10E946301D0E0C0E002
:1033A0006FEFCE010E94AE192196CF3F81E0D80782
:1033B000B9F76091BA0280E092E00E94AE19CCE0C9
:1033C000D0E062E080E10E94910160E170E080E085
:1033D00090E00E94FA0161E080E10E94910160E0CA
:1033E00080E10E94630160E170E080E090E00E9473
:1033F000FA01219731F762E080E10E94910181E0BA
:1034000090E090930703809306031092B902109204
:10341000B802C2E0D0E080910603909107030197C3
:1034200009F082C08EE00E943A019093B902809325
:10343000B8028091B8029091B902892B99F38EE07D
:103440000E943A019093B9028093B8028091B80229
:103450009091B902019759F58091D502882379F3AB
:103460001092D50261E083E10E94910160E083E166
:103470000E9463016091D202862F90E09093F10246
:103480008093F0028FEF91E00E94AE196091D30219
:10349000862F90E09093F3028093F2028EEF91E0FA
:1034A0000E94AE1962E083E10E949101C8CF8EE0D4
:1034B0000E943A019093B9028093B8028091B802B9
:1034C0009091B902892B99F361E080E10E9491010A
:1034D00060E080E10E94630160E270E080E090E0E3
:1034E0000E94FA0162E080E10E949101D0930703FB
:1034F000C093060390CF8EE00E943A019093B902E8
:103500008093B8028091B8029091B902892B99F307
:1035100061E080E10E94910160E080E10E9463012E
:1035200010920703109206038091060390910703FF
:103530000297C1F58EE00E943A019093B902809300
:10354000B8028091B8029091B9020197A1F68091DA
:10355000D502882379F31092D50261E083E10E94BD
:10356000910160E083E10E9463016091D202862FA5
:1035700090E09093F1028093F0028DEF91E00E9431
:10358000AE196091D302862F90E09093F30280935E
:10359000F2028CEF91E00E94AE1962E083E10E949A
:1035A0009101C8CF8FEF91E00E94C21990E09093F3
:1035B0006D0280936C028EEF91E00E94C21990E040
:1035C00090936B0280936A028DEF91E00E94C21982
:1035D00090E090936902809368028CEF91E00E94E2
:1035E000C21990E0909367028093660210920703DD
:1035F00010920603DF91CF9108954F925F926F92E0
:103600007F928F929F92AF92BF92CF92DF92EF9272
:10361000FF920F931F93CF93C82F6B010E94D50188
:103620002B015C014B01F12CE12C87E0C81AD10879
:10363000E108F108F89461E08C2F0E94630188E0B2
:1036400090E00E94CD0160E08C2F0E94630178948D
:103650008AE1880E911CA11CB11C0E94D5019B011E
:1036600024193509890130E020E00C151D052E05CF
:103670003F0534F4681579058A059B0570F3DACFA8
:10368000CF911F910F91FF90EF90DF90CF90BF905F
:10369000AF909F908F907F906F905F904F90089524
:1036A0008091F8029091F902019709F066C080912B
:1036B000F6029091F702892BB1F48091FB028F936F
:1036C0008091FA028F938BE691E09F938F938FE224
:1036D00092E09F938F930E9424320F900F900F904F
:1036E0000F900F900F908091F6029091F702019742
:1036F000B1F48091FB028F938091FA028F9389E756
:1037000091E09F938F938FE292E09F938F930E941B
:1037100024320F900F900F900F900F900F90809188
:10372000E9028F938091E8028F9386E891E09F935E
:103730008F9382EC92E09F938F930E94243240E219
:1037400050E062EC72E081E193E00E94932C40E251
:1037500050E069E671E081E193E00E94742C0F90E3
:103760000F900F900F900F900F9040E250E06FE29B
:1037700072E081E193E00C94742C2091FA02309174
:10378000FB022F5F3F4F8091E8029091E902A9016F
:10379000480F591F5093EF024093EE0286509F4FFF
:1037A000820F931F9093ED028093EC02493F5105E5
:1037B00034F028EF30E03093EF022093EE02833FA5
:1037C000914034F082EF91E09093ED028093EC020F
:1037D0000895EF92FF920F931F93CF93DF930E9470
:1037E000501B8091D502882309F48EC1C091060335
:1037F000D0910703209709F087C11092D50261E0AC
:1038000083E10E94910160E083E10E94630162E034
:1038100083E10E9491012091D20280916C029091EB
:103820006D022817190649F42091D30280916A028B
:1038300090916B022817190641F08091D2028034D2
:10384000D9F58091D3028B30B9F58091D4028130C3
:1038500099F10E942D0260932B0270932C028093A9
:103860002D0290932E028091290290912A02892B99
:1038700019F581E090E090932A02809329029093B9
:10388000EB028093EA022091E8023091E9022F5F77
:103890003F4F3093E9022093E8029093BD0280935A
:1038A000BC024091BA025091BB024217530724F464
:1038B0009093E9028093E8022091D20280916802FD
:1038C000909169022817190649F42091D30280913A
:1038D0006602909167022817190641F08091D20282
:1038E0008034D1F58091D3028E30B1F58091D4022D
:1038F000813091F10E942D0260932B0270932C0273
:1039000080932D0290932E028091290290912A0299
:10391000892B11F521E030E030932A02209329020F
:103920003093EB022093EA028091E8029091E90241
:1039300001979093E9028093E8023093BD022093AF
:10394000BC021816190644F08091BA029091BB028D
:103950009093E9028093E8028091D202803461F56D
:103960008091D3028A3141F58091D402813021F1D6
:103970000E942D0260932B0270932C0280932D02E3
:1039800090932E028091290290912A02892BA1F412
:1039900081E090E090932A028093290283E496E0EC
:1039A0000E949A1361E971E083E496E00E9401139A
:1039B00083E496E00E949A138091D202803461F5EC
:1039C0008091D302853441F58091D402813021F178
:1039D0000E942D0260932B0270932C0280932D0283
:1039E00090932E028091290290912A02892BA1F4B2
:1039F00081E090E090932A028093290283E496E08C
:103A00000E949A136BE971E083E496E00E9401132F
:103A100083E496E00E949A138091D202803461F58B
:103A20008091D302823441F58091D402813021F11A
:103A30000E942D0260932B0270932C0280932D0222
:103A400090932E028091290290912A02892BA1F451
:103A500081E090E090932A028093290283E496E02B
:103A60000E949A136FE971E083E496E00E940113CB
:103A700083E496E00E949A13EE24E394F12C809163
:103A8000D2028034E1F52091D302FE01EE0FFF1F38
:103A9000E05FFE4F808191812817190681F5009122
:103AA0002102109122020E942D0260932B0270933A
:103AB0002C0280932D0290932E020E942D0260937F
:103AC000250270932602809327029093280280910A
:103AD000290290912A02892B91F4F0922A02E09215
:103AE0002902D0932402C09323020F5F1F4F10932B
:103AF000220200932102F0922002E0921F022196FE
:103B0000CA30D10509F0BBCF0E942D0200912B02D3
:103B100010912C0220912D0230912E02601B710B0E
:103B2000820B930B6E3771058105910520F0109281
:103B30002A02109229028091210290912202813062
:103B4000910509F07EC080911F029091200201979B
:103B500061F4809123029091240290931E0280933D
:103B60001D021092200210921F020E942D0200914D
:103B70002502109126022091270230912802601B15
:103B8000710B820B930B613273408105910508F430
:103B900051C08091210290912202181619060CF052
:103BA00049C01092220210922102209119023091F4
:103BB0001A0244E6429FC001439F900D1124409198
:103BC0001B0250911C026AE0649F9001659F300DBA
:103BD0001124820F931F20911D0230911E02820F2B
:103BE000931F909324028093230210921E0210923E
:103BF0001D0210921C0210921B0210921A021092C7
:103C0000190221E030E03093EB022093EA02909316
:103C1000E9028093E8023093BD022093BC02209118
:103C2000BA023091BB022817390724F43093E90215
:103C30002093E802DF91CF911F910F91FF90EF90B9
:103C400008958230910581F480911F0290912002A5
:103C5000019709F08ACF80911D0290911E029093E6
:103C60001C0280931B0275CF8330910581F48091F3
:103C70001F0290912002019709F077CF80911B02DB
:103C800090911C0290931A0280931902E4CF04973A
:103C90000CF46BCF80911F0290912002813091052E
:103CA00009F063CF209123023091240230931E0249
:103CB00020931D0210921C0210921B0210921A02F5
:103CC0001092190290932202809321024ACF2F92E0
:103CD0003F924F925F926F927F928F929F92AF929C
:103CE000BF92CF92DF92EF92FF920F931F93CF93E9
:103CF000DF93CDB7DEB72E970FB6F894DEBF0FBEB9
:103D0000CDBF8091F6029091F702892B09F094C003
:103D10006CE670E084E395E00E9467028091F20215
:103D20009091F302409734F46AE670E084E395E002
:103D30000E9467026091F2027091F30240E150E04C
:103D400084E395E00E945C138091F0029091F1026F
:103D5000409734F468E670E084E395E00E946702DF
:103D60006091F0027091F10240E150E084E395E04F
:103D70000E945C1384E395E00E949A130E942D0236
:103D800060936E0270936F02809370029093710241
:103D90003090F2029091F302032D192F2091F0023E
:103DA0002B838091F1022D878E873B9A34E03983F3
:103DB000432D40954F833886998720952A875D85C6
:103DC0005B878C879EE6892E912CA12CB12C0E94BA
:103DD0002D022B013C0160E073E281E10E94FD1A9B
:103DE0008981843009F442C080EC98E00E94CD01C2
:103DF00060E372E081E10E94FD1A498141504983EC
:103E00004423C1F00E942D02DC01CB0184199509E5
:103E1000A609B7098E369105A105B105C0F6A50121
:103E20009401281B390B4A0B5B0BCA01B9010E9494
:103E3000FA01CDCF0E94E91B2E960FB6F894DEBF93
:103E40000FBECDBFDF91CF911F910F91FF90EF90EB
:103E5000DF90CF90BF90AF909F908F907F906F90AA
:103E60005F904F903F902F900C94861180E891E1E5
:103E70000E94CD012D853E852F3F310569F160F10E
:103E80002B843C853C830F3F110551F148F1588547
:103E90005D8389858E8320E22A8360E372E081E17D
:103EA0000E94FD1AC22CDC80ED80FE8080E996E045
:103EB00020FC02C080E392E00E94CD01F694E794DA
:103EC000D794C7942C2CDC82ED82FE823A8131504B
:103ED0003A833111E2CF8CCF2B804A854C83D3CFEC
:103EE0003D829F819E83D7CF1F920F920FB60F9274
:103EF00011242F933F938F939F93AF93BF93809100
:103F0000090390910A03A0910B03B0910C03309127
:103F1000080323E0230F2D3768F126E8230F0296CC
:103F2000A11DB11D209308038093090390930A03F8
:103F3000A0930B03B0930C0380910D0390910E039B
:103F4000A0910F03B09110030196A11DB11D8093A4
:103F50000D0390930E03A0930F03B0931003BF9132
:103F6000AF919F918F913F912F910F900FBE0F9026
:103F70001F9018950196A11DB11DD4CF1F920F92CD
:103F80000FB60F9211242F933F934F935F936F932C
:103F90007F938F939F93AF93BF93EF93FF9384E3AC
:103FA00095E00E940903FF91EF91BF91AF919F911E
:103FB0008F917F916F915F914F913F912F910F90D2
:103FC0000FBE0F901F9018951F920F920FB60F9271
:103FD00011242F938F939F93EF93FF93E0914405C8
:103FE000F09145058081E0914A05F0914B0582FDF5
:103FF0001BC0908180914D058F5F8F7320914E057E
:10400000821741F0E0914D05F0E0EC5CFA4F958F9E
:1040100080934D05FF91EF919F918F912F910F907C
:104020000FBE0F901F9018958081F4CF1F920F92B2
:104030000FB60F9211240F931F932F933F934F931B
:104040005F936F937F938F939F93AF93BF93CF9320
:10405000EF93FF93C3B10E94D5018B019C01809126
:104060000A0290910B02A0910C02B0910D02B901CD
:10407000A801481B590B6A0B7B0BCA0100930A026B
:1040800010930B0220930C0230930D0220910E022C
:10409000C1FD88C0413066E4560710F4211119C0F3
:1040A0001092180281E080930E02FF91EF91CF9160
:1040B000BF91AF919F918F917F916F915F914F9140
:1040C0003F912F911F910F910F900FBE0F901F9056
:1040D0001895223069F59C0120523D40213C384022
:1040E000C0F410920F021092140210921502109256
:1040F00016021092170281E090E0A0E0B0E08093F9
:10410000100290931102A0931202B093130283E065
:10411000CACF805996408136944008F07FC0809184
:104120000F02803208F47AC081E080931802EFCF4A
:10413000243009F073C088519140813C984008F0C8
:104140006DC08091100290911102A0911202B09165
:10415000130240365440A0F04091140250911502D1
:104160006091160270911702482B592B6A2B7B2BFA
:104170004093140250931502609316027093170235
:10418000880F991FAA1FBB1F8093100290931102E2
:10419000A0931202B093130280910F028F5F80935D
:1041A0000F02B5CF213039F480549A4181389141C2
:1041B000A8F582E078CF233089F58851914081338A
:1041C000924060F580910F02803220F480911802B5
:1041D00080FF26C080911502809590911402981757
:1041E00019F084E0809318028091170280959091D5
:1041F0001602981719F084E080931802789481E0F1
:104200008093D502809118028093D4028091140289
:104210008093D202809116028093D30280E043CF34
:1042200084E041CFCF92DF92EF92FF92CF93DF9362
:10423000E4E3F5E01382128288EEC82E83E0D82EE4
:10424000E12CF12CC482D582E682F78288E291E0EB
:104250009183808385EC90E09587848784EC90E05F
:104260009787868780EC90E0918B808B81EC90E043
:10427000938B828B82EC90E0958B848B86EC90E024
:10428000978B868B118E128E138E148EE1EDF5E0D6
:1042900080E580831182E3EDF5E0158216821186B8
:1042A000138682E090E0A0E0B0E084879587A6873F
:1042B000B78713A215A614A68AE391E093A782A755
:1042C00017A6C3E4D6E01B821A82CC82DD82EE827E
:1042D000FF8288E591E0998388831B8A1A8AE7E543
:1042E000F6E060816D7F60836695617081E068278C
:1042F00086E00E94630161E086E00E949101EBE4A8
:10430000F1E0E491EC87E4E3F1E0E491F0E0EE0F1A
:10431000FF1FEC5DFE4F859194919E878D8768E627
:1043200071E08DE396E00E94F81468E671E087E39F
:1043300096E00E94F814ECE1F6E013821282C48247
:10434000D582E682F78286E491E091838083128EA3
:10435000118E1486DF91CF91FF90EF90DF90CF9078
:104360000895CF93DF93CDB7DEB7A1970FB6F8943A
:10437000DEBF0FBECDBF789484B5836084BD85B5A4
:10438000836085BD80916E00816080936E0082E0C5
:104390008093810080918100816080938100809171
:1043A00080008160809380008091B1008460809360
:1043B000B1008091B00081608093B00087E8809365
:1043C0007A001092C10040EF5DE761EF7DE7A2EF58
:1043D000BDE703EF1DE7F4EFEF2EFDE7FF2E85EFBE
:1043E000C82E8DE7D82E96EFA92E9DE7B92E27EF80
:1043F0003DE7FA0184918335E1F7FB01849186352D
:10440000C1F7FD0184918335A1F7F80184918032D1
:1044100081F7F7018491823461F7F6018491813448
:1044200041F7F5018491823421F7F90184918935AE
:1044300001F70E942D02609302037093030380939F
:1044400004039093050362E08EE00E94910161E015
:1044500080E10E94910162E083E10E94910161E0AC
:1044600082E10E94910161E082E00E94910161E09D
:1044700083E00E94910161E084E00E94910161E08B
:1044800087E00E94910161E086E00E94910161E075
:1044900085E00E94910160E088E00E94910162E065
:1044A0008FE00E94910160E084E00E94630160E07F
:1044B00082E00E94630160E083E00E94630160E0AB
:1044C00082E10E94630161E070E080E090E00E9480
:1044D000FA0161E082E10E94630160E083E00E94F2
:1044E000630160E080E10E94630160E085E00E947A
:1044F000630160E087E00E94630160E086E00E9463
:10450000630161E070E080E090E00E94FA0161E008
:1045100086E00E946301E0914405F091450582E048
:104520008083E0914005F09141051082E0914205C1
:10453000F09143058FEC808310924C05E091480583
:10454000F091490586E08083E0914605F0914705AA
:10455000808188698083E0914605F09147058081DC
:104560008F7D8083219880916800816080936800AE
:10457000EEE4F1E0E491E0936B000E944A0B8111BC
:10458000ABC069EA71E084E395E00E94011384E323
:1045900095E00E949A131092F9021092F8028DEFA2
:1045A00095E00E943D0B64E670E080E090E00E94A0
:1045B000FA016CE870E084E395E00E9467022AE06B
:1045C00041E050E060E070E084E395E00E94101369
:1045D0006EE284E395E00E942B032AE041E050E084
:1045E00060E070E084E395E00E9410132AE042E06E
:1045F00050E060E070E084E395E00E94101364E610
:1046000070E080E090E00E94FA016AE184E395E0C6
:104610000E942B0384E395E00E949A13CC24C39458
:10462000D12C8091BA029091BB02892B09F06AC00B
:104630000091E8021091E9027801FFEFEF1AFF0AFA
:10464000F092E902E092E802D092EB02C092EA0214
:1046500061E082E00E94630161E070E080E090E050
:104660000E94FA0160E082E00E94630161E083E061
:104670000E94630161E070E080E090E00E94FA0136
:104680008FE00E943A019093B9028093B80201979B
:10469000A1F561E083E10E94910160E083E10E9465
:1046A00063011093BB020093BA02093F1105ECF7B6
:1046B00061E070E080E090E00E94FA0129EFE216EC
:1046C000F1040CF4AECF61E083E10E94910160E05F
:1046D00083E10E946301F2CF6EEB71E084E395E029
:1046E0000E94011384E395E00E949A1381E090E018
:1046F0009093F9028093F80252CF62E083E10E9426
:104700009101D6CF61E070E080E090E00E94FA0174
:104710001092E9021092E80281E090E09093EB029F
:104720008093EA0262E083E10E94910160E086E00A
:104730000E94630160E170E080E090E00E94FA0175
:1047400061E086E00E94630180E092E00E94C2196D
:1047500090E09093B9028093B8026091B802709192
:10476000B9028091BA029091BB026817790709F4E7
:104770009FC010E000E08091B8029091B902081744
:1047800019070CF071C061E080E10E94910160E0C6
:1047900080E10E9463010E942D026B017C01C092A6
:1047A000BE02D092BF02E092C002F092C1020E940B
:1047B0002D026C197D098E099F096C3271408105AB
:1047C000910578F48EE00E943A01892B81F70E94CE
:1047D000C4198091BA029091BB029093B902809360
:1047E000B8022091B8023091B9028091BA0290913A
:1047F000BB0228173907C1F162E080E10E949101F4
:104800000E942D026B017C01C092BE02D092BF02B9
:10481000E092C002F092C1020E942D026C197D0943
:104820008E099F09683C71058105910578F48EE039
:104830000E943A01892B81F70E94C4198091BA0223
:104840009091BB029093B9028093B8022091B80274
:104850003091B9028091BA029091BB0228173907B2
:1048600019F00F5F1F4F87CF0E942D026B017C0153
:10487000C092BE02D092BF02E092C002F092C1028A
:104880000E942D026C197D098E099F09683E7340B4
:104890008105910508F061CF8EE00E943A01892BD5
:1048A00079F70E94C4198091BA029091BB0251CF4E
:1048B00080E092E00E94AE196091BA027091BB0252
:1048C0006F5F7F4F70930501609304018AEF90E062
:1048D0000E94AD2F61507109709309016093080126
:1048E0008FEF91E00E94C21990E090936D02809347
:1048F0006C028EEF91E00E94C21990E090936B02DF
:1049000080936A028DEF91E00E94C21990E090932B
:104910006902809368028CEF91E00E94C21990E0D6
:1049200090936702809366020E942D026B017C01C6
:10493000C092BE02D092BF02E092C002F092C102C9
:104940008EE00E943A01892B89F462E080E10E94A6
:1049500091010E942D026C197D098E099F09613118
:1049600077428105910560F30E94C41961E080E1FE
:104970000E94910160E080E10E9463010E942D028B
:104980006093BE027093BF028093C0029093C102F5
:104990000E942D026093FC027093FD028093FE0240
:1049A0009093FF0281E090E09093010380930003D5
:1049B0008DE991E09093560680935506412C512C39
:1049C00032014394EE24E394F12C84E395E00E94B9
:1049D000E902892B09F408C14AE064E375E0CE01DD
:1049E0004C960E942915AC8CBD8CA114B10439F0F1
:1049F00008A119A165010115110509F0CFC262EDE9
:104A000071E0CE0101960E94F81428A139A18D8190
:104A10009E8110E02817390740F0BE016F5F7F4F7D
:104A2000CE014C960E94EC12182FCE0101960E94E6
:104A3000E4121123E1F0F092EB02E092EA0280919D
:104A4000E8029091E90201969093E9028093E802CE
:104A5000F092BD02E092BC022091BA023091BB02FA
:104A60002817390724F4F092E902E092E8026FED8A
:104A700071E0CE0101960E94F81428A139A18D8120
:104A80009E8110E02817390740F0BE016F5F7F4F0D
:104A9000CE014C960E94EC12182FCE0101960E9476
:104AA000E4121123E1F0F092EB02E092EA0280912D
:104AB000E8029091E90201979093E9028093E8025D
:104AC000F092BD02E092BC021816190644F08091E3
:104AD000BA029091BB029093E9028093E8026EEED5
:104AE00071E0CE0101960E94F81428A139A18D81B0
:104AF0009E8110E02817390740F0BE016F5F7F4F9D
:104B0000CE014C960E94EC12182FCE0101960E9405
:104B1000E412112309F464C0C8A0D9A041E1A42E75
:104B2000B12CF1E1CF16D10420F0560151E1C52E90
:104B3000D12C68E671E0CE0101960E94F81408A11C
:104B400019A1C016D10650F5A016B10608F48501CA
:104B5000EC8DFD8DE00FF11F908010828C8D9D8D6E
:104B6000C80ED91EC114D10479F0F60101900020BD
:104B7000E9F731975F01AC18BD08B501CE01019688
:104B80000E94D014811140C2CE0101960E94D2121F
:104B90008C8D9D8D080F191FF801908289819A8153
:104BA000009709F439C20E944D2C7093E90260937A
:104BB000E802F092EB02E092EA02F092BD02E0928B
:104BC000BC022091BA023091BB022617370724F4A9
:104BD0003093E9022093E802CE0101960E94E4128C
:104BE000CE014C960E94E412F0920701E092060179
:104BF0000E942D0200916E0210916F0220917002AE
:104C000030917102601B710B820B930B613D7740F9
:104C10008105910538F48091E6029091E7020197B1
:104C200009F05FC066EB70E084E395E00E946702E4
:104C30006091BA027091BB024AE050E084E395E0D3
:104C40000E945C1384E395E00E949A138091E6022F
:104C50009091E702019709F0E3C11092E7021092E8
:104C6000E6020E942D0260936E0270936F028093A1
:104C700070029093710267EA70E084E395E00E940D
:104C8000670283E496E00E949A1360E072E083E496
:104C900096E00E9401136091E8027091E9024AE0F7
:104CA00050E083E496E00E945C136091E80270910A
:104CB000E9024AE050E084E395E00E945C1384E35B
:104CC00095E00E949A1383E496E00E949A130E9452
:104CD0002D0260936E0270936F0280937002909326
:104CE00071020E94E91B8091E8029091E902909381
:104CF000B7028093B60236E9832E32E0932E640128
:104D0000F60111921192119211926F01F6EBCF16EA
:104D1000F2E0DF06A9F760E086E00E94630161E04F
:104D200070E080E090E00E94FA0161E086E00E947D
:104D3000630161E085E00E94630160E170E080E072
:104D400090E00E94FA0160E085E00E946301109209
:104D5000950210929402109293021092920206E928
:104D600012E020E2A22EB12C88E00E943A0190933A
:104D7000B9028093B8022091920230919302019778
:104D8000B9F4F80180819181A281B381B301A201BC
:104D9000022E04C0440F551F661F771F0A94D2F7D6
:104DA000842B952BA62BB72B80839183A283B3836F
:104DB0002F5F3F4F30939302209392028091940291
:104DC000909195020196909395028093940260E0F1
:104DD00087E00E9463018AE090E00E94CD0161E0DB
:104DE00087E00E946301F1E0AF1AB10809F0BCCF7F
:104DF00010929302109292020C5F1F4FC016D106C0
:104E000009F0AFCF82E7282E82E0382E96E9A92E4E
:104E100092E0B92E6101F601419151916191719138
:104E20006F01F50181919191A191B1915F014817B5
:104E300059076A077B0751F00E942D026093020315
:104E40007093030380930403909305038EE892E02C
:104E50008C159D0501F7F40181919191A191B1917A
:104E60004F01F10181939193A193B1931F0180169A
:104E7000910689F78091DA029091DB029093D90232
:104E80008093D8021092DB021092DA028EE00E9428
:104E90003A019093B9028093B802892B21F4F092E1
:104EA000DB02E092DA020091DA021091DB020115D6
:104EB000110551F40E942D026093BE027093BF024F
:104EC0008093C0029093C1028091060390910703E2
:104ED000892B09F0ACC00130110509F0ACC00E946B
:104EE0002D028090BE029090BF02A090C002B090B0
:104EF000C102681979098A099B09693B7B408105D0
:104F0000910520F010930703009306030E942D02E1
:104F10000091BE021091BF022091C0023091C102E7
:104F2000601B710B820B930B6131774281059105F8
:104F300008F481C00091F8021091F90201151105E1
:104F400009F0DAC01092FB021092FA028091080177
:104F500090910901801791070CF409C10E94501B20
:104F600061E080E10E94910160E080E10E946301C4
:104F70006FEF8091EE029091EF020E94AE196FEFF9
:104F80008091EC029091ED020E94AE190E94E91B03
:104F90000E9486110F5F1F4FD9CF640146018FEF2A
:104FA000881A980AF6018081082E000C990B0E943D
:104FB000962E892B91F7015011090A0D1B1DF8013E
:104FC0008081082E000C990B0E94962E892B31F0BF
:104FD0000C151D0518F001501109F1CFA8014F5F04
:104FE0005F4F4C195D0959A348A3AC14BD0420F4CC
:104FF000B601C5010E94EC31EC8DFD8D88A199A10F
:10500000E80FF91F1082FBCCBE82AD82B601898108
:105010009A810E940032BCCD60E070E0CB01C5CD2A
:1050200064E970E084E395E00E9467023ECE0130BF
:10503000110509F46BCF0091DA021091DB02209187
:105040000603309107030115110509F4C9C0213089
:10505000310509F0F4C062E080E10E949101011580
:10506000110509F0BBC18091D8029091D902019736
:1050700009F0B4C1C090D602D090D70264E670E0C7
:1050800080E090E00E94FA01CA94CD2809F073C133
:10509000C090F802D090F902C114D10409F0CAC33B
:1050A0000E9486118091FA029091FB0260910401A6
:1050B000709105010E94AD2F6C157D050CF45BC14C
:1050C0006AEF70E080E090E00E94FA0161E080E128
:1050D0000E94910160E080E10E94630162E370E060
:1050E00080E090E00E94FA0162E080E10E9491017C
:1050F0009FEFC91AD90AD6CF0E944A0BF092FB0241
:10510000E092FA020E94501B8091FA029091FB02F9
:10511000892B49F169E777E181E193E00E949B16D1
:1051200068EC70E084E395E00E94670284E395E018
:105130000E949A1361E173E084E395E00E940113F9
:105140008091FA029091FB0201969093FB0280936A
:10515000FA020E94501B6CE477E181E193E00E9427
:105160009B168111D1CF8DEF95E00E943D0B0CE095
:1051700010E062E080E10E94910160E170E080E077
:1051800090E00E94FA0161E080E10E94910160E0FC
:1051900080E10E94630160E170E080E090E00E94A5
:1051A000FA010150110929F7109207031092060322
:1051B0008091E8029091E90201979093E90280932F
:1051C000E8021092FB021092FA020E942D026093F4
:1051D000BE027093BF028093C0029093C1022BCF96
:1051E0008091D8029091D9028130910509F02FCF9A
:1051F0002115310509F02BCF2091D6023091D7022D
:10520000232BE9F49093EB028093EA022091E802C9
:105210003091E9022F5F3F4F3093E9022093E8027B
:105220009093BD028093BC024091BA025091BB02A0
:105230004217530724F49093E9028093E8020E94F6
:105240002D02009102031091030320910403309179
:105250000503601B710B820B930B653F7140810549
:10526000910510F00E949E130091E4021091E50256
:105270000130110599F50E942D028090E002909076
:10528000E102A090E202B090E302681979098A096C
:105290009B09613D77408105910500F10E942D0237
:1052A0006093E0027093E1028093E2029093E30244
:1052B0001092E5021092E4021093DF020093DE02E6
:1052C0001092E9021092E8021092DD021092DC02C4
:1052D0001093EB020093EA020E949E138091EA026F
:1052E0009091EB02019709F08FC160E084E00E9489
:1052F000630160E082E10E94630161E070E080E0B0
:1053000090E00E94FA0161E082E10E94630161E0A5
:1053100070E080E090E00E94FA0160E083E00E948B
:10532000630161E070E080E090E00E94FA01D12C1E
:10533000C12C0091E8021091E902C016D1060CF0D0
:105340002EC161E082E00E94630161E070E080E0D4
:1053500090E00E94FA0160E082E00E9463018AE02E
:1053600090E00E94CD0161E083E00E9463018FEF35
:10537000C81AD80ADECF8091D6029091D702892B25
:1053800069F56AEF70E080E090E00E94FA0161E068
:1053900080E10E94910160E080E10E94630164E687
:1053A00070E080E090E00E94FA0162E080E10E94FB
:1053B0009101F092D702E092D6021092FB02109275
:1053C000FA028091F8029091F9028130910569F416
:1053D0009093FB028093FA020E94501B8091D602A8
:1053E0009091D702019709F090C00E94501B8091C4
:1053F000D502882309F485C01092D50261E083E1CB
:105400000E94910160E083E10E9463016091D202F9
:10541000862F90E09093F1028093F0028091D30266
:1054200090E09093F3028093F2028091F8029091C1
:10543000F902892B71F48091EE029091EF020E94A3
:10544000AE196091F2028091EC029091ED020E94FF
:10545000AE198091F8029091F902019709F051C0BC
:105460000E944A0B6CE477E181E193E00E949B1675
:10547000811106C06AEB77E182EC92E00E949B16F4
:1054800067E5CE0101960E94B118CE0101960E94F7
:10549000DA0060EF70E08CE196E00E9467026091B4
:1054A000F2027091F3024AE050E08CE196E00E9433
:1054B0005C1367E072E08CE196E00E94011367EEF6
:1054C00070E08CE196E00E9467026091F0027091BA
:1054D000F1024AE050E08CE196E00E945C1367E044
:1054E00072E08CE196E00E94011361ED70E08CE1C6
:1054F00096E00E9467020E94BF128DEF95E00E9425
:105500003D0B62E083E10E9491018091D60290916F
:10551000D702019709F093CE8091DA029091DB02D5
:10552000019709F08CCE0E942D020091BE021091CD
:10553000BF022091C0023091C102601B710B820B2F
:10554000930B693B7B408105910508F478CE10925E
:105550000703109206031092D7021092D6020E94FF
:105560002D026093BE027093BF028093C00290939D
:10557000C10261E080E10E94910160E080E10E944F
:1055800063018091E8029091E90201979093E9020A
:105590008093E8021092FB021092FA0250CE01159D
:1055A000110571F460E082E10E94630161E070E046
:1055B00080E090E00E94FA0161E082E10E946301D4
:1055C0000E942D026093FC027093FD028093FE0204
:1055D0009093FF02F0920103E0920003101611066F
:1055E00024F461E084E00E946301809106019091BF
:1055F00007018130910521F49093E7028093E60240
:105600001092EB021092EA02809100039091010344
:10561000019709F0CEC00E942D020091FC0210916A
:10562000FD022091FE023091FF02601B710B820B84
:10563000930B6D3B72408105910508F4BAC00E943E
:105640002D026093FC027093FD028093FE02909302
:10565000FF0210920103109200031092FB021092BD
:10566000FA020091F8021091F9020130110509F0D7
:10567000ADC00E944A0B1093FB020093FA021093F4
:10568000F7020093F6020E94501B6CE477E181E17F
:1056900093E00E949B16882309F442C0F092F7021F
:1056A000E092F6020E94501B61E0CE0101960E943A
:1056B000B118CE0101960E94DA008CE196E00E94BA
:1056C000E10E892B41F11092F5021092F4024DE0A7
:1056D0006CE176E0CE0101960E9429150E94C4106B
:1056E0007093F5026093F402072E000C880B990B5F
:1056F0000E94FA014D815E8169817A8184E395E09F
:105700000E948B0284E395E00E949A13CE010196D9
:105710000E94E412D2CF0E94BF120E94671EB3CF34
:105720001092F7021092F602F092FB02E092FA0257
:105730000E94501B6CE477E181E193E00E949B168C
:10574000882399F10E94501B61E0CE0101960E94CE
:10575000B118CE0101960E94DA008CE196E00E9419
:10576000E10E892B99F00E94C4107093F3026093AC
:10577000F2020E94C4107093F1026093F0020E9442
:10578000C4107093F5026093F402E7CF0E94BF1239
:105790006091F4027091F502072E000C880B990BB2
:1057A0000E94FA010E94671EC3CF8DEF95E00E9410
:1057B0003D0B80E090E0892B09F407C90E94F502B7
:1057C000882309F402C90E940000FFC810E000E02D
:1057D00080910801909109018017910754F368ECBA
:1057E00070E080E090E00E94FA010E94501B8091DE
:1057F000EE029091EF020E94C219C82ED12CD092D5
:10580000F102C092F0028091EC029091ED020E94B0
:10581000C21990E09093F3028093F2028F3F9105BA
:1058200021F4FFEFCF16D10421F20E94671E0F5F13
:105830001F4FCECFCA94CD2809F09DCD0E9486116E
:105840000E94501B8091FA029091FB0208171907E1
:105850000CF091CD6AEF70E080E090E00E94FA01D8
:1058600061E080E10E94910160E080E10E946301BB
:1058700062E370E080E090E00E94FA0162E080E183
:105880000E9491010F5F1F4FDDCF87E396E00E94DA
:10589000E4128DE396E00C94E4121F93FC01992727
:1058A0008827BC01E89411911032E9F3193010F007
:1058B0001E30C8F31B3251F01D3249F4689406C003
:1058C0000E94A72C610F711D811D911D1191105314
:1058D0001A30B0F33EF490958095709561957F4FA6
:1058E0008F4F9F4F1F910895DC01FB0141505040A5
:1058F00070F00D900020D1F7119704C001900D9227
:10590000002061F041505040C8F71C92BF01019047
:105910000020E9F7E61BF70BAE0FBF1F0894A80B9A
:10592000B90BCD010895DC01FB014150504058F006
:1059300049F001900D920020C1F7E61BF70B31975B
:10594000CF0108951C9201900020E9F7F6CF592F5E
:10595000482F372F262F660F771F881F991F660F36
:10596000771F881F991F620F731F841F951F660F73
:10597000771F881F991F0895ABE0B0E0E2ECFCE2CE
:105980000C94672F7C013B018A01FC01178216826F
:10599000838181FFC8C1CE0101965C01F70193812B
:1059A000F30193FD859193FF81913F01882309F4D1
:1059B00053C1853239F493FD859193FF81913F0165
:1059C000853229F4B70190E00E94B52EE7CF912CE3
:1059D000212C312CFFE1F31538F08B3211F190F4CA
:1059E000803209F1833229F137FC3CC020ED280FC9
:1059F0002A3050F536FE20C08AE0989E200D1124F2
:105A0000922E06C08D3291F0803371F7689430F891
:105A1000F30193FD859193FF81913F018111DACFCD
:105A200021C0689431F8689432F8F2CF689433F862
:105A3000EFCF689434F8ECCFEAE02E9E200D1124CD
:105A4000222E689435F8E4CF8E3229F436FC04C156
:105A5000689436F8DDCF8C3619F4689437F8D8CFCF
:105A60008836B1F2982F9F7D95549330E0F08336BD
:105A7000A1F18337C1F1833509F063C02801F2E059
:105A80004F0E511CF801C080D180692D70E036FCAA
:105A900002C06FEF7FEFC6010E949F2E4C016894F9
:105AA00037F882010AC00C5F1F4FFFE3F983882497
:105AB0008394912C6501E89437F833FE2DC0522C65
:105AC0008114910471F5552009F468CFB70180E283
:105AD00090E00E94B52E5A94F6CFF8018081898318
