:100000000C94B0000C94D8000C94D8000C94D3221B
:100010000C947A220C94D8000C94D8000C94D8003C
:100020000C94D8000C94D8000C94D8000C94D800F0
:100030000C94D8000C94D8000C94D8000C94D800E0
:100040000C94D8210C94D8000C9448220C942222B1
:100050000C94D8000C94D8000C94D8000C94D800C0
:100060000C94D8000C94D80044656C6574656420C9
:10007000003000300053565320495220434F4D4D1D
:10008000414E443D007C3C3E5E2B3D3F2F5B5D3B43
:100090002C2A225C005356535F46575F0053565339
:1000A0002043555252454E5420494E5055543D0020
:1000B000535653204E455720494E5055543D0053FA
:1000C000565320544F54414C20494E505554533DA3
:1000D0000044656C6179286D696C6C697365636F48
:1000E0006E6473293D3000416464726573733D0032
:1000F000436F6D6D616E643D0000000000230026BB
:1001000000290000000009000302000004050800A7
:1001100000000000000000000000000000002400BB
:1001200027002A0000000000250028002B000404FE
:10013000040404040404020202020202030303038F
:10014000030302020301020408102040800102049C
:10015000081020010204081020408040CF23302FD7
:1001600011241FBECFEFD8E0DEBFCDBF26E0A4E84C
:10017000B2E001C01D92A33FB207E1F712E0A0E098
:10018000B1E0E8E8FAE602C005900D92A438B107A4
:10019000D9F710E0CFEAD0E004C02197FE010E9419
:1001A000DE32CE3AD107C9F70E9468240C94373565
:1001B0000C940000CF93DF93FC0182819381909394
:1001C000BC068093BB0684819581A681B78180930C
:1001D000BD069093BE06A093BF06B093C00680856F
:1001E0009185A285B3858093C1069093C206A093A2
:1001F000C306B093C406DF011C96CF014996C5EC37
:10020000D6E02D912993A817B907D9F7818D928D42
:100210009093D3068093D20689EB96E0DF91CF913D
:100220000895843081F028F48230E9F08330F9F0C9
:100230000895883071F0893091F08530B9F480915B
:1002400080008F7D03C0809180008F778093800035
:1002500008958091B0008F778093B00008958091C9
:10026000B0008F7DF9CF84B58F7784BD089584B5B4
:100270008F7DFBCFCF93DF93282F30E0F901ED5F27
:10028000FE4F8491F901EB5BFE4FD491F901E25DE1
:10029000FE4FC491CC23A1F081110E941101EC2FDB
:1002A000F0E0EE0FFF1FE750FF4FA591B491EC91E6
:1002B000ED2381E090E009F480E0DF91CF91089593
:1002C00080E090E0FACF1F93CF93DF93282F30E0A8
:1002D000F901ED5FFE4F8491F901EB5BFE4FD49184
:1002E000F901E25DFE4FC491CC23A9F0162F8111D4
:1002F0000E941101EC2FF0E0EE0FFF1FEC5DFE4FAE
:10030000A591B4918FB7F894EC91111108C0D095D4
:10031000DE23DC938FBFDF91CF911F910895DE2BF9
:10032000F8CFCF93DF9390E0FC01EB5BFE4F24917D
:10033000825D9E4FFC0184918823C9F090E0880F74
:10034000991FFC01E65EFE4FA591B491FC01EC5DA6
:10035000FE4FC591D49161110DC09FB7F8948C9157
:10036000209582238C938881282328839FBFDF9147
:10037000CF910895623051F49FB7F8943C91822F49
:10038000809583238C93E8812E2BEFCF8FB7F89441
:10039000EC912E2B2C938FBFEACF880F991F880FDB
:1003A000991F05970197F1F708953FB7F894809149
:1003B000AA039091AB03A091AC03B091AD0326B515
:1003C000A89B05C02F3F19F00196A11DB11D3FBF8D
:1003D000BA2FA92F982F8827BC01CD01620F711D5C
:1003E000811D911D42E0660F771F881F991F4A9556
:1003F000D1F708958F929F92AF92BF92CF92DF92E2
:10040000EF92FF926B017C010E94D5014B015C01D0
:10041000C114D104E104F104B9F00E94D5016819B6
:1004200079098A099B09683E73408105910580F32B
:1004300021E0C21AD108E108F10888EE880E83E0B5
:10044000981EA11CB11CE4CFFF90EF90DF90CF90DD
:10045000BF90AF909F908F9008952FB7F8946091C0
:10046000A6037091A7038091A8039091A9032FBFC1
:100470000895089508950F931F93CF93DF93EC0190
:100480000E942D02688779878A879B87E881F98196
:100490000284F385E02DCE01099597FF15C00E94D7
:1004A0002D02088519852A853B85601B710B820BFF
:1004B000930B0C811D812E813F816017710782078C
:1004C000930720F38FEF9FEFDF91CF911F910F9153
:1004D0000895EF92FF920F931F93CF93DF938C01B8
:1004E0007B01D0E0C0E0F701EC0FFD1F64916623B3
:1004F00061F0D801ED91FC910190F081E02DC801EF
:100500000995892B11F02196EECFCE01DF91CF9185
:100510001F910F91FF90EF900895AF92BF92CF92ED
:10052000DF92EF92FF920F931F93CF93DF936C01B3
:100530007B018B01040F151FEB015E01AE18BF0894
:10054000C017D10759F06991D601ED91FC91019046
:10055000F081E02DC6010995892B79F7C501DF915E
:10056000CF911F910F91FF90EF90DF90CF90BF90B0
:10057000AF900895FC01538D448D252F30E0842FDA
:1005800090E0821B930B541710F0CF9608950197BB
:100590000895FC01918D828D981761F0A28DAE0FA8
:1005A000BF2FB11D5D968C91928D9F5F9F73928F2F
:1005B00090E008958FEF9FEF0895FC01918D828D5B
:1005C000981731F0828DE80FF11D858D90E0089528
:1005D0008FEF9FEF0895FC01918D228D892F90E080
:1005E000805C9F4F821B91098F739927089581ED3D
:1005F00095E00E94EB0221E0892B09F420E0822F94
:10060000089580E090E0892B29F00E94F702811183
:100610000C9400000895FC01A48DA80FB92FB11D02
:10062000A35ABF4F2C91848D90E001968F73992728
:10063000848FA689B7892C93A089B1898C91837006
:1006400080648C93938D848D981306C00288F389FF
:10065000E02D80818F7D80830895EF92FF920F932C
:100660001F93CF93DF93EC0181E0888F9B8D8C8D5E
:1006700098131AC0E889F989808185FF15C09FB752
:10068000F894EE89FF896083E889F9898081837015
:10069000806480839FBF81E090E0DF91CF911F91C4
:1006A0000F91FF90EF900895F62E0B8D10E00F5FE5
:1006B0001F4F0F731127E02E8C8D8E110CC00FB6BB
:1006C00007FCFACFE889F989808185FFF5CFCE0153
:1006D0000E940B03F1CFEB8DEC0FFD2FF11DE35AC0
:1006E000FF4FF0829FB7F8940B8FEA89FB898081D6
:1006F0008062CFCFCF93DF93EC01888D8823B9F050
:10070000AA89BB89E889F9898C9185FD03C080811C
:1007100086FD0DC00FB607FCF7CF8C9185FFF2CF99
:10072000808185FFEDCFCE010E940B03E9CFDF91E1
:10073000CF9108958FB7F8948091D8028FBF089514
:1007400061E0FC0184810E9463018091D7028111E4
:100750001092D70208958EBD00000DB407FEFDCFA4
:100760008EB508958FEF0C94AB030F931F93CF9327
:10077000DF93EC010E942D028B010E94B2038F3F98
:1007800069F00E942D02601B710B6C177D07A8F3A6
:1007900080E0DF91CF911F910F91089581E0F9CF13
:1007A0008CBD9DBD0895CF93DF93EC018091D7025E
:1007B000811109C081E08093D70280916E069091EB
:1007C0006F060E94D00360E08C81DF91CF910C9482
:1007D00063018F929F92AF92BF92FF920F931F93EC
:1007E000CF93DF93EC01F62E49015A018E818823C5
:1007F00089F08F8198859C012F5F3F4F38872F8329
:100800008230924018F40E94B203F3CFCE010E94CE
:10081000A0031E82CE010E94D3038CE291E00E94CD
:10082000B5038F2D80640E94AB0308E110E0D50171
:10083000C401002E04C0B695A795979587950A9494
:10084000D2F70E94AB0308501109083F8FEF180739
:1008500071F785E9FF2021F028E087E8F2128FEF99
:100860000E94AB0310E00E94B2038A8787FF04C096
:100870001F3F11F01F5FF7CFDF91CF911F910F91B5
:10088000FF90BF90AF909F908F900895AF92BF92CE
:10089000CF92DF92EF92FF920F931F93CF93DF934C
:1008A000EC016901C801820F931F8130924050F51D
:1008B0008E81882379F088819981AA81BB818417F0
:1008C0009507A607B70731F48F819885C816D90612
:1008D00008F042C0488359836A837B838B858330C9
:1008E00039F089E0440F551F661F771F8A95D1F7AD
:1008F0009A01AB0161E1CE010E94E903882389F0EE
:1009000083E08D83CE010E94A00380E0DF91CF9130
:100910001F910F91FF90EF90DF90CF90BF90AF901D
:1009200008950E942D025B010E94B2038A878F3FC7
:1009300069F40E942D026A197B096D327140A0F39F
:100940008FE08D83CE010E94A003DCCF8E3F89F41F
:1009500018861F8281E08E838F8198858C159D0576
:1009600050F40E94B2038F819885019698878F83F7
:10097000F3CF8DE0E6CF6701E00EF11E0E94B203D7
:10098000F60181936F01EE15FF05C1F78F81988500
:10099000080F191F18870F838985882319F00115FF
:1009A0001240A0F08E81882389F08F8198859C0168
:1009B0002F5F3F4F38872F838230924018F40E9478
:1009C000B203F3CFCE010E94A0031E8281E09ECF2E
:1009D000CF92DF92EF92FF920F93CF93DF93EC01D0
:1009E000690182E1411551056105710599F08B8519
:1009F000833039F089E0440F551F661F771F8A95B1
:100A0000D1F79A01AB0168E1CE010E94E903882386
:100A100019F084E08D832DC08EEF0E94AB03760128
:100A20008EEFD81AF70181917F010E94AB03EC147D
:100A3000FD04C1F78FEF0E94AB038FEF0E94AB0361
:100A40000E94B2038A878F71853071F4011116C03C
:100A5000CE010E94A00381E0DF91CF910F91FF9022
:100A6000EF90DF90CF90089581E18D83CE010E94B9
:100A7000A003CE010E94A00380E0EECF88E592E0C3
:100A80000E94B503811102C085E1C4CF20E030E0AF
:100A9000A9016DE0CE010E94E903882311F084E1F1
:100AA000B9CF0E94B2038111FACFD2CF0F934091F8
:100AB000DA025091DB026091DC027091DD02411597
:100AC00051056105710599F0082F21ED33E0809102
:100AD000AF039091B0030E94E804882349F010927C
:100AE000DA021092DB021092DC021092DD0281E049
:100AF0000F9108950F93CF93C82F8091D902811140
:100B000005C0C1E08C2FCF910F91089540910A014B
:100B100050910B0160910C0170910D010C2F21ED92
:100B200033E08091AF039091B0030E94E8048111FB
:100B300002C0C0E0E7CFCC2321F381E00E9456053C
:100B40008823B9F31092D902DDCF8F929F92AF9292
:100B5000BF92EF92FF920F931F93CF934B015C01D3
:100B6000C42F80910A0190910B01A0910C01B091CA
:100B70000D0188159905AA05BB0551F181E00E9478
:100B80007A0581110BC080E0CF911F910F91FF90EA
:100B9000EF90BF90AF909F908F90089581EDE82ED9
:100BA00083E0F82E00E012E030E020E0B501A4017F
:100BB0008091AF039091B0030E944604882319F3FB
:100BC00080920A0190920B01A0920C01B0920D014B
:100BD0004091D9024C2B4093D90281E0D5CFCF93DD
:100BE000DF93EC016E857F858889998941E00E94B9
:100BF000A505882351F08A8920E2829FC001112433
:100C00008F529C4FDF91CF91089590E080E0FACF12
:100C10008F929F92AF92BF92CF92DF92EF92FF920C
:100C2000CF9320E736E03093B0032093AF038823BF
:100C300009F46DC040E060E070E0CB010E94A505C2
:100C400081110BC080E0CF91FF90EF90DF90CF90AB
:100C5000BF90AF909F908F90089580918F058F7770
:100C600089F780919B0590919C05A0919D05B0917D
:100C70009E0584369105A105B10520F3C090970526
:100C8000D0909805E0909905F0909A05C114D10490
:100C9000E104F104B9F240E0C701B6010E94A505E4
:100CA000882381F28091DC039091DD0381159240CD
:100CB00049F6A091E103AA2329F26091DF03709124
:100CC000E0036115710509F4BDCF2091DE032223F5
:100CD00009F4B8CFA0938E062093800690E080E0C0
:100CE00030E0E1E0F0E0C82FAF01082E02C0440F71
:100CF000551F0A94E2F72417350769F041E0480FC1
:100D000001968930910579F7409389069BCFC12CD4
:100D1000D12C7601C0CF809389062091E7033091D2
:100D2000E80350E040E02115310541F42091F5033E
:100D30003091F6034091F7035091F8032093810618
:100D400030938206409383065093840646015701F0
:100D5000860E971EA11CB11C80928F069092900661
:100D6000A0929106B0929206E091E203F091E30323
:100D7000F0939506E0939406B0E00E944332DC01C4
:100D8000CB01880D991DAA1DBB1D809396069093DB
:100D90009706A0939806B093990625E0EE0FFF1FE3
:100DA0002A95E1F7E150FE4FEF2FFF27E6958E0FD2
:100DB0009F1FA11DB11D80938A0690938B06A0935F
:100DC0008C06B0938D068090E4039090E503B12CDF
:100DD000A12C8114910441F48090F1039090F203CE
:100DE000A090F303B090F403C81AD90AEA0AFB0AE8
:100DF000C80CD91CEA1CFB1C04C0F694E794D794D9
:100E0000C794CA95D2F7C0928506D0928606E09222
:100E10008706F092880685EFC8168FE0D806E104B1
:100E2000F10428F48CE08093930681E00CCF80E1FC
:100E300025EFC2162FEFD206E104F104A0F3809152
:100E4000FD039091FE03A091FF03B09100048093F5
:100E5000960690939706A0939806B093990680E221
:100E6000E2CF4F925F926F927F928F929F92AF925A
:100E7000BF92CF92DF92EF92FF920F931F93CF9387
:100E8000DF93EC01423051056105710590F480E07B
:100E9000DF91CF911F910F91FF90EF90DF90CF9056
:100EA000BF90AF909F908F907F906F905F904F908A
:100EB000089589859A85AB85BC850196A11DB11DD4
:100EC00084179507A607B70710F3CB88DC88ED8851
:100ED000FE888F89803109F042C0BB27A72F962F4B
:100EE000852F480159012A013B01C80ED91EEA1E6F
:100EF000FB1E80910A0190910B01A0910C01B09111
:100F00000D01C816D906EA06FB0699F58F898031CE
:100F1000C1F5B301A201552766277727440F551F56
:100F20004F525C4FFA01918280828091D902816098
:100F30008093D9028A89823080F08D819E81AF8131
:100F4000B8858C0D9D1DAE1DBF1D8093DA02909358
:100F5000DB02A093DC02B093DD0281E099CFDB01DC
:100F6000CA01E7E0B695A79597958795EA95D1F7D9
:100F7000B8CF40E0C701B6010E94A5058111C6CFD8
:100F800086CFB301A2014F77552766277727440FF5
:100F9000551F440F551F4F525C4FFA0180829182BA
:100FA000A282B382C2CF8F929F92AF92BF92CF9212
:100FB000DF92EF92FF920F931F93CF93DF93FC0189
:100FC00081859285A385B4850196A11DB11D8417E5
:100FD0009507A607B70770F480E0DF91CF911F91C6
:100FE0000F91FF90EF90DF90CF90BF90AF909F90C8
:100FF0008F90089583889488A588B68887898031E2
:1010000089F5BB27A72F962F852FE9016A017B0160
:101010008F01BC01CD01680D791D8A1D9B1D80903B
:101020000A0190900B01A0900C01B0900D01861662
:101030009706A806B90601F5F8018789803111F5F0
:10104000DD24EE24FF24F601EE0FFF1FEF52FC4FCC
:1010500080819181B0E0A0E088839983AA83BB83DB
:1010600081E0BBCFDB01CA01C7E0B695A795979594
:101070008795CA95D1F7C9CF40E00E94A505811197
:10108000DBCFAACFE894C7F8DD24EE24FF24F601D5
:10109000EE0FFF1FEE0FFF1FEF52FC4F808191817B
:1010A000A281B381BF70D8CF4F925F926F927F922F
:1010B000AF92BF92CF92DF92EF92FF920F931F9366
:1010C000CF93DF9300D000D0CDB7DEB78C0149833A
:1010D0005A836B837C835901C12CD12C7601412C1E
:1010E00082E0582E612C712C49815A816B817C8160
:1010F0009E012F5F3F4FC8010E94D307882339F11B
:10110000F8018585A301920104C0220F331F441FFB
:10111000551F8A95D2F7DA01C901C80ED91EEA1EF9
:10112000FB1E49815A816B817C818789803111F155
:1011300088EF9FEFAFEFBFE0481759076A077B07BB
:1011400098F2F501C082D182E282F38281E00F90B1
:101150000F900F900F90DF91CF911F910F91FF9003
:10116000EF90DF90CF90BF90AF907F906F905F90A7
:101170004F90089588EF9FEFA0E0B0E0DDCFCF93D0
:10118000DF93FC012581222321F080E0DF91CF91C4
:101190000895EC0180919306803159F582E08583B2
:1011A000178A108E118E128E80919406909195065A
:1011B000B0E0A0E025E0880F991FAA1FBB1F2A9569
:1011C000D1F7838B948BA58BB68B8CE796E09C8FA5
:1011D0008B8F81E08C831E821F82188619861A8667
:1011E0001B861C861D861E861F86188A198A1A8AE7
:1011F000CDCF803251F683E08583409196065091A1
:1012000097066091980670919906478B508F618F71
:10121000728F9F012D5E3F4F8CE796E00E9454082D
:101220008111D3CFB2CF8F929F92AF92BF92CF92C4
:10123000DF92EF92FF920F931F93CF93DF93EC0116
:101240008D8181110EC080E0DF91CF911F910F91B0
:10125000FF90EF90DF90CF90BF90AF909F908F90D6
:1012600008950B891C892D893E89041715072607C7
:10127000370748F34A015B01823031F48A869B8646
:10128000AC86BD8681E0E0CF81149104A104B10455
:1012900049F41E821F82188619861A861B861C86B0
:1012A0001D86F0CF0A851B852C853D85EB8DFC8D39
:1012B000858590E00996B901A8014150510961095D
:1012C0007109082E04C076956795579547950A943D
:1012D000D2F775016401E1E0CE1AD108E108F10806
:1012E00004C0F694E794D794C7948A95D2F7C416AD
:1012F000D506E606F70620F0012B022B032B11F58D
:101300008F89988DA98DBA8D8E839F83A887B98781
:101310008E010A5F1F4FC114D104E104F10409F4E6
:10132000ADCF4E815F816885798598018B8D9C8DCD
:101330000E94D30791E0C91AD108E108F108811190
:10134000EACF81CFC41AD50AE60AF70AE1CF3F9265
:101350004F925F926F927F928F929F92AF92BF92C5
:10136000CF92DF92EF92FF920F931F93CF93DF9371
:10137000CDB7DEB72C970FB6F894DEBF0FBECDBF4A
:101380005C01DC015B968D909C905C9716964D906D
:101390005D906D907C901997411451046104710423
:1013A00009F468C0BFEF4B1A5B0A6B0A7B0A312C49
:1013B000F40181859285A385B4859C01AD012F5FE1
:1013C0003F4F4F4F5F4F29873A874B875C877301A9
:1013D00062011D821E821F821886F401818592851A
:1013E000A385B4852D813E814F8158852817390703
:1013F0004A075B0708F056C089859A85AB85BC858E
:101400008C159D05AE05BF0550F482E0C82ED12C89
:10141000E12CF12C92E0492E512C612C712C9E0173
:101420002F5F3F4FB701A601C4010E94D307882355
:10143000C9F189819A81AB81BC81892B8A2B8B2B45
:1014400009F1260137019FEF491A590A690A790AF9
:101450002D813E814F8158852F5F3F4F4F4F5F4F0A
:101460002D833E834F8358873FEFC31AD30AE30A85
:10147000F30AB3CFF401408051806280738033243B
:10148000339496CFC414D504E604F70409F70FEF9C
:101490001FEF2FEF3FE0B701A601C4010E94310703
:1014A000811119C080E02C960FB6F894DEBF0FBEF4
:1014B000CDBFDF91CF911F910F91FF90EF90DF9003
:1014C000CF90BF90AF909F908F907F906F905F90E4
:1014D0004F903F900895D50116964D915D916D9175
:1014E0007C911997411551056105710539F09701F6
:1014F0008601C4010E9431078823A1F2D501169606
:10150000CD92DD92ED92FC921997332051F0D701E4
:10151000C6010196A11DB11DF40180839183A283B0
:10152000B383F5018789908DA18DB28D892B8A2B8C
:101530008B2B39F48481C78AD08EE18EF28E80683D
:101540008483F50184818062848381E0ACCF1F9322
:10155000CF93DF93FC012581222371F1162FEC013B
:10156000848187FF1EC0CF010E94EF05FC01892BFB
:1015700019F18D81823040F48B899C89AD89BE89B7
:10158000848F958FA68FB78F8F89988D938F828F39
:101590008F89988DA98DBA8DB58BA48B8C818F770F
:1015A0008C83111103C08C818F7E8C83812FDF91FE
:1015B000CF911F910C947A0580E0DF91CF911F911C
:1015C0000895FF920F931F93CF93DF93EC018D81CA
:1015D000813041F090E080E0DF91CF911F910F9139
:1015E000FF9008958C8181FFF5CF82FD1BC0009193
:1015F000AF031091B003C8010E94D3030E94B2034D
:10160000F82EC8010E94A0038FEFF812E3CF8C815F
:1016100085FF1BC060E0CE010E94A70A8C818F7DF0
:101620008C83D8CF4B895C896D897E898A859B851F
:10163000AC85BD8584179507A607B707C1F2CE0113
:101640000E9413098111D3CFC5CF4091DA02509186
:10165000DB026091DC027091DD02452B462B472BAB
:1016600021F080E00E945605B5CF80618C832A85E9
:101670003B85317080E092E0821B930BADCFCF931E
:10168000DF93EC0161E00E94A70A882311F01D821C
:1016900081E0DF91CF910895CF92DF92EF92FF9298
:1016A0001F93CF93DF9380919F06882321F08AE9CF
:1016B00096E00E943F0B10927B06109279061092E2
:1016C0007606109275068AE0809374060E942D02B9
:1016D000EB0161E0809174060E94910161E08091CC
:1016E00074060E9463011FB7F8948091AE038111C4
:1016F00027C0E8E3F1E08491EFE4F1E09491E82F72
:10170000F0E0EE0FFF1FE65EFE4FA591B491EC9165
:10171000E92321F461E08AE00E94630161E08AE04C
:101720000E9491018CB580618CBD8CB580648CBDAC
:1017300061E08DE00E94910161E08BE00E949101E7
:101740008091AE038F5F8093AE031FBF82E58093CD
:101750006E0610926F0680916E0690916F060E9441
:10176000D0031AE08FEF0E94AB031150D9F780E746
:1017700096E00E94D30320E030E0A90160E080E71A
:1017800096E00E94E903182F80937A06813081F059
:101790000E942D026C1B7D0B613D774060F381E060
:1017A0008093750680E796E00E94A00390E078C0E1
:1017B0002AEA31E040E050E068E080E796E00E94ED
:1017C000E90382FF2AC010937B0680917B06C12C1F
:1017D000D12C7601823029F4C12CD12CE12C80E46B
:1017E000F82E20E030E0A90167E380E796E00E9450
:1017F000E903A701960169E280E796E00E94E90308
:1018000080937A068823C1F00E942D026C1B7D0B09
:10181000613D774030F388E0C3CF14E00E94B2030B
:1018200080937A061150D1F78A3A11F082E0B8CF4E
:1018300082E080937B06C9CF80917B068230D1F411
:1018400020E030E0A9016AE380E796E00E94E90326
:10185000882311F086E0A4CF0E94B203807C803CF4
:1018600019F483E080937B060E94B2030E94B203C6
:101870000E94B20380E796E00E94A00380E5809377
:101880006E0610926F0681E00E940806882389F098
:101890008AE996E00E94BF0891E0882309F486CF88
:1018A000892FDF91CF911F91FF90EF90DF90CF9024
:1018B000089580E00E940806882309F477CFE8CFD6
:1018C0008F929F92AF92BF92CF92DF92EF92FF9250
:1018D000CF93DF93EC010E94A70981110CC080E037
:1018E000DF91CF91FF90EF90DF90CF90BF90AF90BE
:1018F0009F908F900895EB8DFC8DCE80DF80E884E3
:10190000F98482E0C81AD108E108F108858504C08D
:10191000CC0CDD1CEE1CFF1C8A95D2F786859785C2
:10192000A089B189C80ED91EEA1EFB1E848146011A
:101930005701880E911CA11CB11CC814D904EA04DB
:10194000FB04F9F081E0881A9108A108B10881E050
:101950000E947A05882319F2E1EDF3E0119285E007
:10196000E13DF807D9F780920A0190920B01A0920D
:101970000C01B0920D018091D90281608093D9024F
:10198000DCCFEB8DFC8D258580E092E0A0E0B0E01F
:1019900004C0880F991FAA1FBB1F2A95D2F74B8935
:1019A0005C896D897E89840F951FA61FB71F8B8B5D
:1019B0009C8BAD8BBE8B81E093CF2F923F924F9249
:1019C0005F926F927F928F929F92AF92BF92CF92CF
:1019D000DF92EF92FF920F931F93CF93DF9300D08C
:1019E00000D01F92CDB7DEB77C015B01342E5D8342
:1019F000DC0115968C911597813009F0CEC01496B4
:101A00002C9021FECAC022FCB4C0C32CDD802294DD
:101A10007FE027222094B22DB1702B2ED7011A9689
:101A20004D915D916D917C911D97C114D10409F484
:101A300028C15B968D919C915C97FC0174807A948F
:101A40008A019B0169E036952795179507956A9558
:101A5000D1F770228A011170711020C00115110593
:101A6000E9F416964D915D916D917C911997411510
:101A700051056105710509F099C057968D919D91A9
:101A80000D90BC91A02D0097A105B10509F0B0C043
:101A9000C7010E94A709882309F47FC080E092E073
:101AA000801B910B46018C159D0508F44C01D70154
:101AB0005B964D915C915C9716968D919D910D90E2
:101AC000BC91A02D0297A109B109FA01258504C096
:101AD000880F991FAA1FBB1F2A95D2F746855785E5
:101AE00060897189840F951FA61FB71F9C01AD01E6
:101AF000270D311D411D511D29013A01811432E08C
:101B0000930609F07BC080910A0190910B01A0918E
:101B10000C01B0910D0184159505A605B70559F482
:101B20008FEF9FEFDC0180930A0190930B01A0934C
:101B30000C01B0930D01022D9501B301A20180911A
:101B4000AF039091B0030E94E804882331F19EEF27
:101B5000B91AC818D908F70182859385A485B58577
:101B6000880D991DA11DB11D82879387A487B58714
:101B700055CFF70143895489658976898285938594
:101B8000A485B585481759076A077B0709F43DCF37
:101B9000C7010E941309811138CF81E090E0D7017D
:101BA00013969C938E93129780E007C09E012F5F3F
:101BB0003F4F0E94D307811102C090E079C0898114
:101BC0009A81AB81BC81F701238D348DF90127897E
:101BD00048EF5FEF60E070E0203121F048EF5FEF09
:101BE0006FEF7FE084179507A607B70708F050CF7F
:101BF000F70186839783A087B18750CF0115110520
:101C000099F5D7011A964D915D916D917C911D9733
:101C100053968D919D910D90BC91A02D4817590719
:101C20006A077B0708F181E00E947A05882309F49E
:101C3000B4CF40920A0150920B0160920C01709255
:101C40000D018091D90281608093D902C8018F5221
:101C50009C4FD5019C01280D391DFC012E173F0713
:101C600059F04D914193FACF41E0C301B2010E9476
:101C7000A5058111EBCF91CF281B390BA20EB31E06
:101C800068CFF70183899489A589B6898417950758
:101C9000A607B70738F48481438B548B658B768B0A
:101CA00080688483F701848183FD1AC0832D9D8120
:101CB0000F900F900F900F900F90DF91CF911F9189
:101CC0000F91FF90EF90DF90CF90BF90AF909F90DB
:101CD0008F907F906F905F904F903F902F900895DE
:101CE00061E0C7010E94A70A882309F456CFDECF1E
:101CF000CF93DF931F92CDB7DEB7698341E050E009
:101D0000BE016F5F7F4F0E94DD0C0F90DF91CF917E
:101D10000895FC01DB0112968D919C91139793839A
:101D2000828386E991E09183808314968C91149745
:101D3000848315968C911597858316964D915D91A8
:101D40006D917C91199746835783608771871A96A6
:101D50004D915D916D917C911D974287538764876A
:101D600075871E964D915D916D917C915197468737
:101D70005787608B718B52968C915297828B5396BA
:101D80004D915D916D917C915697438B548B658BF2
:101D9000768B57964D915D916D917C915A97478BBB
:101DA000508F618F728F5B968D919C91948F838FF2
:101DB0000895FC01818D928D009719F061E00C94DB
:101DC000A70A0895DC015996ED91FC913097B9F07E
:101DD00083899489A589B6894285538564857585EB
:101DE000841B950BA60BB70B811520E89207A10564
:101DF000B10538F08FEF9FE7A0E0B0E0089590E0E4
:101E000080E00895DC0159968D919C91009739F0FE
:101E1000DC01ED91FC910480F581E02D099490E0C6
:101E200080E00895CF93DF93EC01E98DFA8D309730
:101E300049F481E090E09B838A8390E080E0DF9129
:101E4000CF91089513821282898D9A8D0E94DD0CA4
:101E5000E98DFA8D22813381232B59F7F0CFCF936F
:101E6000DF931F92CDB7DEB76983DC01ED91FC9162
:101E70000280F381E02D41E050E0BE016F5F7F4FB3
:101E800009950F90DF91CF9108952F923F924F9235
:101E90005F926F927F928F929F92AF92BF92CF92FA
:101EA000DF92EF92FF920F931F93CF93DF9300D0B7
:101EB0001F92CDB7DEB7FC018581811118C08FEF6D
:101EC0009FEF0F900F900F90DF91CF911F910F9187
:101ED000FF90EF90DF90CF90BF90AF909F908F904A
:101EE0007F906F905F904F903F902F9008958481E6
:101EF00080FFE5CF438954896589768982859385FA
:101F0000A485B585312C212C481759076A077B0712
:101F100019F022242394312C6F012101CE01019666
:101F20003C01DF011696BB83AA834114510409F4D6
:101F3000C5C0F60142855385648575854A01F1E087
:101F40009F22D6015B968D919C915C978A019B01A3
:101F5000E9E03695279517950795EA95D1F71596F7
:101F6000EC91E230E9F5FC01628D738D848D958DE5
:101F7000600F711F821F931FA12C22E0B22EA818A0
:101F8000B9084A145B0408F45201F601248126FDC5
:101F900004C0A114F2E0BF0671F400910A0110918F
:101FA0000B0120910C0130910D010617170728072E
:101FB000390709F05EC040E00E94A505882309F4B6
:101FC0007ECFC4018F529C4FD3019C012A0D3B1D33
:101FD000FC012E173F0709F46CC041914D93F9CFD6
:101FE000DC011496BC90BA94B0228114910479F467
:101FF000B1100DC0452B462B472B69F5F60187899B
:10200000908DA18DB28D86839783A087B187D601ED
:102010005B96ED91FC915C9716966D917D918D91FB
:102020009C9119976250710981099109258504C015
:10203000660F771F881F991F2A95D2F70685178587
:1020400020893189600F711F821F931F6B0D711DD5
:10205000811D911D91CFD60116964D915D916D9187
:102060007C9119972A813B810E94D3078111CFCFA0
:1020700026CF730185019401AB01BC018091AF03B0
:102080009091B0030E944604882309F418CF6A0C8B
:102090007B1CF60182859385A485B5858A0D9B1DE1
:1020A000A11DB11D82879387A487B5874A185B0855
:1020B0003CCF281B390B620E731EEBCF2A942328CA
:1020C00009F0FDCE898190E0FCCEFC01818D928DDE
:1020D000009711F00C94450F8FEF9FEF08950F9329
:1020E0001F93CF93DF93EC01898D9A8D10E000E070
:1020F000009799F00E94450F8C010F3F100769F07F
:10210000898D9A8DFC014285538564857585415082
:102110005109610971090E941309C801DF91CF912A
:102120001F910F9108950F931F930E942D026093AA
:10213000C1067093C2068093C3069093C40689EBD0
:1021400096E00E946F1097FF1DC00E942D02009123
:10215000C1061091C2062091C3063091C406601BCF
:10216000710B820B930B0091BD061091BE0620915E
:10217000BF063091C0066017710782079307F8F217
:102180008FEF9FEF1F910F910895CF92DF92EF9203
:10219000FF92CF930E949310FC0197FD4EC08D32A9
:1021A000910521F0C0970A9708F040C0C12CD12CAE
:1021B0007601C0E0E130F105D1F0ED32F105D9F161
:1021C000CF01C0970A9798F4AAE0B0E0A701960162
:1021D0000E9443326F01FF0FEE08FF08C60ED71EA4
:1021E000E81EF91E80E3C81AD108E108F10889EB5E
:1021F00096E00E9465100E949310FC01C0970A9718
:10220000C8F2E130F105B1F2CC2341F0F094E09452
:10221000D094C094C11CD11CE11CF11CC701B601B3
:10222000CF91FF90EF90DF90CF90089589EB96E0EB
:102230000E946510AFCFC1E0DACFC12CD12C76015E
:10224000EDCF8FEF9FEF089590E080E0089508951F
:10225000EF92FF920F931F93CF93DF93DC0152967F
:10226000ED90FC905397E114F10479F481E090E053
:1022700013969C938E93129790E080E0DF91CF911C
:102280001F910F91FF90EF9008951D96ED91FC9195
:102290001E971C968C911C97982F90950FB754966B
:1022A0002C915497122F127021FD6095F894208183
:1022B000112319F1282B2083E7012197F1F728E05A
:1022C000462F50E0308160FF1AC0382B3083E70181
:1022D0002197F1F7BA0175956795215089F7112378
:1022E00081F08081892380830FBF52968D919C91CC
:1022F0000197F1F781E090E0C1CF2923DCCF3923AA
:10230000E5CF9081892BEFCF90E080E008950F9387
:102310001F93CF93DF9360E084E00E94630160E04D
:1023200082E10E94630161E070E080E090E00E9441
:10233000FA0161E082E10E94630161E070E080E007
:1023400090E00E94FA0160E083E00E94630161E096
:1023500070E080E090E00E94FA0110E000E0C0919F
:102360007703D09178030C171D07CCF461E082E06D
:102370000E94630161E070E080E090E00E94FA0159
:1023800060E082E00E9463018AE090E00E94CD015B
:1023900061E083E00E9463010F5F1F4FE0CF209751
:1023A00071F460E082E10E94630161E070E080E02E
:1023B00090E00E94FA0161E082E10E9463010E94C4
:1023C0002D02609360037093610380936203909386
:1023D000630381E0809364031C161D0624F461E00E
:1023E00084E00E94630180911001882319F081E04C
:1023F0008093E4021092700310925C0310925B03CE
:10240000DF91CF911F910F9108952F923F924F929C
:102410005F926F927F928F929F92AF92BF92CF9274
:10242000DF92EF92FF920F931F93CF93DF93CDB77D
:10243000DEB729970FB6F894DEBF0FBECDBF0E945E
:102440002D0260939F037093A0038093A103909348
:10245000A203E0916703F091680320916503309136
:1024600066033F832E833091770339877091780319
:1024700040916D034887809170038D836091710353
:1024800080912F03909130032FE0222E23E0322EF3
:10249000A7EBB2E0BA83A9838D013C822B8230E0A6
:1024A00020E0AB81BC818D909D90AD90BD90BC83B0
:1024B000AB8350E040E06901BFEFCB1ADB0A790142
:1024C000E40EF51E240135010E2C04C076946794A9
:1024D000579447940A94D2F740FE23C0D8014D90F8
:1024E0005D906D907C9004C0769467945794479467
:1024F000EA94D2F740FE03C0E130F10591F4D60131
:10250000A40FB51FBF83AE838A179B0709F4C0C011
:10251000CD01A987792F60E0B1E0BD83F0E0E0E074
:1025200018864F5F5F4F4032510549F6205E3F4F9E
:102530000C5F1F4F211541E0340709F0B2CF3093F3
:102540000E0320930D03AE81BF81B0936603A09369
:102550006503B885B0936D03298520937703709345
:1025600078039093300380932F03F0936803E093F4
:1025700067033D81309370036093710310920C03E5
:1025800010920B03611158C010920E0310920D03AC
:102590009FE2A92E93E0B92E0FE013E07724739405
:1025A00080E2882E912CC0900B03D0900C03E09019
:1025B0000D03F0900E034FEFE41AF40AF801808146
:1025C0009181A281B3810C2C04C0B695A7959795F3
:1025D00087950A94D2F780FD15C02E813F812E1574
:1025E0003F0581F480916D0381110CC070926D03E1
:1025F0000E942D026093690370936A0380936B03BA
:1026000090936C033FEFC31AD30AD0920C03C0928D
:102610000B03F0920E03E0920D0341E0841A91083F
:1026200009F0C1CF10920C0310920B030C5F1F4FE7
:10263000A016B10609F0B4CFF10181919191A19159
:10264000B1911F01E981FA8181939193A193B19393
:10265000FA83E983FFE22F16F3E03F0669F7299634
:102660000FB6F894DEBF0FBECDBFDF91CF911F91A3
:102670000F91FF90EF90DF90CF90BF90AF909F9021
:102680008F907F906F905F904F903F902F90089524
:102690008987792F45CF8091990390919A03209152
:1026A0009B03222331F0019690939A038093990320
:1026B00008952091630130916401820F931F9093DC
:1026C0009A03809399036091110170911201269FE2
:1026D000A001279F500D369F500D11244817590710
:1026E00024F410929A031092990308954F925F92E6
:1026F0006F927F928F929F92AF92BF92CF92DF9212
:10270000EF92FF920F931F936C010E94D5012B0152
:102710005C014B01F12CE12C87E0C81AD108E108DB
:10272000F108F894439A88E090E00E94CD01439824
:1027300078948AE1880E911CA11CB11C0E94D501DD
:102740009B0124193509890130E020E00C151D0595
:102750002E053F0534F4681579058A059B0570F34D
:10276000E0CF1F910F91FF90EF90DF90CF90BF903F
:10277000AF909F908F907F906F905F904F90089553
:102780008F929F92AF92BF92CF92DF92EF92FF9281
:102790000F931F93CF93DF9300D000D0CDB7DEB758
:1027A000FC018581813091F080E00F900F900F90B7
:1027B0000F90DF91CF911F910F91FF90EF90DF90DD
:1027C000CF90BF90AF909F908F900895848181FFAC
:1027D000EBCF83899489A589B689892B8A2B8B2B8A
:1027E00009F45FC07F0140E050E0BA01CF010E94D0
:1027F00013098823C9F2F701C38CD48C8788908C85
:10280000A18CB28C82E090E0A0E0B0E0F601808381
:102810009183A283B3839E012F5F3F4FB501A40133
:10282000C6010E94D307882309F4BECF00E010E060
:102830009801B501A401C6010E943107882309F45B
:10284000B3CF89809A80AB80BC80F60187898031C4
:1028500019F188EF9FEFAFEFBFE088169906AA063F
:10286000BB06C8F2F701178A108E118E128E138ADA
:10287000148A158A168A84818068848361E0C7017E
:102880000E94A70A882309F48FCF40E050E0BA01E4
:10289000C7010E94130989CF88EF9FEFA0E0B0E045
:1028A000DCCF81E082CFCF92DF92EF92FF921F9335
:1028B000CF93DF93EC0180E2689FF0011124EF5287
:1028C000FC4F9385917161F0842F827449F080E010
:1028D000DF91CF911F91FF90EF90DF90CF900895FF
:1028E000142F6A8B80910A0190910B01A0910C0129
:1028F000B0910D018E879F87A88BB98BC488D5882E
:10290000F12CE12C7601DD24CC24CF8AD88EE98EFF
:10291000FA8E828D938DB0E0A0E0AC01BD014C2910
:102920005D296E297F294F8B588F698F7A8F838518
:10293000887111F5848D958DA68DB78D8B8B9C8BB1
:10294000AD8BBE8B81E08D83812F8F708C831E8237
:102950001F82188619861A861B861C861D8681E0B2
:1029600016FFB6CFCE01DF91CF911F91FF90EF9070
:10297000DF90CF900C94C013803109F0A8CF9E0156
:102980002D5E3F4F8B8D9C8D0E945408882309F447
:102990009ECF84E0D8CF8091D2069091D306009745
:1029A00061F00E943F0B8091D2069091D3060E9465
:1029B00080331092D3061092D2060895CF93DF93FE
:1029C000EC0188819981009711F00E94803319826F
:1029D00018821D821C821B821A82DF91CF9108957A
:1029E000FC0180819181009711F00C94803308954F
:1029F0002091D8063091D906DC011496ED91FC9116
:102A000015972E173F07B0F04091D4065091D50688
:102A10004115510579F06D917C916115710551F069
:102A20002E1B3F0BCA01820F931F0E94E73421E047
:102A3000892B09F020E0822F0895CF93DF93EC01DA
:102A40008091D4069091D5060097E9F0688179814C
:102A500061157105B1F04091D6065091D7062C81D1
:102A60003D814217530768F00E94F0348C819D81AC
:102A70009093D9068093D8061D821C82DF91CF9156
:102A800008950E948033888199819093D506809320
:102A9000D4068A819B819093D7068093D6068C8139
:102AA0009D819093D9068093D806198218821B8243
:102AB0001A82E2CFFB0101900020E9F73197AF01C4
:102AC000461B570BDC01ED91FC910280F381E02D58
:102AD00009948F929F92AF92BF92EF92FF920F93C1
:102AE0001F93CF93DF93CDB7DEB7A1970FB6F894BE
:102AF000DEBF0FBECDBF7C01FA01CB0119A222308F
:102B000008F42AE08E010F5D1F4F822E912CB12C0C
:102B1000A12CBF01A50194010E94A832F901CA01AC
:102B20006A300CF5605DD8016E938D01232B242B48
:102B3000252B79F790E080E0109721F0BD01C701C7
:102B40000E945A15A1960FB6F894DEBF0FBECDBFF6
:102B5000DF91CF911F910F91FF90EF90BF90AF90B9
:102B60009F908F900895695CDECFCF92DF92EF92B5
:102B7000FF920F931F93CF93DF936B01770FEE08B4
:102B8000FF084A30510511F52AE0F7FE20C0EC019C
:102B9000E881F9810190F081E02D6DE209958C01C9
:102BA00044275527BA014C195D096E097F092AE0AF
:102BB000CE010E946915800F911FDF91CF911F9167
:102BC0000F91FF90EF90DF90CF900895242FB701E1
:102BD000A601DF91CF911F910F91FF90EF90DF90B1
:102BE000CF900C94691562EC71E00C945A150C941A
:102BF0005A1581E08093650161E080E10E949101B6
:102C000060E080E10E9463018AED96E00E94F31586
:102C100065EC71E08AED96E00E94F7158AED96E08A
:102C20000C94F315109278031092770381E080934F
:102C300070030E94871162E080E10E9491018AED99
:102C400096E00E94F3156AEC71E08AED96E00E942E
:102C5000F7158AED96E00C94F3150F931F93CF931D
:102C6000DF93EC0188819981009759F02A813B819B
:102C70002617370730F081E0DF91CF911F910F9138
:102C800008958B016F5F7F4F0E940934009759F0C0
:102C9000998388831B830A832C813D81232B59F7D9
:102CA000FC011082E8CF80E0E7CFEF92FF920F9314
:102CB0001F93CF93DF93EC017B01198218821B8253
:102CC0001A821D821C82FB0101900020E9F73197D6
:102CD0008F01061B170BB8010E942D16811109C028
:102CE000CE01DF91CF911F910F91FF90EF900C9447
:102CF000DE141D830C83B70188819981DF91CF9108
:102D00001F910F91FF90EF900C94F034AF92BF920F
:102D1000CF92DF92EF92FF920F931F93CF93DF93A7
:102D200000D0CDB7DEB78C015B01C42E64EC71E03E
:102D30000E945516C5010E943B020C2C000CDD08B8
:102D400097FD24C0C816D90609F189831A82F801B3
:102D5000E480F580FFEFEF1AFF0AB701C8010E9477
:102D60002D16882379F0F8012081318184819581A5
:102D7000BE016F5F7F4F820F931F0E94F034F801F6
:102D8000F582E482C5010E943B02DACFC8010F90B0
:102D90000F90DF91CF911F910F91FF90EF90DF90F7
:102DA000CF90BF90AF9008959F92AF92BF92CF9275
:102DB000DF92EF92FF920F931F93CF93DF93CDB7E4
:102DC000DEB72B970FB6F894DEBF0FBECDBF7C01E8
:102DD000FC018581811115C0FE013196CE010C9652
:102DE0006F0130E231938E179F07E1F7DA0130E08F
:102DF00087E09D91B92E992329F19E3239F48A30CA
:102E000011F480E0D3C038E08AE0F3CFE5E8F0E0E9
:102E10004491442321F031969413FACFF2CF8317D3
:102E200080F34FED490F4E3560F74FE9490F4A31B6
:102E300018F440EEB42EB90EF601E30FF11DB08286
:102E40003F5FD7CF89818032E1F2A22E8B01FB0157
:102E5000838D948DF701948F838FFB0116821782E7
:102E6000108611861286138614861586F8018285CF
:102E70009385A485B58543895489658976898417A6
:102E80009507A607B70708F04CC025E0B695A795AB
:102E9000979587952A95D1F7F82FFF709F2EF80107
:102EA0008581823008F4ADCFC8010E94450F97FD9F
:102EB000A8CFF80182859385A485B5854F96A11D7D
:102EC000B11D82879387A487B587F0E29F9EB001EA
:102ED00011246F527C4F6115710509F492CFFB01EB
:102EE0008081882341F0853E09F04EC0BB2029F047
:102EF000BB24B394BBCFB1100EC0F701928A80916E
:102F00000A0190910B01A0910C01B0910D018687EF
:102F10009787A08BB18BFB0180818111E9CFBB2406
:102F2000B3948A2D8271823109F06BCFBB2009F4F2
:102F30004FC0C7010E94EF05009709F462CF20E25D
:102F4000FC0111922A95E9F72BE0F601DC010190D2
:102F50000D922A95E1F721E238E2FC01318B208BBA
:102F600040E058E057874687338B228B318F208F84
:102F7000578B468B81E00E947A05882309F441CF64
:102F80004A2DF70162890FC04BE050E0C6010E9454
:102F9000C634892B09F06ACF8A2D80734A2D692D9A
:102FA000803309F42ECFC7010E9453142B960FB61D
:102FB000F894DEBF0FBECDBFDF91CF911F910F916F
:102FC000FF90EF90DF90CF90BF90AF909F900895CB
:102FD000F8018581823009F414CFC8010E94600C89
:102FE000882309F40ECFF701128A81ED93E0A7CF71
:102FF0005F926F927F928F929F92AF92BF92CF9289
:10300000DF92EF92FF920F931F93CF93DF93CDB791
:10301000DEB7C754D1090FB6F894DEBF0FBECDBFDF
:103020005C013B0119A218A286E991E09F8F8E8F67
:103030001BA21C821B829A8389831E8210E000E0FF
:103040006E018EE1C80ED11C8AE9E82E86E0F82ECA
:10305000F501E00FF11F80818F3211F40F5F1F4FD8
:10306000D501A00FB11FFE01FB9690E080E04F015B
:103070002D912F3249F0222339F00F5F1F4F019617
:1030800021938C309105A1F7880D991DFC011082C8
:10309000F501E00FF11F80818F3211F40F5F1F4F98
:1030A000F501E00FF11F508041E0511040E030E0A9
:1030B00020E0B401C701F3010995811121C0FAE9AB
:1030C000EF16F6E0FF06C1F480E0C95BDF4F0FB6F4
:1030D000F894DEBF0FBECDBFDF91CF911F910F914E
:1030E000FF90EF90DF90CF90BF90AF909F908F9028
:1030F0007F906F905F900895C7010E943F0BE4CFCF
:10310000552091F021E0A401B701C6010E94D41618
:10311000982E8AE9E81686E0F80681F0C7010E9439
:103120003F0B911010C0D0CF9AE9E91696E0F9064E
:1031300019F0C7010E943F0B81E0C7CF992021F20F
:10314000FE0131967F019E2D8F2D7601C92ED82E3E
:103150007FCF1F93CF93DF93CDB7DEB76D970FB6B9
:10316000F894DEBF0FBECDBFAB011C821B8226E9E7
:1031700031E03A8329831E8221E0BC01CE01019611
:103180000E94D41611E081110CC010E0812F6D96C1
:103190000FB6F894DEBF0FBECDBFDF91CF911F9168
:1031A0000895CE0101960E943F0BF0CFCF93DF939D
:1031B000CDB7DEB76D970FB6F894DEBF0FBECDBFAB
:1031C000442399F1AB01BC011C821B8286E991E08A
:1031D0009A8389831E8222E0CE0101960E94D41632
:1031E00081110EC090E081E0911101C080E06D96E8
:1031F0000FB6F894DEBF0FBECDBFDF91CF9108951B
:10320000CE0101960E94C013882361F3CE0101967E
:103210000E94EF05009731F325EEFC0120831E820A
:1032200081E00E947A05982FDECF81E0E0CF8F9277
:103230009F92AF92BF92EF92FF920F931F93CF9303
:10324000DF93CDB7DEB7ED970FB6F894DEBF0FBEB4
:10325000CDBF8C017B011CA21BA286E991E09AA341
:1032600089A31EA2C8010E94A9188111A0C023E34E
:10327000A701B801CE0181960E94D416811116C013
:1032800090E081E0911101C080E0ED960FB6F894D6
:10329000DEBF0FBECDBFDF91CF911F910F91FF9089
:1032A000EF90BF90AF909F908F90089581E08DA395
:1032B00084E08EA3CE0181960E94600C882301F3E6
:1032C00061E0CE0181960E94A70A8823C9F2CE014F
:1032D00081960E94EF05FC01892B91F280E18387A2
:1032E00080E2DE01119601900D928A95E1F7FE01D0
:1032F0003296CE010C9620E22193E817F907E1F708
:103300008EE2F82EF982ECADFDAD68AD79AD8AADF7
:103310009BAD6250710981099109258504C0660F32
:10332000771F881F991F2A95D2F786849784A088D3
:10333000B188680D791D8A1D9B1D41E00E94A5057D
:10334000882309F49DCF80E2FE013196A1EDB3E020
:1033500001900D928A95E1F7FA82F80185818250F9
:10336000823000F14789508D618D728DCA019B01B9
:103370003E8B2D8B9C8F8B8F80E2FE013196A1EFCF
:10338000B3E001900D928A95E1F780E490E0A0E02F
:10339000B0E08BA79CA7ADA7BEA781E00E947A05ED
:1033A000982F6FCF90E080E030E020E0E1CF81E027
:1033B0006CCFEF92FF920F931F93CF93DF93EC01AB
:1033C0007B018A011B821A8288EE93E0A0E0B0E0C4
:1033D0008C839D83AE83BF8382EA91E09983888347
:1033E0008DE190E00E94E4329A8F898F009779F006
:1033F0002DE1F701DC0101900D922A95E1F74CE0F7
:1034000050E0B801CE010C960E940535188EDF9170
:10341000CF911F910F91FF90EF9008953F924F929F
:103420005F926F927F928F929F92AF92BF92CF9254
:10343000DF92EF92FF920F931F93CF93DF93CDB75D
:10344000DEB7C656D1090FB6F894DEBF0FBECDBFAA
:103450005C01362E19A218A286E991E09F8F8E8F0B
:103460001BA21C821B829A8389831E823E018EE1ED
:10347000680E711CC3010E94BF088E010F5F1F4FB1
:10348000430181EBC82E83E0D82E28016FE270E063
:10349000C6010E94DC34009709F459C0F60120816E
:1034A0002F3271F4FFEFCF1ADF0A902F812F8401A2
:1034B000892E982E982D892D4801092F182FE6CF97
:1034C0008C198D3008F08CE0E82EF12CA701B601A4
:1034D000CE01885A9F4F0E940535E8E5F0E0EC0FD9
:1034E000FD1FEE0DFF1D1082C8010E943F0B21E061
:1034F000AE01485A5F4FB401C8010E94D416811131
:1035000020C01EAE1DAE86E991E09CAF8BAF219628
:103510001FAE2197A7960EAD1FADA7970F541C4F56
:10352000F8018081811120C0BE01655C7F4FC2011E
:103530000E94890E40ED51E0B201C5010E94D919E7
:1035400031C0CE0CDF1CC4010E943F0BB3CFC601BB
:10355000815B9340A7969FAF8EAFA797B401CE0132
:10356000CB960E94890ED6CF19A218A286E991E0C7
:103570009F8F8E8F1BA221968FAD219781112CC01A
:10358000F5011382128288EE93E0A0E0B0E084831C
:103590009583A683B78382EA91E091838083128E1C
:1035A000118E1486C501CA59DF4F0FB6F894DEBFDD
:1035B0000FBECDBFDF91CF911F910F91FF90EF9084
:1035C000DF90CF90BF90AF909F908F907F906F9043
:1035D0005F904F903F900895232DA801BE01655C38
:1035E0007F4FC3010E94D416882351F2CE01CB969F
:1035F0000E943F0B832D8670863039F449A95AA961
:103600006BA97CA9C3010E941309B301C2010E94E6
:10361000890EA80191CF1F93CF93DF93EC01162F52
:103620000E942D32181739F0612FCE01DF91CF9112
:103630001F910C943532DF91CF911F910895CF9354
:10364000DF9361E080E10E94910160E080E10E94EF
:103650006301D0E0C0E06FEFCE010E940B1B21960A
:10366000CF3F81E0D807B9F760916E0380E092E028
:103670000E940B1BCCE0D0E062E080E10E9491014F
:1036800060E170E080E090E00E94FA0161E080E19A
:103690000E94910160E080E10E94630160E170E0BE
:1036A00080E090E00E94FA01219731F762E080E12A
:1036B0000E94910181E090E09093A4038093A30382
:1036C00010920A0310920903C2E0D0E08091A30394
:1036D0009091A403019709F082C08EE00E943A0104
:1036E00090930A03809309038091090390910A0340
:1036F000892B99F38EE00E943A0190930A038093FC
:1037000009038091090390910A03019759F580916B
:103710009803882379F31092980361E083E10E9473
:10372000910160E083E10E94630160919503862F1F
:1037300090E090939403809393038FEF91E00E9425
:103740000B1B60919603862F90E0909392038093D9
:1037500091038EEF91E00E940B1B62E083E10E94D7
:103760009101C8CF8EE00E943A0190930A038093A2
:1037700009038091090390910A03892B99F361E071
:1037800080E10E94910160E080E10E94630160E2BB
:1037900070E080E090E00E94FA0162E080E10E9427
:1037A0009101D093A403C093A30390CF8EE00E9415
:1037B0003A0190930A038093090380910903909141
:1037C0000A03892B99F361E080E10E94910160E096
:1037D00080E10E9463011092A4031092A3038091E0
:1037E000A3039091A4030297C1F58EE00E943A01D1
:1037F00090930A03809309038091090390910A032F
:103800000197A1F680919803882379F31092980389
:1038100061E083E10E94910160E083E10E94630125
:1038200060919503862F90E0909394038093930387
:103830008DEF91E00E940B1B60919603862F90E024
:1038400090939203809391038CEF91E00E940B1B65
:1038500062E083E10E949101C8CF1092A40310920C
:10386000A303DF91CF9108950C942D3280919B0397
:10387000882309F466C080915D0390915E03892BD3
:10388000B1F480919A038F93809199038F9382ED85
:1038900091E09F938F9387EA92E09F938F930E948A
:1038A00014350F900F900F900F900F900F90809104
:1038B0005D0390915E030197B1F480919A038F9319
:1038C000809199038F9380EE91E09F938F9387EA85
:1038D00092E09F938F930E9414350F900F900F905A
:1038E0000F900F900F90809178038F9380917703C2
:1038F0008F938DEE91E09F938F938DE793E09F934D
:103900008F930E94143540E250E06DE773E081EB45
:1039100093E00E947A2F40E250E060ED71E081EB8D
:1039200093E00E945B2F0F900F900F900F900F90DD
:103930000F9040E250E067EA72E081EB93E00C9474
:103940005B2F2091990330919A032F5F3F4F809115
:10395000770390917803A901480F591F5093900362
:1039600040938F0386509F4F820F931F90938E0337
:1039700080938D03493F510534F028EF30E03093B8
:10398000900320938F03833F914034F082EF91E0C6
:1039900090938E0380938D0308950F931F93CF937D
:1039A000DF930E94361C80919803882309F4BFC1DD
:1039B000C091A303D091A403209709F0B8C110923D
:1039C000980361E083E10E94910160E083E10E943D
:1039D000630162E083E10E94910180915F0388238B
:1039E00031F08FEF90E090935C0380935B038091C4
:1039F0006501882309F46CC1109195038FEF91E064
:103A00000E94341C181308C0109196038EEF91E0A9
:103A10000E94341C181741F080919503803489F579
:103A2000809196038B3069F580919703813049F13D
:103A30000E942D026093A3027093A4028093A502BA
:103A40009093A6028091A20281111BC021E02093D5
:103A5000A2022093700380917703909178030196DE
:103A600090937803809377032093710320916E03E2
:103A700030916F032817390724F4109278031092BD
:103A80007703109195038DEF91E00E94341C181379
:103A900008C0109196038CEF91E00E94341C181717
:103AA00041F080919503803481F5809196038E30AA
:103AB00061F580919703813041F10E942D0260935E
:103AC000A3027093A4028093A5029093A602809112
:103AD000A20281111AC021E02093A2022093700358
:103AE0008091770390917803019790937803809366
:103AF00077032093710397FF08C080916E03909124
:103B00006F039093780380937703809195038034BB
:103B100039F5809196038A3119F5809197038130A8
:103B2000F9F00E942D026093A3027093A402809387
:103B3000A5029093A6028091A202811111C081E09A
:103B40008093A2028AED96E00E94F31568EF71E07F
:103B50008AED96E00E94F7158AED96E00E94F31533
:103B600080919503803439F580919603853419F559
:103B7000809197038130F9F00E942D026093A30297
:103B80007093A4028093A5029093A6028091A20252
:103B9000811111C081E08093A2028AED96E00E941B
:103BA000F3156AEF71E08AED96E00E94F7158AED51
:103BB00096E00E94F31580919503803439F5809149
:103BC0009603823419F5809197038130F9F00E94B1
:103BD0002D026093A3027093A4028093A502909398
:103BE000A6028091A202811111C081E08093A202FD
:103BF0008AED96E00E94F3156CEF71E08AED96E095
:103C00000E94F7158AED96E00E94F31580919503C6
:103C1000803401F5809196038334E1F48091970319
:103C20008130C1F00E942D026093A3027093A40220
:103C30008093A5029093A6028091A20281110AC0EE
:103C400081E08093A20290917603992309F4FFC04A
:103C50001092760311E0809195038034A9F52091AC
:103C60009603FE01EE0FFF1FE459FE4F8081918104
:103C70002817190649F50E942D026093A30270933C
:103C8000A4028093A5029093A6020E942D02609345
:103C90009E0270939F028093A0029093A102809154
:103CA000A202811111C01093A202D0939D02C09371
:103CB0009C0280919A0290919B02019690939B02A4
:103CC00080939A02109399022196CA30D10519F671
:103CD00080919503803459F5809196038D3439F5A0
:103CE00080919703813019F10E942D026093A30205
:103CF0007093A4028093A5029093A6028091A202E1
:103D0000811115C081E08093A202909165019923F1
:103D100009F4A0C01092650180916501811102C073
:103D20000E9412168091650181110E94F9150E946E
:103D30002D020091A3021091A4022091A5023091BE
:103D4000A602601B710B820B930B6E377105810508
:103D5000910510F01092A20280919A0290919B021C
:103D60008130910509F079C080919902882351F042
:103D700080919C0290919D0290939802809397026B
:103D8000109299020E942D0200919E0210919F02B2
:103D90002091A0023091A102601B710B820B930B4A
:103DA000613273408105910508F44CC080919A02FC
:103DB00090919B02181619060CF044C010929B02B9
:103DC00010929A02209193023091940244E6429F0D
:103DD000C001439F900D112440919502509196028D
:103DE0006AE0649F9001659F300D1124820F931F3C
:103DF0002091970230919802820F931F90939D0219
:103E000080939C0210929802109297021092960250
:103E100010929502109294021092930221E0209346
:103E2000700390937803809377032093710320911C
:103E30006E0330916F032817390724F43093780309
:103E400020937703DF91CF911F910F910895809375
:103E5000760300CF809365015FCF8230910571F4C6
:103E600080919902882309F48DCF809197029091D7
:103E7000980290939602809395027ACF83309105B1
:103E800071F480919902882309F47CCF8091950286
:103E9000909196029093940280939302E6CF0497B8
:103EA0000CF470CF80919902882309F46BCF809134
:103EB0009C0290919D029093980280939702109299
:103EC000960210929502109294021092930281E051
:103ED00090E090939B0280939A0252CF2F923F9250
:103EE0004F925F926F927F928F929F92AF92BF920A
:103EF000CF92DF92EF92FF920F931F93CF93DF93B6
:103F0000CDB7DEB72E970FB6F894DEBF0FBECDBF8C
:103F100080915D0390915E03892B09F092C065E763
:103F200070E081ED95E00E9469028091910390918B
:103F30009203409734F463E770E081ED95E00E94CE
:103F40006902609191037091920340E150E081ED2C
:103F500095E00E94B515809193039091940340974A
:103F600034F461E770E081ED95E00E9469026091B0
:103F700093037091940340E150E081ED95E00E943D
:103F8000B51581ED95E00E94F3150E942D02609316
:103F9000E5027093E6028093E7029093E802309086
:103FA000910390919203032D192F209193032B835A
:103FB000809194032D878E873B9A34E03983432D7B
:103FC00040954F833886998720952A875D855B8742
:103FD0008C879EE6892E912CA12CB12C0E942D025B
:103FE0002B013C0180E093E20E94761389818430AA
:103FF00009F44AC080EC98E00E94CD0180E392E091
:104000000E9476134981415049834423C1F00E94A4
:104010002D02DC01CB0184199509A609B7098E365A
:104020009105A105B105D0F6A5019401281B390B16
:104030004A0B5B0BCA01B9010E94FA01CFCF0E9463
:10404000CD1C0E942D026093790370937A038093B4
:104050007B0390937C032E960FB6F894DEBF0FBEC1
:10406000CDBFDF91CF911F910F91FF90EF90DF9027
:10407000CF90BF90AF909F908F907F906F905F9008
:104080004F903F902F90089580E891E10E94CD01DC
:104090002D853E852F3F310561F158F12B843C85FC
:1040A0003C830F3F110549F140F158855D838985B7
:1040B0008E8320E22A8380E392E00E947613C22C52
:1040C000DC80ED80FE8080E996E020FC02C080E389
:1040D00092E00E94CD01F694E794D794C7942C2CDB
:1040E000DC82ED82FE823A8131503A833111E3CF96
:1040F00085CF2B804A854C83D4CF3D829F819E8380
:10410000D8CF0F931F93CF93DF9380919E0380931B
:104110009D0310929E038EE00E943A0190930A0341
:1041200080930903892B19F481E080939E03809189
:10413000650181110AC00E942D026093790370937A
:104140007A0380937B0390937C03C0919E03C111FB
:104150000AC00E942D026093790370937A038093C2
:104160007B0390937C038091A3039091A403892BFC
:1041700009F060C0CC2309F45FC00E942D020091B9
:10418000790310917A0320917B0330917C03601BAB
:10419000710B820B930B693B7B408105910530F0DD
:1041A00081E090E09093A4038093A3030E942D02EA
:1041B0000091790310917A0320917B0330917C0365
:1041C000601B710B820B930B613177428105910566
:1041D00008F4D7C080919B0381115FC010929A03AD
:1041E00010929903D0E0C0E08091110190911201EA
:1041F0008C179D070CF48EC00E94361C61E080E194
:104200000E94910160E080E10E9463016FEF809164
:104210008F03909190030E940B1B6FEF80918D0391
:1042200090918E030E940B1B0E94CD1C0E944B1389
:104230002196DACFC111BACF80919D03882309F46A
:10424000A5C08091A3039091A403892B09F09EC07F
:1042500080919C0381119AC080916501811102C0F7
:104260000E94F91521E020937003809177039091CB
:1042700078030196909378038093770320937103DA
:1042800020916E0330916F03281739070CF07EC020
:10429000109278031092770379C00E944C0B81E052
:1042A00090E090939A03809399030E94361C80912A
:1042B000990390919A03892B49F166ED78E181EB9E
:1042C00093E00E94F81768E670E081ED95E00E94A7
:1042D000690281ED95E00E94F31561EB73E081EDD9
:1042E00095E00E94F7158091990390919A030196A9
:1042F00090939A03809399030E94361C69EA78E1AF
:1043000081EB93E00E94F8178111D1CF8AE996E002
:104310000E943F0BCCE0D0E062E080E10E9491017E
:1043200060E170E080E090E00E94FA0161E080E1ED
:104330000E94910160E080E10E94630160E170E011
:1043400080E090E00E94FA01219731F71092A403D7
:104350001092A30380917703909178030197909333
:1043600078038093770310929A03109299030E9426
:104370002D026093790370937A0380937B0390936B
:104380007C0380919E03882309F456CFDF91CF915F
:104390001F910F91089580915F03882341F08FEF63
:1043A00090E090935C0380935B030C9481200895CC
:1043B0001F920F920FB60F9211242F933F938F935A
:1043C0009F93AF93BF938091A6039091A703A09171
:1043D000A803B091A9033091A50323E0230F2D3743
:1043E00068F126E8230F0296A11DB11D2093A503B5
:1043F0008093A6039093A703A093A803B093A90367
:104400008091AA039091AB03A091AC03B091AD034E
:104410000196A11DB11D8093AA039093AB03A093B5
:10442000AC03B093AD03BF91AF919F918F913F913A
:104430002F910F900FBE0F901F9018950196A11D00
:10444000B11DD4CF1F920F920FB60F9211242F934C
:104450003F934F935F936F937F938F939F93AF930C
:10446000BF93EF93FF9381ED95E00E940B03FF91C3
:10447000EF91BF91AF919F918F917F916F915F91DC
:104480004F913F912F910F900FBE0F901F90189555
:104490001F920F920FB60F9211242F938F939F9319
:1044A000EF93FF93E091E105F091E2058081E091C7
:1044B000E705F091E80582FD1BC090818091EA0537
:1044C0008F5F8F732091EB05821741F0E091EA0531
:1044D000F0E0EF52FA4F958F8093EA05FF91EF914C
:1044E0009F918F912F910F900FBE0F901F90189555
:1044F0008081F4CF1F920F920FB60F9211242F9349
:104500003F934F935F936F937F938F939F93AF935B
:10451000BF93CF93EF93FF9386B1C091DF02909149
:10452000E202C923982F9095C9238093DF02C0FF30
:1045300005C0E0910E01F0910F010995C1FF05C082
:10454000E0910001F09101010995C2FF05C0E091E1
:104550000201F09103010995C3FF05C0E091040138
:10456000F09105010995C4FF05C0E0910601F091A5
:1045700007010995C5FF05C0E0910801F091090107
:104580000995FF91EF91CF91BF91AF919F918F913D
:104590007F916F915F914F913F912F910F900FBE3F
:1045A0000F901F9018951F920F920FB60F92112423
:1045B0000F931F932F933F934F935F936F937F932B
:1045C0008F939F93AF93BF93CF93EF93FF93C3B119
:1045D0000E94D5018B019C018091840290918502FB
:1045E000A0918602B0918702B901A801481B590B1E
:1045F0006A0B7B0BCA0100938402109385022093FF
:1046000086023093870220918802C1FD88C0413024
:1046100066E4560710F4211119C01092920281E04D
:1046200080938802FF91EF91CF91BF91AF919F91BD
:104630008F917F916F915F914F913F912F911F913A
:104640000F910F900FBE0F901F901895223069F5B3
:104650009C0120523D40213C3840C0F41092890218
:1046600010928E0210928F0210929002109291027C
:1046700081E090E0A0E0B0E080938A0290938B020A
:10468000A0938C02B0938D0283E0CACF80599640EC
:104690008136944008F07FC080918902803208F40E
:1046A0007AC081E080939202EFCF243009F073C08A
:1046B00088519140813C984008F06DC080918A02F9
:1046C00090918B02A0918C02B0918D0240365440A3
:1046D000A0F040918E0250918F02609190027091F3
:1046E0009102482B592B6A2B7B2B40938E025093BF
:1046F0008F026093900270939102880F991FAA1FF6
:10470000BB1F80938A0290938B02A0938C02B0937C
:104710008D02809189028F5F80938902B5CF21300D
:1047200039F480549A4181389141A8F582E078CFDC
:10473000233089F5885191408133924060F5809112
:104740008902803220F48091920280FF26C08091FD
:104750008F02809590918E02981719F084E08093D3
:10476000920280919102809590919002981719F091
:1047700084E080939202789481E080939803809102
:1047800092028093970380918E028093950380918B
:1047900090028093960380E043CF84E041CFCF9294
:1047A000DF92EF92FF92CF93DF93E1EDF5E013827A
:1047B000128288EEC82E83E0D82EE12CF12CC48220
:1047C000D582E682F78284E891E09183808385EC4C
:1047D00090E09587848784EC90E09787868780ECCB
:1047E00090E0918B808B81EC90E0938B828B82ECBC
:1047F00090E0958B848B86EC90E0978B868B118E66
:10480000128E138E148EEEE6F6E080E58083118220
:10481000E0E7F6E0158216821186138682E090E0CA
:10482000A0E0B0E084879587A687B78713A215A676
:1048300014A686E991E093A782A717A6CAEDD6E051
:104840001B821A82CC82DD82EE82FF8284EB91E0B1
:10485000998388831B8A1A8AEEEEF6E060816D7F69
:1048600060836695617081E0682786E00E9463013D
:1048700061E086E00E949101EBE4F1E0E491EC87D5
:10488000E4E3F1E0E491F0E0EE0FFF1FEC5DFE4F9A
:10489000859194919E878D8764EC71E084ED96E01C
:1048A0000E945516E9EBF6E013821282C482D5828B
:1048B000E682F78282EA91E091838083128E118EE4
:1048C0001486DF91CF91FF90EF90DF90CF90089505
:1048D000CF93DF93CDB7DEB76D970FB6F894DEBFF9
:1048E0000FBECDBF789484B5836084BD85B58360E9
:1048F00085BD80916E00816080936E0082E0809320
:10490000810080918100816080938100809180008E
:104910008160809380008091B10084608093B100B9
:104920008091B00081608093B00087E880937A0026
:104930001092C10040EF5DE761EF7DE7A2EFBDE7B8
:1049400003EF1DE784EFE82E8DE7F82E95EFC92ED3
:104950009DE7D92E26EFA22E2DE7B22E27EF3DE7B9
:10496000FA0184918335E1F7FB0184918635C1F723
:10497000FD0184918335A1F7F8018491803281F79C
:10498000F7018491823461F7F6018491813441F713
:10499000F5018491823421F7F9018491893501F779
:1049A0000E942D0260939F037093A0038093A10344
:1049B0009093A20362E08EE00E94910161E080E1A9
:1049C0000E94910162E083E10E94910161E082E135
:1049D0000E94910161E082E00E94910161E083E028
:1049E0000E94910161E084E00E94910161E087E012
:1049F0000E94910161E086E00E94910161E085E002
:104A00000E94910160E088E00E94910162E08FE0E5
:104A10000E94910160E084E00E94630160E082E016
:104A20000E94630160E083E00E94630160E082E134
:104A30000E94630161E070E080E090E00E94FA0172
:104A400061E082E10E94630160E083E00E94630113
:104A500060E080E10E94630160E085E00E94630104
:104A600060E087E00E94630160E086E00E946301ED
:104A700061E070E080E090E00E94FA0161E086E091
:104A80000E946301E091E105F091E20582E08083FC
:104A9000E091DD05F091DE051082E091DF05F091F7
:104AA000E0058FEC80831092E905E091E505F09137
:104AB000E60586E08083E091E305F091E4058081DE
:104AC00088698083E091E305F091E40580818F7D22
:104AD0008083219880916800816080936800EEE473
:104AE000F1E0E491E0936B000E944C0B8111C1C096
:104AF0006EEF71E081ED95E00E945A1581ED95E031
:104B00000E94F31510929B038AE996E00E943F0BE6
:104B100064E670E080E090E00E94FA0165E970E0F0
:104B200081ED95E00E9469022AE041E050E060E0FA
:104B300070E081ED95E00E9469156EE281ED95E0EF
:104B40000E942D032AE041E050E060E070E081ED3A
:104B500095E00E9469152AE044E050E060E070E0D2
:104B600081ED95E00E94691564E670E080E090E0D8
:104B70000E94FA016AE181ED95E00E942D0381ED2A
:104B800095E00E94F315DD24D39480916E039091FB
:104B90006F03892B09F076C0009177031091780399
:104BA0007801FFEFEF1AFF0AF0927803E0927703A3
:104BB000D092700361E082E00E94630161E070E0E6
:104BC00080E090E00E94FA0160E082E00E946301D0
:104BD00061E083E00E94630161E070E080E090E0CA
:104BE0000E94FA018FE00E943A0190930A03809399
:104BF0000903019709F041C061E083E10E9491013E
:104C000060E083E10E94630110936F0300936E03E1
:104C1000093F1105ECF761E070E080E090E00E9450
:104C2000FA0129EFE216F1040CF4AFCF62E080E163
:104C30000E94910161E083E10E94910160E083E1C3
:104C40000E94630164EF71E080E090E00E94FA014D
:104C500062E083E10E94910161E080E10E949101A4
:104C600060E080E10E94630164EF71E080E090E029
:104C7000D6CF81E080939B0347CF62E083E10E941F
:104C80009101C9CF61E070E080E090E00E94FA01FC
:104C9000109278031092770381E08093700362E0B2
:104CA00083E10E94910160E086E00E94630160E17F
:104CB00070E080E090E00E94FA0161E086E00E94EE
:104CC000630180E092E00E94341C90E090930A031C
:104CD000809309036091090370910A0380916E0328
:104CE00090916F036817790709F49FC010E000E006
:104CF0008091090390910A03081719070CF071C0FD
:104D000061E080E10E94910160E080E10E94630126
:104D10000E942D026B017C01C0927903D0927A032C
:104D2000E0927B03F0927C030E942D026C197D09B6
:104D30008E099F096C3271408105910578F48EE0EF
:104D40000E943A01892B81F70E941F1B80916E03FC
:104D500090916F0390930A038093090320910903B4
:104D600030910A0380916E0390916F0328173907E1
:104D7000C1F162E080E10E9491010E942D026B016D
:104D80007C01C0927903D0927A03E0927B03F09287
:104D90007C030E942D026C197D098E099F09683CD5
:104DA00071058105910578F48EE00E943A01892B06
:104DB00081F70E941F1B80916E0390916F03909367
:104DC0000A03809309032091090330910A0380911B
:104DD0006E0390916F032817390719F00F5F1F4F6B
:104DE00087CF0E942D026B017C01C0927903D09283
:104DF0007A03E0927B03F0927C030E942D026C19EF
:104E00007D098E099F09683E73408105910508F070
:104E100061CF8EE00E943A01892B79F70E941F1B17
:104E200080916E0390916F0351CF80E092E00E94D9
:104E30000B1B60916E0370916F036F5F7F4F7093D8
:104E40006401609363018AEF90E00E9494326150A4
:104E5000710970931201609311010E942D026B0180
:104E60007C01C0927903D0927A03E0927B03F092A6
:104E70007C038EE00E943A01892B89F462E080E194
:104E80000E9491010E942D026C197D098E099F09D3
:104E9000613177428105910560F30E941F1B61E03B
:104EA00080E10E94910160E080E10E9463010E9424
:104EB0002D026093790370937A0380937B03909320
:104EC0007C030E942D0260936003709361038093C2
:104ED00062039093630381E0809364038DE991E022
:104EE0009093ED068093EC068BEC91E290930F018A
:104EF00080930E018091E20281608093E20286B18C
:104F00008093DF0280916C00816080936C008091BF
:104F10006800826080936800212C312C2101239449
:104F2000CC24C394D12C11E081ED95E00E94EB02DA
:104F3000892B09F42CC24AE061ED75E0CE0101969F
:104F40000E948616CE0101960E941D15CE01019683
:104F50000E94F0148090D4069090D506811491049C
:104F600049F0E090D806F090D9065401E114F1041C
:104F700009F0B3C369E072E0CE0101960E945516B4
:104F8000CE0101960E94F814082FCE0101960E94CE
:104F9000F01401110E94F9156EE072E0CE01019645
:104FA0000E945516CE0101960E94F814082FCE01DA
:104FB00001960E94F01401110E9412168091650161
:104FC000882309F4E4C164E172E0CE0101960E94F5
:104FD0005516CE0101960E94F814082FCE010196B5
:104FE0000E94F0140023C1F01093700380917703A6
:104FF00090917803019690937803809377031093B0
:10500000710320916E0330916F032817390724F440
:10501000109278031092770368E172E0CE01019656
:105020000E945516CE0101960E94F814082FCE0159
:1050300001960E94F0140023B9F010937003809140
:105040007703909178030197909378038093770387
:105050001093710397FF08C080916E0390916F03C6
:1050600090937803809377036EE172E0CE0101960E
:105070000E9455164D815E818091D8069091D90687
:105080008417950780F08091D4069091D5060097FB
:1050900051F069817A816115710529F00E94F73418
:1050A00001E0892B09F000E0CE0101960E94F01486
:1050B000002309F46AC0A090D806B090D906F1E1A7
:1050C0008F2E912C21E1A216B10420F04501A1E11F
:1050D000AA2EB12C64EC71E0CE0101960E94551607
:1050E000E090D806F090D906AE14BF0480F58E1477
:1050F0009F0408F47401E091D406F091D506EE0DFA
:10510000FF1D708010828091D4069091D506A80E64
:10511000B91EA114B10479F0F50101900020E9F75E
:1051200031974F018A189B08B401CE0101960E9465
:105130002D16811110C3CE0101960E94DE148091BC
:10514000D4069091D506E80EF91EF7017082898188
:105150009A81009709F407C30E94342F7093780353
:1051600060937703109370031093710320916E0383
:1051700030916F032617370724F430937803209378
:105180007703CE0101960E94F01465E272E0CE0131
:1051900001960E945516CE0101960E94F814082F20
:1051A000CE0101960E94F014002371F08AED96E082
:1051B0000E94F3156AE272E08AED96E00E94F7150C
:1051C0008AED96E00E94F3156FE272E0CE0101963F
:1051D0000E945516CE0101960E94F814082FCE01A8
:1051E00001960E94F014002371F08AED96E00E946F
:1051F000F31565E372E08AED96E00E94F7158AEDFB
:1052000096E00E94F3156BE372E0CE0101960E94D6
:105210005516CE0101960E94F814082FCE01019672
:105220000E94F014002371F08AED96E00E94F315BD
:1052300060E472E08AED96E00E94F7158AED96E050
:105240000E94F31565E472E0CE0101960E945516A6
:10525000CE0101960E94F814082FCE0101960E94FB
:10526000F014002371F08AED96E00E94F3156BE4D0
:1052700072E08AED96E00E94F7158AED96E00E94B2
:10528000F31561E572E0CE0101960E945516CE013C
:1052900001960E94F814082FCE0101960E94F01486
:1052A000002371F08AED96E00E94F31566E572E046
:1052B0008AED96E00E94F7158AED96E00E94F315BC
:1052C0006BE572E0CE0101960E945516CE01019663
:1052D0000E94F814082FCE0101960E94F0140023BA
:1052E00071F08AED96E00E94F31561E672E08AEDB6
:1052F00096E00E94F7158AED96E00E94F31567E6A6
:1053000072E0CE0101960E945516CE0101960E94D0
:10531000F814082FCE0101960E94F014011110928A
:1053200071036DE672E0CE0101960E945516CE0122
:1053300001960E94F814082FCE0101960E94F014E5
:1053400001111093710362E772E0CE0101960E9491
:105350005516CE0101960E94F814082FCE01019631
:105360000E94F01401111093760367E772E0CE01FA
:1053700001960E945516CE0101960E94F814082F3E
:10538000CE0101960E94F014011110927603109341
:10539000100180916501882309F473C00E942D02D9
:1053A0008090E5029090E602A090E702B090E802BB
:1053B000681979098A099B09613D77408105910542
:1053C00028F48091E402882309F45BC06FEB70E05D
:1053D00081ED95E00E94690260916E0370916F0308
:1053E0004AE050E081ED95E00E94B51581ED95E031
:1053F0000E94F3158091E402882309F4B8C1109249
:10540000E4020E942D026093E5027093E60280930D
:10541000E7029093E80260EB70E081ED95E00E9476
:1054200069028AED96E00E94F3156DE772E08AED5D
:1054300096E00E94F71560917703709178034AE037
:1054400050E08AED96E00E94B51560917703709167
:1054500078034AE050E081ED95E00E94B51581EDBA
:1054600095E00E94F3158AED96E00E94F3150E94E4
:105470002D026093E5027093E6028093E702909319
:10548000E8020E94CD1C80916501882309F4CCC0FC
:1054900080917703909178039093300380932F034A
:1054A000EFE06E2EE3E07E2E5301F5011192119292
:1054B000119211925F01FFE2AF16F3E0BF06A9F768
:1054C00060E086E00E94630161E070E080E090E0CF
:1054D0000E94FA0161E086E00E94630161E085E0DC
:1054E0000E94630160E170E080E090E00E94FA01B8
:1054F00060E085E00E94630110920E0310920D039C
:1055000010920C0310920B037FE0E72E73E0F72E4E
:1055100060E2862E912C88E00E943A0190930A0363
:105520008093090320910B0330910C030197B9F488
:10553000F70180819181A281B381B201A101022E84
:1055400004C0440F551F661F771F0A94D2F7842B9F
:10555000952BA62BB72B80839183A283B3832F5FD8
:105560003F4F30930C0320930B0380910D039091D8
:105570000E03019690930E0380930D0360E087E085
:105580000E9463018AE090E00E94CD0161E087E023
:105590000E946301F1E08F1A910809F0BCCF1092CC
:1055A0000C0310920B0324E0E20EF11CAE14BF04B6
:1055B00009F0AECF89EE92E09D8F8C8F5FE0852E53
:1055C00053E0952E5C01F5014191519161917191EA
:1055D0005F01F40181919191A191B1914F0148171F
:1055E00059076A077B0751F00E942D0260939F03C1
:1055F0007093A0038093A1039093A203F5E0AF16EC
:10560000F3E0BF0601F7F30181919191A191B1916E
:105610003F01EC8DFD8D81939193A193B193FD8F0B
:10562000EC8F6E147F0479F70E94812080916501D0
:10563000882309F41DC38091A3039091A4030197CB
:1056400009F099C162E080E10E94910180919E037E
:105650008111C0C080919D03882309F4BBC00091D3
:105660009C0364E670E080E090E00E94FA01002371
:1056700009F484C080919B038111C8C30E944B131D
:10568000F12CE12C8091990390919A036091630130
:10569000709164010E9494326E157F050CF46EC007
:1056A0006AEF70E080E090E00E94FA0161E080E142
:1056B0000E94910160E080E10E94630162E370E07A
:1056C00080E090E00E94FA0162E080E10E94910196
:1056D000FFEFEF1AFF0AD6CF530135012FEF621A01
:1056E000720AF5018081082E000C990B0E947D3111
:1056F000892B91F7F1E0EF1AF108E80CF91CF7019A
:105700008081082E000C990B0E947D31892B39F085
:10571000EA14FB0420F0F1E0EF1AF108F0CFA70142
:105720004F5F5F4F4A195B095093D9064093D806E3
:105730008A149B0420F4B501C4010E94D334E09183
:10574000D406F091D5068091D8069091D906E80F3D
:10575000F91F10820FCC9E828D82B50189819A81BA
:105760000E94F034ECCC60E070E0CB01F7CC6DE946
:1057700070E081ED95E00E94690267CE80919C0304
:1057800081112DC06AEF70E080E090E00E94FA0184
:1057900061E080E10E94910160E080E10E9463018C
:1057A00064E670E080E090E00E94FA0162E080E14F
:1057B0000E94910110939C0310929A0310929903F6
:1057C00080919B03882359F0D0929A03C092990349
:1057D0000E94361C80919C03882309F48CC00E948F
:1057E000361C80919803882309F481C01092980395
:1057F00061E083E10E94910160E083E10E94630126
:1058000060919503862F90E0909394038093930387
:105810008091960390E090939203809391038091FE
:105820009B0381110EC080918F03909190030E9481
:105830000B1B6091910380918D0390918E030E94C8
:105840000B1B80919B03882309F451C00E944C0BD1
:1058500069EA78E181EB93E00E94F817811106C0B4
:1058600067E179E18DE793E00E94F81767E5CE01E3
:1058700001960E940E1ACE0101960E94DA0060EF96
:1058800070E089EB96E00E9469026091910370914B
:1058900092034AE050E089EB96E00E94B51561E87A
:1058A00072E089EB96E00E94F71567EE70E089EBF5
:1058B00096E00E94690260919303709194034AE01C
:1058C00050E089EB96E00E94B51561E872E089EB43
:1058D00096E00E94F71561ED70E089EB96E00E947A
:1058E00069020E94CB148AE996E00E943F0B62E0B5
:1058F00083E10E94910180919C038823E1F18091D2
:105900009E038823C1F10E942D028090790390901C
:105910007A03A0907B03B0907C03681979098A0907
:105920009B09693B7B408105910528F11092A403F6
:105930001092A30310929C030E942D02609379039E
:1059400070937A0380937B0390937C0361E080E102
:105950000E94910160E080E10E94630180917703E1
:105960009091780301979093780380937703109236
:105970009A03109299030E942D0280909F039090A9
:10598000A003A090A103B090A203681979098A0925
:105990009B09653F71408105910510F00E94051239
:1059A000809176038823A9F10E942D0280907203D2
:1059B00090907303A0907403B090750368197909EF
:1059C0008A099B0969397A438105910510F10E9482
:1059D0002D0260937203709373038093740390930A
:1059E00075038091770390917803019690937803E3
:1059F00080937703109371031093700320916E03CB
:105A000030916F032817390724F4D0927803C0929D
:105A1000770380916D03882379F10E942D02809095
:105A2000690390906A03A0906B03B0906C036819AF
:105A300079098A099B09613D774081059105E0F06C
:105A40000E942D026093690370936A0380936B0335
:105A500090936C0310926D03D0926803C092670319
:105A600010927803109277031092660310926503E8
:105A7000109370030E9405128091700381110E949F
:105A8000871180916403882309F4F2C00E942D02DB
:105A90008090600390906103A0906203B0906303D4
:105AA000681979098A099B09693E73408105910546
:105AB00008F4DEC00E942D026093600370936103BE
:105AC00080936203909363031092640310935F03C7
:105AD00010929A031092990380919B03B12CA12CF0
