:100000000C94AC000C94D4000C94D4000C944C24AC
:100010000C94F3230C94D4000C94D4000C94D400CE
:100020000C94D4000C94D4000C94D4000C94D40000
:100030000C94D4000C94D4000C94D4000C94D400F0
:100040000C9451230C94D4000C94C1230C949B2346
:100050000C94D4000C94D4000C94D4000C94D400D0
:100060000C94D4000C94D40030003000535653202C
:10007000495220434F4D4D414E443D007C3C3E5E35
:100080002B3D3F2F5B5D3B2C2A225C005356535F78
:1000900046575F005356532043555252454E542005
:1000A000494E5055543D00535653204E4557204914
:1000B0004E5055543D0053565320544F54414C20FC
:1000C000494E505554533D0044656C6179286D6923
:1000D0006C6C697365636F6E6473293D30004164B5
:1000E00064726573733D00436F6D6D616E643D00B6
:1000F0000000000023002600290000000009000382
:1001000002000004050800000000000000000000DC
:100110000000000000240027002A00000000002545
:100120000028002B00040404040404040402020256
:100130000202020303030303030202030102040891
:100140001020408001020408102001020408102041
:10015000408040004825CB3011241FBECFEFD8E0AF
:10016000DEBFCDBF26E0AAE5B2E001C01D92A23AF3
:10017000B207E1F712E0A0E0B1E0EEEBFDE602C06D
:1001800005900D92AA35B107D9F710E0CBEAD0E07F
:1001900004C02197FE010E947934CA3AD107C9F7F9
:1001A0000E94E1250C94D2360C940000CF93DF938B
:1001B000FC018281938190936B0680936A0684810F
:1001C0009581A681B78180936C0690936D06A0936C
:1001D0006E06B0936F0680859185A285B385809366
:1001E000700690937106A0937206B0937306DF01B8
:1001F0001C96CF014996C4E7D6E02D912993A81704
:10020000B907D9F7818D928D9093820680938106EC
:1002100088E696E0DF91CF910895843081F028F44C
:100220008230E9F08330F9F00895883071F0893038
:1002300091F08530B9F4809180008F7D03C080916A
:1002400080008F778093800008958091B0008F7731
:100250008093B00008958091B0008F7DF9CF84B570
:100260008F7784BD089584B58F7DFBCFCF93DF93C7
:10027000282F30E0F901E650FF4F8491F901E45C4A
:10028000FE4FD491F901EB5DFE4FC491CC23A1F058
:1002900081110E940D01EC2FF0E0EE0FFF1FE051E5
:1002A000FF4FA591B491EC91ED2381E090E009F42A
:1002B00080E0DF91CF91089580E090E0FACF1F9326
:1002C000CF93DF93282F30E0F901E650FF4F849160
:1002D000F901E45CFE4FD491F901EB5DFE4FC4914E
:1002E000CC23A9F0162F81110E940D01EC2FF0E014
:1002F000EE0FFF1FE55EFE4FA591B4918FB7F89406
:10030000EC91111108C0D095DE23DC938FBFDF91F3
:10031000CF911F910895DE2BF8CFCF93DF9390E01C
:10032000FC01E45CFE4F24918B5D9E4FFC018491A7
:100330008823C9F090E0880F991FFC01EF5EFE4F03
:10034000A591B491FC01E55EFE4FC591D491611178
:100350000DC09FB7F8948C91209582238C9388814F
:10036000282328839FBFDF91CF910895623051F4F5
:100370009FB7F8943C91822F809583238C93E881DA
:100380002E2BEFCF8FB7F894EC912E2B2C938FBFA1
:10039000EACF880F991F880F991F05970197F1F7EA
:1003A00008953FB7F8948091790390917A03A091D2
:1003B0007B03B0917C0326B5A89B05C02F3F19F0A5
:1003C0000196A11DB11D3FBFBA2FA92F982F8827D5
:1003D000BC01CD01620F711D811D911D42E0660FB0
:1003E000771F881F991F4A95D1F708958F929F9282
:1003F000AF92BF92CF92DF92EF92FF926B017C019E
:100400000E94D1014B015C01C114D104E104F1044B
:10041000B9F00E94D101681979098A099B09683EDF
:1004200073408105910580F321E0C21AD108E108EB
:10043000F10888EE880E83E0981EA11CB11CE4CF61
:10044000FF90EF90DF90CF90BF90AF909F908F90F4
:1004500008952FB7F8946091750370917603809199
:100460007703909178032FBF0895089508950F930F
:100470001F93CF93DF93EC010E942902688779874D
:100480008A879B87E881F9810284F385E02DCE017C
:10049000099597FF15C00E942902088519852A85AC
:1004A0003B85601B710B820B930B0C811D812E8190
:1004B0003F81601771078207930720F38FEF9FEF4B
:1004C000DF91CF911F910F910895EF92FF920F93BB
:1004D0001F93CF93DF938C017B01D0E0C0E0F70145
:1004E000EC0FFD1F6491662361F0D801ED91FC9142
:1004F0000190F081E02DC8010995892B11F021961A
:10050000EECFCE01DF91CF911F910F91FF90EF9031
:100510000895AF92BF92CF92DF92EF92FF920F9326
:100520001F93CF93DF936C017B018B01040F151F89
:10053000EB015E01AE18BF08C017D10759F06991F1
:10054000D601ED91FC910190F081E02DC601099555
:10055000892B79F7C501DF91CF911F910F91FF9002
:10056000EF90DF90CF90BF90AF900895FC01538D36
:10057000448D252F30E0842F90E0821B930B54177D
:1005800010F0CF96089501970895FC01918D828D0A
:10059000981761F0A28DAE0FBF2FB11D5D968C91A3
:1005A000928D9F5F9F73928F90E008958FEF9FEFE2
:1005B0000895FC01918D828D981731F0828DE80F9E
:1005C000F11D858D90E008958FEF9FEF0895FC0158
:1005D000918D228D892F90E0805C9F4F821B910925
:1005E0008F739927089580E895E00E94E70221E043
:1005F000892B09F420E0822F089580E090E0892B78
:1006000029F00E94F30281110C9400000895FC016E
:10061000A48DA80FB92FB11DA35ABF4F2C91848D63
:1006200090E001968F739927848FA689B7892C93C0
:10063000A089B1898C91837080648C93938D848D13
:10064000981306C00288F389E02D80818F7D808316
:100650000895EF92FF920F931F93CF93DF93EC01D6
:1006600081E0888F9B8D8C8D98131AC0E889F98959
:10067000808185FF15C09FB7F894EE89FF8960835C
:10068000E889F98980818370806480839FBF81E0DD
:1006900090E0DF91CF911F910F91FF90EF9008951F
:1006A000F62E0B8D10E00F5F1F4F0F731127E02EFA
:1006B0008C8D8E110CC00FB607FCFACFE889F98932
:1006C000808185FFF5CFCE010E940703F1CFEB8D2E
:1006D000EC0FFD2FF11DE35AFF4FF0829FB7F89406
:1006E0000B8FEA89FB8980818062CFCFCF93DF9324
:1006F000EC01888D8823B9F0AA89BB89E889F9893A
:100700008C9185FD03C0808186FD0DC00FB607FC6E
:10071000F7CF8C9185FFF2CF808185FFEDCFCE01A1
:100720000E940703E9CFDF91CF9108958FB7F89426
:100730008091AE028FBF089561E0FC0184810E9428
:100740005F018091AD0281111092AD0208958EBDBE
:1007500000000DB407FEFDCF8EB508958FEF0C9409
:10076000A7030F931F93CF93DF93EC010E942902FD
:100770008B010E94AE038F3F69F00E942902601B2B
:10078000710B6C177D07A8F380E0DF91CF911F916B
:100790000F91089581E0F9CF8CBD9DBD0895CF9351
:1007A000DF93EC018091AD02811109C081E080935B
:1007B000AD0280911D0690911E060E94CC0360E060
:1007C0008C81DF91CF910C945F018F929F92AF92B9
:1007D000BF92FF920F931F93CF93DF93EC01F62EFE
:1007E00049015A018E81882389F08F8198859C0167
:1007F0002F5F3F4F38872F838230924018F40E943A
:10080000AE03F3CFCE010E949C031E82CE010E9454
:10081000CF038CE291E00E94B1038F2D80640E948F
:10082000A70308E110E0D501C401002E04C0B6956D
:10083000A795979587950A94D2F70E94A703085029
:100840001109083F8FEF180771F785E9FF2021F0A4
:1008500028E087E8F2128FEF0E94A70310E00E94C1
:10086000AE038A8787FF04C01F3F11F01F5FF7CFD9
:10087000DF91CF911F910F91FF90BF90AF909F900C
:100880008F900895AF92BF92CF92DF92EF92FF9236
:100890000F931F93CF93DF93EC016901C801820F7F
:1008A000931F8130924050F58E81882379F08881A2
:1008B0009981AA81BB8184179507A607B70731F4F0
:1008C0008F819885C816D90608F042C0488359839D
:1008D0006A837B838B85833039F089E0440F551F11
:1008E000661F771F8A95D1F79A01AB0161E1CE01AE
:1008F0000E94E503882389F083E08D83CE010E9466
:100900009C0380E0DF91CF911F910F91FF90EF90BA
:10091000DF90CF90BF90AF9008950E9429025B01B5
:100920000E94AE038A878F3F69F40E9429026A19E8
:100930007B096D327140A0F38FE08D83CE010E9460
:100940009C03DCCF8E3F89F418861F8281E08E8362
:100950008F8198858C159D0550F40E94AE038F8180
:100960009885019698878F83F3CF8DE0E6CF670156
:10097000E00EF11E0E94AE03F60181936F01EE15A9
:10098000FF05C1F78F819885080F191F18870F83FE
:100990008985882319F001151240A0F08E818823E3
:1009A00089F08F8198859C012F5F3F4F38872F8377
:1009B0008230924018F40E94AE03F3CFCE010E9421
:1009C0009C031E8281E09ECFCF92DF92EF92FF9236
:1009D0000F93CF93DF93EC01690182E1411551053B
:1009E0006105710599F08B85833039F089E0440FFA
:1009F000551F661F771F8A95D1F79A01AB0168E1F1
:100A0000CE010E94E503882319F084E08D832DC078
:100A10008EEF0E94A70376018EEFD81AF70181911D
:100A20007F010E94A703EC14FD04C1F78FEF0E9421
:100A3000A7038FEF0E94A7030E94AE038A878F71DE
:100A4000853071F4011116C0CE010E949C0381E033
:100A5000DF91CF910F91FF90EF90DF90CF900895AD
:100A600081E18D83CE010E949C03CE010E949C03F4
:100A700080E0EECF88E592E00E94B103811102C0D0
:100A800085E1C4CF20E030E0A9016DE0CE010E94F5
:100A9000E503882311F084E1B9CF0E94AE038111F0
:100AA000FACFD2CF0F934091B0025091B102609132
:100AB000B2027091B302411551056105710599F0BB
:100AC000082F20E833E080917E0390917F030E94FD
:100AD000E404882349F01092B0021092B1021092FF
:100AE000B2021092B30281E00F9108950F93CF9359
:100AF000C82F8091AF02811105C0C1E08C2FCF912A
:100B00000F91089540910A0150910B0160910C01E1
:100B100070910D010C2F20E833E080917E039091BD
:100B20007F030E94E404811102C0C0E0E7CFCC2320
:100B300021F381E00E9452058823B9F31092AF029D
:100B4000DDCF8F929F92AF92BF92EF92FF920F9361
:100B50001F93CF934B015C01C42F80910A019091A8
:100B60000B01A0910C01B0910D0188159905AA0502
:100B7000BB0551F181E00E94760581110BC080E038
:100B8000CF911F910F91FF90EF90BF90AF909F90EA
:100B90008F90089580E8E82E83E0F82E00E012E0C0
:100BA00030E020E0B501A40180917E0390917F03A5
:100BB0000E944204882319F380920A0190920B014B
:100BC000A0920C01B0920D014091AF024C2B4093CA
:100BD000AF0281E0D5CFCF93DF93EC016E857F85A7
:100BE0008889998941E00E94A105882351F08A896A
:100BF00020E2829FC001112480589C4FDF91CF9149
:100C0000089590E080E0FACF8F929F92AF92BF92CA
:100C1000CF92DF92EF92FF92CF932FE136E03093A5
:100C20007F0320937E03882309F46DC040E060E0D9
:100C300070E0CB010E94A10581110BC080E0CF9133
:100C4000FF90EF90DF90CF90BF90AF909F908F90EC
:100C5000089580913E058F7789F780914A0590919C
:100C60004B05A0914C05B0914D0584369105A10529
:100C7000B10520F3C0904605D0904705E0904805A7
:100C8000F0904905C114D104E104F104B9F240E047
:100C9000C701B6010E94A105882381F280918B03D0
:100CA00090918C038115924049F6A0919003AA235C
:100CB00029F260918E0370918F036115710509F41B
:100CC000BDCF20918D03222309F4B8CFA0933D0618
:100CD00020932F0690E080E030E0E1E0F0E0C82FC4
:100CE000AF01082E02C0440F551F0A94E2F72417E3
:100CF000350769F041E0480F01968930910579F791
:100D0000409338069BCFC12CD12C7601C0CF809365
:100D10003806209196033091970350E040E021156A
:100D2000310541F42091A4033091A5034091A6031D
:100D30005091A7032093300630933106409332063A
:100D40005093330646015701860E971EA11CB11C15
:100D500080923E0690923F06A0924006B0924106D5
:100D6000E0919103F0919203F0934406E0934306DF
:100D7000B0E00E94DE33DC01CB01880D991DAA1D75
:100D8000BB1D8093450690934606A0934706B093FB
:100D9000480625E0EE0FFF1F2A95E1F7E150FE4FD0
:100DA000EF2FFF27E6958E0F9F1FA11DB11D80938A
:100DB000390690933A06A0933B06B0933C06809088
:100DC000930390909403B12CA12C8114910441F4CD
:100DD0008090A0039090A103A090A203B090A303E1
:100DE000C81AD90AEA0AFB0AC80CD91CEA1CFB1C5F
:100DF00004C0F694E794D794C794CA95D2F7C092EA
:100E00003406D0923506E0923606F092370685EF2A
:100E1000C8168FE0D806E104F10428F48CE0809332
:100E2000420681E00CCF80E125EFC2162FEFD206FB
:100E3000E104F104A0F38091AC039091AD03A09183
:100E4000AE03B091AF038093450690934606A093FE
:100E50004706B093480680E2E2CF4F925F926F92CE
:100E60007F928F929F92AF92BF92CF92DF92EF923A
:100E7000FF920F931F93CF93DF93EC014230510504
:100E80006105710590F480E0DF91CF911F910F9182
:100E9000FF90EF90DF90CF90BF90AF909F908F909A
:100EA0007F906F905F904F90089589859A85AB856C
:100EB000BC850196A11DB11D84179507A607B7072C
:100EC00010F3CB88DC88ED88FE888F89803109F0AB
:100ED00042C0BB27A72F962F852F480159012A0111
:100EE0003B01C80ED91EEA1EFB1E80910A0190919B
:100EF0000B01A0910C01B0910D01C816D906EA06AC
:100F0000FB0699F58F898031C1F5B301A201552700
:100F100066277727440F551F40585C4FFA0191828E
:100F200080828091AF0281608093AF028A89823093
:100F300080F08D819E81AF81B8858C0D9D1DAE1D89
:100F4000BF1D8093B0029093B102A093B202B09300
:100F5000B30281E099CFDB01CA01E7E0B695A7951E
:100F600097958795EA95D1F7B8CF40E0C701B601CC
:100F70000E94A1058111C6CF86CFB301A2014F7790
:100F8000552766277727440F551F440F551F405894
:100F90005C4FFA0180829182A282B382C2CF8F928B
:100FA0009F92AF92BF92CF92DF92EF92FF920F93F8
:100FB0001F93CF93DF93FC0181859285A385B48530
:100FC0000196A11DB11D84179507A607B70770F4F8
:100FD00080E0DF91CF911F910F91FF90EF90DF9014
:100FE000CF90BF90AF909F908F9008958388948802
:100FF000A588B6888789803189F5BB27A72F962FCA
:10100000852FE9016A017B018F01BC01CD01680DCB
:10101000791D8A1D9B1D80900A0190900B01A09064
:101020000C01B0900D0186169706A806B90601F5C9
:10103000F8018789803111F5DD24EE24FF24F601C3
:10104000EE0FFF1FE058FC4F80819181B0E0A0E0DF
:1010500088839983AA83BB8381E0BBCFDB01CA016C
:10106000C7E0B695A79597958795CA95D1F7C9CF4B
:1010700040E00E94A1058111DBCFAACFE894C7F818
:10108000DD24EE24FF24F601EE0FFF1FEE0FFF1FFD
:10109000E058FC4F80819181A281B381BF70D8CF8D
:1010A0004F925F926F927F92AF92BF92CF92DF92F8
:1010B000EF92FF920F931F93CF93DF9300D000D056
:1010C000CDB7DEB78C0149835A836B837C8359018A
:1010D000C12CD12C7601412C82E0582E612C712C30
:1010E00049815A816B817C819E012F5F3F4FC801EE
:1010F0000E94CF07882339F1F8018585A301920169
:1011000004C0220F331F441F551F8A95D2F7DA01FE
:10111000C901C80ED91EEA1EFB1E49815A816B8186
:101120007C818789803111F188EF9FEFAFEFBFE0BD
:10113000481759076A077B0798F2F501C082D182E8
:10114000E282F38281E00F900F900F900F90DF9179
:10115000CF911F910F91FF90EF90DF90CF90BF90B4
:10116000AF907F906F905F904F90089588EF9FEFC2
:10117000A0E0B0E0DDCFCF93DF93FC0125812223F7
:1011800021F080E0DF91CF910895EC01809142063B
:10119000803159F582E08583178A108E118E128E68
:1011A0008091430690914406B0E0A0E025E0880FCE
:1011B000991FAA1FBB1F2A95D1F7838B948BA58BF0
:1011C000B68B8BE296E09C8F8B8F81E08C831E82A6
:1011D0001F82188619861A861B861C861D861E8607
:1011E0001F86188A198A1A8ACDCF803251F683E079
:1011F000858340914506509146066091470670915F
:101200004806478B508F618F728F9F012D5E3F4F35
:101210008BE296E00E9450088111D3CFB2CF8F921B
:101220009F92AF92BF92CF92DF92EF92FF920F9375
:101230001F93CF93DF93EC018D8181110EC080E06D
:10124000DF91CF911F910F91FF90EF90DF90CF90A2
:10125000BF90AF909F908F9008950B891C892D8926
:101260003E89041715072607370748F34A015B0133
:10127000823031F48A869B86AC86BD8681E0E0CFE1
:1012800081149104A104B10449F41E821F821886BE
:1012900019861A861B861C861D86F0CF0A851B853B
:1012A0002C853D85EB8DFC8D858590E00996B901F7
:1012B000A8014150510961097109082E04C07695B1
:1012C0006795579547950A94D2F775016401E1E057
:1012D000CE1AD108E108F10804C0F694E794D79437
:1012E000C7948A95D2F7C416D506E606F70620F00D
:1012F000012B022B032B11F58F89988DA98DBA8DA7
:101300008E839F83A887B9878E010A5F1F4FC11400
:10131000D104E104F10409F4ADCF4E815F81688509
:10132000798598018B8D9C8D0E94CF0791E0C91A19
:10133000D108E108F1088111EACF81CFC41AD50A9A
:10134000E60AF70AE1CF3F924F925F926F927F9247
:101350008F929F92AF92BF92CF92DF92EF92FF92C5
:101360000F931F93CF93DF93CDB7DEB72C970FB6B4
:10137000F894DEBF0FBECDBF5C01DC015B968D90A3
:101380009C905C9716964D905D906D907C9019970F
:10139000411451046104710409F468C0BFEF4B1A91
:1013A0005B0A6B0A7B0A312CF40181859285A38547
:1013B000B4859C01AD012F5F3F4F4F4F5F4F298791
:1013C0003A874B875C87730162011D821E821F82F0
:1013D0001886F40181859285A385B4852D813E818F
:1013E0004F815885281739074A075B0708F056C010
:1013F00089859A85AB85BC858C159D05AE05BF0595
:1014000050F482E0C82ED12CE12CF12C92E0492E30
:10141000512C612C712C9E012F5F3F4FB701A6010B
:10142000C4010E94CF078823C9F189819A81AB81C9
:10143000BC81892B8A2B8B2B09F1260137019FEF69
:10144000491A590A690A790A2D813E814F815885C6
:101450002F5F3F4F4F4F5F4F2D833E834F83588702
:101460003FEFC31AD30AE30AF30AB3CFF401408073
:101470005180628073803324339496CFC414D50492
:10148000E604F70409F70FEF1FEF2FEF3FE0B70176
:10149000A601C4010E942D07811119C080E02C967D
:1014A0000FB6F894DEBF0FBECDBFDF91CF911F9175
:1014B0000F91FF90EF90DF90CF90BF90AF909F90F3
:1014C0008F907F906F905F904F903F900895D501DF
:1014D00016964D915D916D917C911997411551052D
:1014E0006105710539F097018601C4010E942D073D
:1014F0008823A1F2D5011696CD92DD92ED92FC9251
:101500001997332051F0D701C6010196A11DB11DD5
:10151000F40180839183A283B383F5018789908D41
:10152000A18DB28D892B8A2B8B2B39F48481C78AAC
:10153000D08EE18EF28E80688483F5018481806292
:10154000848381E0ACCF1F93CF93DF93FC0125818F
:10155000222371F1162FEC01848187FF1EC0CF0179
:101560000E94EB05FC01892B19F18D81823040F43A
:101570008B899C89AD89BE89848F958FA68FB78F03
:101580008F89988D938F828F8F89988DA98DBA8D31
:10159000B58BA48B8C818F778C83111103C08C81C8
:1015A0008F7E8C83812FDF91CF911F910C947605D4
:1015B00080E0DF91CF911F910895FF920F931F93C9
:1015C000CF93DF93EC018D81813041F090E080E09A
:1015D000DF91CF911F910F91FF9008958C8181FF32
:1015E000F5CF82FD1BC000917E0310917F03C801DF
:1015F0000E94CF030E94AE03F82EC8010E949C03F4
:101600008FEFF812E3CF8C8185FF1BC060E0CE0125
:101610000E94A30A8C818F7D8C83D8CF4B895C89F3
:101620006D897E898A859B85AC85BD8584179507E4
:10163000A607B707C1F2CE010E940F098111D3CFCF
:10164000C5CF4091B0025091B1026091B202709149
:10165000B302452B462B472B21F080E00E94520518
:10166000B5CF80618C832A853B85317080E092E024
:10167000821B930BADCFCF93DF93EC0161E00E940F
:10168000A30A882311F01D8281E0DF91CF91089594
:10169000CF92DF92EF92FF921F93CF93DF938091CF
:1016A0004E06882321F089E496E00E943B0B1092BD
:1016B0002A061092280610922506109224068AE027
:1016C000809323060E942902EB0161E080912306AA
:1016D0000E948D0161E0809123060E945F011FB787
:1016E000F89480917D03811127C0EFE2F1E08491AD
:1016F000E6E4F1E09491E82FF0E0EE0FFF1FEF5EDB
:10170000FE4FA591B491EC91E92321F461E08AE0C8
:101710000E945F0161E08AE00E948D018CB58061CA
:101720008CBD8CB580648CBD61E08DE00E948D0124
:1017300061E08BE00E948D0180917D038F5F80933B
:101740007D031FBF82E580931D0610921E068091C7
:101750001D0690911E060E94CC031AE08FEF0E9496
:10176000A7031150D9F78FE196E00E94CF0320E044
:1017700030E0A90160E08FE196E00E94E503182FB8
:1017800080932906813081F00E9429026C1B7D0B19
:10179000613D774060F381E0809324068FE196E01D
:1017A0000E949C0390E078C02AEA31E040E050E0DB
:1017B00068E08FE196E00E94E50382FF2AC0109363
:1017C0002A0680912A06C12CD12C7601823029F478
:1017D000C12CD12CE12C80E4F82E20E030E0A901CE
:1017E00067E38FE196E00E94E503A701960169E2B5
:1017F0008FE196E00E94E503809329068823C1F0DB
:101800000E9429026C1B7D0B613D774030F388E01C
:10181000C3CF14E00E94AE03809329061150D1F784
:101820008A3A11F082E0B8CF82E080932A06C9CFCD
:1018300080912A068230D1F420E030E0A9016AE3E9
:101840008FE196E00E94E503882311F086E0A4CFA3
:101850000E94AE03807C803C19F483E080932A06CA
:101860000E94AE030E94AE030E94AE038FE196E099
:101870000E949C0380E580931D0610921E0681E065
:101880000E940406882389F089E496E00E94BB0840
:1018900091E0882309F486CF892FDF91CF911F91A2
:1018A000FF90EF90DF90CF90089580E00E940406B3
:1018B000882309F477CFE8CF8F929F92AF92BF929F
:1018C000CF92DF92EF92FF92CF93DF93EC010E94D1
:1018D000A30981110CC080E0DF91CF91FF90EF90C0
:1018E000DF90CF90BF90AF909F908F900895EB8D39
:1018F000FC8DCE80DF80E884F98482E0C81AD108AC
:10190000E108F108858504C0CC0CDD1CEE1CFF1C31
:101910008A95D2F786859785A089B189C80ED91E88
:10192000EA1EFB1E848146015701880E911CA11CF2
:10193000B11CC814D904EA04FB04F9F081E0881A48
:101940009108A108B10881E00E947605882319F268
:10195000E0E8F3E0119285E0E038F807D9F78092EB
:101960000A0190920B01A0920C01B0920D0180919E
:10197000AF0281608093AF02DCCFEB8DFC8D2585BB
:1019800080E092E0A0E0B0E004C0880F991FAA1F99
:10199000BB1F2A95D2F74B895C896D897E89840F9C
:1019A000951FA61FB71F8B8B9C8BAD8BBE8B81E0C9
:1019B00093CF2F923F924F925F926F927F928F922E
:1019C0009F92AF92BF92CF92DF92EF92FF920F93CE
:1019D0001F93CF93DF9300D000D01F92CDB7DEB717
:1019E0007C015B01342E5D83DC0115968C9115978B
:1019F000813009F0CEC014962C9021FECAC022FC82
:101A0000B4C0C32CDD8022947FE027222094B22D25
:101A1000B1702B2ED7011A964D915D916D917C91ED
:101A20001D97C114D10409F428C15B968D919C9136
:101A30005C97FC0174807A948A019B0169E0369579
:101A40002795179507956A95D1F770228A0111702D
:101A5000711020C001151105E9F416964D915D91A4
:101A60006D917C911997411551056105710509F03A
:101A700099C057968D919D910D90BC91A02D009786
:101A8000A105B10509F0B0C0C7010E94A3098823D0
:101A900009F47FC080E092E0801B910B46018C1519
:101AA0009D0508F44C01D7015B964D915C915C97C4
:101AB00016968D919D910D90BC91A02D0297A10934
:101AC000B109FA01258504C0880F991FAA1FBB1F01
:101AD0002A95D2F74685578560897189840F951FAD
:101AE000A61FB71F9C01AD01270D311D411D511DC2
:101AF00029013A01811432E0930609F07BC08091FC
:101B00000A0190910B01A0910C01B0910D01841577
:101B10009505A605B70559F48FEF9FEFDC0180937B
:101B20000A0190930B01A0930C01B0930D01022DBB
:101B30009501B301A20180917E0390917F030E94E1
:101B4000E404882331F19EEFB91AC818D908F701C7
:101B500082859385A485B585880D991DA11DB11D2C
:101B600082879387A487B58755CFF7014389548926
:101B70006589768982859385A485B5854817590737
:101B80006A077B0709F43DCFC7010E940F09811145
:101B900038CF81E090E0D70113969C938E931297F3
:101BA00080E007C09E012F5F3F4F0E94CF07811149
:101BB00002C090E079C089819A81AB81BC81F70134
:101BC000238D348DF901278948EF5FEF60E070E0E5
:101BD000203121F048EF5FEF6FEF7FE0841795072A
:101BE000A607B70708F050CFF70186839783A08731
:101BF000B18750CF0115110599F5D7011A964D916E
:101C00005D916D917C911D9753968D919D910D9055
:101C1000BC91A02D481759076A077B0708F181E09E
:101C20000E947605882309F4B4CF40920A015092AD
:101C30000B0160920C0170920D018091AF028160E6
:101C40008093AF02C80180589C4FD5019C01280D9C
:101C5000391DFC012E173F0759F04D914193FACFE2
:101C600041E0C301B2010E94A1058111EBCF91CFE8
:101C7000281B390BA20EB31E68CFF7018389948904
:101C8000A589B68984179507A607B70738F4848114
:101C9000438B548B658B768B80688483F7018481BA
:101CA00083FD1AC0832D9D810F900F900F900F9090
:101CB0000F90DF91CF911F910F91FF90EF90DF90E8
:101CC000CF90BF90AF909F908F907F906F905F90DC
:101CD0004F903F902F90089561E0C7010E94A30AA2
:101CE000882309F456CFDECFCF93DF931F92CDB771
:101CF000DEB7698341E050E0BE016F5F7F4F0E9415
:101D0000D90C0F90DF91CF910895FC01DB01129661
:101D10008D919C911397938382838CE491E09183BE
:101D2000808314968C911497848315968C911597C3
:101D3000858316964D915D916D917C91199746839F
:101D40005783608771871A964D915D916D917C9153
:101D50001D9742875387648775871E964D915D91C5
:101D60006D917C91519746875787608B718B529606
:101D70008C915297828B53964D915D916D917C9190
:101D80005697438B548B658B768B57964D915D910F
:101D90006D917C915A97478B508F618F728F5B96B4
:101DA0008D919C91948F838F0895FC01818D928DEC
:101DB000009719F061E00C94A30A0895DC0159968C
:101DC000ED91FC913097B9F083899489A589B68902
:101DD0004285538564857585841B950BA60BB70BCF
:101DE000811520E89207A105B10538F08FEF9FE734
:101DF000A0E0B0E0089590E080E00895DC015996FD
:101E00008D919C91009739F0DC01ED91FC9104805B
:101E1000F581E02D099490E080E00895CF93DF9361
:101E2000EC01E98DFA8D309749F481E090E09B83D5
:101E30008A8390E080E0DF91CF910895138212822F
:101E4000898D9A8D0E94D90CE98DFA8D228133817A
:101E5000232B59F7F0CFCF93DF931F92CDB7DEB787
:101E60006983DC01ED91FC910280F381E02D41E07A
:101E700050E0BE016F5F7F4F09950F90DF91CF91CA
:101E800008952F923F924F925F926F927F928F921E
:101E90009F92AF92BF92CF92DF92EF92FF920F93F9
:101EA0001F93CF93DF9300D01F92CDB7DEB7FC0115
:101EB0008581811118C08FEF9FEF0F900F900F90C9
:101EC000DF91CF911F910F91FF90EF90DF90CF9016
:101ED000BF90AF909F908F907F906F905F904F904A
:101EE0003F902F900895848180FFE5CF43895489E6
:101EF0006589768982859385A485B585312C212CC9
:101F0000481759076A077B0719F022242394312CBC
:101F10006F012101CE0101963C01DF011696BB83C2
:101F2000AA834114510409F4C5C0F60142855385C2
:101F3000648575854A01F1E09F22D6015B968D91FB
:101F40009C915C978A019B01E9E03695279517954E
:101F50000795EA95D1F71596EC91E230E9F5FC0189
:101F6000628D738D848D958D600F711F821F931FFD
:101F7000A12C22E0B22EA818B9084A145B0408F478
:101F80005201F601248126FD04C0A114F2E0BF062F
:101F900071F400910A0110910B0120910C01309114
:101FA0000D01061717072807390709F05EC040E042
:101FB0000E94A105882309F47ECFC40180589C4F5C
:101FC000D3019C012A0D3B1DFC012E173F0709F48C
:101FD0006CC041914D93F9CFDC011496BC90BA943A
:101FE000B0228114910479F4B1100DC0452B462B19
:101FF000472B69F5F6018789908DA18DB28D868377
:102000009783A087B187D6015B96ED91FC915C9791
:1020100016966D917D918D919C91199762507109E1
:1020200081099109258504C0660F771F881F991FB4
:102030002A95D2F70685178520893189600F711F8F
:10204000821F931F6B0D711D811D911D91CFD601B4
:1020500016964D915D916D917C9119972A813B81E6
:102060000E94CF078111CFCF26CF73018501940144
:10207000AB01BC0180917E0390917F030E944204DA
:10208000882309F418CF6A0C7B1CF601828593859E
:10209000A485B5858A0D9B1DA11DB11D82879387DF
:1020A000A487B5874A185B083CCF281B390B620E02
:1020B000731EEBCF2A94232809F0FDCE898190E08E
:1020C000FCCEFC01818D928D009711F00C94410F94
:1020D0008FEF9FEF08950F931F93CF93DF93EC0142
:1020E000898D9A8D10E000E0009799F00E94410FD1
:1020F0008C010F3F100769F0898D9A8DFC01428594
:1021000053856485758541505109610971090E94A3
:102110000F09C801DF91CF911F910F9108950F937F
:102120001F930E942902609370067093710680933A
:1021300072069093730688E696E00E946B1097FFF4
:102140001DC00E9429020091700610917106209115
:10215000720630917306601B710B820B930B00911A
:102160006C0610916D0620916E0630916F06601717
:10217000710782079307F8F28FEF9FEF1F910F917E
:102180000895CF92DF92EF92FF92CF930E948F102B
:10219000FC0197FD4EC08D32910521F0C0970A9742
:1021A00008F040C0C12CD12C7601C0E0E130F1052F
:1021B000D1F0ED32F105D9F1CF01C0970A9798F42B
:1021C000AAE0B0E0A70196010E94DE336F01FF0F85
:1021D000EE08FF08C60ED71EE81EF91E80E3C81AD7
:1021E000D108E108F10888E696E00E9461100E949B
:1021F0008F10FC01C0970A97C8F2E130F105B1F2E7
:10220000CC2341F0F094E094D094C094C11CD11C34
:10221000E11CF11CC701B601CF91FF90EF90DF9058
:10222000CF90089588E696E00E946110AFCFC1E09C
:10223000DACFC12CD12C7601EDCF8FEF9FEF08952F
:1022400090E080E008950895EF92FF920F931F931E
:10225000CF93DF93DC015296ED90FC905397E114FD
:10226000F10479F481E090E013969C938E93129799
:1022700090E080E0DF91CF911F910F91FF90EF9060
:1022800008951D96ED91FC911E971C968C911C97BC
:10229000982F90950FB754962C915497122F127037
:1022A00021FD6095F8942081112319F1282B2083BA
:1022B000E7012197F1F728E0462F50E0308160FFD9
:1022C0001AC0382B3083E7012197F1F7BA017595D1
:1022D0006795215089F7112381F0808189238083BC
:1022E0000FBF52968D919C910197F1F781E090E09C
:1022F000C1CF2923DCCF3923E5CF9081892BEFCFC4
:1023000090E080E008950F931F93CF93DF9360E0F8
:1023100084E00E945F0160E082E10E945F0161E071
:1023200070E080E090E00E94F60161E082E10E94AE
:102330005F0161E070E080E090E00E94F60160E003
:1023400083E00E945F0161E070E080E090E00E9425
:10235000F60110E000E0C0912603D09127030C178E
:102360001D07CCF460E082E00E945F018AE090E00B
:102370000E94C90161E082E00E945F0161E070E0BB
:1023800080E090E00E94F60161E083E00E945F013E
:102390000F5F1F4FE0CF209771F460E082E10E9451
:1023A0005F0161E070E080E090E00E94F60161E092
:1023B00082E10E945F010E942902609312037093E0
:1023C0001303809314039093150381E08093160305
:1023D0001C161D0624F461E084E00E945F018091D8
:1023E0001401882319F081E08093BB021092170337
:1023F00010920E0310920D03DF91CF911F910F9158
:1024000008953F924F925F926F927F928F929F9228
:10241000AF92BF92CF92DF92EF92FF920F931F93F2
:10242000CF93DF9300D000D0CDB7DEB70E94290252
:1024300060936E0370936F038093700390937103A6
:1024400020911A0330911B033A83298300911803CA
:102450001091190380912603909127034090200347
:10246000309017035090BE02A0910703B09108036B
:1024700067EE72E07C836B832DE8A22E22E0B22E01
:1024800075016B0150E040E0F60161906F01712C25
:1024900030E020E04A01FFEF8F1A9F0AB301022EBD
:1024A00002C0759567950A94E2F760FF15C0F701C1
:1024B000608170E0022E02C0759567950A94E2F77C
:1024C00060FF05C069817A816130710529F4C4011A
:1024D000820F931F8C01412CA817B90729F0512CAA
:1024E000332433941A8219822F5F3F4FDC01283046
:1024F0003105A1F6485F5F4F7FEFE71AF70A4115F4
:10250000E1E05E0709F65093E6024093E50210937E
:10251000190300931803409220039093270380939C
:102520002603909308038093070329813A8130930F
:102530001B0320931A03309217035092BE025110CE
:1025400044C01092E6021092E50287EEE82E82E087
:10255000F82E77247394D12CC12C8090E5029090B2
:10256000E6023FEF831A930AF701808190E00C2C7A
:1025700002C0959587950A94E2F780FD13C008156F
:10258000190581F48091200381110CC07092200301
:102590000E94290260931C0370931D0380931E0305
:1025A00090931F039092E6028092E502FFEFCF1A0C
:1025B000DF0A28E0C216D10481F63FEFE31AF30ADE
:1025C00067E0E61663E0F60631F6EB81FC81819167
:1025D000FC83EB83F50181935F012B813C812750C4
:1025E000334099F70F900F900F900F90DF91CF919C
:1025F0001F910F91FF90EF90DF90CF90BF90AF9021
:102600009F908F907F906F905F904F903F90089534
:10261000809168039091690320916A03222331F02D
:10262000019690936903809368030895209119019E
:1026300030911A01820F931F90936903809368036E
:102640006091150170911601269FA001279F500DE2
:10265000369F500D11244817590724F4109269032E
:102660001092680308956091260370912703E7EEA6
:10267000F2E0A7ECB2E080E091E047E050E086179E
:102680009707B4F4278D30E0042E02C035952795C6
:102690000A94E2F720FF0CC09093E6028093E502D3
:1026A000909327038093260381E080931703089576
:1026B00001974150510918F73197AE17BF07E9F656
:1026C0009093E6028093E5027093270360932603BC
:1026D00010921703089580912603909127039093F9
:1026E00008038093070381E08093BE020E943313A6
:1026F00080911703811106C08091E5029091E60256
:10270000892B31F08091260390912703892B41F486
:1027100080E091E090932703809326030E94331377
:1027200020912603309127038091BC029091BD0235
:10273000821793073CF4109227031092260381E03E
:10274000809317030895A0912603B0912703609109
:10275000070370910803E7EEF2E090E080E050E0BC
:1027600040E08A179B0784F0208130E0042E02C0ED
:10277000359527950A94E2F720FF06C00196861743
:102780009707C1F4DB01CB0101964F5F5F4F4830E3
:10279000510539F7319623E0E730F20701F79093BE
:1027A000E6028093E502B0932703A09326031092DC
:1027B000170308959093E6028093E5029093270310
:1027C0008093260381E08093170308954F925F92D0
:1027D0006F927F928F929F92AF92BF92CF92DF9231
:1027E000EF92FF920F931F936C010E94D1012B0176
:1027F0005C014B01F12CE12C87E0C81AD108E108FB
:10280000F108F894439A88E090E00E94C901439847
:1028100078948AE1880E911CA11CB11C0E94D10100
:102820009B0124193509890130E020E00C151D05B4
:102830002E053F0534F4681579058A059B0570F36C
:10284000E0CF1F910F91FF90EF90DF90CF90BF905E
:10285000AF909F908F907F906F905F904F90089572
:102860008F929F92AF92BF92CF92DF92EF92FF92A0
:102870000F931F93CF93DF9300D000D0CDB7DEB777
:10288000FC018581813091F080E00F900F900F90D6
:102890000F90DF91CF911F910F91FF90EF90DF90FC
:1028A000CF90BF90AF909F908F900895848181FFCB
:1028B000EBCF83899489A589B689892B8A2B8B2BA9
:1028C00009F45FC07F0140E050E0BA01CF010E94EF
:1028D0000F098823C9F2F701C38CD48C8788908CA8
:1028E000A18CB28C82E090E0A0E0B0E0F6018083A1
:1028F0009183A283B3839E012F5F3F4FB501A40153
:10290000C6010E94CF07882309F4BECF00E010E083
:102910009801B501A401C6010E942D07882309F47E
:10292000B3CF89809A80AB80BC80F60187898031E3
:1029300019F188EF9FEFAFEFBFE088169906AA065E
:10294000BB06C8F2F701178A108E118E128E138AF9
:10295000148A158A168A84818068848361E0C7019D
:102960000E94A30A882309F48FCF40E050E0BA0107
:10297000C7010E940F0989CF88EF9FEFA0E0B0E068
:10298000DCCF81E082CFCF92DF92EF92FF921F9354
:10299000CF93DF93EC0180E2689FF0011124E058AF
:1029A000FC4F9385917161F0842F827449F080E02F
:1029B000DF91CF911F91FF90EF90DF90CF9008951E
:1029C000142F6A8B80910A0190910B01A0910C0148
:1029D000B0910D018E879F87A88BB98BC488D5884D
:1029E000F12CE12C7601DD24CC24CF8AD88EE98E1F
:1029F000FA8E828D938DB0E0A0E0AC01BD014C2930
:102A00005D296E297F294F8B588F698F7A8F838537
:102A1000887111F5848D958DA68DB78D8B8B9C8BD0
:102A2000AD8BBE8B81E08D83812F8F708C831E8256
:102A30001F82188619861A861B861C861D8681E0D1
:102A400016FFB6CFCE01DF91CF911F91FF90EF908F
:102A5000DF90CF900C943014803109F0A8CF9E0104
:102A60002D5E3F4F8B8D9C8D0E945008882309F46A
:102A70009ECF84E0D8CFFB0101900020E9F7319789
:102A8000AF01461B570BDC01ED91FC910280F381F5
:102A9000E02D09948F929F92AF92BF92EF92FF9296
:102AA0000F931F93CF93DF93CDB7DEB7A1970FB6E8
:102AB000F894DEBF0FBECDBF7C01FA01CB0119A295
:102AC000223008F42AE08E010F5D1F4F822E912CD8
:102AD000B12CA12CBF01A50194010E944334F9013E
:102AE000CA016A300CF5605DD8016E938D01232B0D
:102AF000242B252B79F790E080E0109721F0BD0181
:102B0000C7010E943B15A1960FB6F894DEBF0FBE19
:102B1000CDBFDF91CF911F910F91FF90EF90BF90AC
:102B2000AF909F908F900895695CDECFCF92DF9237
:102B3000EF92FF920F931F93CF93DF936B01770F69
:102B4000EE08FF084A30510511F52AE0F7FE20C0D3
:102B5000EC01E881F9810190F081E02D6DE20995A9
:102B60008C0144275527BA014C195D096E097F096C
:102B70002AE0CE010E944A15800F911FDF91CF916C
:102B80001F910F91FF90EF90DF90CF900895242F29
:102B9000B701A601DF91CF911F910F91FF90EF90A8
:102BA000DF90CF900C944A158091260390912703D3
:102BB000909308038093070381E08093BE026091A5
:102BC000170370E04AE050E080E895E00E94961517
:102BD0000E94A3136091170370E04AE050E080E880
:102BE00095E00E94961580911703811116C080917F
:102BF000E5029091E6028115914079F41092270345
:102C0000109226030E94A31380911703811105C01F
:102C10008091250381111092BE028091260390912C
:102C20002703892B19F481E080931703089568E73F
:102C300071E00C943B150C943B1581E080931B01D3
:102C400061E080E10E948D0160E080E10E945F010F
:102C500089E896E00E9417166BE771E089E896E034
:102C60000E941B1689E896E00C9417161092270311
:102C70001092260381E0809317030E94831162E083
:102C800080E10E948D0189E896E00E94171660E8B5
:102C900071E089E896E00E941B1689E896E00C94A2
:102CA00017168091810690918206009761F00E942C
:102CB0003B0B80918106909182060E941B351092F9
:102CC0008206109281060895CF93DF93EC018091E4
:102CD0008306909184060097E9F0688179816115F7
:102CE0007105B1F040918506509186062C813D8199
:102CF0004217530768F00E948B368C819D81909318
:102D00008806809387061D821C82DF91CF910895EB
:102D10000E941B3588819981909384068093830655
:102D20008A819B8190938606809385068C819D8104
:102D30009093880680938706198218821B821A82D4
:102D4000E2CFCF93DF93EC0188819981009711F056
:102D50000E941B35198218821D821C821B821A82D6
:102D6000DF91CF910895FC0180819181009711F04E
:102D70000C941B3508952091870630918806DC015C
:102D80001496ED91FC9115972E173F07B0F04091E6
:102D90008306509184064115510579F06D917C911F
:102DA0006115710551F02E1B3F0BCA01820F931F55
:102DB0000E94823621E0892B09F020E0822F0895BD
:102DC000FC01448155818091870690918806841783
:102DD000950780F08091830690918406009751F0CA
:102DE000608171816115710529F00E94923621E0A0
:102DF000892B09F020E0822F0895FC0180819181C8
:102E0000009711F00C94CF3060E070E0CB01089592
:102E10000F931F93CF93DF93EC01888199810097E3
:102E200059F02A813B812617370730F081E0DF9186
:102E3000CF911F910F9108958B016F5F7F4F0E947B
:102E4000A435009759F0998388831B830A832C81CA
:102E50003D81232B59F7FC011082E8CF80E0E7CFBA
:102E6000EF92FF920F931F93CF93DF93EC017B01BF
:102E7000198218821B821A821D821C82FB0101901A
:102E80000020E9F731978F01061B170BB8010E944C
:102E90000817811109C0CE01DF91CF911F910F91C9
:102EA000FF90EF900C94A1161D830C83B7018881CD
:102EB0009981DF91CF911F910F91FF90EF900C942A
:102EC0008B36BF92CF92DF92EF92FF920F931F93B8
:102ED000CF93DF937C016B018A014617570720F4DB
:102EE0008D2D6A01062F182F6AE771E0C7010E9435
:102EF0003017C0918706D0918806CC16DD0668F59C
:102F00000C171D0708F4E801E0918306F091840690
:102F1000EC0FFD1FB0801082009183061091840693
:102F20000C0D1D1D0115110571F0F8010190002017
:102F3000E9F731976F01C01AD10AB601C7010E94A3
:102F40000817811115C0C7010E94A1168091830640
:102F500090918406C80FD91FB882C701DF91CF9125
:102F60001F910F91FF90EF90DF90CF90BF90089549
:102F7000F701D582C482B801808191810E948B368D
:102F8000E5CFAF92BF92CF92DF92EF92FF920F9375
:102F90001F93CF93DF9300D0CDB7DEB78C015B01D9
:102FA000C42E6AE771E00E943017C5010E94370203
:102FB0000C2C000CDD0897FD24C0C816D90609F1B9
:102FC00089831A82F801E480F580FFEFEF1AFF0A87
:102FD000B701C8010E940817882379F0F801208101
:102FE000318184819581BE016F5F7F4F820F931F76
:102FF0000E948B36F801F582E482C5010E943702F7
:10300000DACFC8010F900F90DF91CF911F910F91F0
:10301000FF90EF90DF90CF90BF90AF9008959F9278
:10302000AF92BF92CF92DF92EF92FF920F931F93D6
:10303000CF93DF93CDB7DEB72B970FB6F894DEBFF3
:103040000FBECDBF7C01FC018581811115C0FE0141
:103050003196CE010C966F0130E231938E179F07A7
:10306000E1F7DA0130E087E09D91B92E992329F14B
:103070009E3239F48A3011F480E0D3C038E08AE01F
:10308000F3CFECE7F0E04491442321F03196941320
:10309000FACFF2CF831780F34FED490F4E3560F72B
:1030A0004FE9490F4A3118F440EEB42EB90EF6013B
:1030B000E30FF11DB0823F5FD7CF89818032E1F20B
:1030C000A22E8B01FB01838D948DF701948F838F4A
:1030D000FB011682178210861186128613861486CB
:1030E0001586F80182859385A485B5854389548921
:1030F0006589768984179507A607B70708F04CC03D
:1031000025E0B695A795979587952A95D1F7F82F3D
:10311000FF709F2EF8018581823008F4ADCFC80181
:103120000E94410F97FDA8CFF80182859385A48561
:10313000B5854F96A11DB11D82879387A487B5875A
:10314000F0E29F9EB001112460587C4F611571051B
:1031500009F492CFFB018081882341F0853E09F07C
:103160004EC0BB2029F0BB24B394BBCFB1100EC01E
:10317000F701928A80910A0190910B01A0910C01B4
:10318000B0910D0186879787A08BB18BFB01808161
:103190008111E9CFBB24B3948A2D8271823109F069
:1031A0006BCFBB2009F44FC0C7010E94EB0500970D
:1031B00009F462CF20E2FC0111922A95E9F72BE095
:1031C000F601DC0101900D922A95E1F721E238E247
:1031D000FC01318B208B40E058E057874687338BCA
:1031E000228B318F208F578B468B81E00E94760592
:1031F000882309F441CF4A2DF70162890FC04BE0C3
:1032000050E0C6010E946136892B09F06ACF8A2DF1
:1032100080734A2D692D803309F42ECFC7010E9497
:10322000C3142B960FB6F894DEBF0FBECDBFDF914F
:10323000CF911F910F91FF90EF90DF90CF90BF90B3
:10324000AF909F900895F8018581823009F414CFE2
:10325000C8010E945C0C882309F40ECFF701128A82
:1032600080E893E0A7CF5F926F927F928F929F92B8
:10327000AF92BF92CF92DF92EF92FF920F931F9384
:10328000CF93DF93CDB7DEB7C754D1090FB6F8940B
:10329000DEBF0FBECDBF5C013B0119A218A28CE4BA
:1032A00091E09F8F8E8F1BA21C821B829A83898341
:1032B0001E8210E000E06E018EE1C80ED11C89E490
:1032C000E82E86E0F82EF501E00FF11F80818F32A5
:1032D00011F40F5F1F4FD501A00FB11FFE01FB9628
:1032E00090E080E04F012D912F3249F0222339F0F8
:1032F0000F5F1F4F019621938C309105A1F7880D28
:10330000991DFC011082F501E00FF11F80818F32C1
:1033100011F40F5F1F4FF501E00FF11F508041E0E6
:10332000511040E030E020E0B401C701F3010995FD
:10333000811121C0F9E4EF16F6E0FF06C1F480E048
:10334000C95BDF4F0FB6F894DEBF0FBECDBFDF9174
:10335000CF911F910F91FF90EF90DF90CF90BF9092
:10336000AF909F908F907F906F905F900895C7016E
:103370000E943B0BE4CF552091F021E0A401B7015E
:10338000C6010E940F18982E89E4E81686E0F80618
:1033900081F0C7010E943B0B911010C0D0CF99E47F
:1033A000E91696E0F90619F0C7010E943B0B81E08F
:1033B000C7CF992021F2FE0131967F019E2D8F2DDE
:1033C0007601C92ED82E7FCF1F93CF93DF93CDB731
:1033D000DEB76D970FB6F894DEBF0FBECDBFAB0161
:1033E0001C821B822CE431E03A8329831E8221E077
:1033F000BC01CE0101960E940F1811E081110CC092
:1034000010E0812F6D960FB6F894DEBF0FBECDBFD2
:10341000DF91CF911F910895CE0101960E943B0B41
:10342000F0CFCF93DF93CDB7DEB76D970FB6F8949B
:10343000DEBF0FBECDBF442399F1AB01BC011C829E
:103440001B828CE491E09A8389831E8222E0CE0164
:1034500001960E940F1881110EC090E081E0911139
:1034600001C080E06D960FB6F894DEBF0FBECDBFF1
:10347000DF91CF910895CE0101960E9430148823E8
:1034800061F3CE0101960E94EB05009731F325EE22
:10349000FC0120831E8281E00E947605982FDECFFA
:1034A00081E0E0CF8F929F92AF92BF92EF92FF9216
:1034B0000F931F93CF93DF93CDB7DEB7ED970FB682
:1034C000F894DEBF0FBECDBF8C017B011CA21BA2F6
:1034D0008CE491E09AA389A31EA2C8010E94E4197A
:1034E0008111A0C023E3A701B801CE0181960E94FB
:1034F0000F18811116C090E081E0911101C080E0A9
:10350000ED960FB6F894DEBF0FBECDBFDF91CF9121
:103510001F910F91FF90EF90BF90AF909F908F9071
:10352000089581E08DA384E08EA3CE0181960E9450
:103530005C0C882301F361E0CE0181960E94A30A0E
:103540008823C9F2CE0181960E94EB05FC01892BEC
:1035500091F280E1838780E2DE01119601900D9265
:103560008A95E1F7FE013296CE010C9620E2219376
:10357000E817F907E1F78EE2F82EF982ECADFDAD20
:1035800068AD79AD8AAD9BAD625071098109910931
:10359000258504C0660F771F881F991F2A95D2F7CB
:1035A00086849784A088B188680D791D8A1D9B1D2B
:1035B00041E00E94A105882309F49DCF80E2FE012D
:1035C0003196A0E8B3E001900D928A95E1F7FA8276
:1035D000F80185818250823000F14789508D618DDC
:1035E000728DCA019B013E8B2D8B9C8F8B8F80E24D
:1035F000FE013196A0EAB3E001900D928A95E1F7C1
:1036000080E490E0A0E0B0E08BA79CA7ADA7BEA7A8
:1036100081E00E947605982F6FCF90E080E030E047
:1036200020E0E1CF81E06CCFEF92FF920F931F93E8
:10363000CF93DF93EC017B018A011B821A8288EE13
:1036400093E0A0E0B0E08C839D83AE83BF8388E5E8
:1036500091E0998388838DE190E00E947F349A8F76
:10366000898F009779F02DE1F701DC0101900D922F
:103670002A95E1F74CE050E0B801CE010C960E948B
:10368000A036188EDF91CF911F910F91FF90EF9090
:1036900008952F923F924F925F926F927F928F92F6
:1036A0009F92AF92BF92CF92DF92EF92FF920F93D1
:1036B0001F93CF93DF93CDB7DEB7C756D1090FB6AF
:1036C000F894DEBF0FBECDBF5C013B01A6964FAFA5
:1036D000A69719A218A28CE491E09F8F8E8F1BA24F
:1036E0001C821B829A8389831E824E018EE1880E82
:1036F000911CC4010E94BB0863018E010F5F1F4F24
:10370000240118016FE270E0C6010E94773600972D
:1037100009F459C0F60120812F3271F4FFEFCF1A5E
:10372000DF0A902F812F8201492E582E942D852D4E
:103730002801092F182FE6CF8C198D3008F08CE066
:10374000E82EF12CA701B601CE01885A9F4F0E94A6
:10375000A036E8E5F0E0EC0FFD1FEE0DFF1D108236
:10376000C8010E943B0B21E0AE01485A5F4FB201F5
:10377000C8010E940F18811120C01EAE1DAE8CE43E
:1037800091E09CAF8BAF21961FAE2197A896EEAD2E
:10379000FFADA8976E0E7F1EF3018081811120C0BE
:1037A000BE01655C7F4FC1010E94850E46E851E075
:1037B000B101C5010E94141B31C0CE0CDF1CC20137
:1037C0000E943B0BB3CFC60186199709A8969FAFFD
:1037D0008EAFA897B201CE01CB960E94850ED6CFB0
:1037E00019A218A28CE491E09F8F8E8F1BA22196C4
:1037F0008FAD219781112DC0F5011382128288EEC1
:1038000093E0A0E0B0E084839583A683B78388E546
:1038100091E091838083128E118E1486C501C9595F
:10382000DF4F0FB6F894DEBF0FBECDBFDF91CF9153
:103830001F910F91FF90EF90DF90CF90BF90AF90CE
:103840009F908F907F906F905F904F903F902F90C0
:103850000895A6962FADA697A301BE01655C7F4F84
:10386000C4010E940F18882339F2CE01CB960E9422
:103870003B0BA6968FADA6978670863039F449A982
:103880005AA96BA97CA9C4010E940F09B401C10106
:103890000E94850EA3018CCF1F93CF93DF93EC0181
:1038A000162F0E94C833181739F0612FCE01DF910F
:1038B000CF911F910C94D033DF91CF911F91089538
:1038C000CF93DF9361E080E10E948D0160E080E1B1
:1038D0000E945F01D0E0C0E06FEFCE010E944C1C5F
:1038E0002196CF3F81E0D807B9F76091BC0280E014
:1038F00092E00E944C1CCCE0D0E062E080E10E94AB
:103900008D0160E170E080E090E00E94F60161E0EE
:1039100080E10E948D0160E080E10E945F0160E132
:1039200070E080E090E00E94F601219731F762E0BC
:1039300080E10E948D0181E090E090937303809379
:1039400072031092E4021092E302C2E0D0E0809190
:10395000720390917303019709F082C08EE00E9478
:1039600036019093E4028093E3028091E302909108
:10397000E402892B99F38EE00E9436019093E402D1
:103980008093E3028091E3029091E402019759F55C
:1039900080916703882379F31092670361E083E1E4
:1039A0000E948D0160E083E10E945F0160916403E9
:1039B000862F90E090936303809362038FEF91E0F2
:1039C0000E944C1C60916503862F90E090936103E8
:1039D000809360038EEF91E00E944C1C62E083E1D3
:1039E0000E948D01C8CF8EE00E9436019093E402C0
:1039F0008093E3028091E3029091E402892B99F392
:103A000061E080E10E948D0160E080E10E945F0141
:103A100060E270E080E090E00E94F60162E080E108
:103A20000E948D01D0937303C093720390CF8EE0F8
:103A30000E9436019093E4028093E3028091E302B6
:103A40009091E402892B99F361E080E10E948D015D
:103A500060E080E10E945F01109273031092720394
:103A600080917203909173030297C1F58EE00E94DA
:103A700036019093E4028093E3028091E3029091F7
:103A8000E4020197A1F680916703882379F31092ED
:103A9000670361E083E10E948D0160E083E10E94A1
:103AA0005F0160916403862F90E09093630380939D
:103AB00062038DEF91E00E944C1C60916503862F9C
:103AC00090E090936103809360038CEF91E00E94FB
:103AD0004C1C62E083E10E948D01C8CF10927303F9
:103AE00010927203DF91CF9108950C94C8338091A6
:103AF0006A03882309F466C080910F039091100334
:103B0000892BB1F4809169038F93809168038F931F
:103B100088E891E09F938F938DE792E09F938F9336
:103B20000E94AF360F900F900F900F900F900F9054
:103B300080910F03909110030197B1F48091690374
:103B40008F93809168038F9386E991E09F938F9381
:103B50008DE792E09F938F930E94AF360F900F9066
:103B60000F900F900F900F90809127038F9380916B
:103B700026038F9383EA91E09F938F938CE293E0E7
:103B80009F938F930E94AF3640E250E06CE273E067
:103B90008CE393E00E94153140E250E066E871E06A
:103BA0008CE393E00E94F6300F900F900F900F90EF
:103BB0000F900F9040E250E06DE772E08CE393E0ED
:103BC0000C94F63020916803309169032F5F3F4FCA
:103BD0008091260390912703A901480F591F509304
:103BE0005F0340935E0386509F4F820F931F909315
:103BF0005D0380935C03493F510534F028EF30E0CA
:103C000030935F0320935E03833F914034F082EF53
:103C100091E090935D0380935C0308950F931F934D
:103C2000CF93DF930E94771D80916703882309F467
:103C3000FDC1C0917203D0917303209709F0F6C1C2
:103C40001092670361E083E10E948D0160E083E1EF
:103C50000E945F0162E083E10E948D018091110367
:103C6000882331F08FEF90E090930E0380930D0343
:103C700080911B01882309F4AAC1109164038FEF7E
:103C800091E00E94751D181308C0109165038EEF16
:103C900091E00E94751D181741F0809164038034F3
:103CA00089F5809165038B3069F5809166038130D9
:103CB00049F10E9429026093790270937A028093FD
:103CC0007B0290937C028091780281111BC021E0DD
:103CD0002093780220931703809126039091270365
:103CE000019690932703809326032093BE02209190
:103CF000BC023091BD022817390724F41092270323
:103D000010922603109164038DEF91E00E94751DBF
:103D1000181308C0109165038CEF91E00E94751D87
:103D2000181741F080916403803481F58091650318
:103D30008E3061F580916603813041F10E94290245
:103D40006093790270937A0280937B0290937C0255
:103D50008091780281111AC021E02093780220938B
:103D600017038091260390912703019790932703CF
:103D7000809326032093BE0297FF08C08091BC0267
:103D80009091BD0290932703809326038091640352
:103D90008034D9F4809165038131B9F48091660350
:103DA000813099F00E9429026093790270937A021F
:103DB00080937B0290937C0280917802811105C0F0
:103DC00081E0809378020E94D4158091640380344E
:103DD000D9F4809165038031B9F480916603813014
:103DE00099F00E9429026093790270937A0280937D
:103DF0007B0290937C0280917802811105C081E062
:103E0000809378020E946B1380916403803439F5AB
:103E1000809165038A3119F5809166038130F9F04C
:103E20000E9429026093790270937A0280937B0248
:103E300090937C0280917802811111C081E080937F
:103E4000780289E896E00E9417166EEA71E089E828
:103E500096E00E941B1689E896E00E941716809152
:103E60006403803439F580916503853419F58091B8
:103E700066038130F9F00E94290260937902709301
:103E80007A0280937B0290937C0280917802811168
:103E900011C081E08093780289E896E00E941716AD
:103EA00060EB71E089E896E00E941B1689E896E0D5
:103EB0000E94171680916403803439F58091650360
:103EC000823419F5809166038130F9F00E9429024D
:103ED0006093790270937A0280937B0290937C02C4
:103EE00080917802811111C081E08093780289E885
:103EF00096E00E94171662EB71E089E896E00E9456
:103F00001B1689E896E00E9417168091640380349E
:103F100001F5809165038334E1F48091660381307B
:103F2000C1F00E9429026093790270937A02809313
:103F30007B0290937C028091780281110AC081E01B
:103F40008093780290912503992309F4FFC0109281
:103F5000250311E0809164038034A9F52091650365
:103F6000FE01EE0FFF1FEE5DFE4F8081918128174D
:103F7000190649F50E9429026093790270937A022A
:103F800080937B0290937C020E94290260937402CA
:103F900070937502809376029093770280917802F5
:103FA000811111C010937802D0937302C0937202F2
:103FB00080917002909171020196909371028093AA
:103FC000700210936F022196CA30D10519F68091C4
:103FD0006403803459F5809165038D3439F58091FF
:103FE0006603813019F10E9429026093790270936F
:103FF0007A0280937B0290937C02809178028111F7
:1040000015C081E08093780290911B01992309F4F7
:10401000A0C010921B0180911B01811102C00E945F
:10402000361680911B0181110E941D160E942902E3
:104030000091790210917A0220917B0230917C02EA
:10404000601B710B820B930B6E3771058105910517
:1040500010F010927802809170029091710281307C
:10406000910509F079C080916F02882351F0809109
:1040700072029091730290936E0280936D0210927F
:104080006F020E9429020091740210917502209122
:10409000760230917702601B710B820B930B6132B9
:1040A00073408105910508F44CC080917002909195
:1040B0007102181619060CF044C010927102109289
:1040C00070022091690230916A0244E6429FC00169
:1040D000439F900D112440916B0250916C026AE055
:1040E000649F9001659F300D1124820F931F2091D2
:1040F0006D0230916E02820F931F90937302809332
:10410000720210926E0210926D0210926C02109266
:104110006B0210926A021092690221E02093170349
:1041200090932703809326032093BE022091BC0224
:104130003091BD022817390724F4309327032093C8
:104140002603DF91CF911F910F910895809325034E
:1041500000CF80931B015FCF8230910571F4809175
:104160006F02882309F48DCF80916D0290916E02C9
:1041700090936C0280936B027ACF8330910571F437
:1041800080916F02882309F47CCF80916B0290911B
:104190006C0290936A0280936902E6CF04970CF454
:1041A00070CF80916F02882309F46BCF80917202E7
:1041B0009091730290936E0280936D0210926C0244
:1041C00010926B0210926A021092690281E090E0F4
:1041D000909371028093700252CF2F923F924F9230
:1041E0005F926F927F928F929F92AF92BF92CF9287
:1041F000DF92EF92FF920F931F93CF93DF93CDB790
:10420000DEB72E970FB6F894DEBF0FBECDBF8091FC
:104210000F0390911003892B09F092C06CE670E0B7
:1042200080E895E00E9465028091600390916103AF
:10423000409734F46AE670E080E895E00E946502F9
:10424000609160037091610340E150E080E895E087
:104250000E9496158091620390916303409734F415
:1042600068E670E080E895E00E9465026091620374
:104270007091630340E150E080E895E00E9496155C
:1042800080E895E00E9417160E9429026093BF0201
:104290007093C0028093C1029093C2023090600379
:1042A00090916103032D192F209162032B8380913C
:1042B00063032D878E873B9A34E03983432D4095E5
:1042C0004F833886998720952A875D855B878C8701
:1042D0009EE6892E912CA12CB12C0E9429022B0143
:1042E0003C0180E093E20E94E6138981843009F466
:1042F0004AC080EC98E00E94C90180E392E00E94ED
:10430000E6134981415049834423C1F00E942902A8
:10431000DC01CB0184199509A609B7098E369105F0
:10432000A105B105D0F6A5019401281B390B4A0B54
:104330005B0BCA01B9010E94F601CFCF0E940E1E8D
:104340000E942902609328037093290380932A0313
:1043500090932B032E960FB6F894DEBF0FBECDBF01
:10436000DF91CF911F910F91FF90EF90DF90CF9051
:10437000BF90AF909F908F907F906F905F904F9085
:104380003F902F90089580E891E10E94C9012D850A
:104390003E852F3F310561F158F12B843C853C83EC
:1043A0000F3F110549F140F158855D8389858E8362
:1043B00020E22A8380E392E00E94E613C22CDC8094
:1043C000ED80FE8080E996E020FC02C080E392E070
:1043D0000E94C901F694E794D794C7942C2CDC82F0
:1043E000ED82FE823A8131503A833111E3CF85CF9D
:1043F0002B804A854C83D4CF3D829F819E83D8CF2A
:104400000F931F93CF93DF9380916D0380936C0381
:1044100010926D038EE00E9436019093E402809327
:10442000E302892B19F481E080936D0380911B01D5
:1044300081110AC00E942902609328037093290306
:1044400080932A0390932B03C0916D03C1110AC07E
:104450000E942902609328037093290380932A0302
:1044600090932B038091720390917303892B09F031
:1044700060C0CC2309F45FC00E9429020091280388
:104480001091290320912A0330912B03601B710B9B
:10449000820B930B693B7B408105910530F081E0F5
:1044A00090E090937303809372030E94290200911D
:1044B00028031091290320912A0330912B03601BBC
:1044C000710B820B930B613177428105910508F4E2
:1044D000B7C080916A0381114FC010926903109296
:1044E0006803D0E0C0E080911501909116018C170F
:1044F0009D070CF46EC00E94771D61E080E10E9470
:104500008D0160E080E10E945F016FEF80915E03AA
:1045100090915F030E944C1C6FEF80915C0390911F
:104520005D030E944C1C0E940E1E0E9408132196DF
:10453000DACFC111BACF80916C03882309F485C00A
:104540008091720390917303892B09F07EC0809152
:104550006B0381117AC080911B01811102C00E94FE
:104560001D168091BA02882309F474C0DF91CF919F
:104570001F910F910C94D4150E94480B81E090E09C
:1045800090936903809368030E94771D809168036C
:1045900090916903892BC9F061E17AE18CE393E0A2
:1045A0000E9433198091680390916903019690935A
:1045B0006903809368030E94771D64EE79E18CE3C0
:1045C00093E00E9433198111E1CF89E496E00E94C3
:1045D0003B0BCCE0D0E062E080E10E948D0160E125
:1045E00070E080E090E00E94F60161E080E10E94CE
:1045F0008D0160E080E10E945F0160E170E080E099
:1046000090E00E94F601219731F710927303109207
:1046100072038091260390912703019790932703BB
:104620008093260310926903109268030E94290266
:10463000609328037093290380932A0390932B039C
:1046400080916D03882309F476CFDF91CF911F917C
:104650000F91089521E020931703809126039091F4
:104660002703019690932703809326032093BE028D
:104670002091BC023091BD022817390734F71092FF
:10468000270310922603E1CF80911103882341F084
:104690008FEF90E090930E0380930D030C94002213
:1046A00008951F920F920FB60F9211242F933F93EC
:1046B0008F939F93AF93BF938091750390917603EF
:1046C000A0917703B09178033091740323E0230F16
:1046D0002D3768F126E8230F0296A11DB11D209306
:1046E00074038093750390937603A0937703B0933C
:1046F00078038091790390917A03A0917B03B09124
:104700007C030196A11DB11D8093790390937A03D8
:10471000A0937B03B0937C03BF91AF919F918F9146
:104720003F912F910F900FBE0F901F9018950196FB
:10473000A11DB11DD4CF1F920F920FB60F9211245D
:104740002F933F934F935F936F937F938F939F9399
:10475000AF93BF93EF93FF9380E895E00E94070328
:10476000FF91EF91BF91AF919F918F917F916F9149
:104770005F914F913F912F910F900FBE0F901F901F
:1047800018951F920F920FB60F9211242F938F93AB
:104790009F93EF93FF93E0919005F09191058081B5
:1047A000E0919605F091970582FD1BC09081809164
:1047B00099058F5F8F7320919A05821741F0E091E0
:1047C0009905F0E0E058FA4F958F80939905FF9195
:1047D000EF919F918F912F910F900FBE0F901F908F
:1047E00018958081F4CF1F920F920FB60F9211246B
:1047F0002F933F934F935F936F937F938F939F93E9
:10480000AF93BF93CF93EF93FF9386B1C091B5025F
:104810009091B802C923982F9095C9238093B5022F
:10482000C0FF05C0E0910E01F0910F010995C1FF95
:1048300005C0E0910001F09101010995C2FF05C09A
:10484000E0910201F09103010995C3FF05C0E091D9
:104850000401F09105010995C4FF05C0E09106012E
:10486000F09107010995C5FF05C0E0910801F0919D
:1048700009010995FF91EF91CF91BF91AF919F9160
:104880008F917F916F915F914F913F912F910F90F9
:104890000FBE0F901F9018951F920F920FB60F9298
:1048A00011240F931F932F933F934F935F936F9315
:1048B0007F938F939F93AF93BF93CF93EF93FF9388
:1048C000C3B10E94D1018B019C0180915A02909149
:1048D0005B02A0915C02B0915D02B901A801481B86
:1048E000590B6A0B7B0BCA0100935A0210935B02AF
:1048F00020935C0230935D0220915E02C1FD88C06E
:10490000413066E4560710F4211119C01092680274
:1049100081E080935E02FF91EF91CF91BF91AF91C3
:104920009F918F917F916F915F914F913F912F91C7
:104930001F910F910F900FBE0F901F90189522306E
:1049400069F59C0120523D40213C3840C0F4109252
:104950005F02109264021092650210926602109239
:10496000670281E090E0A0E0B0E080936002909365
:104970006102A0936202B093630283E0CACF8059C0
:1049800096408136944008F07FC080915F0280326B
:1049900008F47AC081E080936802EFCF243009F0F8
:1049A00073C088519140813C984008F06DC080915F
:1049B000600290916102A0916202B0916302403660
:1049C0005440A0F0409164025091650260916602EB
:1049D00070916702482B592B6A2B7B2B4093640202
:1049E000509365026093660270936702880F991F67
:1049F000AA1FBB1F8093600290936102A093620282
:104A0000B093630280915F028F5F80935F02B5CFA6
:104A1000213039F480549A4181389141A8F582E0DF
:104A200078CF233089F5885191408133924060F5E9
:104A300080915F02803220F48091680280FF26C05E
:104A400080916502809590916402981719F084E036
:104A50008093680280916702809590916602981712
:104A600019F084E080936802789481E08093670372
:104A7000809168028093660380916402809364034E
:104A8000809166028093650380E043CF84E041CF4C
:104A9000CF92DF92EF92FF92CF93DF93E0E8F5E0C1
:104AA0001382128288EEC82E83E0D82EE12CF12CDE
:104AB000C482D582E682F7828AE391E09183808383
:104AC00085EC90E09587848784EC90E097878687D3
:104AD00080EC90E0918B808B81EC90E0938B828BCB
:104AE00082EC90E0958B848B86EC90E0978B868BA4
:104AF000118E128E138E148EEDE1F6E080E5808328
:104B00001182EFE1F6E0158216821186138682E0AB
:104B100090E0A0E0B0E084879587A687B78713A2CE
:104B200015A614A68CE491E093A782A717A6C9E85E
:104B3000D6E01B821A82CC82DD82EE82FF828AE678
:104B400091E0998388831B8A1A8AEDE9F6E06081F7
:104B50006D7F60836695617081E0682786E00E94C2
:104B60005F0161E086E00E948D01E2E4F1E0E49102
:104B7000EC87EBE2F1E0E491F0E0EE0FFF1FE55E81
:104B8000FE4F859194919E878D876AE771E083E857
:104B900096E00E943017E8E6F6E013821282C482A3
:104BA000D582E682F78288E591E091838083128E38
:104BB000118E1486DF91CF91FF90EF90DF90CF9010
:104BC0000895CF93DF93CDB7DEB7A1970FB6F894D2
:104BD000DEBF0FBECDBF789484B5836084BD85B53C
:104BE000836085BD80916E00816080936E0082E05D
:104BF0008093810080918100816080938100809109
:104C000080008160809380008091B10084608093F7
:104C1000B1008091B00081608093B00087E88093FC
:104C20007A001092C10040EF5DE761EF7DE7A2EFEF
:104C3000BDE703EF1DE7E4EFEE2EEDE7FE2EF5EF07
:104C4000CF2EFDE7DF2E86EFA82E8DE7B82E27EFBB
:104C50003DE7FA0184918335E1F7FB0184918635C4
:104C6000C1F7FD0184918335A1F7F8018491803269
:104C700081F7F7018491823461F7F60184918134E0
:104C800041F7F5018491823421F7F9018491893546
:104C900001F70E94290260936E0370936F03809363
:104CA00070039093710362E08EE00E948D0161E0D9
:104CB00080E10E948D0162E083E10E948D0161E04C
:104CC00082E10E948D0161E082E00E948D0161E03D
:104CD00083E00E948D0161E084E00E948D0161E02B
:104CE00087E00E948D0161E086E00E948D0161E015
:104CF00085E00E948D0160E088E00E948D0162E005
:104D00008FE00E948D0160E084E00E945F0160E01E
:104D100082E00E945F0160E083E00E945F0160E04A
:104D200082E10E945F0161E070E080E090E00E941B
:104D3000F60161E082E10E945F0160E083E00E9491
:104D40005F0160E080E10E945F0160E085E00E9419
:104D50005F0160E087E00E945F0160E086E00E9402
:104D60005F0161E070E080E090E00E94F60161E0A8
:104D700086E00E945F01E0919005F091910582E04C
:104D80008083E0918C05F0918D051082E0918E0575
:104D9000F0918F058FEC808310929805E091940537
:104DA000F091950586E08083E0919205F09193055E
:104DB000808188698083E0919205F09193058081DC
:104DC0008F7D808321988091680081608093680046
:104DD000E5E4F1E0E491E0936B000E94480B81115F
:104DE000D8C064EB71E080E895E00E943B1580E854
:104DF00095E00E94171610926A0389E496E00E94DB
:104E00003B0B64E670E080E090E00E94F6016CE805
:104E100070E080E895E00E9465022AE041E050E001
:104E200060E070E080E895E00E944A156EE280E85C
:104E300095E00E9429032AE041E050E060E070E044
:104E400080E895E00E944A152AE046E050E060E0E4
:104E500070E080E895E00E944A1564E670E080E02A
:104E600090E00E94F6016AE180E895E00E94290343
:104E700080E895E00E94171669EC71E080E895E003
:104E80000E941B1640911001509111016091120176
:104E9000709113012AE080E895E00E944A1580E8AD
:104EA00095E00E94171611E08091BC029091BD021E
:104EB000892B09F0CAC0E0902603F0902703670110
:104EC000FFEFCF1ADF0AD0922703C0922603109378
:104ED000170361E082E00E945F0161E083E00E94CD
:104EE0005F0161E070E080E090E00E94F6018FE0F9
:104EF0000E9436019093E4028093E302019709F047
:104F00009FC061E083E10E948D0160E083E10E9427
:104F10005F01F092BD02E092BC0229EFE216F104BB
:104F2000E4F760E082E00E945F0161E070E080E011
:104F300090E00E94F60161E070E080E090E00E9465
:104F4000F60189EFC816D1040CF4AECF62E080E11F
:104F50000E948D0161E083E10E948D0160E083E1A8
:104F60000E945F0164EF71E080E090E00E94F60132
:104F700062E083E10E948D0161E080E10E948D0189
:104F800060E080E10E945F0164EF71E080E090E00A
:104F9000D6CF81E080936A0341E06FEB71E0CE01F0
:104FA00001960E94491BCE0101960E94D60011E095
:104FB00088E696E00E94DE0E892B09F41ECF4DE0B4
:104FC00068E676E0CE0101960E94C117CE010196F7
:104FD0000E946416CE0101960E94B31667EC71E040
:104FE000CE0101960E943017CE0101960E94BB1699
:104FF000F82ECE0101960E94B316F1101093BA025A
:105000000E94C11070931801609317010E94C11093
:105010006093090370930A0380930B0390930C032E
:10502000611571058105910541F060931001709340
:10503000110180931201909313010E945116B8CF71
:1050400062E083E10E948D016CCF61E070E080E05E
:1050500090E00E94F601109227031092260381E04F
:105060008093170362E083E10E948D0160E086E097
:105070000E945F0160E170E080E090E00E94F60134
:1050800061E086E00E945F0180E092E00E94751D71
:1050900090E09093E4028093E3026091E3027091C8
:1050A000E4028091BC029091BD026817790709F46F
:1050B000A0C0F12CE12C8091E3029091E402E8166B
:1050C000F9060CF072C061E080E10E948D0160E0A1
:1050D00080E10E945F010E9429024B015C018092E5
:1050E000280390922903A0922A03B0922B030E94D6
:1050F0002902681979098A099B096C327140810576
:10510000910578F48EE00E943601892B81F70E9488
:10511000601C8091BC029091BD029093E402809348
:10512000E3022091E3023091E4028091BC0290916D
:10513000BD0228173907C9F162E080E10E948D01A4
:105140000E9429024B015C0180922803909229035E
:10515000A0922A03B0922B030E94290268197909B0
:105160008A099B09683C71058105910578F48EE0F8
:105170000E943601892B81F70E94601C8091BC023D
:105180009091BD029093E4028093E3022091E302A8
:105190003091E4028091BC029091BD02281739073A
:1051A00021F0FFEFEF1AFF0A86CF0E9429026B0160
:1051B0007C01C0922803D0922903E0922A03F09246
:1051C0002B030E9429026C197D098E099F09683EF4
:1051D00073408105910508F060CF8EE00E94360192
:1051E000892B79F70E94601C8091BC029091BD02CE
:1051F00050CF80E092E00E944C1C6091BC02709104
:10520000BD026F5F7F4F70931A01609319018AEF9F
:1052100090E00E942F3461507109709316016093E1
:1052200015010E9429026B017C01C0922803D092D3
:105230002903E0922A03F0922B038EE00E943601AC
:10524000892B89F462E080E10E948D010E9429028D
:105250006C197D098E099F0961317742810591059D
:1052600060F30E94601C61E080E10E948D0160E0BB
:1052700080E10E945F010E942902609328037093DD
:10528000290380932A0390932B030E9429026093A1
:10529000120370931303809314039093150381E01A
:1052A000809316038DE991E090939C0680939B0672
:1052B00084E493E290930F0180930E018091B802F1
:1052C00081608093B80286B18093B50280916C00B2
:1052D000816080936C008091680082608093680098
:1052E000412C512C3201439411E080E895E00E945A
:1052F000E702892B09F486C24AE060E875E0CE0136
:1053000001960E94C117CE0101960E946416CE013B
:1053100001960E94B316A0908306B0908406A11453
:10532000B10449F0E0908706F09088066501E11429
:10533000F10409F0DEC36DEC71E0CE0101960E942C
:105340003017CE0101960E94E016F82ECE0101968C
:105350000E94B316FF20B1F1409187065091880654
:1053600061E070E0CE0101960E946117CE010196C6
:105370000E94FD16CB010E94751D482F50E070E081
:1053800060E02AE080E895E00E944A1580E895E018
:105390000E941716CE0101960E94B3160E942902A0
:1053A0006093BF027093C0028093C1029093C202C7
:1053B0000E942902609312037093130380931403D5
:1053C000909315036FEC71E0CE0101960E943017A7
:1053D000CE0101960E94E016F82ECE0101960E94A1
:1053E000B316FF20C9F144E050E061E070E0CE0167
:1053F00001960E946117CE0101960E94FD16F62EBD
:1054000047E050E064E070E0CE014C960E946117E6
:10541000CE014C960E94FD16CB016F2D0E944C1CB4
:10542000CE014C960E94B316CE0101960E94B3168F
:105430000E9429026093BF027093C0028093C10250
:105440009093C2020E942902609312037093130387
:10545000809314039093150361ED71E0CE010196E2
:105460000E943017CE0101960E94BB16F82ECE0185
:1054700001960E94B316F1100E941D1666ED71E0B0
:10548000CE0101960E943017CE0101960E94BB16F4
:10549000F82ECE0101960E94B316F1100E94361626
:1054A00080911B01882309F4ADC16CED71E0CE0140
:1054B00001960E943017CE0101960E94BB16F82E6D
:1054C000CE0101960E94B316FF20C1F0109317037E
:1054D0008091260390912703019690932703809350
:1054E00026031093BE022091BC023091BD02281702
:1054F000390724F4109227031092260361EE71E01D
:10550000CE0101960E943017CE0101960E94BB1673
:10551000F82ECE0101960E94B316FF20B9F0109329
:1055200017038091260390912703019790932703F7
:10553000809326031093BE0297FF08C08091BC029F
:105540009091BD02909327038093260368EE71E04B
:10555000CE0101960E943017CE0101960E94BB1623
:10556000F82ECE0101960E94B316F1100E94D415B8
:105570006DEE71E0CE0101960E943017CE010196CA
:105580000E94BB16F82ECE0101960E94B316F110B0
:105590000E946B1364EF71E0CE0101960E943017F8
:1055A000CE0101960E94E016F82ECE0101960E94CF
:1055B000B316FF2029F1409187065091880661E1DA
:1055C00070E0CE0101960E946117CE0101960E9403
:1055D000FD1670932703609326031093170310930F
:1055E000BE022091BC023091BD022617370724F479
:1055F0003093270320932603CE0101960E94B31611
:105600006BEF71E0CE0101960E943017CE0101963A
:105610000E94BB16F82ECE0101960E94B316FF2001
:1056200071F089E896E00E94171660E072E089E860
:1056300096E00E941B1689E896E00E94171665E026
:1056400072E0CE0101960E943017CE0101960E94B1
:10565000BB16F82ECE0101960E94B316FF2071F002
:1056600089E896E00E9417166BE072E089E896E000
:105670000E941B1689E896E00E94171661E172E00D
:10568000CE0101960E943017CE0101960E94BB16F2
:10569000F82ECE0101960E94B316FF2071F089E822
:1056A00096E00E94171666E172E089E896E00E9493
:1056B0001B1689E896E00E9417166BE172E0CE0196
:1056C00001960E943017CE0101960E94BB16F82E5B
:1056D000CE0101960E94B316FF2071F089E896E092
:1056E0000E94171661E272E089E896E00E941B169C
:1056F00089E896E00E94171667E272E0CE010196F3
:105700000E943017CE0101960E94BB16F82ECE01E2
:1057100001960E94B316FF2071F089E896E00E947E
:1057200017166CE272E089E896E00E941B1689E881
:1057300096E00E94171661E372E0CE0101960E9486
:105740003017CE0101960E94BB16F82ECE010196AD
:105750000E94B316FF2071F089E896E00E941716A8
:1057600067E372E089E896E00E941B1689E896E0FC
:105770000E9417166DE372E0CE0101960E94301769
:10578000CE0101960E94BB16F82ECE0101960E9412
:10579000B316F1101092BE0263E472E0CE010196DE
:1057A0000E943017CE0101960E94BB16F82ECE0142
:1057B00001960E94B316F1101093BE0268E472E0E5
:1057C000CE0101960E943017CE0101960E94BB16B1
:1057D000F82ECE0101960E94B316F1101093250306
:1057E0006DE472E0CE0101960E943017CE01019661
:1057F0000E94BB16F82ECE0101960E94B316F1103E
:10580000109225031093140180911B01882309F441
:1058100073C00E942902C090BF02D090C002E090E5
:10582000C102F090C2026C197D098E099F09613D89
:1058300077408105910528F48091BB02882309F403
:105840005BC066EB70E080E895E00E9465026091C5
:10585000BC027091BD024AE050E080E895E00E94F1
:10586000961580E895E00E9417168091BB02882368
:1058700009F47DC11092BB020E9429026093BF020D
:105880007093C0028093C1029093C20267EA70E0F5
:1058900080E895E00E94650289E896E00E9417166C
:1058A00063E572E089E896E00E941B16609126038A
:1058B000709127034AE050E089E896E00E9496152F
:1058C00060912603709127034AE050E080E895E05C
:1058D0000E94961580E895E00E94171689E896E0E8
:1058E0000E9417160E9429026093BF027093C002A3
:1058F0008093C1029093C2020E940E1E80911B01F0
:10590000882309F49DC080912603909127039093EA
:1059100008038093070347EE842E42E0942E64012F
:10592000F60111926F0187E093E08E179F07C1F790
:1059300060E086E00E945F0161E070E080E090E05E
:105940000E94F60161E086E00E945F0161E085E06F
:105950000E945F0160E170E080E090E00E94F6014B
:1059600060E085E00E945F011092E6021092E5027D
:1059700037EEE32E32E0F32EB12CA12C88E00E940A
:1059800036019093E4028093E302019771F4F701EA
:105990002081D301C2010A2C04C0880F991FAA1FBD
:1059A000BB1F0A94D2F7822B80838091E5029091ED
:1059B000E60201969093E6028093E50261E087E0BB
:1059C0000E945F018AE090E00E94C90160E087E0E8
:1059D0000E945F01FFEFAF1ABF0A28E0A216B104D0
:1059E00069F68FEFE81AF80AEC14FD0429F693EC37
:1059F000292E92E0392E27EEA22E22E0B22E61014E
:105A0000F60191916F01F50181915F01981751F0B5
:105A10000E94290260936E0370936F03809370035A
:105A200090937103F2EECF16F2E0DF0649F7F4012E
:105A300081914F01F10181931F01E814F904B9F735
:105A40000E94002280911B01882309F4F0C28091FA
:105A5000720390917303019709F091C162E080E1B4
:105A60000E948D0180916D038111B6C080916C03FD
:105A7000882309F4B1C0F0906B0364E670E080E025
:105A800090E00E94F601FF2009F478C080916A033B
:105A9000811157C30E940813F12CE12C80916803F7
:105AA000909169036091190170911A010E942F343D
:105AB0006E157F050CF462C06AEF70E080E090E044
:105AC0000E94F60161E080E10E948D0160E080E1CA
:105AD0000E945F0162E370E080E090E00E94F601C6
